S01600004652454552544F535F5348454C4C2E73726563CD
S11300000C94A9020C94DF020C94DF020C94DF021E
S11300100C94DF020C94DF020C94DF020C94DF02D8
S11300200C94DF020C94DF020C94DF020C94DF02C8
S11300300C94DF020C94DF020C94DF020C94DF02B8
S11300400C94DF020C94DF020C94DF020C94DF02A8
S11300500C94DF020C94DF020C94DF020C94DF0298
S11300600C94DF020C94571C0C94DF020C94DF02F6
S11300700C94B51C0C94DF020C94DF020C94DF0288
S11300800C94DF020C94DF020C94DF020C94DF0268
S11300900C94DF020C94DF020C94DF020C94DF0258
S11300A00C94DF020C94DF020C94DF020C94DF0248
S11300B00C94DF020C94DF020C94DF020C94DF0238
S11300C00C94DF020C94480C0C94DF020C94DF02B5
S11300D00C94DF020C94DF020C94DF020C94DF0218
S11300E00C94DF020C94DF020C94CF1D0C94DF02FD
S11300F00C94DF020C94DF020C94DF020C94DF02F8
S11301000C94DF020C94DF020C94DF020C94DF02E7
S11301100C94DF020C94DF020C94DF020C94DF02D7
S11301200C94DF020C94DF020C94DF020C94DF02C7
S11301300C94DF020C94DF020C94DF020C94DF02B7
S11301400C94DF020C94DF020C94DF020C94DF02A7
S11301500C94DF020C94DF020C94DF020C94DF0297
S11301600C94131D0C94DF020C94DF020C94711D8B
S11301700C94DF020C94DF020C94DF020C94DF0277
S11301800C94DF020C94DF020C94DF020C94DF0267
S11301900C94DF020C94DF020C94DF020C94DF0257
S11301A00C94DF020C94DF020C94DF020C94DF0247
S11301B00C94DF020C94DF020C94DF020C94DF0237
S11301C00C94DF020C94DF020C94DF020C94DF0227
S11301D00C94DF020C94DF020C94DF020C94DF0217
S11301E00C94DF020C94DF020C94DF020C94DF0207
S11301F00C94DF020C94DF020C94DF021A1A1D1A0D
S1130200201A231A261A291A2B1A3C1A441A4E1A8F
S11302104C1A0C94BB1B0C94DC1E0C941A1A0C94F0
S113022045170C94C5190C94BF190C9424080C940C
S11302301D1A0C94C2190C94C4190C944E1A0C94E3
S1130240261A0C9422040C946E170C94CC0E0C9465
S113025026190C94BD030C9464030C94A6020C940C
S113026063170C942B1A0C94BD190C944C1A0C940F
S1130270441A0C94FB150C94231A0C94E1020C946C
S1130280711B0C94291A0C943C1A0C94CE1B0C94DC
S11302903D060C94201A0C94951B2C205443433097
S11302A04343413D002F002C204865617020667255
S11302B065653A200054696D653A20004465632001
S11302C020352032303137004D45343035206261DD
S11302D0736520726164696F2070726F6772616DFB
S11302E02056302E34200020202020683A20202060
S11302F048414C50210020202020653A20202045F0
S113030078697420636F6D6D616E64206D6F6465D0
S11303100020202020733A202020537461636B2036
S113032064756D7020666F72207461736B73002046
S1130330202020763A20202056657273696F6E2043
S1130340616E6420736574757020696E666F726D7A
S11303506174696F6E00202020206E3A20202053A3
S1130360686F77207468652074696D6520726967A9
S11303706874206E6F77002020496E20636F6D6D66
S1130380616E64206D6F6465206F6E6C793A002035
S11303902043746C2D413A20456E74657220636F5E
S11303A06D6D616E64206D6F646500202043746C14
S11303B02D433A2052657365742074686520415654
S11303C052002068656C70004D4534303520626100
S11303D0736520726164696F2070726F6772616DFA
S11303E02056302E3420001B5B33306D001B5B34F1
S11303F0366D00496C6C6567616C2073746174655B
S11304002120526573657474696E672041565200E9
S11304103A5754463F004578697420636F6D6D61A7
S11304206E64206D6F646500526573657474696EE3
S11304306720415652005072657373204374726C86
S11304402D4120666F7220636F6D6D616E64206D47
S11304506F646500526573657474696E6700455214
S1130460524F5220696E207461736B2000455252C2
S11304704F52206372656174696E67207461736B97
S113048020002C20737461636B2061742030780029
S11304902063726561746564005461736B20001B92
S11304A05B32326D005461736B3A20001B5B316D1B
S11304B0001B5B32326D005461736B3A2049444C2B
S11304C045001B5B316D000909002F0049444C4570
S11304D0090930092D0900092D2D2D2D00092D2D77
S11304E02D2D2D2D2D2D2D2D002D2D2D2D09092DAD
S11304F02D2D2D092D2D2D2D2D000952756E7300D6
S113050009467265652F546F74616C004E616D65A8
S113051009095072692E0953746174650009537492
S113052061636B005461736B090920200920000981
S11305300009002F00090009001B5B32326D001B0B
S11305405B316D001B5B316D002020000E94931411
S1130550DC1E11241FBECFEFCDBFDFE3DEBF00E002
S11305600CBF18BE19BE1ABE1BBE10E2A0E0B0E25A
S1130570E2E3F1E400E00BBF02C007900D92AC3B54
S1130580B107D9F71BBE21E3ACEBB0E201C01D9269
S1130590A236B207E1F712E0C9EAD2E000E006C0F1
S11305A021970109802FFE010E94BD1FC83AD1077F
S11305B080E00807A9F70E94421E0C9497200C942F
S11305C00000CF93DF9300D01F92CDB7DEB77C013C
S11305D00E946B1069837A838B839C83E0E8F6E046
S11305E08CE0828382898360828B83898360838B9E
S11305F0E0E8F1E082E7808389E08087E0E0F9E0E9
S113060088E683838FEF9FEF86A397A381E080839F
S11306100F2EA12CF9E0BF2EF02DF50100A111A1A0
S11306200FB6F8940F92C801012E000CAA0BBB0B55
S1130630AC01BD01440F551F661F771F3A014B01E2
S1130640680E791E8A1E9B1EC401B30124E630E0A5
S113065040E050E00E949E1F20934E3130934F3172
S11306600F900FBE0FB6F8940F92C8018C199D0914
S113067080934C3190934D310F900FBEF7018685D6
S11306809785A089B1890196A11DB11D8687978799
S1130690A08BB18B41E050E060E070E0CE010196A8
S11306A00E9409126801B9CF0F931F93CF93DF9370
S11306B0EC010E94A6148AE090E288839983DF917A
S11306C0CF911F910F910895CF93DF9300D01F9284
S11306D0CDB7DEB78C010E946B1069837A838B835C
S11306E09C83E0E8F6E083E08283808B818BE0E802
S11306F0F1E080E7828389E08287E0E4F8E08AE63B
S1130700838380EA95E086A397A381E0808368943D
S1130710EE24E6F8FF24F3F8F70180A191A10FB6C7
S1130720F8940F9280934A3190934B310F900FBEFF
S1130730F80186859785A089B1890196A11DB11D0F
S113074086879787A08BB18B41E050E060E070E032
S1130750CE0101960E940912DFCF0F931F93CF930E
S1130760DF93EC010E94A61482E190E288839983CE
S1130770DF91CF911F910F910895CF93DF9300D014
S11307801F92CDB7DEB77C010E946B1069837A8318
S11307908B839C83E0E6F6E081E0828384E08283BD
S11307A088E1808B828B08E616E0DD24D394F8017F
S11307B0808180FD08C00FB6F8940F92D092493121
S11307C00F900FBE07C00FB6F8940F9210924931E4
S11307D00F900FBEF801808182FD08C00FB6F89417
S11307E00F92D09248310F900FBE07C00FB6F89405
S11307F00F92109248310F900FBEF70186859785AE
S1130800A089B1890196A11DB11D86879787A08B08
S1130810B18B45E050E060E070E0CE0101960E94AB
S11308200912C5CF0F931F93CF93DF93EC010E945E
S1130830A6148AE190E288839983DF91CF911F9176
S11308400F910895CF93DF93CDB7DEB76697CDBFF1
S1130850DEBF8C010E946B1069837A838B839C8337
S1130860F801FE9685E090E0A0E0B0E080839183FB
S1130870A283B38381E090E0F80184AF95AF98013F
S1130880285B3F4F2D833E8336E03D8B1E8AA801B3
S1130890445B5F4F4F835887C801865B9F4F8F87A8
S11308A0988BEC59FF4FE987FA8798012C5B3F4FEF
S11308B02B873C87465051094D875E874296898B2A
S11308C09A8B180196E6290E311C3496EB8BFC8B1F
S11308D04801FEE38F0E911C580120E5A20EB11CC5
S11308E068013EE5C30ED11CF80186859785A08971
S11308F0B1890196A11DB11D86879787A08BB18B05
S113090024E630E0228F338F0FB6F8940F92809153
S11309104C3190914D310F900FBE868F978F4D893A
S1130920ED81FE8140835E8951834DEB50E0EF8180
S1130930F88540835183EF85F889108211824EEE49
S113094050E0E985FA854083518340E456E0EB8525
S1130950FC854083518340EC59EFED85FE8540834F
S113096051837901E81AF90AB70186E090E00E9400
S1130970CF062B013C01E989FA8960837183F10177
S1130980808191819701281B390BC901EB89FC896E
S113099020833183EF81F88520813181829FD001CA
S11309A0839FB00D929FB00D1124F801E659FF4FBB
S11309B0A083B183F40120813181428153810E945B
S11309C0EF1F9B01AC01992324F421503F4F4F4F5B
S11309D05F4FBB2757FDBA95A52F942F832FF501A1
S11309E04081518162817381840F951FA61FB71FB7
S11309F08130FAEC9F07FAE9AF07FBE3BF0754F035
S1130A0080E09AECAAE9BBE3F50180839183A28399
S1130A10B38317C08115F6E39F07F5E6AF07F4EC3F
S1130A20BF0734F0F50180839183A283B38309C0A7
S1130A3080E096E3A5E6B4ECF50180839183A2837C
S1130A40B383F50160817181C2010E94B306F8018C
S1130A50E05AFF4F80839183F60180839183EB8575
S1130A60FC85208131812817390724F4F60120837D
S1130A7031830AC0ED85FE85208131818217930779
S1130A801CF4F60120833183F801E25BFF4FE0821E
S1130A90F182F60120813181821B930BF801EE591A
S1130AA0FF4F80839183E985FA8540815181849F3A
S1130AB09001859F300D949F300D1124332314F43D
S1130AC021503F4F832F880F880BF101308381839E
S1130AD0F801668577858089918925E030E040E0DA
S1130AE050E00E947C1F672B682B692BD9F4F80116
S1130AF0668D778D868197810E94521A66E00E94E6
S1130B000B1A0FB6F8940F920F900FBE60914A31F2
S1130B1070914B31F801868197810E94521A66E0E8
S1130B200E940B1A0FB6F8940F920F900FBE80918B
S1130B304931811109C00FB6F8940F920F900FBE7E
S1130B4080914831882359F0F801128E138EF501F3
S1130B501082118212821382F601108211820FB662
S1130B60F8940F92F601808191818093463190939D
S1130B7047310F900FBEF80110A611A682A193A1D0
S1130B8060E070E00E94681F7B01072E000C880B58
S1130B90990B0E94F41E2B013C0123E333E34BE841
S1130BA051E40E94531F181634F481E190E0F801D7
S1130BB084A395A313C023E333E34BE851ECC301AF
S1130BC0B2010E94ED1E882324F0F801E4A2F5A2EC
S1130BD005C08FEE9FEFF80184A395A3F80116AA30
S1130BE017AA12AA13AA14AA15AA80A991A989312D
S1130BF091052CF088E190E080AF91AF0DC0883E64
S1130C00FFEF9F0724F0F80180AF91AF05C088EE95
S1130C109FEFF80180AF91AFF401208131814281CF
S1130C205381A8EEB3E00E94E41F683EF3E07F071F
S1130C308105910548F028EE33E040E050E00E9441
S1130C407C1FBA01A90104C041E050E060E070E0FB
S1130C50CE0101960E94091247CE0F931F93CF93A2
S1130C60DF93EC010E94A61482E290E288839983C8
S1130C70DF91CF911F910F910895CF93DF9300D00F
S1130C801F92CDB7DEB77C010E946B1069837A8313
S1130C908B839C83A0E4B6E087E011968C93119734
S1130CA084E015968C931597E0E0F8E081E080836A
S1130CB083E08183A6A3B7A310A611A612A613A648
S1130CC081818063818300E018E0F7018685978540
S1130CD0A089B1890196A11DB11D86879787A08B34
S1130CE0B18B0FB6F8940F920F900FBE80914631DE
S1130CF090914731F80180A791A712A613A60FB6C9
S1130D00F8940F920F900FBE20914931211112C017
S1130D100FB6F8940F920F900FBE20914831211115
S1130D2009C00FB6F8940F920F900FBE80A791A739
S1130D3012A613A644E150E060E070E0CE010196F3
S1130D400E940912C2CF0F931F93CF93DF93EC013C
S1130D500E94A6148AE290E288839983DF91CF915E
S1130D601F910F9108959C01932F991F9927991F03
S1130D70892F90E081509048432F4095441F442789
S1130D80441FFC01E21BF30B51E0E617F7070CF0DC
S1130D9050E0451719F0C901860F971F0895811572
S1130DA020E8920721F4611520E8720729F09C01DC
S1130DB0DB010E94C61F08956FEF7FEF8FEF9FE75F
S1130DC008950F931F93CF93DF93EC010E94A61411
S1130DD082E390E288839983DF91CF911F910F91F1
S1130DE008950F931F93CF93DF93EC016AE08E81F4
S1130DF09F810E940B1A8C016DEE73E00E94D4193E
S1130E006AE0C8010E940B1A8C0167EE73E00E942D
S1130E10D41967E0C8010E940B1A6AE08E819F8191
S1130E200E940B1A8C0168EC73E00E94D4196AE0EA
S1130E30C8010E940B1A8C0162EC73E00E94D41961
S1130E4066E0C8010E940B1A6AE08E819F810E94AD
S1130E500B1A8C016BEA73E00E94D41966E0C80196
S1130E600E940B1A6AE08E819F810E940B1A8C01EA
S1130E706FE873E00E94D41966E0C8010E940B1A5F
S1130E806AE08E819F810E940B1A8C0167E773E0F0
S1130E900E94D41966E0C8010E940B1A6AE08E8190
S1130EA09F810E940B1A8C0166E573E00E94D4199D
S1130EB066E0C8010E940B1A6AE08E819F810E943D
S1130EC00B1A8C016FE273E00E94D41966E0C8012A
S1130ED00E940B1A6AE08E819F810E940B1A8C017A
S1130EE061E173E00E94D41966E0C8010E940B1A04
S1130EF06AE08E819F810E940B1A8C0166EF72E07A
S1130F000E94D41966E0C8010E940B1A6AE08E811F
S1130F109F810E940B1AEC0167EE72E00E94D419C3
S1130F2066E0CE010E940B1ADF91CF911F910F91C1
S1130F300895AF92BF92CF92DF92EF92FF920F93F8
S1130F401F93CF93DF9300D000D0CDB7DEB78C01D1
S1130F5019821A821B821C821D821E820E941E0A12
S1130F606C01CE0101960E9457185C0166E0F801FD
S1130F70868197810E940B1A6AE00E940B1A7C01F9
S1130F8068EC72E00E94D4196AE0C7010E940B1A4F
S1130F907C016CEB72E00E94D41966E0C7010E94E8
S1130FA00B1A6AE00E940B1A7C0165EB72E00E9446
S1130FB0D419B501C7010E94FB176AE00E940B1AFD
S1130FC07C0167EA72E00E94D419B601C7010E944D
S1130FD07B1A6AE00E940B1A7C0165EA72E00E94A7
S1130FE0D4194FEF5FE060E070E0C7010E94AF1AD0
S1130FF0C0902808D09029086AE0F801868197817A
S11310000E940B1A7C016AE972E00E94D419B601AD
S1131010C7010E947B1A66E00E940B1A66E00E94D8
S11310200B1AF801868197810E94B4162696CDBFCB
S1131030DEBFDF91CF911F910F91FF90EF90DF9072
S1131040CF90BF90AF900895CF93DF9300D000D09E
S1131050CDB7DEB78C0119821A821B821C821D82D5
S11310601E826AE0DC0116968D919C9117970E946E
S11310700B1A7C0166E374E00E94D41966E0C70190
S11310800E940B1AF8018485882321F0813009F429
S11310905DC0D8C086819781DC01ED91FC9104800C
S11310A0F581E02D19958823A9F1F80186819781AE
S11310B0DC01ED91FC910680F781E02D19959927CB
S11310C081309105F9F0039709F0D8C06AE0F8017E
S11310D0868197810E940B1A8C0168E274E00E9459
S11310E0D41966E0C8010E940B1A93E088ED08B693
S11310F018BE84BF909380008091820081FDFCCF54
S113110008BEFFCFC8010E94F10661E0C8010E9439
S1131110A214B4C080E591E30E946317882309F404
S1131120ADC0D8011696ED91FC9117970190F0810E
S1131130E02DE280F38080E591E30E944517682F5B
S1131140F80186819781F701199598C08681978166
S1131150DC01ED91FC910480F581E02D1995882343
S113116009F48CC0F80186819781DC01ED91FC9132
S11311700680F781E02D19959C0133272836310527
S113118059F13CF42B31310559F12536310541F142
S11311903BC023373105C1F02637310589F02E369F
S11311A0310591F5CE0101960E945718BC01F80152
S11311B0868197810E94FB1766E00E940B1A5EC02D
S11311C0C8010E9499075AC0D80116968D919C9126
S11311D017970E94BB1552C0C8010E94F1064EC069
S11311E06AE0F801868197810E940B1A7C0166E10E
S11311F074E00E94D41966E0C7010E940B1A60E0F3
S1131200C8010E94A2143AC0F801A681B781ED91E9
S1131210FC9111970280F381E02D682FCD0119957F
S11312206AE0D80116968D919C9117970E940B1A2B
S11312307C0160E174E00E94D41966E0C7010E9459
S11312400B1A1CC06AE0F801868197810E940B1A70
S11312508C0163EF73E00E94D41966E0C8010E9418
S11312600B1A93E088ED08B618BE84BF90938000F3
S11312708091820081FDFCCF08BEFFCFF8018685F6
S11312809785A089B1890196A11DB11D868797878D
S1131290A08BB18B61E070E080E090E00E94761258
S11312A0F1CE0F931F93CF93DF93EC010E9465104F
S11312B08091BC2081111DC0A1ECB0E2E5ECF0E20C
S11312C0ED93FC93119712961D921C921397ADEB1C
S11312D0B0E28FEF9FE012968D939C9313971D922B
S11312E01C92119782839383A083B18381E08093BE
S11312F0BC20209709F45FC09E012B5F3F4F2496CA
S1131300CE3FDF4008F05AC0E091C120F091C220E6
S1131310A1ECB0E202C0DF01FC018281938182175B
S1131320930720F4808191810097A9F7C0E2ED3BF7
S1131330FC0709F446C0CD91DC9111978E010B5F37
S11313401F4F808191818D939C9382819381821B15
S1131350930B8B30910510F1BF01620F731FDB01FA
S113136012968D939C9313972283338312964D91F7
S11313705C91139781EC90E201C0CD01EC01A8814E
S1131380B98112962D913C91139724173507A8F330
S1131390EB01A883B983DC016D937C9380910020D9
S11313A09091012022813381821B930B8093002032
S11313B09093012008C000E010E005C000E010E0B8
S11313C002C000E010E00E948711C801DF91CF91B4
S11313D01F910F9108950F931F93CF93DF9300975D
S11313E041F1EC018C01055011090E946510F801CE
S11313F042815381A1ECB0E201C0DF01ED91FC9187
S113140011972281338124173507B8F32597E88390
S1131410F9830D931C9320910020309101208A813F
S11314209B81820F931F80930020909301200E9440
S11314308711DF91CF911F910F9108958091002022
S1131440909101200895FC010396818392834FEFCC
S11314505FEFBA01438354836583768387839087E0
S11314608187928710820895FC011286138608955D
S1131470CF93DF93FC01DB0121813281E9018C816F
S11314809D8114968D939C931597818192811696D4
S11314908D939C9317978C819D81EC016E837F8340
S11314A0E9016C837D83618372831A96ED93FC93C7
S11314B01B9780818F5F8083DF91CF9108950F9375
S11314C01F93CF93DF93EB01088119812A813B811C
S11314D00F3F4FEF14072407340731F4DC0119964A
S11314E0ED91FC911A971FC0FC013396DC0117960D
S11314F04D915C911897DA014D915D916D917C91BC
S1131500041715072607370770F00480F581E02DCE
S1131510A481B5814D915D916D917C91041715075E
S11315202607370790F7A481B581AC83BD8316964F
S1131530CD93DC931797EE83FF83C483D5838A8787
S11315409B87FC0120812F5F2083DF91CF911F9126
S11315500F910895FC01A481B58186819781169627
S11315608D939C931797A681B78184819581149656
S11315708D939C931597A285B38511968D919C911B
S11315801297E817F90731F48681978111968D93A4
S11315909C931297128613868C9181508C93089594
S11315A0809360319093613131E1FC013083319754
S11315B022E220833197A3E3A0833197608331979C
S11315C070833197108231971082319760E860837D
S11315D0319710823197108231971082319762E0EF
S11315E06083319763E06083319764E0608331976F
S11315F065E06083319766E06083319767E06083DC
S1131600319768E06083319769E06083319760E1E6
S1131610608331973083319732E13083319733E1FE
S11316203083319734E13083319735E1308331971A
S113163036E13083319737E13083319738E13083B5
S1131640319739E13083319730E23083319731E299
S1131650308331972083319723E22083319740836D
S113166031975083319726E22083319727E22083F4
S1131670319728E22083319729E22083319720E3B0
S11316802083319721E32083899708958CE7809301
S1131690290A8FEF8093280A81E08093000A91E160
S11316A09093010A8093070AA0912431B0912531C7
S11316B0CD91CDBFDD91DEBFFF91EF91DF91CF9151
S11316C0BF91AF919F918F917F916F915F914F9156
S11316D03F912F911F910F91FF90EF90DF90CF904A
S11316E0BF90AF909F908F907F906F905F904F903E
S11316F03F902F901F900F900CBE0F900BBE0F9039
S11317000FBE0F90089508950F920FB6F8940F929C
S11317100BB60F920CB60F921F9211242F923F9288
S11317204F925F926F927F928F929F92AF92BF92ED
S1131730CF92DF92EF92FF920F931F932F933F93D9
S11317404F935F936F937F938F939F93AF93BF93C5
S1131750CF93DF93EF93FF93A0912431B091253180
S11317600DB60D920EB60D920E94A412A0912431D2
S1131770B0912531CD91CDBFDD91DEBFFF91EF91C9
S1131780DF91CF91BF91AF919F918F917F916F9195
S11317905F914F913F912F911F910F91FF90EF9087
S11317A0DF90CF90BF90AF909F908F907F906F907D
S11317B05F904F903F902F901F900F900CBE0F9012
S11317C00BBE0F900FBE0F9008950F920FB6F894B2
S11317D00F920BB60F920CB60F921F9211242F92F8
S11317E03F924F925F926F927F928F929F92AF92AD
S11317F0BF92CF92DF92EF92FF920F931F932F939A
S11318003F934F935F936F937F938F939F93AF9384
S1131810BF93CF93DF93EF93FF93A0912431B091C3
S113182025310DB60D920EB60D920E9486100E94BF
S1131830A412A0912431B0912531CD91CDBFDD9179
S1131840DEBFFF91EF91DF91CF91BF91AF919F9157
S11318508F917F916F915F914F913F912F911F9144
S11318600F91FF90EF90DF90CF90BF90AF909F903B
S11318708F907F906F905F904F903F902F901F902C
S11318800F900CBE0F900BBE0F900FBE0F900895DB
S11318900E94E50B1895CF93DF93EC0188A1811189
S11318A00BC088819981892BE1F58A819B810E94F3
S11318B05F141A821B8235C0411117C0482F50E0B3
S11318C08C819D810E940B2028A18C819D81820F97
S11318D0911D8C839D832A813B818217930708F194
S11318E0888199818C839D831CC0482F50E08E8110
S11318F09F810E940B2088A190E091958195910988
S11319002E813F81280F391F2E833F8348815981BF
S11319102417350730F42A813B81820F931F8E836D
S11319209F838E8D8F5F8E8FDF91CF910895FC0101
S1131930808191810097A1F040A150E026813781F8
S1131940240F351F26833783A281B3812A173B07CF
S113195010F086839783CB01668177810E940B20E8
S113196008950F931F93CF93DF93EC010FB6F89470
S11319700F928AA11816B4F48B89811105C012C084
S11319808B89811104C00EC08E010D5E1F4FC801EA
S11319900E942B1381110E94E8138AA181508AA30B
S11319A0181674F38FEF8AA30F900FBE0FB6F89436
S11319B00F9289A11816B4F48885811105C012C04C
S11319C08885811104C00EC08E01085F1F4FC801B5
S11319D00E942B1381110E94E81389A1815089A3CD
S11319E0181674F38FEF89A30F900FBEDF91CF9178
S11319F01F910F9108951F93CF93DF93613059F096
S1131A00FC012389308531112CC011E0211110E033
S1131A10211128C001C011E0EC014881598128A19D
S1131A2030E06F8D629FC001639F900D1124BA0155
S1131A30680F791F6A837B831E8E4C835D83821BB0
S1131A40930B840F951F8E839F838FEF89A38AA3A3
S1131A50CE0108960E94230ACE0143960E94230ACF
S1131A6001C010E0812FDF91CF911F9108950F9352
S1131A701F93CF93DF93882301F1062F182F83E25E
S1131A8090E00E945109EC01892BC9F0109FC0011C
S1131A90112401960E94510988839983892B39F076
S1131AA01F8F08A361E0CE010E94FB0C08C0CE0189
S1131AB00E94EB09C0E0D0E002C0C0E0D0E0CE015B
S1131AC0DF91CF911F910F910895AF92BF92CF9262
S1131AD0DF92EF92FF920F931F93CF93DF93CDB7D3
S1131AE0DEB72997CDBFDEBF7C015B012E833F8328
S1131AF04887598710E06C0188E0C80ED11C0FB6E6
S1131B00F8940F92F701968D878D9817A8F4402FBB
S1131B10B501C7010E944B0CF7018389882341F06A
S1131B20C70143960E942B13813011F40E94840B49
S1131B300F900FBE81E056C08E819F81A885B98524
S1131B40892B8A2B8B2B21F40F900FBE80E04AC087
S1131B50111105C0CE0101960E946A1311E00F9085
S1131B600FBE0E9465100FB6F8940F92F70181A181
S1131B708F3F09F411A2F70182A18F3F09F412A249
S1131B800F900FBEBE016A5F7F4FCE0101960E9487
S1131B907B13811121C00FB6F8940F92F701968D33
S1131BA00F900FBE878D981311C04E815F81688599
S1131BB07985C6010E940113C7010E94B10C0E94DD
S1131BC0871181119CCF0E94840B99CFC7010E9479
S1131BD0B10C0E94871193CFC7010E94B10C0E94DF
S1131BE0871180E02996CDBFDEBFDF91CF911F9191
S1131BF00F91FF90EF90DF90CF90BF90AF9008953A
S1131C00AF92BF92CF92DF92EF92FF920F931F9306
S1131C10CF93DF93CDB7DEB72997CDBFDEBF7C016D
S1131C205B012E833F834887598710E06C0183E171
S1131C30C80ED11C0FB6F8940F92F701868D882335
S1131C4099F1C680D780B501C7010E94970C011194
S1131C501AC0F701868D8150868F80819181892BEE
S1131C6029F40E940514F70182839383F701808588
S1131C708823B1F0C70108960E942B13813081F4A8
S1131C800E94840B0DC0F701C682D7828389882302
S1131C9039F0C70143960E942B1381110E94840BD3
S1131CA00F900FBE81E062C08E819F81A885B985A7
S1131CB0892B8A2B8B2B21F40F900FBE80E056C00A
S1131CC0111105C0CE0101960E946A1311E00F9014
S1131CD00FBE0E9465100FB6F8940F92F70181A110
S1131CE08F3F09F411A2F70182A18F3F09F412A2D8
S1131CF00F900FBEBE016A5F7F4FCE0101960E9416
S1131D007B1381112DC00FB6F8940F92F701868DC5
S1131D100F900FBE81111EC080819181892B49F4DF
S1131D200FB6F8940F92828193810E940A140F9047
S1131D300FBE4E815F8168857985C6010E940113BB
S1131D40C7010E94B10C0E948711811173CF0E94B8
S1131D50840B70CFC7010E94B10C0E9487116ACF17
S1131D60C7010E94B10C0E94871180E02996CDBF63
S1131D70DEBFDF91CF911F910F91FF90EF90DF9025
S1131D80CF90BF90AF9008950FB6F8940F92FC01D6
S1131D90868D0F900FBE0895C8EFD0E388818230FE
S1131DA0E8F30E94840BFACFCF92DF92EF92FF9276
S1131DB06B017C01E0912431F091253162837383BE
S1131DC0848395838091CC309091CD30A091CE3096
S1131DD0B091CF30C816D906EA06FB0668F46091C4
S1131DE02431709125318091DE309091DF306E5F27
S1131DF07F4F0E945F0A21C0609124317091253188
S1131E008091E0309091E1306E5F7F4F0E945F0AD5
S1131E108091022090910320A0910420B09105208C
S1131E20C816D906EA06FB0640F4C0920220D092F6
S1131E300320E0920420F0920520FF90EF90DF90C1
S1131E40CF9008954F925F926F927F928F929F925C
S1131E50AF92BF92CF92DF92EF92FF920F931F93B4
S1131E60CF93DF935C014B013A01290188E290E0B2
S1131E700E945109EC01892B09F4D4C0C114D10486
S1131E8009F0CCC0C3010E9451098B8F9C8F00972D
S1131E9021F4CE010E94EB09C5C0A30161E170E009
S1131EA00E9414209301215031098B8D9C8D3C019B
S1131EB0620E731E4AE050E0B401CE014D960E94BA
S1131EC01B201EA2102F043008F013E01A8F1FA34A
S1131ED06E0122E0C20ED11CC6010E94340ACE015A
S1131EE00E960E94340ACA87DB8784E090E0A0E063
S1131EF0B0E0811B9109A109B1098E879F87A88B46
S1131F00B98BCE8BDF8BA201B501C3010E94D00A2D
S1131F1088839983E114F10419F0F701C083D18314
S1131F200FB6F8940F928091D0308F5F8093D030A9
S1131F308091243190912531892B89F5C0932431E6
S1131F40D09325318091D0308130C1F588EF90E372
S1131F500E94230A83E091E30E94230A8EE091E326
S1131F600E94230A89E191E30E94230A8DEE90E303
S1131F700E94230A82EE90E30E94230A83ED90E3F9
S1131F800E94230A8DEE90E38093E0309093E13039
S1131F9082EE90E38093DE309093DF300FC0809127
S1131FA0C93081110BC0E0912431F0912531828D2B
S1131FB0081720F0C0932431D09325318A8D909155
S1131FC0CB30981710F48093CB309091C4309F5F3E
S1131FD09093C4309091CA30981710F48093CA300B
S1131FE0FBE08F9FC0011124B60188509F4C0E94D2
S1131FF0380A0F900FBE8091C930882359F0E091C0
S11320002431F0912531828D801730F40E94840BA5
S113201081E009C081E007C081E005C0CB8EDC8E81
S1132020C6013BCF8FEFDF91CF911F910F91FF90AE
S1132030EF90DF90CF90BF90AF909F908F907F9064
S11320406F905F904F9008950FB6F8940F92009799
S113205021F480912431909125310F900FBEFC0121
S1132060828D0895AF92BF92CF92DF92EF92FF924A
S11320700F93A12CB12CC12CD12C0F2EF1EDEF2EEE
S1132080F0E3FF2EF02D00E020E030E044E650E0E5
S113209066E370E28CEC9EE00E94220F813069F4CA
S11320A0F8948093C9301092CC301092CD301092B5
S11320B0CE301092CF300E94460B0F91FF90EF90DC
S11320C0DF90CF90BF90AF9008958091C8308F5F1C
S11320D08093C83008950FB6F8940F926091CC3075
S11320E07091CD308091CE309091CF300F900FBE53
S11320F00895009721F480912431909125314D96D3
S113210008958091D1309091D2300895FF920F9329
S11321101F93CF93DF938091C8308111EDC08091DC
S1132120CC309091CD30A091CE30B091CF3001968B
S1132130A11DB11D8093CC309093CD30A093CE30AF
S1132140B093CF308091CC309091CD30A091CE30EF
S1132150B091CF30892B8A2B8B2BF1F58091E03015
S11321609091E1302091DE303091DF302093E030E7
S11321703093E1308093DE309093DF308091C5302E
S11321808F5F8093C530E091E030F091E130808141
S113219081110CC08FEF9FEFDC018093022090939C
S11321A00320A0930420B093052016C0E091E030F2
S11321B0F091E1300780F085E02D0084F185E02D79
S11321C082819381A481B58180930220909303201E
S11321D0A0930420B09305204091CC305091CD3091
S11321E06091CE307091CF30809102209091032085
S11321F0A0910420B0910520481759076A077B076E
S113220008F47FC0E091E030F091E13080818823D0
S1132210F9F0E091E030F091E1300780F085E02DB5
S1132220C085D1858A819B81AC81BD814091CC30B0
S11322305091CD306091CE307091CF30481759070E
S11322406A077B0758F10F2EFBE0FF2EF02D2FC0FD
S11322508FEF9FEFDC018093022090930320A093E3
S11322600420B09305204DC0E091E030F091E130BE
S11322700780F085E02DC085D1858A819B81AC8162
S1132280BD814091CC305091CD306091CE30709171
S1132290CF30481759076A077B0748F48093022018
S11322A090930320A0930420B09305202AC08E01AC
S11322B00E5F1F4FC8010E94AA0A888D998D892B31
S11322C021F0CE010E960E94AA0A8A8D9091CA30FE
S11322D0981710F48093CA30F89EC0011124B801F5
S11322E088509F4C0E94380AE091E030F091E13030
S11322F080818111B9CFACCF8091C7308F5F80933B
S1132300C730DF91CF911F910F91FF900895CF9225
S1132310DF92EF92FF920F931F93CF93DF930FB649
S1132320F8940F928091C83081508093C830809186
S1132330C830811160C08091D03081112CC05EC042
S1132340D7011796ED91FC911897C085D185CE01E0
S11323500E960E94AA0A8E010E5F1F4FC8010E94AA
S1132360AA0A8A8D9091CA30981710F48093CA30C3
S1132370D89EC0011124B80188509F4C0E94380A8D
S1132380E0912431F09125319A8D828D981770F067
S1132390CC24C3940BC0C12C0F2EF3EDEF2EF0E32D
S11323A0FF2EF02D0F2EFBE0DF2EF02DF7018081A4
S11323B08111C6CF8091C730882381F08091C730C6
S11323C0882399F00E9486108091C73081508093B1
S11323D0C7308091C7308111F5CF07C0F1E0CF1627
S11323E021F08091C630813041F41092C6300E94B1
S11323F0840B81E003C080E001C080E00F900FBE39
S1132400DF91CF911F910F91FF90EF90DF90CF90CC
S11324100895CF92DF92EF92FF92CF93DF93EC0176
S11324206A017B010E94651088819981AA81BB8120
S1132430C80ED91EEA1EFB1E4091CC305091CD30FF
S11324406091CE307091CF30481759076A077B07E7
S1132450B8F4C816D906EA06FB06E0F58091CC303C
S11324609091CD30A091CE30B091CF30C882D98236
S1132470EA82FB828C159D05AE05BF05F8F413C0F6
S1132480C816D906EA06FB0600F18091CC3090917B
S1132490CD30A091CE30B091CF308C159D05AE05D6
S11324A0BF0598F017C08091243190912531029690
S11324B00E94AA0AC701B6010E94D40E0E94871185
S11324C081110DC00E94840B0AC0C882D982EA829D
S11324D0FB82E9CFC882D982EA82FB82EFCFDF9107
S11324E0CF91FF90EF90DF90CF900895CF92DF923D
S11324F0EF92FF926B017C01672B682B692BE9F04B
S11325000E9465108091CC309091CD30A091CE3056
S1132510B091CF30C80ED91EEA1EFB1E8091243123
S11325209091253102960E94AA0AC701B6010E9421
S1132530D40E0E948711811102C00E94840BFF9067
S1132540EF90DF90CF9008958091C83081110CC036
S1132550E091CA304BE0E49FF0011124E850FF4CB5
S11325608081882329F014C081E08093C6300895C7
S11325709BE08091CA3081508093CA30E091CA3088
S11325809E9FF0011124E850FF4C8081882389F339
S11325908091CA30282F30E04BE0849FC001112481
S11325A0DC01A850BF4C1196ED91FC911297048068
S11325B0F581E02D1196ED93FC93129785509F4C75
S11325C0E817F90761F4848195814BE0429FF0019B
S11325D0439FF00D1124E850FF4C818392838BE0DC
S11325E0829FF001839FF00D1124E850FF4C01807D
S11325F0F281E02D8085918580932431909325315B
S11326000895CF92DF92EF92FF926A017B0160916D
S1132610243170912531625F7F4F0E945F0A80915F
S113262024319091253102960E94AA0A8091CC30DF
S11326309091CD30A091CE30B091CF30BC01CD017E
S11326406C0D7D1D8E1D9F1D0E94D40EFF90EF907A
S1132650DF90CF9008950F931F93CF93DF93DC0106
S11326601796ED91FC911897C085D1858E01025F74
S11326701F4FC8010E94AA0A8091C830811116C058
S11326800C501109C8010E94AA0A8A8D9091CA307F
S1132690981710F48093CA30BBE08B9FC0011124BB
S11326A0B80188509F4C0E94380A05C0B80183EDD8
S11326B090E30E94380AE0912431F091253181E0C1
S11326C02A8D928D291708F480E0DF91CF911F9114
S11326D00F9108952091C530FC0120834091CC30A6
S11326E05091CD306091CE307091CF304183528380
S11326F06383748308958F929F92AF92BF92CF9217
S1132700DF92EF92FF920F931F93CF93DF93FC011D
S11327100FB6F8940F928091C5309081981789F084
S11327208091CC309091CD30A091CE30B091CF300B
S1132730018112812381348180179107A207B30795
S1132740A8F58091CC309091CD30A091CE30B0914D
S1132750CF30C180D280E380F480EB0108811981FD
S11327602A813B818C199D09AE09BF098017910705
S1132770A207B307E8F4CF018090CC309090CD301D
S1132780A090CE30B090CF30B501A4014C195D09B2
S11327906E097F09041B150B260B370B088319835D
S11327A02A833B830E946A1380E003C081E001C056
S11327B081E00F900FBEDF91CF911F910F91FF9099
S11327C0EF90DF90CF90BF90AF909F908F9008953F
S11327D081E08093C6300895009721F480912431DC
S11327E090912531DC015B96ED91FC915C978081A1
S11327F0813141F4319680E090E0019621912131BC
S1132800E1F3089580E090E008958091243190915F
S1132810253108950F931F93CF93DF93FC01228DED
S1132820A0912431B09125315A968C91281708F043
S113283041C0A0912431B09125315A963C9184E055
S113284090E0A0E0B0E0831B9109A109B10986875B
S11328509787A08BB18B8BE0289F9001112428507F
S11328603F4C8485958582179307E9F48F01EF0126
S11328702296CE010E94AA0AE0912431F0912531DA
S1132880828DF801828F9091CA30981710F480934A
S1132890CA30FBE08F9FC0011124BE0188509F4CB9
S11328A00E94380A07C0A0912431B09125315A966C
S11328B08C91828FDF91CF911F910F9108950F9387
S11328C01F93CF93DF93009749F1FC01328D27A129
S11328D0321721F1EC018C010E5F1F4FC8010E94D9
S11328E0AA0A8FA18A8F44E050E060E070E0481BA0
S11328F05109610971094E875F87688B798B9091C3
S1132900CA30981710F48093CA30FBE08F9FC0013F
S11329101124B80188509F4C0E94380ADF91CF914E
S11329201F910F910895EC01E881F9810190F081E4
S1132930E02D19951A821B826FEF7FEFCB010E9465
S11329407612FACFFC016487658708954F925F92EF
S11329506F927F928F929F92AF92BF92CF92DF92AB
S1132960EF92FF920F931F93CF93DF93CDB7DEB710
S11329702A97CDBFDEBF4C01290138018FE390E2D5
S1132980F40180839183FB018081882369F0DE0157
S11329901196319690E002C0993039F09F5F8D9383
S11329A081918111F9CF01C090E0E1E0F0E0EC0FFA
S11329B0FD1FE90FF11D10827401F2E0EF0EF11C0E
S11329C0A12CB12CC12CD12C042F9401A201BE0145
S11329D06F5F7F4F86EA92E00E94220FF4016682C5
S11329E07782408651862091263130912731248385
S11329F03583809226319092273114861586409033
S1132A00603150906131FFEF4F1A5F0A409260319C
S1132A1050926131F4014286538616861786108AD5
S1132A20118A6114710409F444C0813079F56AE0B3
S1132A30C3010E940B1A7C0169E974E00E94D41955
S1132A40BE016F5F7F4FC7010E94D4196AE0C701BE
S1132A500E940B1A7C0160E974E00E94D4196AE0B8
S1132A60C7010E940B1A7C0162E874E00E94D41929
S1132A7063E0C7010E940B1AB2010E947B1A62E054
S1132A800E940B1A66E00E940B1A13C06AE0C3018D
S1132A900E940B1A4C016DE674E00E94D419BE0129
S1132AA06F5F7F4FC4010E94D41966E0C4010E9485
S1132AB00B1A2A96CDBFDEBFDF91CF911F910F91E4
S1132AC0FF90EF90DF90CF90BF90AF909F908F904A
S1132AD07F906F905F904F900895CF92DF92EF9226
S1132AE0FF920F931F93CF93DF93EC017B018A81B5
S1132AF09B810E9479106C016AE0C7010E940B1A45
S1132B008C016CEA74E00E94D4196AE0C8010E9446
S1132B100B1A8C0165EA74E00E94D419B601C8014D
S1132B200E94D4196AE0C8010E940B1A8C016FE953
S1132B3074E00E94D41966E0C8010E940B1A8A85C9
S1132B409B85E885F98501E121E0A701BC018E1B85
S1132B509F0B0E946F188C819D81009719F0B7011B
S1132B600E946D15DF91CF911F910F91FF90EF900F
S1132B70DF90CF9008950F931F93CF93DF93EC01D1
S1132B808091263190912731009719F0BE010E945F
S1132B906D156AE0CE010E940B1A8C0162EC74E0A0
S1132BA00E94D4196AE0C8010E940B1A8C0167EBD9
S1132BB074E00E94D4196AE0C8010E940B1A8C01C7
S1132BC061EB74E00E94D41966E0C8010E940B1AFC
S1132BD08091603190916131BC016F5F7F4F01E161
S1132BE021E0AE01835691090E946F18DF91CF91C5
S1132BF01F910F9108958F929F92AF92BF92CF929F
S1132C00DF92EF92FF920F931F93CF93DF93EC0128
S1132C108B018A819B810E947910BC01C8010E94AA
S1132C20D419D801ED91FC910280F381E02D69E083
S1132C30C80119958A819B810E947910FC01019039
S1132C400020E9F73197E81BF90B389748F4D801CD
S1132C50ED91FC910280F381E02D69E0C8011995A2
S1132C60CE84DF84E888F988A884B9848A819B812A
S1132C700E94EC13982E8C848A819B810E942410DC
S1132C80682FC8010E94F11A6AE00E940B1AEC0135
S1132C9067E375E00E94D419682DCE010E94F11AF1
S1132CA06AE00E940B1AEC0165E375E00E94D419F6
S1132CB0692DCE010E94F11A6AE00E940B1AEC0100
S1132CC063E375E00E94D419B501CE010E947B1A1A
S1132CD06AE00E940B1AEC0161E375E00E94D419CA
S1132CE06AE0CE010E940B1AEC016FE275E00E94CB
S1132CF0D419B701A601CE010E94AF1ADF91CF917A
S1132D001F910F91FF90EF90DF90CF90BF90AF9005
S1132D109F908F900895CF93DF93EC01CB01DB015B
S1132D20ED91FC910280F381E02DBE011995CE0155
S1132D30DF91CF9108950F931F93CF93DF93EC010D
S1132D408B01BC01C8010E948B1666E00E940B1A1D
S1132D508C819D81009719F0B8010E949B16DF9128
S1132D60CF911F910F9108950F931F93CF93DF93EA
S1132D70EC016AE00E940B1A8C0164E275E00E9487
S1132D80D4196AE0C8010E940B1A8C016DE175E048
S1132D900E94D41966E0C8010E940B1A6AE0CE01B1
S1132DA00E940B1A8C016CE075E00E94D4196AE051
S1132DB0C8010E940B1A8C0160E075E00E94D419CE
S1132DC06AE0C8010E940B1A8C016AEF74E00E9449
S1132DD0D41966E0C8010E940B1A6AE0CE010E9471
S1132DE00B1A8C0169EE74E00E94D4196AE0C801E0
S1132DF00E940B1A8C016DED74E00E94D4196AE0F4
S1132E00C8010E940B1A8C0167ED74E00E94D4196A
S1132E1066E0C8010E940B1A8091263190912731F7
S1132E20009719F0BE010E949B160E9481100E9417
S1132E30EC13182F6AE0CE010E940B1AEC016CEC23
S1132E4074E00E94D419612FCE010E94F11A6AE045
S1132E500E940B1AEC016AEC74E00E94D41964E637
S1132E6070E0CE010E947B1A6AE00E940B1AEC010A
S1132E7067EC74E00E94D41966E0CE010E940B1A3C
S1132E80DF91CF911F910F9108950F93CF93DF930B
S1132E901F92CDB7DEB700E02FEF3FEFA901BE01CF
S1132EA06F5F7F4FFC01808591850E94000E813009
S1132EB019F4898190E002C08FEF9FEF0F90DF91AA
S1132EC0CF910F910895FC01808591850E94C40ED5
S1132ED091E0811101C090E0892F08950F93CF9361
S1132EE0DF931F92CDB7DEB76983FC01228533855A
S1132EF04485558500E0BE016F5F7F4F80859185D5
S1132F000E94650D91E0811101C090E0892F0F901E
S1132F10DF91CF910F9108958F929F92BF92CF929C
S1132F20DF92EF92FF920F931F93CF93DF93EC0105
S1132F30B62E4A01680179010E94C61987E490E21D
S1132F40888399838E869F8640E061E08B2D0E9462
S1132F50370D88879987CA86DB86EC86FD86DF91E4
S1132F60CF911F910F91FF90EF90DF90CF90BF9082
S1132F709F908F900895CF92DF92EF92FF92CF931C
S1132F80DF93EC01688179818A819B810F2EF8EEB1
S1132F90CF2EF3E0DF2EE12CF12CF02DA7019601CA
S1132FA00E947C1F9B01AC0160E472E48FE090E01E
S1132FB00E94581FA70196010E947C1F69017A0193
S1132FC0AC81BD8120E432E44FE050E00E94E41F74
S1132FD020E038E448EE51E00E947C1FC701B601AE
S1132FE0620F731F841F951FDF91CF91FF90EF90A5
S1132FF0DF90CF900895CF92DF92EF92FF920F93DC
S11330001F93CF93DF93CDB7DEB72F97CDBFDEBF2E
S11330106C018B01DB016D917D918D919C9128EE6A
S113302033E040E050E00E947C1FBA01A901C601D0
S11330300E94AF1AD601ED91FC910280F381E02D3C
S11330406EE2C6011995C8010E94BB178E01095F83
S11330501F4FFE0131967F012AE030E040E050E04E
S11330600E949E1FE62F288739874A875B876885D9
S113307079858A859B8520E32E0FD8012E938D01B7
S1133080AE15BF0549F71F82BE016F5F7F4FC601B2
S11330900E94D419C6012F96CDBFDEBFDF91CF9118
S11330A01F910F91FF90EF90DF90CF900895CF93F1
S11330B0DF93EC010FB6F8940F9280912008909161
S11330C021088C839D830E946B10688379838A8393
S11330D09B830F900FBECE01DF91CF9108955F9235
S11330E06F927F928F929F92AF92BF92CF92DF9214
S11330F0EF92FF920F931F93CF93DF935C014B01E9
S11331007A01122F702E63E0CA010E940B1AA814D0
S1133110B90408F07DC0650184E1C80ED11C00E04B
S11331206A2C5B2CB501C7010E947B1A6AE00E94DD
S11331300B1A69E475E00E94D419112309F46DC0D7
S1133140002309F46AC06AE0C7010E940B1A64E410
S113315075E00E94D41961C0112371F001110CC0F3
S11331608881871549F06AE0C7010E940B1A6FE352
S113317075E00E94D41901E06991C7010E94F11A17
S1133180DC01ED91FC910280F381E02D60E2199560
S1133190CC16DD0609F7112389F06AE0C7010E9405
S11331A00B1AEC0169E375E00E94D419E881F981F6
S11331B00280F381E02D60E2CE011995C62DD52D54
S11331C0699180EE860F8F3548F4D701ED91FC911B
S11331D00280F381E02DC701199509C0D701ED9153
S11331E0FC910280F381E02D6EE2C7011995CC16A3
S11331F0DD0631F7B4E1AB0EB11C66E0C7010E94F5
S11332000B1A84E1C80ED11CA814B90408F488CFA1
S113321062E0C7010E940B1A03C0C62DD52D9CCFB6
S1133220DF91CF911F910F91FF90EF90DF90CF909E
S1133230BF90AF909F908F907F906F905F90089514
S11332400E94510908950E94510908950895CF9349
S1133250DF93FC01DA01403A68E0560749F480E460
S113326096E08283938382E0848383E0858332C003
S1133270403B78E0570749F480E496E082839383E7
S113328086E0848387E0858325C0403A89E0580737
S113329049F480E696E08283938382E0848383E02A
S11332A0858318C0403B69E0560749F480E696E000
S11332B08283938386E0848387E085830BC0403ACE
S11332C05A4041F480E896E08283938382E08483C9
S11332D083E08583A683B783CD0101968087918798
S11332E00396828793872581C281D3814C8181E0B3
S11332F090E0BC0102C0660F771F2A95E2F79B019C
S1133300242B2C832581C281D3814881BC0102C036
S1133310660F771F2A95E2F79B01242B28833481BB
S1133320C281D381288102C0880F991F3A95E2F7A0
S1133330809590958223888380E113968C931397CC
S113334083E015968C93159780EF17968C931797B7
S113335081E216968C93169788E114968C9380E8F4
S1133360858780E4868780E284870680F781E02D64
S113337080818081DF91CF91089581E0089580E07C
S113338090E0089580E0089508950895FC0187E58C
S113339090E2808391838AE08283138283E0858331
S11333A014821682178208950F931F93CF93DF938D
S11333B08C01FB01DC0114968C91811104C06081A5
S11333C0611117C023C0D80114961C92EB012196F9
S11333D064916623D9F0D801ED91FC910280F381C8
S11333E0E02DC8011995FE01649121966111F3CF76
S11333F00DC0EF012196D801ED91FC910280F3817B
S1133400E02DC801199569916111F5CFDF91CF9134
S11334101F910F910895CF93DF93EC01862F90E0D5
S11334208B309105D8F5FC018827E250FF4F8F4F70
S11334300C94BD1F82E08A8331C088E08A832EC049
S11334408AE08A832BC080E18A8328C081E08B8351
S113345025C01B8223C0E881F9810280F381E02D1D
S11334606DE0CE011995E881F9810280F381E02DA8
S11334706AE0CE01199512C0E881F9810284F385CE
S1133480E02DCE0119950AC0E881F9810084F18507
S1133490E02DCE01199502C081E08C83CE01DF912D
S11334A0CF9108950F931F93CF93DF93CDB7DEB7DA
S11334B06197CDBFDEBF8C019B01FC0192819A30E4
S11334C021F0C8010E947B1A0DC04AE0BE016F5F63
S11334D07F4FC9010E942A20BE016F5F7F4FC80140
S11334E00E94D419C8016196CDBFDEBFDF91CF9190
S11334F01F910F910895FF920F931F93CF93DF9322
S1133500CDB7DEB76197CDBFDEBF8C01F62E972F06
S1133510F8014281403121F0483011F0423041F449
S1133520692FC8010E94F11A6F2D0E94F11A0DC073
S113353050E0BE016F5F7F4F8F2D0E946220BE015D
S11335406F5F7F4FC8010E94D419C8016196CDBF37
S1133550DEBFDF91CF911F910F91FF900895DF920D
S1133560EF92FF920F931F93CF93DF93CDB7DEB704
S1133570A197CDBFDEBF8C01D42EE52EF62E972F5A
S1133580F8012281203121F0283011F0223071F429
S1133590692FC8010E94F11A6F2D0E94F11A6E2D35
S11335A00E94F11A6D2D0E94F11A0FC030E0AE0195
S11335B04F5F5F4F6D2D7E2D8F2D0E943520BE01F4
S11335C06F5F7F4FC8010E94D419C801A196CDBF77
S11335D0DEBFDF91CF911F910F91FF90EF90DF90AD
S11335E00895CF92DF92EF92FF920F931F93CF93A0
S11335F0DF93CDB7DEB72997CDBFDEBF8C01E62EB2
S1133600DC0113968C911397882341F0ED91FC9182
S11336100280F381E02DC801199556C0F80142815A
S1133620423019F56894CC24C3F8D12C6894FF2453
S1133630F7F88E2D8F2151F0D801ED91FC91028085
S1133640F381E02D61E3C801199509C0D801ED911A
S1133650FC910280F381E02D60E3C8011995F69492
S1133660B1E0CB1AD10829F72FC04031F9F46295A3
S11336706F700190F081E02D0280F381E02D6A30BB
S113368010F0695C01C0605DC80119956E2D6F7002
S1133690D801ED91FC910280F381E02D6A3010F0A5
S11336A0695C01C0605DC80119950EC050E0BE019F
S11336B06F5F7F4F8E2D90E00E946220BE016F5F8E
S11336C07F4FC8010E94D419C8012996CDBFDEBF1F
S11336D0DF91CF911F910F91FF90EF90DF90CF90EA
S11336E00895DC015096ED91FC9151978081549698
S11336F04C915497842329F009C02150310919F4BD
S113370012C021E23EE490819423B9F3908156964D
S11337108C915697892B80831E96ED91FC911F976F
S1133720608381E0089580E00895CF93DF93FC01E6
S1133730C18DD28D28813981A38DB48D4D915C9139
S113374024173507E9F3A789B08D0D90BC91A02DFE
S1133750A20FB31F8C912F5F3F4F288339832436E8
S1133760310528F0018CF28DE02D1082118290E059
S1133770DF91CF910895CF93DF93EC01A98DBA8D9A
S1133780EB8DFC8D81E04D915C912081318142175C
S1133790530709F480E0DF91CF910895DC01ED91A6
S11337A0FC910280F381E02D6CE019950895EF926D
S11337B0FF920F931F93CF93DF93EC017B018A0158
S11337C00E94C619A801B701CE0108960E942719C4
S11337D087E690E288839983003A88E0180769F4C1
S11337E084E491E38F8B988F8AE391E3898F9A8F96
S11337F080E391E38B8F9C8F42C0003BE8E01E077F
S113380069F482E491E38F8B988F88E391E3898F45
S11338109A8F8EE291E38B8F9C8F31C0003AF9E04E
S11338201F0769F480E491E38F8B988F86E391E31B
S1133830898F9A8F8CE291E38B8F9C8F20C0003B01
S113384089E0180769F48EE391E38F8B988F84E302
S113385091E3898F9A8F8AE291E38B8F9C8F0FC0BB
S1133860003A1A4061F48CE391E38F8B988F82E3E2
S113387091E3898F9A8F88E291E38B8F9C8F0F89D4
S1133880188D84E690E00E942319F80180839183C7
S1133890E98DFA8D10821182EB8DFC8D10821182DC
S11338A0DF91CF911F910F91FF90EF9008951F9298
S11338B00F920FB60F92112408B60F9218BE0BB6D2
S11338C00F921BBE2F933F938F939F93EF93FF937E
S11338D02091A008E0914431F0914531809130313C
S11338E090913131E80FF91F20838091303190910C
S11338F0313101968436910560F480933031909390
S1133900313120913A3130913B3182179307F1F4F0
S11339100CC0109230311092313180913A31909133
S11339203B311816190691F40EC0019684369105A0
S113393028F480933A3190933B3108C010923A3185
S113394010923B3103C081E090E0F3CFFF91EF91FF
S11339509F918F913F912F910F900BBE0F9008BEB6
S11339600F900FBE0F901F9018951F920F920FB6D5
S11339700F92112408B60F9218BE0BB60F921BBEFD
S11339802F933F938F939F93EF93FF932091B008CE
S1133990E0914231F091433180912E3190912F3159
S11339A0E80FF91F208380912E3190912F310196D9
S11339B08436910560F480932E3190932F312091B9
S11339C038313091393182179307F1F40CC01092D9
S11339D02E3110922F31809138319091393118164F
S11339E0190691F40EC001968436910528F480934B
S11339F038319093393108C01092383110923931EE
S1133A0003C081E090E0F3CFFF91EF919F918F91FC
S1133A103F912F910F900BBE0F9008BE0F900FBED9
S1133A200F901F9018951F920F920FB60F921124AA
S1133A3008B60F9218BE0BB60F921BBE2F933F937E
S1133A408F939F93EF93FF932091A009E0914031CE
S1133A50F09141318091303190913131E80FF91F6B
S1133A60208380912C3190912D31019684369105DB
S1133A7060F480932C3190932D3120913631309124
S1133A80373182179307F1F40CC010922C31109245
S1133A902D3180913631909137311816190691F4F1
S1133AA00EC001968436910528F4809336319093A4
S1133AB0373108C0109236311092373103C081E09B
S1133AC090E0F3CFFF91EF919F918F913F912F91D0
S1133AD00F900BBE0F9008BE0F900FBE0F901F905B
S1133AE018951F920F920FB60F92112408B60F92D9
S1133AF018BE0BB60F921BBE2F933F938F939F93C9
S1133B00EF93FF932091B009E0913E31F0913F3162
S1133B1080912A3190912B31E80FF91F20838091F5
S1133B202A3190912B3101968436910560F480936B
S1133B302A3190932B3120913431309135318217D1
S1133B409307F1F40CC010922A3110922B3180911A
S1133B503431909135311816190691F40EC001963E
S1133B608436910528F4809334319093353108C01C
S1133B70109234311092353103C081E090E0F3CFDC
S1133B80FF91EF919F918F913F912F910F900BBED9
S1133B900F9008BE0F900FBE0F901F9018951F92A4
S1133BA00F920FB60F92112408B60F9218BE0BB6DF
S1133BB00F921BBE2F933F938F939F93EF93FF938B
S1133BC02091A00AE0913C31F0913D31809128315F
S1133BD090912931E80FF91F208380912831909129
S1133BE0293101968436910560F4809328319093AD
S1133BF02931209132313091333182179307F1F416
S1133C000CC0109228311092293180913231909158
S1133C1033311816190691F40EC0019684369105B5
S1133C2028F4809332319093333108C010923231AA
S1133C301092333103C081E090E0F3CFFF91EF9114
S1133C409F918F913F912F910F900BBE0F9008BEC3
S1133C500F900FBE0F901F9018950F93CF93DF9383
S1133C601F92CDB7DEB72FB72983F8941BBEFC0192
S1133C7008ED04BF608389818FBF0F90DF91CF91DE
S1133C800F9108950F931F93CF93DF93CDB7DEB7B2
S1133C906D97CDBFDEBFE0E6F6E080E481838583E7
S1133CA0F894E0E5F0E0808182608083818181FF87
S1133CB0FDCF60914000687F616080E490E00E94E5
S1133CC02D1EE0E5F0E080818E7F80839DEF88EDFE
S1133CD008B618BE84BF9093800008BE40EB58E03D
S1133CE060E070E0CE0101960E94D71B67E0CE0130
S1133CF001960E940B1A8C0163E770E20E94D419AA
S1133D0066E0C8010E940B1A66E00E940B1A82E169
S1133D1090E00E9420198E010F5F1F4F24E031E0D4
S1133D2040E062E970E20E94E10682E190E00E94D4
S1133D30201924E031E042E06AE970E20E94540371
S1133D4082E190E00E94201924E031E043E061EA3E
S1133D5070E20E94AD0382E190E00E94201924E009
S1133D6031E044E068EA70E20E9412048CE690E0DC
S1133D700E94201924E031E043E061EB70E20E94EC
S1133D802D0682E190E00E94201924E031E044E015
S1133D9067EB70E20E94A30687E08093A200789408
S1133DA00E94321080E090E06D96CDBFDEBFDF91BF
S1133DB0CF911F910F9108950F931F930AE010E084
S1133DC020E030E040E050E060E270E080E591E324
S1133DD00E948C171F910F9108950E942F1F08F4C1
S1133DE081E00895E89409C097FB3EF4909580958E
S1133DF0709561957F4F8F4F9F4F9923A9F0F92FAD
S1133E0096E9BB279395F695879577956795B7952A
S1133E10F111F8CFFAF4BB0F11F460FF1BC06F5F10
S1133E207F4F8F4F9F4F16C0882311F096E911C022
S1133E30772321F09EE8872F762F05C0662371F043
S1133E4096E8862F70E060E02AF09A95660F771F57
S1133E50881FDAF7880F9695879597F90895990F33
S1133E600008550FAA0BE0E8FEEF16161706E80740
S1133E70F907C0F012161306E407F50798F0621B61
S1133E80730B840B950B39F40A2661F0232B242B36
S1133E90252B21F408950A2609F4A140A6958FEF55
S1133EA0811D811D08950E942F1F08F48FEF08952E
S1133EB0DB018F939F930E94E41FBF91AF91A29F58
S1133EC0800D911DA39F900DB29F900D1124089514
S1133ED097FB072E16F4009407D077FD09D00E94B3
S1133EE0F71F07FC05D03EF4909581959F4F0895E8
S1133EF0709561957F4F0895A1E21A2EAA1BBB1BF2
S1133F00FD010DC0AA1FBB1FEE1FFF1FA217B307A1
S1133F10E407F50720F0A21BB30BE40BF50B661FB7
S1133F20771F881F991F1A9469F76095709580957B
S1133F3090959B01AC01BD01CF010895052E97FB1F
S1133F401EF400940E94B51F57FD07D00E947C1FE9
S1133F5007FC03D04EF40C94B51F50954095309552
S1133F6021953F4F4F4F5F4F0895909580957095E1
S1133F7061957F4F8F4F9F4F0895EE0FFF1F881F4E
S1133F808BBF0790F691E02D1BBE19940E94CE1FA3
S1133F90332312F48A1B9B0B0C94DF1FA29FB001E6
S1133FA0B39FC001A39F700D811D1124911DB29F69
S1133FB0700D811D1124911D08950E94CE1FB7FF1D
S1133FC00895821B930B08950E94CE1FA59F900D08
S1133FD0B49F900DA49F800D911D11240895B7FFE7
S1133FE00C94E41F0E94E41F821B930B0895AA1BE8
S1133FF0BB1B51E107C0AA1FBB1FA617B70710F0D0
S1134000A61BB70B881F991F5A95A9F78095909501
S1134010BC01CD010895FB01DC0102C001900D92A9
S113402041505040D8F70895DC0101C06D934150D0
S11340305040E0F70895FB01DC014150504048F046
S113404001900D920020C9F701C01D9241505040CB
S1134050E0F70895BB274A3031F4992322F4BDE2F6
S1134060909581959F4F0C946E202532310520F454
S1134070223010F00C944020FA011082CA010895F5
S1134080BB27FA01A62F6217710581059105330B31
S113409030FB66F0AA27660F771F881F991FAA1F97
S11340A0A21710F0A21B63953850A9F7A05DAA339C
S11340B008F0A95DA19336F7B111B1931082CA013A
S11340C00C9487204532510520F4423010F00C94B2
S11340D06D20FB011082CB010895BB27FB015527FE
S11340E0AA27880F991FAA1FA41710F0A41B839551
S11340F05051B9F7A05DAA3308F0A95DA1930097C8
S113410079F7B111B1931192CB010C948720DC01A2
S1134110FC01672F71917723E1F7329704C07C91FA
S11341206D9370836291AE17BF07C8F30895F89436
S1054130FFCFBB
S1134132FF0FFFFFFFFF00000000E102FB1500007C
S113414200006403FB1500000000BD03FB15000022
S113415200002204FB15000000003D06FB150000D0
S113416200002408FB1549444C45000000000026C9
S113417219FB1500000000BD196E1763174517C41B
S113418219C51900000000BD192619C219BF19C4A6
S113419219C51900000000BD19711BBB1B951BC476
S11341A219CE1B4672656552544F5320584D4547EC
S11341B2412054657374696E672050726F6772612F
S11341C26D0055736572496E7400456E634D747269
S11341D200456E6350656E004C696D537774636875
S10F41E2004D6F746F720050574D0000C8
S9030000FC
