:100000000C94A7020C94DD020C94DD020C94DD022A
:100010000C94DD020C94DD020C94DD020C94DD02E4
:100020000C94DD020C94DD020C94DD020C94DD02D4
:100030000C94DD020C94DD020C94DD020C94DD02C4
:100040000C94F00B0C94DD020C94DD020C94DD0298
:100050000C94DD020C94DD020C94DD020C94DD02A4
:100060000C94DD020C94DB1B0C94DD020C94DD027D
:100070000C94391C0C94DD020C94DD020C94DD020E
:100080000C94DD020C94DD020C94DD020C94DD0274
:100090000C94DD020C94DD020C94DD020C94DD0264
:1000A0000C94DD020C94DD020C94DD020C94DD0254
:1000B0000C94DD020C94DD020C94DD020C94DD0244
:1000C0000C94DD020C94DD020C94DD020C94DD0234
:1000D0000C94DD020C94DD020C94DD020C94DD0224
:1000E0000C94DD020C94DD020C94531D0C94DD0283
:1000F0000C94DD020C94DD020C94DD020C94DD0204
:100100000C94DD020C94DD020C94DD020C94DD02F3
:100110000C94DD020C94DD020C94DD020C94DD02E3
:100120000C94DD020C94DD020C94DD020C94DD02D3
:100130000C94DD020C94DD020C94DD020C94DD02C3
:100140000C94DD020C94DD020C94DD020C94DD02B3
:100150000C94DD020C94DD020C94DD020C94DD02A3
:100160000C94971C0C94DD020C94DD020C94F51C8D
:100170000C94DD020C94DD020C94DD020C94DD0283
:100180000C94DD020C94DD020C94DD020C94DD0273
:100190000C94DD020C94DD020C94DD020C94DD0263
:1001A0000C94DD020C94DD020C94DD020C94DD0253
:1001B0000C94DD020C94DD020C94DD020C94DD0243
:1001C0000C94DD020C94DD020C94DD020C94DD0233
:1001D0000C94DD020C94DD020C94DD020C94DD0223
:1001E0000C94DD020C94DD020C94DD020C94DD0213
:1001F0000C94DD020C94DD020C94DD02C719CA19BF
:10020000CD19D019D319D619D819E919F119FB1933
:10021000F9190C943F1B0C94591E0C94C7190C949B
:10022000ED160C9472190C946C190C94CC070C9468
:10023000CA190C946F190C9471190C94FB190C9435
:10024000D3190C9423040C9416170C94740E0C946C
:10025000D3180C94DE030C946E030C94A4020C943B
:100260000B170C94D8190C946A190C94F9190C9466
:10027000F1190C94A3150C94D0190C94DF020C9472
:10028000F51A0C94D6190C94E9190C94521B0C9481
:10029000CD190C94191B2C20544343304343413D4A
:1002A000002F002C204865617020667265653A2039
:1002B0000054696D653A20004E6F76203238203246
:1002C000303137004D45343035206261736520721E
:1002D0006164696F2070726F6772616D2056302E95
:1002E00034200020202020683A20202048414C5013
:1002F000210020202020653A2020204578697420A4
:10030000636F6D6D616E64206D6F646500202020E9
:1003100020733A202020537461636B2064756D70E4
:1003200020666F72207461736B730020202020762A
:100330003A20202056657273696F6E20616E6420CA
:10034000736574757020696E666F726D6174696F24
:100350006E00202020206E3A20202053686F7720E6
:100360007468652074696D65207269676874206EB1
:100370006F77002020496E20636F6D6D616E642081
:100380006D6F6465206F6E6C793A00202043746C49
:100390002D413A20456E74657220636F6D6D616EFC
:1003A00064206D6F646500202043746C2D433A20F7
:1003B0005265736574207468652041565200206848
:1003C000656C70004D453430352062617365207274
:1003D0006164696F2070726F6772616D2056302E94
:1003E0003420001B5B33306D001B5B34366D0049DD
:1003F0006C6C6567616C2073746174652120526553
:1004000073657474696E6720415652003A575446BA
:100410003F004578697420636F6D6D616E64206D77
:100420006F646500526573657474696E6720415628
:1004300052005072657373204374726C2D412066B4
:100440006F7220636F6D6D616E64206D6F64650007
:10045000526573657474696E67004552524F52203D
:10046000696E207461736B20004552524F522063B5
:1004700072656174696E67207461736B20002C2053
:10048000737461636B20617420307800206372653F
:1004900061746564005461736B20001B5B32326DC4
:1004A000005461736B3A20001B5B316D001B5B32A3
:1004B000326D005461736B3A2049444C45001B5B1C
:1004C000316D000909002F0049444C4509093009E4
:1004D0002D0900092D2D2D2D00092D2D2D2D2D2D12
:1004E0002D2D2D2D002D2D2D2D09092D2D2D2D09D5
:1004F0002D2D2D2D2D000952756E73000946726544
:10050000652F546F74616C004E616D6509095072FE
:10051000692E0953746174650009537461636B003B
:100520005461736B09092020092000090009002F7C
:1005300000090009001B5B32326D001B5B316D004E
:100540001B5B316D002020000E943B14591E1124BA
:100550001FBECFEFCDBFDFE3DEBF00E00CBF18BE94
:1005600019BE1ABE1BBE10E2A0E0B0E2ECE4F3E458
:1005700000E00BBF02C007900D92A03BB107D9F776
:100580001BBE21E3A0EBB0E201C01D92A435B2076F
:10059000E1F712E0C7EAD2E000E006C021970109C6
:1005A000802FFE010E94F920C63AD10780E008079B
:1005B000A9F70E94C61D0C94A4210C940000CF93AF
:1005C000DF9300D01F92CDB7DEB78C010E941310CD
:1005D00069837A838B839C83E0E8F6E08CE08283F6
:1005E00082898360828B83898360838BE0E8F1E07A
:1005F00082E7808389E08087E0E0F9E088E6838312
:100600008FEF9FEF86A397A381E08083C12CD12C2D
:10061000E12CF12CA12CB12C0FB6F8940F92C092C2
:100620003E31D0923F310F900FBE0FB6F8940F922B
:10063000E0924031F09241310F900FBE0FB6F89426
:100640000F928827992788199909092E000CAA0B5F
:10065000BB0BAC01BD01440F551F661F771F840FF4
:10066000951FA61FB71FAC01BD01440F551F661F84
:10067000771F440F551F661F771F840F951FA61FF6
:10068000B71F80933C3190933D310F900FBEF8011E
:1006900086859785A089B1890196A11DB11D8687A0
:1006A0009787A08BB18B41E050E060E070E0CE0115
:1006B00001960E94B1118A2C9B2CAECF0F931F93F1
:1006C000CF93DF93EC010E944E148AE090E288837E
:1006D0009983DF91CF911F910F910895CF93DF936D
:1006E00000D01F92CDB7DEB78C010E941310698332
:1006F0007A838B839C83E0E8F6E083E08283808BBF
:10070000818BE0E8F1E080E7828389E08287E0E4A2
:10071000F8E08AE6838380EA95E086A397A381E0E8
:1007200080836894EE24E6F8FF24F3F8F701A0A193
:10073000B1A10FB6F8940F9224E630E00E94022196
:100740004B015C0199232CF4F3E08F0E911CA11C4A
:10075000B11CD501C401B595A79597958795B59519
:10076000A7959795879580933A3190933B310F9059
:100770000FBEF80186859785A089B1890196A11DD4
:10078000B11D86879787A08BB18B44E650E060E06F
:1007900070E0CE0101960E94B111C8CF0F931F9354
:1007A000CF93DF93EC010E944E1482E190E28883A4
:1007B0009983DF91CF911F910F910895CF93DF938C
:1007C00000D01F92CDB7DEB78C010E941310698351
:1007D0007A838B839C83E0E6F6E081E0828384E089
:1007E000828388E1808B828B0F2EF8E6EF2EF6E075
:1007F000FF2EF02DF701808180FD8081F801868534
:100800009785A089B1890196A11DB11D868797871B
:10081000A08BB18B45E050E060E070E0CE01019626
:100820000E94B111E7CF0F931F93CF93DF93EC0199
:100830000E944E148AE190E288839983DF91CF91E0
:100840001F910F910895CF93DF9300D000D0CDB7C3
:10085000DEB73C010E94131069837A838B839C83EB
:10086000F301FE968FE692E1A3E0BCE380839183DF
:10087000A283B38381E090E0F30184AF95AF6894E5
:10088000442441F8512C0F2EFFE32F2EF02D0F2E74
:10089000FCE33F2EF02DF30186859785A089B18971
:1008A0000196A11DB11D86879787A08BB18B428EC3
:1008B000538E168E178E2F921F921F921F923F9269
:1008C000F3E2FF9327ED2F933AE03F930F2EFDECD9
:1008D0008F2EFCEC9F2EA92CFDE3BF2EF02D0F2EAA
:1008E000F4E1CF2EFEEADF2EFFE8EF2EFFEBFF2E26
:1008F000F02D04E11EEA2FE83FE3B501A401CE018B
:1009000005960E945805F301668D778D028D138D33
:10091000072E000C880B990B0E94861F6B017C012F
:10092000B801110F880B990B0E94861FAB01BC0107
:1009300097018601CE0105960E947F066B017C011E
:10094000F30124AD35AD868D978D820F931F868F71
:10095000978F10A611A660A571A5072E000C880B15
:10096000990B0E94861F9B01AC01C701B6010E9432
:10097000DC1E0E944E1FF30164A375A364A175A140
:10098000072E000C880B990B0E94861FCDBFDEBF7F
:1009900023E333E34BE851E40E943620181634F485
:1009A00021E130E0F30124A335A316C0F30164A1D3
:1009B00075A1072E000C880B990B0E94861F23E35C
:1009C00033E34BE851EC0E94D71E88232CF42FEE22
:1009D0003FEFF30124A335A3F30116AA17AA60A5DC
:1009E00071A506A917A9072E000C880B990B0E9468
:1009F000861F20E53AE641EA57E40E943B206B015E
:100A00007C01B801110F880B990B0E94861F9B0176
:100A1000AC01C701B6010E943B200E944E1FF301AA
:100A200062AB73AB46A957A9268D378D429FC00193
:100A3000439F900D529F900D112484AB95AB20A93C
:100A400031A984A995A9820F931F80AF91AF80AD82
:100A500091AD49972CF028E130E020AF31AF0BC0C9
:100A6000F30180AD91AD883E9F4F2CF428EE3FEF0F
:100A7000F30120AF31AF41E050E060E070E0CE0123
:100A800001960E94B111CE0105960E94BF0503CFC9
:100A90000F931F93CF93DF93EC010E944E1482E2D9
:100AA00090E288839983DF91CF911F910F910895F0
:100AB0002F923F924F925F926F927F928F929F926E
:100AC000AF92BF92CF92DF92EF92FF920F931F935C
:100AD000CF93DF9300D01F92CDB7DEB71C012A0160
:100AE0003B0109831A832B833C8380E290E00E94C0
:100AF000C818FC01408251826282738289819A8186
:100B0000AB81BC8184839583A683B783C086D1865D
:100B1000E286F38684869586A686B7864A8D5B8DA7
:100B20006C8D7D8D408B518B628B738B8E8D9F8DE9
:100B3000A8A1B9A1848B958BA68BB78B108E118E33
:100B4000128E138E148E158E168E178ED101ED9384
:100B5000FC932496CDBFDEBFDF91CF911F910F9103
:100B6000FF90EF90DF90CF90BF90AF909F908F90CD
:100B70007F906F905F904F903F902F900895FC0171
:100B800080819181009711F00E94CB1808954F92B7
:100B90005F926F927F928F929F92AF92BF92CF920D
:100BA000DF92EF92FF920F931F93CF93DF9300D0CA
:100BB00000D0CDB7DEB78D839E83CB01BA01A901EA
:100BC00098010E946A1E6B017C01ED81FE812485E3
:100BD0003585468557850E943B2069837A838B83C0
:100BE0009C83ED81FE814080518062807380A301EF
:100BF0009201C701B6010E943B20ED81FE81248D48
:100C0000358D468D578D0E946B1E4B015C01ED8129
:100C1000FE81648F758F868F978F208D318D428DE9
:100C2000538DC701B6010E946A1EA30192010E9462
:100C3000DC1EED81FE8120893189428953890E9421
:100C40003B202B013C01ED81FE81248935894689B9
:100C50005789C501B4010E943B2029813A814B810B
:100C60005C810E946B1E9B01AC01C301B2010E941A
:100C70006B1EB62EA72E982E892EED81FE817480D4
:100C8000658056804780272D362D452D542D0E9496
:100C900036201816B4F0ED81FE8170846184528490
:100CA0004384272D362D452D542D6B2D7A2D892DDE
:100CB000982D0E94D71E882324F07B2C6A2C592C57
:100CC000482CED81FE81C08ED18EE28EF38E672D91
:100CD000762D852D942D2696CDBFDEBFDF91CF9149
:100CE0001F910F91FF90EF90DF90CF90BF90AF904A
:100CF0009F908F907F906F905F904F9008950F938B
:100D00001F93FC01808191810E94C7051F910F9163
:100D100008950F931F93CF93DF93EC010E944E141D
:100D20008AE290E288839983DF91CF911F910F919E
:100D300008950F931F93CF93DF93EC016AE08E81A8
:100D40009F810E94B8198C0169EE73E00E9481199D
:100D50006AE0C8010E94B8198C0163EE73E00E943A
:100D6000811967E0C8010E94B8196AE08E819F81ED
:100D70000E94B8198C0164EC73E00E9481196AE04A
:100D8000C8010E94B8198C016EEB73E00E948119B2
:100D900066E0C8010E94B8196AE08E819F810E94B6
:100DA000B8198C0167EA73E00E94811966E0C801F6
:100DB0000E94B8196AE08E819F810E94B8198C0147
:100DC0006BE873E00E94811966E0C8010E94B819BF
:100DD0006AE08E819F810E94B8198C0163E773E0FD
:100DE0000E94811966E0C8010E94B8196AE08E81EC
:100DF0009F810E94B8198C0162E573E00E948119FD
:100E000066E0C8010E94B8196AE08E819F810E9445
:100E1000B8198C016BE273E00E94811966E0C80189
:100E20000E94B8196AE08E819F810E94B8198C01D6
:100E30006DE073E00E94811966E0C8010E94B81954
:100E40006AE08E819F810E94B8198C0162EF72E086
:100E50000E94811966E0C8010E94B8196AE08E817B
:100E60009F810E94B819EC0163EE72E00E94811923
:100E700066E0CE010E94B819DF91CF911F910F91CA
:100E80000895AF92BF92CF92DF92EF92FF920F93AD
:100E90001F93CF93DF9300D000D0CDB7DEB78C0186
:100EA00019821A821B821C821D821E820E94C60920
:100EB0006C01CE0101960E94FF175C0166E0F8010B
:100EC000868197810E94B8196AE00E94B8197C0156
:100ED00064EC72E00E9481196AE0C7010E94B819AF
:100EE0007C0168EB72E00E94811966E0C7010E94F4
:100EF000B8196AE00E94B8197C0161EB72E00E94A7
:100F00008119B501C7010E94A3176AE00E94B819B0
:100F10007C0163EA72E00E948119B601C7010E9458
:100F2000FF196AE00E94B8197C0161EA72E00E9430
:100F300081194FEF5FE060E070E0C7010E94331A53
:100F4000C0902808D09029086AE0F801868197812E
:100F50000E94B8197C0166E972E00E948119B6010D
:100F6000C7010E94FF1966E00E94B81966E00E945E
:100F7000B819F801868197810E945C162696CDBF2C
:100F8000DEBFDF91CF911F910F91FF90EF90DF9027
:100F9000CF90BF90AF900895CF93DF9300D000D053
:100FA000CDB7DEB78C0119821A821B821C821D828A
:100FB0001E826AE0DC0116968D919C9117970E9423
:100FC000B8197C0162E374E00E94811966E0C701F0
:100FD0000E94B819F8018485882321F0813009F432
:100FE0005DC0D8C086819781DC01ED91FC910480C1
:100FF000F581E02D19958823A9F1F8018681978163
:10100000DC01ED91FC910680F781E02D199599277F
:1010100081309105F9F0039709F0D8C06AE0F80132
:10102000868197810E94B8198C0164E274E00E9465
:10103000811966E0C8010E94B81993E088ED08B6EE
:1010400018BE84BF909380008091820081FDFCCF08
:1010500008BEFFCFC8010E94990661E0C8010E9446
:101060004A14B4C082E491E30E940B17882309F468
:10107000ADC0D8011696ED91FC9117970190F081C3
:10108000E02DE280F38082E491E30E94ED16682F68
:10109000F80186819781F701199598C0868197811B
:1010A000DC01ED91FC910480F581E02D19958823F8
:1010B00009F48CC0F80186819781DC01ED91FC91E7
:1010C0000680F781E02D19959C01332728363105DC
:1010D00059F13CF42B31310559F12536310541F1F7
:1010E0003BC023373105C1F02637310589F02E3654
:1010F000310591F5CE0101960E94FF17BC01F80160
:10110000868197810E94A31766E00E94B8195EC08D
:10111000C8010E9441075AC0D80116968D919C9132
:1011200017970E94631552C0C8010E9499064EC0CD
:101130006AE0F801868197810E94B8197C0162E11A
:1011400074E00E94811966E0C7010E94B81960E04E
:10115000C8010E944A143AC0F801A681B781ED91F6
:10116000FC9111970280F381E02D682FCD01199534
:101170006AE0D80116968D919C9117970E94B81934
:101180007C016CE074E00E94811966E0C7010E9456
:10119000B8191CC06AE0F801868197810E94B819CD
:1011A0008C016FEE73E00E94811966E0C8010E9415
:1011B000B81993E088ED08B618BE84BF90938000FC
:1011C0008091820081FDFCCF08BEFFCFF8018685AB
:1011D0009785A089B1890196A11DB11D8687978742
:1011E000A08BB18B61E070E080E090E00E941E1265
:1011F000F1CE0F931F93CF93DF93EC010E940D105C
:101200008091B02081111DC0A5EBB0E2E9EBF0E2C6
:10121000ED93FC93119712961D921C921397A1EBDC
:10122000B0E28FEF9FE012968D939C9313971D92DF
:101230001C92119782839383A083B18381E0809372
:10124000B020209709F45FC09E012B5F3F4F24968A
:10125000CE3FDF4008F05AC0E091B520F091B620B3
:10126000A5EBB0E202C0DF01FC018281938182170D
:10127000930720F4808191810097A9F7C0E2E13BB8
:10128000FC0709F446C0CD91DC9111978E010B5FEC
:101290001F4F808191818D939C9382819381821BCA
:1012A000930B8B30910510F1BF01620F731FDB01AF
:1012B00012968D939C9313972283338312964D91AC
:1012C0005C91139785EB90E201C0CD01EC01A88100
:1012D000B98112962D913C91139724173507A8F3E5
:1012E000EB01A883B983DC016D937C93809100208E
:1012F0009091012022813381821B930B80930020E7
:101300009093012008C000E010E005C000E010E06C
:1013100002C000E010E00E942F11C801DF91CF91C0
:101320001F910F9108950F931F93CF93DF93009711
:1013300041F1EC018C01055011090E940D10F801DA
:1013400042815381A5EBB0E201C0DF01ED91FC9138
:1013500011972281338124173507B8F32597E88345
:10136000F9830D931C9320910020309101208A81F4
:101370009B81820F931F80930020909301200E94F5
:101380002F11DF91CF911F910F910895809100202F
:10139000909101200895FC010396818392834FEF81
:1013A0005FEFBA0143835483658376838783908795
:1013B0008187928710820895FC0112861386089512
:1013C000CF93DF93FC01DB0121813281E9018C8124
:1013D0009D8114968D939C93159781819281169689
:1013E0008D939C9317978C819D81EC016E837F83F5
:1013F000E9016C837D83618372831A96ED93FC937C
:101400001B9780818F5F8083DF91CF9108950F9329
:101410001F93CF93DF93EB01088119812A813B81D0
:101420000F3F4FEF14072407340731F4DC011996FE
:10143000ED91FC911A971FC0FC013396DC011796C1
:101440004D915C911897DA014D915D916D917C9170
:10145000041715072607370770F00480F581E02D83
:10146000A481B5814D915D916D917C910417150713
:101470002607370790F7A481B581AC83BD83169604
:10148000CD93DC931797EE83FF83C483D5838A873C
:101490009B87FC0120812F5F2083DF91CF911F91DB
:1014A0000F910895FC01A481B581868197811696DC
:1014B0008D939C931797A681B7818481958114960B
:1014C0008D939C931597A285B38511968D919C91D0
:1014D0001297E817F90731F48681978111968D9359
:1014E0009C931297128613868C9181508C93089549
:1014F000809352319093533131E1FC013083319725
:1015000022E220833197A3E3A08331976083319750
:1015100070833197108231971082319760E8608331
:10152000319710823197108231971082319762E0A3
:101530006083319763E06083319764E06083319723
:1015400065E06083319766E06083319767E0608390
:10155000319768E06083319769E06083319760E19B
:10156000608331973083319732E13083319733E1B3
:101570003083319734E13083319735E130833197CF
:1015800036E13083319737E13083319738E130836A
:10159000319739E13083319730E23083319731E24E
:1015A000308331972083319723E220833197408322
:1015B00031975083319726E22083319727E22083A9
:1015C000319728E22083319729E22083319720E365
:1015D0002083319721E32083899708958CE78093B6
:1015E00029088FEF8093280881E08093000891E11B
:1015F0009093010880930708A0911831B091193198
:10160000CD91CDBFDD91DEBFFF91EF91DF91CF9105
:10161000BF91AF919F918F917F916F915F914F910A
:101620003F912F911F910F91FF90EF90DF90CF90FE
:10163000BF90AF909F908F907F906F905F904F90F2
:101640003F902F901F900F900CBE0F900BBE0F90ED
:101650000FBE0F90089508950F920FB6F8940F9251
:101660000BB60F920CB60F921F9211242F923F923D
:101670004F925F926F927F928F929F92AF92BF92A2
:10168000CF92DF92EF92FF920F931F932F933F938E
:101690004F935F936F937F938F939F93AF93BF937A
:1016A000CF93DF93EF93FF93A0911831B09119314D
:1016B0000DB60D920EB60D920E944C12A0911831EB
:1016C000B0911931CD91CDBFDD91DEBFFF91EF918A
:1016D000DF91CF91BF91AF919F918F917F916F914A
:1016E0005F914F913F912F911F910F91FF90EF903C
:1016F000DF90CF90BF90AF909F908F907F906F9032
:101700005F904F903F902F901F900F900CBE0F90C6
:101710000BBE0F900FBE0F9008950F920FB6F89466
:101720000F920BB60F920CB60F921F9211242F92AC
:101730003F924F925F926F927F928F929F92AF9261
:10174000BF92CF92DF92EF92FF920F931F932F934E
:101750003F934F935F936F937F938F939F93AF9339
:10176000BF93CF93DF93EF93FF93A0911831B09184
:1017700019310DB60D920EB60D920E942E100E94D8
:101780004C12A0911831B0911931CD91CDBFDD919E
:10179000DEBFFF91EF91DF91CF91BF91AF919F910C
:1017A0008F917F916F915F914F913F912F911F91F9
:1017B0000F91FF90EF90DF90CF90BF90AF909F90F0
:1017C0008F907F906F905F904F903F902F901F90E1
:1017D0000F900CBE0F900BBE0F900FBE0F90089590
:1017E0000E948D0B1895CF93DF93EC0188A1811196
:1017F0000BC088819981892BE1F58A819B810E94A8
:1018000007141A821B8235C0411117C0482F50E0BF
:101810008C819D810E94232128A18C819D81820F32
:10182000911D8C839D832A813B818217930708F148
:10183000888199818C839D831CC0482F50E08E81C4
:101840009F810E94232188A190E091958195910923
:101850002E813F81280F391F2E833F834881598174
:101860002417350730F42A813B81820F931F8E8322
:101870009F838E8D8F5F8E8FDF91CF910895FC01B6
:10188000808191810097A1F040A150E026813781AD
:10189000240F351F26833783A281B3812A173B0784
:1018A00010F086839783CB01668177810E94232184
:1018B00008950F931F93CF93DF93EC010FB6F89425
:1018C0000F928AA11816B4F48B89811105C012C039
:1018D0008B89811104C00EC08E010D5E1F4FC8019F
:1018E0000E94D31281110E9490138AA181508AA371
:1018F000181674F38FEF8AA30F900FBE0FB6F894EB
:101900000F9289A11816B4F48885811105C012C000
:101910008885811104C00EC08E01085F1F4FC80169
:101920000E94D31281110E94901389A1815089A332
:10193000181674F38FEF89A30F900FBEDF91CF912C
:101940001F910F9108951F93CF93DF93613059F04A
:10195000FC012389308531112CC011E0211110E0E8
:10196000211128C001C011E0EC014881598128A152
:1019700030E06F8D629FC001639F900D1124BA010A
:10198000680F791F6A837B831E8E4C835D83821B65
:10199000930B840F951F8E839F838FEF89A38AA358
:1019A000CE0108960E94CB09CE0143960E94CB0936
:1019B00001C010E0812FDF91CF911F9108950F9307
:1019C0001F93CF93DF93882301F1062F182F83E213
:1019D00090E00E94F908EC01892BC9F0109FC0012A
:1019E000112401960E94F90888839983892B39F084
:1019F0001F8F08A361E0CE010E94A30C08C0CE0196
:101A00000E949309C0E0D0E002C0C0E0D0E0CE0167
:101A1000DF91CF911F910F910895AF92BF92CF9216
:101A2000DF92EF92FF920F931F93CF93DF93CDB787
:101A3000DEB72997CDBFDEBF7C015B012E833F83DC
:101A40004887598710E06C0188E0C80ED11C0FB69A
:101A5000F8940F92F701968D878D9817A8F4402F70
:101A6000B501C7010E94F30BF7018389882341F078
:101A7000C70143960E94D312813011F40E942C0BAF
:101A80000F900FBE81E056C08E819F81A885B985D9
:101A9000892B8A2B8B2B21F40F900FBE80E04AC03C
:101AA000111105C0CE0101960E94121311E00F9092
:101AB0000FBE0E940D100FB6F8940F92F70181A18E
:101AC0008F3F09F411A2F70182A18F3F09F412A2FE
:101AD0000F900FBEBE016A5F7F4FCE0101960E943C
:101AE0002313811121C00FB6F8940F92F701968D40
:101AF0000F900FBE878D981311C04E815F8168854E
:101B00007985C6010E94A912C7010E94590C0E9442
:101B10002F1181119CCF0E942C0B99CFC7010E94DD
:101B2000590C0E942F1193CFC7010E94590C0E949B
:101B30002F1180E02996CDBFDEBFDF91CF911F919D
:101B40000F91FF90EF90DF90CF90BF90AF900895EE
:101B5000AF92BF92CF92DF92EF92FF920F931F93BB
:101B6000CF93DF93CDB7DEB72997CDBFDEBF7C0122
:101B70005B012E833F834887598710E06C0183E126
:101B8000C80ED11C0FB6F8940F92F701868D8823EA
:101B900099F1C680D780B501C7010E943F0C0111A1
:101BA0001AC0F701868D8150868F80819181892BA3
:101BB00029F40E94AD13F70182839383F701808596
:101BC0008823B1F0C70108960E94D312813081F4B6
:101BD0000E942C0B0DC0F701C682D782838988230F
:101BE00039F0C70143960E94D31281110E942C0B39
:101BF0000F900FBE81E062C08E819F81A885B9855C
:101C0000892B8A2B8B2B21F40F900FBE80E056C0BE
:101C1000111105C0CE0101960E94121311E00F9020
:101C20000FBE0E940D100FB6F8940F92F70181A11C
:101C30008F3F09F411A2F70182A18F3F09F412A28C
:101C40000F900FBEBE016A5F7F4FCE0101960E94CA
:101C5000231381112DC00FB6F8940F92F701868DD2
:101C60000F900FBE81111EC080819181892B49F494
:101C70000FB6F8940F92828193810E94B2130F9055
:101C80000FBE4E815F8168857985C6010E94A912C9
:101C9000C7010E94590C0E942F11811173CF0E941D
:101CA0002C0B70CFC7010E94590C0E942F116ACFD4
:101CB000C7010E94590C0E942F1180E02996CDBFC8
:101CC000DEBFDF91CF911F910F91FF90EF90DF90DA
:101CD000CF90BF90AF9008950FB6F8940F92FC018B
:101CE000868D0F900FBE0895CCEED0E388818230B0
:101CF000E8F30E942C0BFACFCF92DF92EF92FF9283
:101D00006B017C01E0911831F0911931628373838A
:101D1000848395838091C0309091C130A091C2306E
:101D2000B091C330C816D906EA06FB0668F4609184
:101D30001831709119318091D2309091D3306E5F0B
:101D40007F4F0E94070A21C06091183170911931AC
:101D50008091D4309091D5306E5F7F4F0E94070AFA
:101D60008091022090910320A0910420B091052041
:101D7000C816D906EA06FB0640F4C0920220D092AB
:101D80000320E0920420F0920520FF90EF90DF9076
:101D9000CF9008954F925F926F927F928F929F9211
:101DA000AF92BF92CF92DF92EF92FF920F931F9369
:101DB000CF93DF935C014B013A01290188E290E067
:101DC0000E94F908EC01892B09F4D4C0C114D10494
:101DD00009F0CCC0C3010E94F9088B8F9C8F00973B
:101DE00021F4CE010E949309C5C0A30161E170E016
:101DF0000E942C219301215031098B8D9C8D3C0137
:101E0000620E731E4AE050E0B401CE014D960E946E
:101E100033211EA2102F043008F013E01A8F1FA3E5
:101E20006E0122E0C20ED11CC6010E94DC09CE0167
:101E30000E960E94DC09CA87DB8784E090E0A0E070
:101E4000B0E0811B9109A109B1098E879F87A88BFA
:101E5000B98BCE8BDF8BA201B501C3010E94780A3A
:101E600088839983E114F10419F0F701C083D183C9
:101E70000FB6F8940F928091C4308F5F8093C43076
:101E80008091183190911931892B89F5C0931831BF
:101E9000D09319318091C4308130C1F58CEE90E33C
:101EA0000E94CB0987EF90E30E94CB0982E091E387
:101EB0000E94CB098DE091E30E94CB0981EE90E373
:101EC0000E94CB0986ED90E30E94CB0987EC90E35A
:101ED0000E94CB0981EE90E38093D4309093D5306B
:101EE00086ED90E38093D2309093D3300FC08091F1
:101EF000BD3081110BC0E0911831F0911931828D04
:101F0000081720F0C0931831D09319318A8D909121
:101F1000BF30981710F48093BF309091B8309F5F16
:101F20009093B8309091BE30981710F48093BE30E3
:101F3000FBE08F9FC0011124B60184519F4C0E9489
:101F4000E0090F900FBE8091BD30882359F0E091D9
:101F50001831F0911931828D801730F40E942C0BCA
:101F600081E009C081E007C081E005C0CB8EDC8E36
:101F7000C6013BCF8FEFDF91CF911F910F91FF9063
:101F8000EF90DF90CF90BF90AF909F908F907F9019
:101F90006F905F904F9008950FB6F8940F9200974E
:101FA00021F480911831909119310F900FBEFC01EE
:101FB000828D0895AF92BF92CF92DF92EF92FF92FF
:101FC0000F93A12CB12CC12CD12C0F2EF5ECEF2EA0
:101FD000F0E3FF2EF02D00E020E030E044E650E09A
:101FE0006EE270E284E79EE00E94CA0E813069F4DE
:101FF000F8948093BD301092C0301092C13010928E
:10200000C2301092C3300E94EE0A0F91FF90EF9001
:10201000DF90CF90BF90AF9008958091BC308F5FDC
:102020008093BC3008950FB6F8940F926091C03041
:102030007091C1308091C2309091C3300F900FBE2B
:102040000895009721F480911831909119314D969F
:1020500008958091C5309091C6300895FF920F93F6
:102060001F93CF93DF938091BC308111EDC080919D
:10207000C0309091C130A091C230B091C330019670
:10208000A11DB11D8093C0309093C130A093C23088
:10209000B093C3308091C0309091C130A091C230D4
:1020A000B091C330892B8A2B8B2BF1F58091D430E2
:1020B0009091D5302091D2303091D3302093D430CC
:1020C0003093D5308093D2309093D3308091B93013
:1020D0008F5F8093B930E091D430F091D53080811A
:1020E00081110CC08FEF9FEFDC0180930220909351
:1020F0000320A0930420B093052016C0E091D430B3
:10210000F091D5300780F085E02D0084F185E02D39
:1021100082819381A481B5818093022090930320D2
:10212000A0930420B09305204091C0305091C1305D
:102130006091C2307091C330809102209091032051
:10214000A0910420B0910520481759076A077B0722
:1021500008F47FC0E091D430F091D530808188239D
:10216000F9F0E091D430F091D5300780F085E02D82
:10217000C085D1858A819B81AC81BD814091C03071
:102180005091C1306091C2307091C33048175907E7
:102190006A077B0758F10F2EFBE0FF2EF02D2FC0B2
:1021A0008FEF9FEFDC018093022090930320A09398
:1021B0000420B09305204DC0E091D430F091D5308B
:1021C0000780F085E02DC085D1858A819B81AC8117
:1021D000BD814091C0305091C1306091C23070914A
:1021E000C330481759076A077B0748F480930220D9
:1021F00090930320A0930420B09305202AC08E0161
:102200000E5F1F4FC8010E94520A888D998D892B3D
:1022100021F0CE010E960E94520A8A8D9091BE3016
:10222000981710F48093BE30F89EC0011124B801B5
:1022300084519F4C0E94E009E091D430F091D53058
:1022400080818111B9CFACCF8091BB308F5F8093FB
:10225000BB30DF91CF911F910F91FF900895CF92E6
:10226000DF92EF92FF920F931F93CF93DF930FB6FE
:10227000F8940F928091BC3081508093BC30809153
:10228000BC30811160C08091C43081112CC05EC00F
:10229000D7011796ED91FC911897C085D185CE0195
:1022A0000E960E94520A8E010E5F1F4FC8010E94B7
:1022B000520A8A8D9091BE30981710F48093BE30E8
:1022C000D89EC0011124B80184519F4C0E94E0099E
:1022D000E0911831F09119319A8D828D981770F034
:1022E000CC24C3940BC0C12C0F2EF7ECEF2EF0E3DF
:1022F000FF2EF02D0F2EFBE0DF2EF02DF701808159
:102300008111C6CF8091BB30882381F08091BB3092
:10231000882399F00E942E108091BB3081508093C9
:10232000BB308091BB308111F5CF07C0F1E0CF16F3
:1023300021F08091BA30813041F41092BA300E947D
:102340002C0B81E003C080E001C080E00F900FBE45
:10235000DF91CF911F910F91FF90EF90DF90CF9081
:102360000895CF92DF92EF92FF92CF93DF93EC012B
:102370006A017B010E940D1088819981AA81BB812D
:10238000C80ED91EEA1EFB1E4091C0305091C130CC
:102390006091C2307091C330481759076A077B07B4
:1023A000B8F4C816D906EA06FB06E0F58091C030FD
:1023B0009091C130A091C230B091C330C882D9820F
:1023C000EA82FB828C159D05AE05BF05F8F413C0AB
:1023D000C816D906EA06FB0600F18091C03090913C
:1023E000C130A091C230B091C3308C159D05AE05AF
:1023F000BF0598F017C0809118319091193102965D
:102400000E94520AC701B6010E947C0E0E942F1141
:1024100081110DC00E942C0B0AC0C882D982EA82A9
:10242000FB82E9CFC882D982EA82FB82EFCFDF91BB
:10243000CF91FF90EF90DF90CF900895CF92DF92F1
:10244000EF92FF926B017C01672B682B692BE9F0FF
:102450000E940D108091C0309091C130A091C23087
:10246000B091C330C80ED91EEA1EFB1E80911831F0
:102470009091193102960E94520AC701B6010E943A
:102480007C0E0E942F11811102C00E942C0BFF9024
:10249000EF90DF90CF9008958091BC3081110CC0F7
:1024A000E091BE304BE0E49FF0011124E451FF4C79
:1024B0008081882329F014C081E08093BA30089588
:1024C0009BE08091BE3081508093BE30E091BE3061
:1024D0009E9FF0011124E451FF4C8081882389F3F1
:1024E0008091BE30282F30E04BE0849FC001112442
:1024F000DC01A451BF4C1196ED91FC911297048020
:10250000F581E02D1196ED93FC93129781519F4C2C
:10251000E817F90761F4848195814BE0429FF0014F
:10252000439FF00D1124E451FF4C818392838BE093
:10253000829FF001839FF00D1124E451FF4C018034
:10254000F281E02D80859185809318319093193127
:102550000895CF92DF92EF92FF926A017B01609122
:10256000183170911931625F7F4F0E94070A809184
:1025700018319091193102960E94520A8091C03010
:102580009091C130A091C230B091C330BC01CD0157
:102590006C0D7D1D8E1D9F1D0E947C0EFF90EF9087
:1025A000DF90CF9008950F931F93CF93DF93DC01BB
:1025B0001796ED91FC911897C085D1858E01025F29
:1025C0001F4FC8010E94520A8091BC30811116C071
:1025D0000C501109C8010E94520A8A8D9091BE3098
:1025E000981710F48093BE30BBE08B9FC00111247C
:1025F000B80184519F4C0E94E00905C0B80187ECE6
:1026000090E30E94E009E0911831F091193181E0E6
:102610002A8D928D291708F480E0DF91CF911F91C8
:102620000F9108952091B930FC0120834091C03072
:102630005091C1306091C2307091C3304183528358
:102640006383748308958F929F92AF92BF92CF92CB
:10265000DF92EF92FF920F931F93CF93DF93FC01D2
:102660000FB6F8940F928091B9309081981789F045
:102670008091C0309091C130A091C230B091C330F0
:10268000018112812381348180179107A207B3074A
:10269000A8F58091C0309091C130A091C230B09126
:1026A000C330C180D280E380F480EB0108811981BE
:1026B0002A813B818C199D09AE09BF0980179107BA
:1026C000A207B307E8F4CF018090C0309090C130EA
:1026D000A090C230B090C330B501A4014C195D097F
:1026E0006E097F09041B150B260B370B0883198312
:1026F0002A833B830E94121380E003C081E001C063
:1027000081E00F900FBEDF91CF911F910F91FF904D
:10271000EF90DF90CF90BF90AF909F908F900895F3
:1027200081E08093BA300895009721F480911831A8
:1027300090911931DC015B96ED91FC915C97808161
:10274000813141F4319680E090E001962191213170
:10275000E1F3089580E090E0089580911831909120
:10276000193108950F931F93CF93DF93FC01228DAE
:10277000A0911831B09119315A968C91281708F010
:1027800041C0A0911831B09119315A963C9184E022
:1027900090E0A0E0B0E0831B9109A109B109868710
:1027A0009787A08BB18B8BE0289F90011124245137
:1027B0003F4C8485958582179307E9F48F01EF01DB
:1027C0002296CE010E94520AE0911831F0911931FF
:1027D000828DF801828F9091BE30981710F480930B
:1027E000BE30FBE08F9FC0011124BE0184519F4C7D
:1027F0000E94E00907C0A0911831B09119315A9692
:102800008C91828FDF91CF911F910F9108950F933B
:102810001F93CF93DF93009749F1FC01328D27A1DD
:10282000321721F1EC018C010E5F1F4FC8010E948D
:10283000520A8FA18A8F44E050E060E070E0481BAC
:102840005109610971094E875F87688B798B909177
:10285000BE30981710F48093BE30FBE08F9FC0010C
:102860001124B80184519F4C0E94E009DF91CF915F
:102870001F910F910895EC01E881F9810190F08199
:10288000E02D19951A821B826FEF7FEFCB010E941A
:102890001E12FACFFC016487658708954F925F92FC
:1028A0006F927F928F929F92AF92BF92CF92DF9260
:1028B000EF92FF920F931F93CF93DF93CDB7DEB7C5
:1028C0002A97CDBFDEBF4C012901380187E390E292
:1028D000F40180839183FB018081882369F0DE010C
:1028E0001196319690E002C0993039F09F5F8D9338
:1028F00081918111F9CF01C090E0E1E0F0E0EC0FAF
:10290000FD1FE90FF11D10827401F2E0EF0EF11CC2
:10291000A12CB12CC12CD12C042F9401A201BE01F9
:102920006F5F7F4F84EA92E00E94CA0EF4016682D4
:1029300077824086518620911A3130911B31248351
:10294000358380921A3190921B31148615864090FF
:10295000523150905331FFEF4F1A5F0A409252317B
:1029600050925331F4014286538616861786108A98
:10297000118A6114710409F444C0813079F56AE068
:10298000C3010E94B8197C0165E974E00E948119B5
:10299000BE016F5F7F4FC7010E9481196AE0C701C6
:1029A0000E94B8197C016CE874E00E9481196AE009
:1029B000C7010E94B8197C016EE774E00E9481197A
:1029C00063E0C7010E94B819B2010E94FF1962E0DA
:1029D0000E94B81966E00E94B81913C06AE0C301EA
:1029E0000E94B8194C0169E674E00E948119BE0189
:1029F0006F5F7F4FC4010E94811966E0C4010E948D
:102A0000B8192A96CDBFDEBFDF91CF911F910F91EC
:102A1000FF90EF90DF90CF90BF90AF909F908F90FE
:102A20007F906F905F904F900895CF92DF92EF92DA
:102A3000FF920F931F93CF93DF93EC017B018A8169
:102A40009B810E9421106C016AE0C7010E94B819A5
:102A50008C0168EA74E00E9481196AE0C8010E9452
:102A6000B8198C0161EA74E00E948119B601C801AD
:102A70000E9481196AE0C8010E94B8198C016BE9B3
:102A800074E00E94811966E0C8010E94B8198A8525
:102A90009B85E885F98501E121E0A701BC018E1B3A
:102AA0009F0B0E9417188C819D81009719F0B70128
:102AB0000E941515DF91CF911F910F91FF90EF901C
:102AC000DF90CF9008950F931F93CF93DF93EC0186
:102AD00080911A3190911B31009719F0BE010E942C
:102AE00015156AE0CE010E94B8198C016EEB74E0F6
:102AF0000E9481196AE0C8010E94B8198C0163EB39
:102B000074E00E9481196AE0C8010E94B8198C0122
:102B10006DEA74E00E94811966E0C8010E94B8194C
:102B20008091523190915331BC016F5F7F4F01E131
:102B300021E0AE01835691090E941718DF91CF91D1
:102B40001F910F9108958F929F92AF92BF92CF9253
:102B5000DF92EF92FF920F931F93CF93DF93EC01DD
:102B60008B018A819B810E942110BC01C8010E94B7
:102B70008119D801ED91FC910280F381E02D69E08B
:102B8000C80119958A819B810E942110FC01019046
:102B90000020E9F73197E81BF90B389748F4D80182
:102BA000ED91FC910280F381E02D69E0C801199557
:102BB000CE84DF84E888F988A884B9848A819B81DF
:102BC0000E949413982E8C848A819B810E94CC0F42
:102BD000682FC8010E94751A6AE00E94B819EC01BA
:102BE00063E375E00E948119682DCE010E94751A79
:102BF0006AE00E94B819EC0161E375E00E94811956
:102C0000692DCE010E94751A6AE00E94B819EC0184
:102C10006FE275E00E948119B501CE010E94FF1993
:102C20006AE00E94B819EC016DE275E00E9481191A
:102C30006AE0CE010E94B819EC016BE275E00E94D7
:102C40008119B701A601CE010E94331ADF91CF91FD
:102C50001F910F91FF90EF90DF90CF90BF90AF90BA
:102C60009F908F900895CF93DF93EC01CB01DB0110
:102C7000ED91FC910280F381E02DBE011995CE010A
:102C8000DF91CF9108950F931F93CF93DF93EC01C2
:102C90008B01BC01C8010E94331666E00E94B8197E
:102CA0008C819D81009719F0B8010E944316DF9135
:102CB000CF911F910F9108950F931F93CF93DF939F
:102CC000EC016AE00E94B8198C0160E275E00E9494
:102CD00081196AE0C8010E94B8198C0169E175E0A8
:102CE0000E94811966E0C8010E94B8196AE0CE010D
:102CF0000E94B8198C0168E075E00E9481196AE0B1
:102D0000C8010E94B8198C016CEF74E00E9481190F
:102D10006AE0C8010E94B8198C0166EF74E00E9455
:102D2000811966E0C8010E94B8196AE0CE010E94CC
:102D3000B8198C0165EE74E00E9481196AE0C8013F
:102D40000E94B8198C0169ED74E00E9481196AE053
:102D5000C8010E94B8198C0163ED74E00E948119CA
:102D600066E0C8010E94B81980911A3190911B3118
:102D7000009719F0BE010E9443160E9429100E947C
:102D80009413182F6AE0CE010E94B819EC0168EC88
:102D900074E00E948119612FCE010E94751A6AE0C9
:102DA0000E94B819EC0166EC74E00E94811964E697
:102DB00070E0CE010E94FF196AE00E94B819EC0190
:102DC00063EC74E00E94811966E0CE010E94B8199C
:102DD000DF91CF911F910F9108950F93CF93DF93C0
:102DE0001F92CDB7DEB700E02FEF3FEFA901BE0184
:102DF0006F5F7F4FFC01808591850E94A80D813017
:102E000019F4898190E002C08FEF9FEF0F90DF915E
:102E1000CF910F910895FC01808591850E946C0EE1
:102E200091E0811101C090E0892F08950F93CF9315
:102E3000DF931F92CDB7DEB76983FC01228533850E
:102E40004485558500E0BE016F5F7F4F8085918589
:102E50000E940D0D91E0811101C090E0892F0F902B
:102E6000DF91CF910F9108958F929F92BF92CF9251
:102E7000DF92EF92FF920F931F93CF93DF93EC01BA
:102E8000B62E4A01680179010E9473198FE390E21E
:102E9000888399838E869F8640E061E08B2D0E9417
:102EA000DF0C88879987CA86DB86EC86FD86DF91F2
:102EB000CF911F910F91FF90EF90DF90CF90BF9037
:102EC0009F908F900895CF92DF92EF92FF92CF93D1
:102ED000DF93EC01688179818A819B810F2EF8EE66
:102EE000CF2EF3E0DF2EE12CF12CF02DA70196017F
:102EF0000E94B8209B01AC0160E472E48FE090E096
:102F00000E94A820A70196010E94B82069017A01B9
:102F1000AC81BD8120E432E44FE050E00E94092101
:102F200020E038E448EE51E00E94B820C701B60125
:102F3000620F731F841F951FDF91CF91FF90EF9059
:102F4000DF90CF900895CF92DF92EF92FF920F9390
:102F50001F93CF93DF93CDB7DEB72F97CDBFDEBFE3
:102F60006C018B01DB016D917D918D919C9128EE1F
:102F700033E040E050E00E94B820BA01A901C60148
:102F80000E94331AD601ED91FC910280F381E02D6D
:102F90006EE2C6011995C8010E9463178E01095F90
:102FA0001F4FFE0131967F012AE030E040E050E003
:102FB0000E94DA20E62F288739874A875B87688551
:102FC00079858A859B8520E32E0FD8012E938D016C
:102FD000AE15BF0549F71F82BE016F5F7F4FC60167
:102FE0000E948119C6012F96CDBFDEBFDF91CF9120
:102FF0001F910F91FF90EF90DF90CF900895CF93A6
:10300000DF93EC010FB6F8940F9280912008909115
:1030100021088C839D830E941310688379838A839F
:103020009B830F900FBECE01DF91CF9108955F92E9
:103030006F927F928F929F92AF92BF92CF92DF92C8
:10304000EF92FF920F931F93CF93DF935C014B019D
:103050007A01122F702E63E0CA010E94B819A814D9
:10306000B90408F07DC0650184E1C80ED11C00E000
:103070006A2C5B2CB501C7010E94FF196AE00E940F
:10308000B81965E475E00E948119112309F46DC037
:10309000002309F46AC06AE0C7010E94B81960E41D
:1030A00075E00E94811961C0112371F001110CC0FB
:1030B0008881871549F06AE0C7010E94B8196BE35F
:1030C00075E00E94811901E06991C7010E94751A9B
:1030D000DC01ED91FC910280F381E02D60E2199515
:1030E000CC16DD0609F7112389F06AE0C7010E94BA
:1030F000B819EC0165E375E00E948119E881F98156
:103100000280F381E02D60E2CE011995C62DD52D08
:10311000699180EE860F8F3548F4D701ED91FC91CF
:103120000280F381E02DC701199509C0D701ED9107
:10313000FC910280F381E02D6EE2C7011995CC1657
:10314000DD0631F7B4E1AB0EB11C66E0C7010E94A9
:10315000B81984E1C80ED11CA814B90408F488CFAA
:1031600062E0C7010E94B81903C0C62DD52D9CCFBF
:10317000DF91CF911F910F91FF90EF90DF90CF9053
:10318000BF90AF909F908F907F906F905F900895C9
:103190000E94F9080895009711F00E94930908957C
:1031A0000E94F90808950895CF93DF93FC01DA0196
:1031B000403A68E0560749F480E496E082839383BE
:1031C00082E0848383E0858332C0403B78E0570708
:1031D00049F480E496E08283938386E0848387E0E9
:1031E000858325C0403A89E0580749F480E696E097
:1031F0008283938382E0848383E0858318C0403B8D
:1032000069E0560749F480E696E08283938386E07E
:10321000848387E085830BC0403A5A4041F480E8BC
:1032200096E08283938382E0848383E08583A68310
:10323000B783CD0101968087918703968287938714
:103240002581C281D3814C8181E090E0BC0102C024
:10325000660F771F2A95E2F79B01242B2C8325818B
:10326000C281D3814881BC0102C0660F771F2A95B5
:10327000E2F79B01242B28833481C281D3812881EA
:1032800002C0880F991F3A95E2F7809590958223A6
:10329000888380E113968C93139783E015968C9323
:1032A000159780EF17968C93179781E216968C935B
:1032B000169788E114968C9380E8858780E486874A
:1032C00080E284870680F781E02D80818081DF9114
:1032D000CF91089581E0089580E090E0089580E026
:1032E000089508950895FC018FE490E2808391830E
:1032F0008AE08283138283E0858314821682178298
:1033000008950F931F93CF93DF938C01FB01DC0192
:1033100014968C91811104C06081611117C023C083
:10332000D80114961C92EB01219664916623D9F082
:10333000D801ED91FC910280F381E02DC80119952F
:10334000FE01649121966111F3CF0DC0EF0121962A
:10335000D801ED91FC910280F381E02DC80119950F
:1033600069916111F5CFDF91CF911F910F91089570
:10337000CF93DF93EC01862F90E08B309105D8F549
:10338000FC018827E250FF4F8F4F0C94F92082E018
:103390008A8331C088E08A832EC08AE08A832BC06A
:1033A00080E18A8328C081E08B8325C01B8223C0F3
:1033B000E881F9810280F381E02D6DE0CE0119955D
:1033C000E881F9810280F381E02D6AE0CE01199550
:1033D00012C0E881F9810284F385E02DCE011995B0
:1033E0000AC0E881F9810084F185E02DCE011995AC
:1033F00002C081E08C83CE01DF91CF910895FF92CE
:103400000F931F93CF93DF93CDB7DEB76197CDBFF7
:10341000DEBF8C01F62E972FF8014281403121F05A
:10342000483011F0423041F4692FC8010E94751AEA
:103430006F2D0E94751A0DC050E0BE016F5F7F4F67
:103440008F2D0E946F21BE016F5F7F4FC8010E94C8
:103450008119C8016196CDBFDEBFDF91CF911F9169
:103460000F91FF900895DF92EF92FF920F931F93B9
:10347000CF93DF93CDB7DEB7A197CDBFDEBF8C0171
:10348000D42EE52EF62E972FF8012281203121F03F
:10349000283011F0223071F4692FC8010E94751A8A
:1034A0006F2D0E94751A6E2D0E94751A6D2D0E9447
:1034B000751A0FC030E0AE014F5F5F4F6D2D7E2D4E
:1034C0008F2D0E944221BE016F5F7F4FC8010E9475
:1034D0008119C801A196CDBFDEBFDF91CF911F91A9
:1034E0000F91FF90EF90DF900895CF92DF92EF92CF
:1034F000FF920F931F93CF93DF93CDB7DEB729973A
:10350000CDBFDEBF8C01E62EDC0113968C911397A4
:10351000882341F0ED91FC910280F381E02DC801F8
:10352000199556C0F8014281423019F56894CC24AF
:10353000C3F8D12C6894FF24F7F88E2D8F2151F019
:10354000D801ED91FC910280F381E02D61E3C80187
:10355000199509C0D801ED91FC910280F381E02D0D
:1035600060E3C8011995F694B1E0CB1AD10829F7A8
:103570002FC04031F9F462956F700190F081E02D19
:103580000280F381E02D6A3010F0695C01C0605D5B
:10359000C80119956E2D6F70D801ED91FC910280D4
:1035A000F381E02D6A3010F0695C01C0605DC801F4
:1035B00019950EC050E0BE016F5F7F4F8E2D90E0D9
:1035C0000E946F21BE016F5F7F4FC8010E94811969
:1035D000C8012996CDBFDEBFDF91CF911F910F911A
:1035E000FF90EF90DF90CF900895DC015096ED9121
:1035F000FC915197808154964C915497842329F0E3
:1036000009C02150310919F412C021E23EE4908131
:103610009423B9F3908156968C915697892B808389
:103620001E96ED91FC911F97608381E0089580E0E4
:103630000895CF93DF93FC01C18DD28D288139810C
:10364000A38DB48D4D915C9124173507E9F3A789BB
:10365000B08D0D90BC91A02DA20FB31F8C912F5F48
:103660003F4F288339832436310528F0018CF28DB1
:10367000E02D1082118290E0DF91CF910895CF93D9
:10368000DF93EC01A98DBA8DEB8DFC8D81E04D911E
:103690005C91208131814217530709F480E0DF916A
:1036A000CF910895DC01ED91FC910280F381E02D32
:1036B0006CE019950895EF92FF920F931F93CF93AB
:1036C000DF93EC017B018A010E947319A801B70105
:1036D000CE0108960E94D4188FE590E288839983E2
:1036E000003A88E0180769F488E391E38F8B988F9C
:1036F0008EE291E3898F9A8F84E291E38B8F9C8F86
:1037000042C0003BE8E01E0769F486E391E38F8B3B
:10371000988F8CE291E3898F9A8F82E291E38B8F6D
:103720009C8F31C0003AF9E01F0769F484E391E30C
:103730008F8B988F8AE291E3898F9A8F80E291E351
:103740008B8F9C8F20C0003B89E0180769F482E3CF
:1037500091E38F8B988F88E291E3898F9A8F8EE126
:1037600091E38B8F9C8F0FC0003A1A4061F480E385
:1037700091E38F8B988F86E291E3898F9A8F8CE10A
:1037800091E38B8F9C8F0F89188D84E690E00E94C7
:10379000D018F80180839183E98DFA8D108211820F
:1037A000EB8DFC8D10821182DF91CF911F910F91D3
:1037B000FF90EF9008951F920F920FB60F92112471
:1037C00008B60F9218BE0BB60F921BBE2F933F93F5
:1037D0008F939F93EF93FF932091A008E09138314E
:1037E000F09139318091243190912531E80FF91F02
:1037F0002083809124319091253101968436910562
:1038000060F4809324319093253120912E313091B2
:103810002F3182179307F1F40CC0109224311092CB
:10382000253180912E3190912F311816190691F47F
:103830000EC001968436910528F480932E31909322
:103840002F3108C010922E3110922F3103C081E029
:1038500090E0F3CFFF91EF919F918F913F912F9146
:103860000F900BBE0F9008BE0F900FBE0F901F90D1
:1038700018951F920F920FB60F92112408B60F924F
:1038800018BE0BB60F921BBE2F933F938F939F933F
:10389000EF93FF932091B008E0913631F0913731EA
:1038A0008091223190912331E80FF91F208380917C
:1038B00022319091233101968436910560F48093F2
:1038C00022319093233120912C3130912D31821768
:1038D0009307F1F40CC010922231109223318091A1
:1038E0002C3190912D311816190691F40EC00196C5
:1038F0008436910528F480932C3190932D3108C0A3
:1039000010922C3110922D3103C081E090E0F3CF62
:10391000FF91EF919F918F913F912F910F900BBE4F
:103920000F9008BE0F900FBE0F901F9018951F921A
:103930000F920FB60F92112408B60F9218BE0BB655
:103940000F921BBE2F933F938F939F93EF93FF9301
:103950002091A009E0913431F091353180912431EA
:1039600090912531E80FF91F2083809120319091AB
:10397000213101968436910560F480932031909333
:10398000213120912A3130912B3182179307F1F4A4
:103990000CC0109220311092213180912A319091E7
:1039A0002B311816190691F40EC001968436910534
:1039B00028F480932A3190932B3108C010922A3139
:1039C00010922B3103C081E090E0F3CFFF91EF9193
:1039D0009F918F913F912F910F900BBE0F9008BE3A
:1039E0000F900FBE0F901F9018951F920F920FB659
:1039F0000F92112408B60F9218BE0BB60F921BBE81
:103A00002F933F938F939F93EF93FF932091B00950
:103A1000E0913231F091333180911E3190911F311C
:103A2000E80FF91F208380911E3190911F3101967C
:103A30008436910560F480931E3190931F3120915C
:103A400028313091293182179307F1F40CC010927C
:103A50001E3110921F318091283190912931181612
:103A6000190691F40EC001968436910528F48093CE
:103A700028319093293108C01092283110922931B1
:103A800003C081E090E0F3CFFF91EF919F918F9180
:103A90003F912F910F900BBE0F9008BE0F900FBE5D
:103AA0000F901F9018951F920F920FB60F9211242E
:103AB00008B60F9218BE0BB60F921BBE2F933F9302
:103AC0008F939F93EF93FF932091A00AE091303161
:103AD000F091313180911C3190911D31E80FF91F27
:103AE000208380911C3190911D310196843691057F
:103AF00060F480931C3190931D31209126313091D8
:103B0000273182179307F1F40CC010921C311092E8
:103B10001D3180912631909127311816190691F4A4
:103B20000EC001968436910528F480932631909337
:103B3000273108C0109226311092273103C081E04E
:103B400090E0F3CFFF91EF919F918F913F912F9153
:103B50000F900BBE0F9008BE0F900FBE0F901F90DE
:103B600018950F93CF93DF931F92CDB7DEB72FB782
:103B70002983F8941BBEFC0108ED04BF6083898192
:103B80008FBF0F90DF91CF910F9108950F931F93E7
:103B9000CF93DF93CDB7DEB76D97CDBFDEBFE0E645
:103BA000F6E080E4818390E2918390E191838583C4
:103BB000F894E0E5F0E0808182608083818181FF7C
:103BC000FDCF60914000687F616080E490E00E94DA
:103BD000B11DE0E5F0E080818E7F80839DEF88ED70
:103BE00008B618BE84BF9093800008BE40EB58E032
:103BF00060E070E0CE0101960E945B1B67E0CE01A1
:103C000001960E94B8198C016BE670E20E9481193E
:103C100066E0C8010E94B81966E00E94B81982E106
:103C200090E00E94C8188E010F5F1F4F24E031E022
:103C300040E06AE870E20E94890682E190E00E941A
:103C4000C81824E031E042E062E970E20E945E03BD
:103C500082E190E00E94C81824E031E043E069E985
:103C600070E20E94CE0382E190E00E94C81824E036
:103C700031E044E060EA70E20E94130482E490E0E4
:103C80000E94C81824E031E041E069EA70E20E9435
:103C9000480587E08093A20078940E94DA0F80E0C4
:103CA00090E06D96CDBFDEBFDF91CF911F910F9158
:103CB00008950F931F930AE010E020E030E040E009
:103CC00050E060E270E082E491E30E9434171F91BB
:103CD0000F9108955058BB27AA270E94821E0C946A
:103CE000FC1F0E94EE1F38F00E94F51F20F039F4EF
:103CF0009F3F19F426F40C94EB1F0EF4E095E7FBBC
:103D00000C94E51FE92F0E940D2058F3BA176207A3
:103D100073078407950720F079F4A6F50C942F20FB
:103D20000EF4E0950B2EBA2FA02D0B01B9019001D6
:103D30000C01CA01A0011124FF27591B99F0593F1A
:103D400050F4503E68F11A16F040A22F232F342F62
:103D50004427585FF3CF469537952795A795F040B0
:103D60005395C9F77EF41F16BA0B620B730B840BC5
:103D7000BAF09150A1F0FF0FBB1F661F771F881F7D
:103D8000C2F70EC0BA0F621F731F841F48F48795D5
:103D900077956795B795F7959E3F08F0B0CF9395C7
:103DA000880F08F09927EE0F9795879508950E9440
:103DB000C11F08F481E008950E94F01E0C94FC1FBE
:103DC0000E94F51F58F00E94EE1F40F029F45F3F5B
:103DD00029F00C94E51F51110C9430200C94EB1F2A
:103DE0000E940D2068F39923B1F3552391F3951B9D
:103DF000550BBB27AA2762177307840738F09F5F0C
:103E00005F4F220F331F441FAA1FA9F335D00E2E78
:103E10003AF0E0E832D091505040E695001CCAF7E5
:103E20002BD0FE2F29D0660F771F881FBB1F2617A8
:103E300037074807AB07B0E809F0BB0B802DBF017F
:103E4000FF2793585F4F3AF09E3F510578F00C944E
:103E5000E51F0C9430205F3FE4F3983ED4F3869541
:103E600077956795B795F7959F5FC9F7880F911D6F
:103E70009695879597F90895E1E0660F771F881F5B
:103E8000BB1F621773078407BA0720F0621B730B0E
:103E9000840BBA0BEE1F88F7E09508950E94551F1A
:103EA0006894B1110C94302008950E94152088F078
:103EB0009F5798F0B92F9927B751B0F0E1F0660FEE
:103EC000771F881F991F1AF0BA95C9F714C0B1302F
:103ED00091F00E942F20B1E008950C942F20672FBD
:103EE000782F8827B85F39F0B93FCCF3869577955E
:103EF0006795B395D9F73EF4909580957095619547
:103F00007F4F8F4F9F4F0895E89409C097FB3EF471
:103F100090958095709561957F4F8F4F9F4F992316
:103F2000A9F0F92F96E9BB279395F6958795779594
:103F30006795B795F111F8CFFAF4BB0F11F460FF54
:103F40001BC06F5F7F4F8F4F9F4F16C0882311F0AC
:103F500096E911C0772321F09EE8872F762F05C0C0
:103F6000662371F096E8862F70E060E02AF09A955B
:103F7000660F771F881FDAF7880F9695879597F950
:103F80000895990F0008550FAA0BE0E8FEEF1616EA
:103F90001706E807F907C0F012161306E407F5073D
:103FA00098F0621B730B840B950B39F40A2661F0B1
:103FB000232B242B252B21F408950A2609F4A14054
:103FC000A6958FEF811D811D089597F99F6780E861
:103FD00070E060E008959FEF80EC089500240A945B
:103FE0001616170618060906089500240A941216D4
:103FF0001306140605060895092E0394000C11F407
:10400000882352F0BB0F40F4BF2B11F460FF04C0B3
:104010006F5F7F4F8F4F9F4F089557FD9058440F0C
:10402000551F59F05F3F71F04795880F97FB991F17
:1040300061F09F3F79F087950895121613061406D4
:10404000551FF2CF4695F1DF08C016161706180661
:10405000991FF1CF86957105610508940895E8943C
:10406000BB2766277727CB0197F908950E94C11FC8
:1040700008F48FEF08950E944E200C94FC1F0E94BC
:10408000EE1F38F00E94F51F20F0952311F00C94DC
:10409000E51F0C94EB1F11240C9430200E940D207E
:1040A00070F3959FC1F3950F50E0551F629FF0018B
:1040B000729FBB27F00DB11D639FAA27F00DB11DA4
:1040C000AA1F649F6627B00DA11D661F829F22272D
:1040D000B00DA11D621F739FB00DA11D621F839FB4
:1040E000A00D611D221F749F3327A00D611D231F8A
:1040F000849F600D211D822F762F6A2F11249F57D8
:1041000050409AF0F1F088234AF0EE0FFF1FBB1FDA
:10411000661F771F881F91505040A9F79E3F510599
:1041200080F00C94E51F0C9430205F3FE4F3983E40
:10413000D4F3869577956795B795F795E7959F5F43
:10414000C1F7FE2B880F911D9695879597F90895D5
:10415000DB018F939F930E940921BF91AF91A29F92
:10416000800D911DA39F900DB29F900D1124089575
:10417000A1E21A2EAA1BBB1BFD010DC0AA1FBB1F6B
:10418000EE1FFF1FA217B307E407F50720F0A21BDD
:10419000B30BE40BF50B661F771F881F991F1A944A
:1041A00069F760957095809590959B01AC01BD0174
:1041B000CF010895052E97FB1EF400940E94F12074
:1041C00057FD07D00E94B82007FC03D04EF40C9492
:1041D000F12050954095309521953F4F4F4F5F4FBF
:1041E000089590958095709561957F4F8F4F9F4F63
:1041F0000895EE0FFF1F881F8BBF0790F691E02DEB
:104200001BBE19940E941421B7FF0895821B930BC3
:1042100008950E941421A59F900DB49F900DA49F16
:10422000800D911D11240895A29FB001B39FC0017C
:10423000A39F700D811D1124911DB29F700D811DD2
:104240001124911D0895FB01DC0102C001900D9223
:1042500041505040D8F70895DC0101C06D934150A2
:104260005040E0F70895FB01DC014150504048F018
:1042700001900D920020C9F701C01D92415050409D
:10428000E0F708952532310520F4223010F00C9427
:104290004D21FA011082CA010895BB27FA01A62F09
:1042A0006217710581059105330B30FB66F0AA2773
:1042B000660F771F881F991FAA1FA21710F0A21B55
:1042C00063953850A9F7A05DAA3308F0A95DA193C2
:1042D00036F7B111B1931082CA010C949421453282
:1042E000510520F4423010F00C947A21FB01108229
:1042F000CB010895BB27FB015527AA27880F991FDB
:10430000AA1FA41710F0A41B83955051B9F7A05D04
:10431000AA3308F0A95DA193009779F7B111B19381
:104320001192CB010C949421DC01FC01672F719157
:104330007723E1F7329704C07C916D93708362918B
:0C434000AE17BF07C8F30895F894FFCF34
:10434C00FF0FFFFFFFFF00000000DF02A3150000BE
:10435C0000006E03A31500000000DE03A31500008F
:10436C0000002304A31500000000CC07A31549444A
:10437C004C450000000000D318A315000000006A93
:10438C001916170B17ED1671197219000000006A37
:10439C0019D3186F196C1971197219000000006A81
:1043AC0019F51A3F1B191B7119521B467265655280
:1043BC00544F5320584D4547412054657374696ED2
:1043CC00672050726F6772616D0055736572496E2C
:1043DC007400456E634D747200456E6350656E00DB
:1043EC004C696D5377746368004D6F746F72000085
:00000001FF
