:100000000C943C010C9472010C9472010C947201DA
:100010000C9472010C9472010C9472010C94720194
:100020000C9472010C9472010C9472010C94720184
:100030000C9472010C9472010C9472010C94720174
:100040000C9472010C9472010C9472010C94720164
:100050000C9472010C9472010C9472010C94720154
:100060000C9472010C94830D0C9472010C94720127
:100070000C94E10D0C9472010C9472010C947201B9
:100080000C9472010C9472010C9472010C94720124
:100090000C9472010C9472010C9472010C94720114
:1000A0000C9472010C9472010C9472010C94720104
:1000B0000C9472010C9472010C9472010C947201F4
:1000C0000C9472010C9472010C9472010C947201E4
:1000D0000C9472010C9472010C9472010C94AE0396
:1000E0000C9472010C9472010C94FB0E0C9472012E
:1000F0000C9472010C94590F0C9472010C947201BF
:100100000C9472010C9472010C9472010C947201A3
:100110000C9472010C9472010C9472010C94720193
:100120000C9472010C9472010C9472010C94720183
:100130000C9472010C9472010C9472010C94720173
:100140000C9472010C9472010C9472010C94720163
:100150000C9472010C9472010C9472010C94720153
:100160000C943F0E0C9472010C9472010C949D0E31
:100170000C9472010C9472010C9472010C94720133
:100180000C9472010C9472010C9472010C94720123
:100190000C9472010C9472010C9472010C94720113
:1001A0000C9472010C9472010C9472010C94720103
:1001B0000C9472010C9472010C9472010C947201F3
:1001C0000C9472010C9472010C9472010C947201E3
:1001D0000C9472010C9472010C9472010C94B70F80
:1001E0000C9472010C9472010C9472010C947201C3
:1001F0000C9472010C9472010C947201660B690BE1
:100200006C0B6F0B720B750B770B880B900B9A0BAB
:10021000980B0C94FD090C94110B0C940E0B0C9480
:10022000880B0C94720B0C946C0B0C94C50C0C94F6
:10023000100B0C94690B0C94080A0C94660B0C942C
:100240009A0B0C946F0B0C94980B0C94770B0C94EA
:10025000B7100C94750B0C947B0C0C94090B0C943C
:100260000B0B0C94900B0C94580A0C94D80C0C9417
:100270009F0C0C94DF09B71011241FBECFEFCDBF28
:10028000DFE3DEBF00E00CBF18BE19BE1ABE1BBE06
:1002900010E2A0E0B0E2E6E5F2E200E00BBF02C04F
:1002A00007900D92AE36B107D9F71BBE20E3AEE63C
:1002B000B0E201C01D92A73FB207E1F711E0CCE325
:1002C000D1E000E006C021970109802FFE010E94C5
:1002D000C810CB33D10780E00807A9F70E942A1085
:1002E0000C9429110C9400000F931F93CF93DF936C
:1002F000EC010E94800680916E2081111DC0A3E751
:10030000B0E2E7E7F0E2ED93FC93119712961D92AD
:100310001C921397AFE6B0E28FEF9FE012968D9399
:100320009C9313971D921C92119782839383A083B1
:10033000B18381E080936E20209709F45FC09E0115
:100340002B5F3F4F2496CE3FDF4008F05AC0E0912C
:100350007320F0917420A3E7B0E202C0DF01FC013A
:10036000828193818217930720F480819181009785
:10037000A9F7C0E2EF36FC0709F446C0CD91DC9145
:1003800011978E010B5F1F4F808191818D939C93FC
:1003900082819381821B930B8B30910510F1BF01F9
:1003A000620F731FDB0112968D939C931397228328
:1003B000338312964D915C91139783E790E201C0CD
:1003C000CD01EC01A881B98112962D913C91139732
:1003D00024173507A8F3EB01A883B983DC016D93DB
:1003E0007C93809100209091012022813381821B97
:1003F000930B809300209093012008C000E010E050
:1004000005C000E010E002C000E010E00E94870795
:10041000C801DF91CF911F910F9108950F931F9302
:10042000CF93DF93009741F1EC018C010550110946
:100430000E948006F80142815381A3E7B0E201C027
:10044000DF01ED91FC91119722813381241735074B
:10045000B8F32597E883F9830D931C93209100202E
:10046000309101208A819B81820F931F809300200D
:10047000909301200E948707DF91CF911F910F91E8
:100480000895FC010396818392834FEF5FEFBA01D9
:10049000438354836583768387839087818792879C
:1004A00010820895CF93DF93FC01DB01218132811B
:1004B000E9018C819D8114968D939C931597818180
:1004C000928116968D939C9317978C819D81EC0158
:1004D0006E837F83E9016C837D83618372831A96C7
:1004E000ED93FC931B9780818F5F8083DF91CF9189
:1004F00008950F931F93CF93DF93EB010881198128
:100500002A813B810F3F4FEF14072407340731F452
:10051000DC011996ED91FC911A971FC0FC013396EE
:10052000DC0117964D915C911897DA014D915D9120
:100530006D917C91041715072607370770F004802A
:10054000F581E02DA481B5814D915D916D917C91F6
:10055000041715072607370790F7A481B581AC83E8
:10056000BD831696CD93DC931797EE83FF83C483E8
:10057000D5838A879B87FC0120812F5F2083DF91B1
:10058000CF911F910F910895FC01A481B5818681BF
:10059000978116968D939C931797A681B781848136
:1005A000958114968D939C931597A285B38511968A
:1005B0008D919C911297E817F90731F48681978104
:1005C00011968D939C931297128613868C9181506D
:1005D0008C9308950F920FB6F8940F920BB60F926A
:1005E0000CB60F921F9211242F923F924F925F925E
:1005F0006F927F928F929F92AF92BF92CF92DF9233
:10060000EF92FF920F931F932F933F934F935F931C
:100610006F937F938F939F93AF93BF93CF93DF930A
:10062000EF93FF93A091BB30B091BC300DB60D920B
:100630000EB60D920E940908A091BB30B091BC305B
:10064000CD91CDBFDD91DEBFFF91EF91DF91CF91D5
:10065000BF91AF919F918F917F916F915F914F91DA
:100660003F912F911F910F91FF90EF90DF90CF90CE
:10067000BF90AF909F908F907F906F905F904F90C2
:100680003F902F901F900F900CBE0F900BBE0F90BD
:100690000FBE0F9008950F920FB6F8940F920BB6FD
:1006A0000F920CB60F921F9211242F923F924F92ED
:1006B0005F926F927F928F929F92AF92BF92CF92F2
:1006C000DF92EF92FF920F931F932F933F934F93DD
:1006D0005F936F937F938F939F93AF93BF93CF93CA
:1006E000DF93EF93FF93A091BB30B091BC300DB678
:1006F0000D920EB60D920E9486060E940908A091E6
:10070000BB30B091BC30CD91CDBFDD91DEBFFF914C
:10071000EF91DF91CF91BF91AF919F918F917F9199
:100720006F915F914F913F912F911F910F91FF908A
:10073000EF90DF90CF90BF90AF909F908F907F9081
:100740006F905F904F903F902F901F900F900CBE36
:100750000F900BBE0F900FBE0F9008950E944B0399
:100760001895CF93DF93EC0188A181110BC088818C
:100770009981892BE1F58A819B810E94AB091A82BC
:100780001B8235C0411117C0482F50E08C819D81DC
:100790000E94E01028A18C819D81820F911D8C8385
:1007A0009D832A813B818217930708F18881998173
:1007B0008C839D831CC0482F50E08E819F810E94B6
:1007C000E01088A190E09195819591092E813F815B
:1007D000280F391F2E833F834881598124173507FD
:1007E00030F42A813B81820F931F8E839F838E8DED
:1007F0008F5F8E8FDF91CF910895FC018081918171
:100800000097A1F040A150E026813781240F351FC9
:1008100026833783A281B3812A173B0710F0868392
:100820009783CB01668177810E94E01008950F9332
:100830001F93CF93DF93EC010FB6F8940F928AA128
:100840001816B4F48B89811105C012C08B898111EF
:1008500004C00EC08E010D5E1F4FC8010E9490089B
:1008600081110E944D098AA181508AA3181674F340
:100870008FEF8AA30F900FBE0FB6F8940F9289A145
:100880001816B4F48885811105C012C088858111BD
:1008900004C00EC08E01085F1F4FC8010E9490085F
:1008A00081110E944D0989A1815089A3181674F302
:1008B0008FEF89A30F900FBEDF91CF911F910F9102
:1008C00008951F93CF93DF93613059F0FC01238982
:1008D000308531112CC011E0211110E0211128C008
:1008E00001C011E0EC014881598128A130E06F8DF1
:1008F000629FC001639F900D1124BA01680F791F98
:100900006A837B831E8E4C835D83821B930B840FD3
:10091000951F8E839F838FEF89A38AA3CE010896AC
:100920000E944102CE0143960E94410201C010E0A4
:10093000812FDF91CF911F9108950F931F93CF9334
:10094000DF93882301F1062F182F83E290E00E94A5
:100950007401EC01892BC9F0109FC001112401968C
:100960000E94740188839983892B39F01F8F08A313
:1009700061E0CE010E94610408C0CE010E940E0217
:10098000C0E0D0E002C0C0E0D0E0CE01DF91CF9166
:100990001F910F910895AF92BF92CF92DF92EF9285
:1009A000FF920F931F93CF93DF93CDB7DEB72997B5
:1009B000CDBFDEBF7C015B012E833F834887598713
:1009C00010E06C0188E0C80ED11C0FB6F8940F92AD
:1009D000F701968D878D9817A8F4402FB501C701B0
:1009E0000E94B103F7018389882341F0C701439630
:1009F0000E949008813011F40E94EA020F900FBE0D
:100A000081E056C08E819F81A885B985892B8A2B6C
:100A10008B2B21F40F900FBE80E04AC0111105C04E
:100A2000CE0101960E94CF0811E00F900FBE0E94E8
:100A300080060FB6F8940F92F70181A18F3F09F459
:100A400011A2F70182A18F3F09F412A20F900FBEED
:100A5000BE016A5F7F4FCE0101960E94E0088111BE
:100A600021C00FB6F8940F92F701968D0F900FBE2C
:100A7000878D981311C04E815F8168857985C60185
:100A80000E946608C7010E9417040E94870781110F
:100A90009CCF0E94EA0299CFC7010E9417040E94CE
:100AA000870793CFC7010E9417040E94870780E041
:100AB0002996CDBFDEBFDF91CF911F910F91FF909F
:100AC000EF90DF90CF90BF90AF900895AF92BF921C
:100AD000CF92DF92EF92FF920F931F93CF93DF930A
:100AE000CDB7DEB72997CDBFDEBF7C015B012E837A
:100AF0003F834887598710E06C0183E1C80ED11C01
:100B00000FB6F8940F92F701868D882399F1C6806D
:100B1000D780B501C7010E94FD0301111AC0F7017A
:100B2000868D8150868F80819181892B29F40E9446
:100B30005109F70182839383F70180858823B1F0FF
:100B4000C70108960E949008813081F40E94EA0251
:100B50000DC0F701C682D7828389882339F0C70187
:100B600043960E94900881110E94EA020F900FBEE6
:100B700081E062C08E819F81A885B985892B8A2BEF
:100B80008B2B21F40F900FBE80E056C0111105C0D1
:100B9000CE0101960E94CF0811E00F900FBE0E9477
:100BA00080060FB6F8940F92F70181A18F3F09F4E8
:100BB00011A2F70182A18F3F09F412A20F900FBE7C
:100BC000BE016A5F7F4FCE0101960E94E00881114D
:100BD0002DC00FB6F8940F92F701868D0F900FBEBF
:100BE00081111EC080819181892B49F40FB6F89440
:100BF0000F92828193810E9456090F900FBE4E8101
:100C00005F8168857985C6010E946608C7010E94D8
:100C100017040E948707811173CF0E94EA0270CFE8
:100C2000C7010E9417040E9487076ACFC7010E946C
:100C300017040E94870780E02996CDBFDEBFDF91B1
:100C4000CF911F910F91FF90EF90DF90CF90BF90C9
:100C5000AF9008950FB6F8940F92FC01868D0F9017
:100C60000FBE0895CF92DF92EF92FF926B017C014D
:100C7000E091BB30F091BC306283738384839583B1
:100C800080917B3090917C30A0917D30B0917E300E
:100C9000C816D906EA06FB0668F46091BB3070916D
:100CA000BC3080918B3090918C306E5F7F4F0E9472
:100CB000790221C06091BB307091BC3080918D3041
:100CC00090918E306E5F7F4F0E947902809102205A
:100CD00090910320A0910420B0910520C816D90658
:100CE000EA06FB0640F4C0920220D0920320E09274
:100CF0000420F0920520FF90EF90DF90CF900895B0
:100D0000809179308F5F809379300895FF920F93AF
:100D10001F93CF93DF93809179308111EDC0809143
:100D20007B3090917C30A0917D30B0917E300196E7
:100D3000A11DB11D80937B3090937C30A0937D30BA
:100D4000B0937E3080917B3090917C30A0917D304B
:100D5000B0917E30892B8A2B8B2BF1F580918D30D1
:100D600090918E3020918B3030918C3020938D304B
:100D700030938E3080938B3090938C30809176308E
:100D80008F5F80937630E0918D30F0918E3080814E
:100D900081110CC08FEF9FEFDC01809302209093B4
:100DA0000320A0930420B093052016C0E0918D305D
:100DB000F0918E300780F085E02D0084F185E02DE4
:100DC00082819381A481B581809302209093032036
:100DD000A0930420B093052040917B3050917C304B
:100DE00060917D3070917E3080910220909103203F
:100DF000A0910420B0910520481759076A077B0786
:100E000008F47FC0E0918D30F0918E30808188238E
:100E1000F9F0E0918D30F0918E300780F085E02D73
:100E2000C085D1858A819B81AC81BD8140917B3019
:100E300050917C3060917D3070917E304817590719
:100E40006A077B0758F10F2EFBE0FF2EF02D2FC015
:100E50008FEF9FEFDC018093022090930320A093FB
:100E60000420B09305204DC0E0918D30F0918E307C
:100E70000780F085E02DC085D1858A819B81AC817A
:100E8000BD8140917B3050917C3060917D3070917C
:100E90007E30481759076A077B0748F48093022081
:100EA00090930320A0930420B09305202AC08E01C4
:100EB0000E5F1F4FC8010E94C402888D998D892B37
:100EC00021F0CE010E960E94C4028A8D90917A3054
:100ED000981710F480937A30F89EC0011124B8015D
:100EE00081579F4C0E945202E0918D30F0918E30DC
:100EF00080818111B9CFACCF809178308F5F8093A2
:100F00007830DF91CF911F910F91FF900895CF928C
:100F1000DF92EF92FF920F931F93CF93DF930FB661
:100F2000F8940F928091793081508093793080913C
:100F30007930811160C080917F3081112CC05EC0FA
:100F4000D7011796ED91FC911897C085D185CE01F8
:100F50000E960E94C4028E010E5F1F4FC8010E94B0
:100F6000C4028A8D90917A30981710F480937A3069
:100F7000D89EC0011124B80181579F4C0E94520293
:100F8000E091BB30F091BC309A8D828D981770F053
:100F9000CC24C3940BC0C12C0F2EF0E8EF2EF0E34D
:100FA000FF2EF02D0F2EFBE0DF2EF02DF7018081BC
:100FB0008111C6CF80917830882381F0809178307C
:100FC000882399F00E948606809178308150809322
:100FD0007830809178308111F5CF07C0F1E0CF16DD
:100FE00021F080917730813041F4109277300E9467
:100FF000EA0281E003C080E001C080E00F900FBEF4
:10100000DF91CF911F910F91FF90EF90DF90CF90E4
:1010100008958091793081110CC0E0917A304BE0D5
:10102000E49FF0011124E157FF4C8081882329F0CF
:1010300014C081E08093773008959BE080917A30EE
:10104000815080937A30E0917A309E9FF001112494
:10105000E157FF4C8081882389F380917A30282FD3
:1010600030E04BE0849FC0011124DC01A157BF4C4C
:101070001196ED91FC9112970480F581E02D119667
:10108000ED93FC9312978E569F4CE817F90761F485
:10109000848195814BE0429FF001439FF00D112424
:1010A000E157FF4C818392838BE0829FF001839F05
:1010B000F00D1124E157FF4C0180F281E02D808575
:1010C00091858093BB309093BC300895CF92DF928E
:1010D000EF92FF926A017B016091BB307091BC304E
:1010E000625F7F4F0E9479028091BB309091BC304B
:1010F00002960E94C40280917B3090917C30A09136
:101100007D30B0917E30BC01CD016C0D7D1D8E1DFA
:101110009F1D0E943206FF90EF90DF90CF900895C0
:101120000F931F93CF93DF93DC011796ED91FC9102
:101130001897C085D1858E01025F1F4FC8010E949C
:10114000C40280917930811116C00C501109C80178
:101150000E94C4028A8D90917A30981710F480937F
:101160007A30BBE08B9FC0011124B80181579F4C9E
:101170000E94520205C0B80180E890E30E9452022A
:10118000E091BB30F091BC3081E02A8D928D29171F
:1011900008F480E0DF91CF911F910F910895209185
:1011A0007630FC01208340917B3050917C306091FF
:1011B0007D3070917E3041835283638374830895C0
:1011C0008F929F92AF92BF92CF92DF92EF92FF9257
:1011D0000F931F93CF93DF93FC010FB6F8940F92F8
:1011E000809176309081981789F080917B30909132
:1011F0007C30A0917D30B0917E30018112812381BD
:10120000348180179107A207B307A8F580917B303E
:1012100090917C30A0917D30B0917E30C180D280A1
:10122000E380F480EB01088119812A813B818C19CC
:101230009D09AE09BF0980179107A207B307E8F41B
:10124000CF0180907B3090907C30A0907D30B0902A
:101250007E30B501A4014C195D096E097F09041B9C
:10126000150B260B370B088319832A833B830E94B7
:10127000CF0880E003C081E001C081E00F900FBE85
:10128000DF91CF911F910F91FF90EF90DF90CF9062
:10129000BF90AF909F908F90089581E080937730BA
:1012A00008958091BB309091BC3008950F931F93A7
:1012B000CF93DF93FC01228DA091BB30B091BC3065
:1012C0005A968C91281708F041C0A091BB30B0917C
:1012D000BC305A963C9184E090E0A0E0B0E0831BE3
:1012E0009109A109B10986879787A08BB18B8BE003
:1012F000289F9001112421573F4C848595858217A2
:101300009307E9F48F01EF012296CE010E94C402F7
:10131000E091BB30F091BC30828DF801828F9091CA
:101320007A30981710F480937A30FBE08F9FC001D9
:101330001124BE0181579F4C0E94520207C0A09108
:10134000BB30B091BC305A968C91828FDF91CF9197
:101350001F910F9108950F931F93CF93DF930097E1
:1013600049F1FC01328D27A1321721F1EC018C01EA
:101370000E5F1F4FC8010E94C4028FA18A8F44E0F4
:1013800050E060E070E0481B5109610971094E8727
:101390005F87688B798B90917A30981710F48093DF
:1013A0007A30FBE08F9FC0011124B80181579F4C18
:1013B0000E945202DF91CF911F910F9108950F93D8
:1013C000CF93DF931F92CDB7DEB700E02FEF3FEF53
:1013D000A901BE016F5F7F4FFC01808591850E944E
:1013E0006605813019F4898190E002C08FEF9FEF8C
:1013F0000F90DF91CF910F910895FC018085918529
:101400000E942A0691E0811101C090E0892F089581
:101410000F93CF93DF931F92CDB7DEB76983FC01A3
:10142000228533854485558500E0BE016F5F7F4F7F
:10143000808591850E94CB0491E0811101C090E0EC
:10144000892F0F90DF91CF910F9108958F929F92E6
:10145000BF92CF92DF92EF92FF920F931F93CF93A1
:10146000DF93EC01B62E4A01680179010E94120B4C
:101470008AE090E2888399838E869F8640E061E0CF
:101480008B2D0E949D0488879987CA86DB86EC860F
:10149000FD86DF91CF911F910F91FF90EF90DF902C
:1014A000CF90BF909F908F9008950E9474010895EF
:1014B0000895CF93DF93FC01DA01403A68E05607C4
:1014C00049F480E496E08283938382E0848383E01E
:1014D00085834CC0403B78E0570749F480E496E0B0
:1014E0008283938386E0848387E085833FC0403A8C
:1014F00089E0580749F480E696E08283938382E08E
:10150000848383E0858332C0403B69E0560749F419
:1015100080E696E08283938386E0848387E08583F8
:1015200025C0403A7AE0570749F480E896E0828384
:10153000938382E0848383E0858318C0403B8AE004
:10154000580749F480E896E08283938386E0848399
:1015500087E085830BC0403A5B4041F480EA96E027
:101560008283938382E0848383E08583A683B78329
:10157000CD01019680879187039682879387258185
:10158000C281D3814C8181E090E0BC0102C0660F32
:10159000771F2A95E2F79B01242B2C832581C2819A
:1015A000D3814881BC0102C0660F771F2A95E2F7FC
:1015B0009B01242B28833481C281D381288102C0DE
:1015C000880F991F3A95E2F780959095822388833A
:1015D00080E113968C93139783E015968C9315975F
:1015E00080EF17968C93179781E216968C93169737
:1015F00088E114968C9380E8858780E4868780E272
:1016000084870680F781E02D80818081DF91CF91F2
:10161000089581E0089580E090E0089580E00895C5
:1016200008950895FC018AE190E2808391838AE025
:101630008283138283E08583148216821782089541
:101640000F931F93CF93DF938C01FB01DC01149662
:101650008C91811104C06081611117C023C0D80131
:1016600014961C92EB01219664916623D9F0D8015F
:10167000ED91FC910280F381E02DC8011995FE01E6
:10168000649121966111F3CF0DC0EF012196D8012D
:10169000ED91FC910280F381E02DC80119956991CB
:1016A0006111F5CFDF91CF911F910F910895CF93E5
:1016B000DF93EC01862F90E08B309105D8F5FC018B
:1016C0008827E250FF4F8F4F0C94C81082E08A8326
:1016D00031C088E08A832EC08AE08A832BC080E1F3
:1016E0008A8328C081E08B8325C01B8223C0E881C8
:1016F000F9810280F381E02D6DE0CE011995E8813A
:10170000F9810280F381E02D6AE0CE01199512C0C3
:10171000E881F9810284F385E02DCE0119950AC094
:10172000E881F9810084F185E02DCE01199502C090
:1017300081E08C83CE01DF91CF9108950F931F93A9
:10174000CF93DF93CDB7DEB76197CDBFDEBF8C01FE
:101750009B01FC0192819A3021F0C8010E94C70BC5
:101760000DC04AE0BE016F5F7F4FC9010E94E910C2
:10177000BE016F5F7F4FC8010E94200BC8016196B8
:10178000CDBFDEBFDF91CF911F910F910895FF92E2
:101790000F931F93CF93DF93CDB7DEB76197CDBF84
:1017A000DEBF8C01F62E972FF8014281403121F0E7
:1017B000483011F0423041F4692FC8010E94FB0B00
:1017C0006F2D0E94FB0B0DC050E0BE016F5F7F4F7D
:1017D0008F2D0E94F410BE016F5F7F4FC8010E94E1
:1017E000200BC8016196CDBFDEBFDF91CF911F9165
:1017F0000F91FF900895CF92DF92EF92FF920F9397
:101800001F93CF93DF93CDB7DEB72997CDBFDEBF50
:101810008C01E62EDC0113968C911397882341F0FE
:10182000ED91FC910280F381E02DC801199556C01D
:10183000F8014281423019F56894CC24C3F8D12CC8
:101840006894FF24F7F88E2D8F2151F0D801ED9187
:10185000FC910280F381E02D61E3C801199509C074
:10186000D801ED91FC910280F381E02D60E3C80185
:101870001995F694B1E0CB1AD10829F72FC0403161
:10188000F9F462956F700190F081E02D0280F38190
:10189000E02D6A3010F0695C01C0605DC8011995E7
:1018A0006E2D6F70D801ED91FC910280F381E02DD7
:1018B0006A3010F0695C01C0605DC80119950EC006
:1018C00050E0BE016F5F7F4F8E2D90E00E94F410BC
:1018D000BE016F5F7F4FC8010E94200BC80129968F
:1018E000CDBFDEBFDF91CF911F910F91FF90EF90A1
:1018F000DF90CF900895DC015096ED91FC915197C7
:10190000808154964C915497842329F009C021502A
:10191000310919F412C021E23EE490819423B9F315
:10192000908156968C915697892B80831E96ED91C7
:10193000FC911F97608381E0089580E00895CF9324
:10194000DF93FC01C18DD28D28813981A38DB48DA7
:101950004D915C9124173507E9F3A789B08D0D905F
:10196000BC91A02DA20FB31F8C912F5F3F4F2883F6
:1019700039832436310528F0018CF28DE02D108258
:10198000118290E0DF91CF910895CF93DF93EC0126
:10199000A98DBA8DEB8DFC8D81E04D915C912081FC
:1019A00031814217530709F480E0DF91CF91089508
:1019B000DC01ED91FC910280F381E02D6CE0199542
:1019C0000895EF92FF920F931F93CF93DF93EC0153
:1019D0007B018A010E94120BA801B701CE01089673
:1019E0000E94590A8AE290E288839983003A88E04B
:1019F000180769F485EE90E38F8B988F87ED90E35D
:101A0000898F9A8F89EC90E38B8F9C8F64C0003B09
:101A1000E8E01E0769F483EE90E38F8B988F85EDE5
:101A200090E3898F9A8F87EC90E38B8F9C8F53C0C4
:101A3000003AF9E01F0769F481EE90E38F8B988FED
:101A400083ED90E3898F9A8F85EC90E38B8F9C8F49
:101A500042C0003B89E0180769F48FED90E38F8B5B
:101A6000988F81ED90E3898F9A8F83EC90E38B8F31
:101A70009C8F31C0003AEAE01E0769F48DED90E3D7
:101A80008F8B988F8FEC90E3898F9A8F81EC90E306
:101A90008B8F9C8F20C0003BFAE01F0769F48BED11
:101AA00090E38F8B988F8DEC90E3898F9A8F8FEBDB
:101AB00090E38B8F9C8F0FC0003A1B4061F489ED3F
:101AC00090E38F8B988F8BEC90E3898F9A8F8DEBBF
:101AD00090E38B8F9C8F0F89188D84E690E00E9495
:101AE000550AF80180839183E98DFA8D1082118265
:101AF000EB8DFC8D10821182DF91CF911F910F91A0
:101B0000FF90EF9008951F920F920FB60F9211243D
:101B100008B60F9218BE0BB60F921BBE2F933F93C1
:101B20008F939F93EF93FF932091A008E091E5306E
:101B3000F091E6308091C9309091CA30E80FF91FDA
:101B400020838091C9309091CA30019684369105E6
:101B500060F48093C9309093CA302091D73030918F
:101B6000D83082179307F1F40CC01092C93010924C
:101B7000CA308091D7309091D8301816190691F458
:101B80000EC001968436910528F48093D730909347
:101B9000D83008C01092D7301092D83003C081E0FE
:101BA00090E0F3CFFF91EF919F918F913F912F9113
:101BB0000F900BBE0F9008BE0F900FBE0F901F909E
:101BC00018951F920F920FB60F92112408B60F921C
:101BD00018BE0BB60F921BBE2F933F938F939F930C
:101BE000EF93FF932091B008E091E330F091E4305F
:101BF0008091C7309091C830E80FF91F2083809101
:101C0000C7309091C83001968436910560F4809376
:101C1000C7309093C8302091D5303091D63082179C
:101C20009307F1F40CC01092C7301092C830809125
:101C3000D5309091D6301816190691F40EC0019641
:101C40008436910528F48093D5309093D63008C01F
:101C50001092D5301092D63003C081E090E0F3CFDF
:101C6000FF91EF919F918F913F912F910F900BBE1C
:101C70000F9008BE0F900FBE0F901F9018951F92E7
:101C80000F920FB60F92112408B60F9218BE0BB622
:101C90000F921BBE2F933F938F939F93EF93FF93CE
:101CA0002091A009E091E130F091E2308091C930BB
:101CB0009091CA30E80FF91F20838091C530909130
:101CC000C63001968436910560F48093C5309093B8
:101CD000C6302091D3303091D43082179307F1F47D
:101CE0000CC01092C5301092C6308091D3309091C4
:101CF000D4301816190691F40EC001968436910559
:101D000028F48093D3309093D43008C01092D3300D
:101D10001092D43003C081E090E0F3CFFF91EF91B7
:101D20009F918F913F912F910F900BBE0F9008BE06
:101D30000F900FBE0F901F9018951F920F920FB625
:101D40000F92112408B60F9218BE0BB60F921BBE4D
:101D50002F933F938F939F93EF93FF932091B0091D
:101D6000E091DF30F091E0308091C3309091C43049
:101D7000E80FF91F20838091C3309091C430019601
:101D80008436910560F48093C3309093C4302091E1
:101D9000D1303091D23082179307F1F40CC01092F9
:101DA000C3301092C4308091D1309091D230181647
:101DB000190691F40EC001968436910528F480939B
:101DC000D1309093D23008C01092D1301092D230DE
:101DD00003C081E090E0F3CFFF91EF919F918F914D
:101DE0003F912F910F900BBE0F9008BE0F900FBE2A
:101DF0000F901F9018951F920F920FB60F921124FB
:101E000008B60F9218BE0BB60F921BBE2F933F93CE
:101E10008F939F93EF93FF932091A00AE091DD3081
:101E2000F091DE308091C1309091C230E80FF91FFF
:101E300020838091C1309091C23001968436910503
:101E400060F48093C1309093C2302091CF303091B4
:101E5000D03082179307F1F40CC01092C130109269
:101E6000C2308091CF309091D0301816190691F47D
:101E70000EC001968436910528F48093CF3090935C
:101E8000D03008C01092CF301092D03003C081E023
:101E900090E0F3CFFF91EF919F918F913F912F9120
:101EA0000F900BBE0F9008BE0F900FBE0F901F90AB
:101EB00018951F920F920FB60F92112408B60F9229
:101EC00018BE0BB60F921BBE2F933F938F939F9319
:101ED000EF93FF932091B00AE091DB30F091DC307A
:101EE0008091BF309091C030E80FF91F208380911E
:101EF000BF309091C03001968436910560F4809394
:101F0000BF309093C0302091CD303091CE308217C9
:101F10009307F1F40CC01092BF301092C030809142
:101F2000CD309091CE301816190691F40EC001965E
:101F30008436910528F48093CD309093CE3008C03C
:101F40001092CD301092CE3003C081E090E0F3CFFC
:101F5000FF91EF919F918F913F912F910F900BBE29
:101F60000F9008BE0F900FBE0F901F9018951F92F4
:101F70000F920FB60F92112408B60F9218BE0BB62F
:101F80000F921BBE2F933F938F939F93EF93FF93DB
:101F90002091A00BE091D930F091DA308091BD30E2
:101FA0009091BE30E80FF91F20838091BD30909151
:101FB000BE3001968436910560F48093BD309093D5
:101FC000BE302091CB303091CC3082179307F1F4A2
:101FD0000CC01092BD301092BE308091CB309091E9
:101FE000CC301816190691F40EC00196843691056E
:101FF00028F48093CB309093CC3008C01092CB3033
:102000001092CC3003C081E090E0F3CFFF91EF91CC
:102010009F918F913F912F910F900BBE0F9008BE13
:102020000F900FBE0F901F9018950F93CF93DF93D3
:102030001F92CDB7DEB72FB72983F8941BBEFC01E2
:1020400008ED04BF608389818FBF0F90DF91CF912E
:102050000F910895CF93DF93CDB7DEB76D97CDBFC6
:10206000DEBFF894E0E5F0E08081826080838181CA
:1020700081FFFDCF60914000687F616080E490E067
:102080000E941510E0E5F0E080818E7F80839DEF57
:1020900088ED08B618BE84BF9093800008BE40EA61
:1020A00058E060E070E0CE0101960E94E10C67E02C
:1020B000CE0101960E94570B8C0166E370E20E94EC
:1020C000200B66E0C8010E94570B66E00E94570B88
:1020D00087E08093A2007894E0E4F6E083E08283D6
:1020E00080898360808B81898360818BE0E8F1E067
:1020F00080E6808389E08087E0E0F8E088E68383FB
:102100008FEF9FEF86A397A381E08083E12C6894F3
:10211000FF24F3F8F70100A111A165E570E2CE01FB
:1021200001960E94200B9801220F331F200F311FB0
:102130003695279536952795ABE7B4E10E94D110E7
:10214000BC0176956795CE0101960E949E0B8C018D
:1021500067E670E20E94200B66E0C8010E94570B00
:102160008FE39FE10197F1F700C00000D3CF0F93F9
:102170001F930AE010E020E030E040E050E060E231
:1021800070E087EE90E30E94260A1F910F91089558
:10219000EE0FFF1F881F8BBF0790F691E02D1BBE2F
:1021A0001994A29FB001B39FC001A39F700D811D20
:1021B0001124911DB29F700D811D1124911D089550
:1021C000FB01DC0102C001900D9241505040D8F754
:1021D0000895BB274A3031F4992322F4BDE290954B
:1021E00081959F4F0C9400114532510520F44230E7
:1021F00010F00C94FF10FB011082CB010895BB2757
:10220000FB015527AA27880F991FAA1FA41710F0B2
:10221000A41B83955051B9F7A05DAA3308F0A95DBE
:10222000A193009779F7B111B1931192CB010C945E
:102230001911DC01FC01672F71917723E1F73297C7
:1022400004C07C916D9370836291AE17BF07C8F391
:062250000895F894FFCF91
:10225600FF0FFFFFFFFF00000000090B080AFD0942
:10226600DF09100B110B00000000090B580A0E0BBA
:102276000B0B100B110B00000000090B7B0CC50C9F
:102286009F0C100BD80C4672656552544F5320585C
:102296006D6567612054657374696E672050726F4F
:1022A6006772616D004C696E65617220506F73696B
:0E22B60074696F6E3A2000205B6D6D5D000054
:00000001FF
