S01600004652454552544F535F5348454C4C2E73726563CD
S11300000C94A9020C94DF020C94DF020C94DF021E
S11300100C94DF020C94DF020C94DF020C94DF02D8
S11300200C94DF020C94DF020C94DF020C94DF02C8
S11300300C94DF020C94DF020C94DF020C94DF02B8
S11300400C94DF020C94DF020C94DF020C94DF02A8
S11300500C94DF020C94DF020C94DF020C94DF0298
S11300600C94DF020C94A11C0C94DF020C94DF02AC
S11300700C94FF1C0C94DF020C94DF020C94DF023E
S11300800C94DF020C94DF020C94DF020C94DF0268
S11300900C94DF020C94DF020C94DF020C94DF0258
S11300A00C94DF020C94DF020C94DF020C94DF0248
S11300B00C94DF020C94DF020C94DF020C94DF0238
S11300C00C94DF020C94B60C0C94DF020C94DF0247
S11300D00C94DF020C94DF020C94DF020C94DF0218
S11300E00C94DF020C94DF020C94191E0C94DF02B2
S11300F00C94DF020C94DF020C94DF020C94DF02F8
S11301000C94DF020C94DF020C94DF020C94DF02E7
S11301100C94DF020C94DF020C94DF020C94DF02D7
S11301200C94DF020C94DF020C94DF020C94DF02C7
S11301300C94DF020C94DF020C94DF020C94DF02B7
S11301400C94DF020C94DF020C94DF020C94DF02A7
S11301500C94DF020C94DF020C94DF020C94DF0297
S11301600C945D1D0C94DF020C94DF020C94BB1DF7
S11301700C94DF020C94DF020C94DF020C94DF0277
S11301800C94DF020C94DF020C94DF020C94DF0267
S11301900C94DF020C94DF020C94DF020C94DF0257
S11301A00C94DF020C94DF020C94DF020C94DF0247
S11301B00C94DF020C94DF020C94DF020C94DF0237
S11301C00C94DF020C94DF020C94DF020C94DF0227
S11301D00C94DF020C94DF020C94DF020C94DF0217
S11301E00C94DF020C94DF020C94DF020C94DF0207
S11301F00C94DF020C94DF020C94DF028D1A901A27
S1130200931A961A991A9C1A9E1AAF1AB71AC11AF7
S1130210BF1A0C94C11A0C9492080C94381A0C94BA
S1130220351A0C94261F0C94AF1A0C949E1A0C9435
S1130230301A0C94A6020C94901A0C9467040C9433
S1130240991A0C9402040C9499190C949C1A0C9409
S1130250D1170C948D1A0C9469160C94181C0C94D8
S113026092030C94BF1A0C94B71A0C94BB1B0C94F5
S1130270DC170C943A0F0C94B3170C94E1020C9411
S1130280371A0C94DF1B0C94321A0C94931A0C94A6
S1130290961A0C94CD060C94051C2C205443433020
S11302A04343413D002F002C204865617020667255
S11302B065653A200054696D653A20004465632001
S11302C020332032303137004D45343035206261DF
S11302D0736520726164696F2070726F6772616DFB
S11302E02056302E34200020202020683A20202060
S11302F048414C50210020202020653A20202045F0
S113030078697420636F6D6D616E64206D6F6465D0
S11303100020202020733A202020537461636B2036
S113032064756D7020666F72207461736B73002046
S1130330202020763A20202056657273696F6E2043
S1130340616E6420736574757020696E666F726D7A
S11303506174696F6E00202020206E3A20202053A3
S1130360686F77207468652074696D6520726967A9
S11303706874206E6F77002020496E20636F6D6D66
S1130380616E64206D6F6465206F6E6C793A002035
S11303902043746C2D413A20456E74657220636F5E
S11303A06D6D616E64206D6F646500202043746C14
S11303B02D433A2052657365742074686520415654
S11303C052002068656C70004D4534303520626100
S11303D0736520726164696F2070726F6772616DFA
S11303E02056302E3420001B5B33306D001B5B34F1
S11303F0366D00496C6C6567616C2073746174655B
S11304002120526573657474696E672041565200E9
S11304103A5754463F004578697420636F6D6D61A7
S11304206E64206D6F646500526573657474696EE3
S11304306720415652005072657373204374726C86
S11304402D4120666F7220636F6D6D616E64206D47
S11304506F646500526573657474696E6700455214
S1130460524F5220696E207461736B2000455252C2
S11304704F52206372656174696E67207461736B97
S113048020002C20737461636B2061742030780029
S11304902063726561746564005461736B20001B92
S11304A05B32326D005461736B3A20001B5B316D1B
S11304B0001B5B32326D005461736B3A2049444C2B
S11304C045001B5B316D000909002F0049444C4570
S11304D0090930092D0900092D2D2D2D00092D2D77
S11304E02D2D2D2D2D2D2D2D002D2D2D2D09092DAD
S11304F02D2D2D092D2D2D2D2D000952756E7300D6
S113050009467265652F546F74616C004E616D65A8
S113051009095072692E0953746174650009537492
S113052061636B005461736B090920200920000981
S11305300009002F00090009001B5B32326D001B0B
S11305405B316D001B5B316D002020000E940115A2
S1130550261F11241FBECFEFCDBFDFE3DEBF00E0B7
S11305600CBF18BE19BE1ABE1BBE10E2A0E0B0E25A
S1130570E6EEF4E400E00BBF02C007900D92AC3B42
S1130580B107D9F71BBE21E3ACEBB0E201C01D9269
S1130590A236B207E1F712E0C9EAD2E000E006C0F1
S11305A021970109802FFE010E94C621C83AD10774
S11305B080E00807A9F70E948C1E0C9471220C9409
S11305C00000CF93DF9300D01F92CDB7DEB77C013C
S11305D00E94D91069837A838B839C83E0E8F6E0D8
S11305E08CE0828382898360828B83898360838B9E
S11305F0E0E8F1E082E7808389E08087E0E0F9E0E9
S113060088E683838FEF9FEF86A397A381E080839F
S11306100F2EA12CF9E0BF2EF02DF50100A111A1A0
S11306200FB6F8940F92C801880F991F880F991F6D
S1130630880F991F800F911F80934C3190934D31F7
S11306400F900FBE0FB6F8940F92C801012E000C44
S1130650AA0BBB0BAC01BD01440F551F661F771FCE
S11306603A014B01680E791E8A1E9B1EC401B30118
S113067024E630E040E050E00E94A72120934E3170
S113068030934F310F900FBE0FB6F8940F92C801FC
S11306908C199D09092E000CAA0BBB0BAC01BD01E2
S11306A0440F551F661F771F840F951FA61FB71F82
S11306B0AC01BD01440F551F661F771F440F551F22
S11306C0661F771F840F951FA61FB71F80934A319B
S11306D090934B310F900FBEF70186859785A089C3
S11306E0B1890196A11DB11D86879787A08BB18B17
S11306F041E050E060E070E0CE0101960E94771284
S113070068018BCF0F931F93CF93DF93EC010E946B
S113071014158AE090E288839983DF91CF911F9129
S11307200F910895CF93DF9300D01F92CDB7DEB71A
S11307308C010E94D91069837A838B839C83E0E8BF
S1130740F6E083E08283808B818BE0E8F1E080E750
S1130750828389E08287E0E4F8E08AE6838380EAA2
S113076095E086A397A381E080836894EE24E6F85D
S1130770FF24F3F8F701A0A1B1A10FB6F8940F92EA
S113078024E630E00E94CF214B015C0199232CF434
S1130790F3E08F0E911CA11CB11CD501C401B595C9
S11307A0A79597958795B595A795979587958093E0
S11307B04831909349310F900FBEF8018685978593
S11307C0A089B1890196A11DB11D86879787A08B49
S11307D0B18B45E050E060E070E0CE0101960E94EC
S11307E07712C8CF0F931F93CF93DF93EC010E942E
S11307F0141582E190E288839983DF91CF911F9150
S11308000F910895CF93DF9300D01F92CDB7DEB739
S11308107C010E94D91069837A838B839C83E0E6F0
S1130820F6E081E0828384E0828388E1808B828B9E
S113083008E616E0DD24D394F801808180FD08C029
S11308400FB6F8940F92D09247310F900FBE07C0A5
S11308500FB6F8940F92109247310F900FBEF80123
S1130860808182FD08C00FB6F8940F92D092463171
S11308700F900FBE07C00FB6F8940F921092463136
S11308800F900FBEF70186859785A089B1890196DF
S1130890A11DB11D86879787A08BB18B45E050E0E1
S11308A060E070E0CE0101960E947712C5CF0F93ED
S11308B01F93CF93DF93EC010E9414158AE190E219
S11308C088839983DF91CF911F910F910895CF93DE
S11308D0DF9300D000D0CDB7DEB73C010E94D91021
S11308E069837A838B839C83F301FE968FE692E17E
S11308F0A3E0BCE380839183A283B38381E090E08F
S1130900F30184AF95AF6894442441F8512C0F2E21
S1130910FFE32F2EF02D0F2EFCE33F2EF02DF301DD
S113092086859785A089B1890196A11DB11D868709
S11309309787A08BB18B428E538E168E178E2F9273
S11309401F921F921F923F92F3E2FF9327ED2F9382
S11309503AE03F930F2EFDEC8F2EFCEC9F2EA92C3A
S1130960FDE3BF2EF02D0F2EF4E1CF2EFEEADF2E95
S1130970FFE8EF2EFFEBFF2EF02D04E11EEA2FE837
S11309803FE3B501A401CE0105960E949C05F30145
S1130990668D778D028D138D072E000C880B990BB5
S11309A00E9453206B017C01B801110F880B990B35
S11309B00E945320AB01BC0197018601CE0105962C
S11309C00E94C3066B017C01F30124AD35AD868D15
S11309D0978D820F931F868F978F10A611A660A5FF
S11309E071A5072E000C880B990B0E9453209B01C4
S11309F0AC01C701B6010E94A91F0E941B20F3018C
S1130A0064A375A364A175A1072E000C880B990B30
S1130A100E945320CDBFDEBF23E333E34BE851E410
S1130A200E940321181634F421E130E0F30124A3D9
S1130A3035A316C0F30164A175A1072E000C880B21
S1130A40990B0E94532023E333E34BE851EC0E94BB
S1130A50A41F88232CF42FEE3FEFF30124A335A326
S1130A60F30116AA17AA60A571A506A917A9072E4E
S1130A70000C880B990B0E94532020E53AE641EACA
S1130A8057E40E9408216B017C01B801110F880B07
S1130A90990B0E9453209B01AC01C701B6010E942F
S1130AA008210E941B20F30162AB73AB46A957A92E
S1130AB0268D378D429FC001439F900D529F900D0C
S1130AC0112484AB95AB20A931A984A995A9820FDF
S1130AD0931F80AF91AF80AD91AD49972CF028E181
S1130AE030E020AF31AF0BC0F30180AD91AD883E53
S1130AF09F4F2CF428EE3FEFF30120AF31AF41E0DC
S1130B0050E060E070E0CE0101960E947712CE01C1
S1130B1005960E94030603CF0F931F93CF93DF9391
S1130B20EC010E94141582E290E288839983DF919C
S1130B30CF911F910F9108952F923F924F925F9200
S1130B406F927F928F929F92AF92BF92CF92DF92D9
S1130B50EF92FF920F931F93CF93DF9300D01F92D6
S1130B60CDB7DEB71C012A013B0109831A832B830D
S1130B703C8380E290E00E948E19FC014082518205
S1130B806282738289819A81AB81BC8184839583DB
S1130B90A683B783C086D186E286F386848695864B
S1130BA0A686B7864A8D5B8D6C8D7D8D408B518B6F
S1130BB0628B738B8E8D9F8DA8A1B9A1848B958B2D
S1130BC0A68BB78B108E118E128E138E148E158EEB
S1130BD0168E178ED101ED93FC932496CDBFDEBF04
S1130BE0DF91CF911F910F91FF90EF90DF90CF9005
S1130BF0BF90AF909F908F907F906F905F904F9039
S1130C003F902F900895FC0180819181009711F00D
S1130C100E94911908954F925F926F927F928F92E2
S1130C209F92AF92BF92CF92DF92EF92FF920F9377
S1130C301F93CF93DF9300D000D0CDB7DEB78D8361
S1130C409E83CB01BA01A90198010E94371F6B0151
S1130C507C01ED81FE8124853585468557850E947A
S1130C60082169837A838B839C83ED81FE81408094
S1130C70518062807380A3019201C701B6010E9472
S1130C800821ED81FE81248D358D468D578D0E947E
S1130C90381F4B015C01ED81FE81648F758F868F57
S1130CA0978F208D318D428D538DC701B6010E94DF
S1130CB0371FA30192010E94A91FED81FE812089A3
S1130CC03189428953890E9408212B013C01ED811D
S1130CD0FE812489358946895789C501B4010E945A
S1130CE0082129813A814B815C810E94381F9B0134
S1130CF0AC01C301B2010E94381FB62EA72E982E54
S1130D00892EED81FE817480658056804780272D71
S1130D10362D452D542D0E9403211816B4F0ED8173
S1130D20FE817084618452844384272D362D452DA1
S1130D30542D6B2D7A2D892D982D0E94A41F882364
S1130D4024F07B2C6A2C592C482CED81FE81C08E1A
S1130D50D18EE28EF38E672D762D852D942D2696D9
S1130D60CDBFDEBFDF91CF911F910F91FF90EF9028
S1130D70DF90CF90BF90AF909F908F907F906F90B7
S1130D805F904F9008950F931F93FC018081918190
S1130D900E940B061F910F910895CF93DF9300D00B
S1130DA01F92CDB7DEB78C010E94D91069837A8374
S1130DB08B839C83A0E4B6E087E011968C93119713
S1130DC084E015968C931597E0E0F8E081E0808349
S1130DD083E08183A6A3B7A310A611A612A613A627
S1130DE0818180638183E12C6894FF24F3F80F2EC2
S1130DF0F0E2CF2EF3E0DF2EF02DF8018685978503
S1130E00A089B1890196A11DB11D86879787A08B02
S1130E10B18B0FB6F8940F92809147310F900FBEAB
S1130E2081110FC00FB6F8940F920F900FBE9091DE
S1130E304631911106C0F701C0A6D1A612A613A689
S1130E4015C00FB6F8940F920F900FBE811109C010
S1130E500FB6F8940F920F900FBE809146318823FD
S1130E6029F0F70110A611A612A613A64CE150E032
S1130E7060E070E0CE0101960E947712BECF0F931E
S1130E801F93CF93DF93EC010E9414158AE290E242
S1130E9088839983DF91CF911F910F9108950F93C8
S1130EA01F93CF93DF93EC010E94141582E390E229
S1130EB088839983DF91CF911F910F9108950F93A8
S1130EC01F93CF93DF93EC016AE08E819F810E9490
S1130ED07E1A8C016DEE73E00E94471A6AE0C80125
S1130EE00E947E1A8C0167EE73E00E94471A67E045
S1130EF0C8010E947E1A6AE08E819F810E947E1A38
S1130F008C0168EC73E00E94471A6AE0C8010E94F1
S1130F107E1A8C0162EC73E00E94471A66E0C801F5
S1130F200E947E1A6AE08E819F810E947E1A8C0143
S1130F306BEA73E00E94471A66E0C8010E947E1AB9
S1130F406AE08E819F810E947E1A8C016FE873E0B3
S1130F500E94471A66E0C8010E947E1A6AE08E81E8
S1130F609F810E947E1A8C0167E773E00E94471AF2
S1130F7066E0C8010E947E1A6AE08E819F810E9409
S1130F807E1A8C0166E573E00E94471A66E0C80188
S1130F900E947E1A6AE08E819F810E947E1A8C01D3
S1130FA06FE273E00E94471A66E0C8010E947E1A4D
S1130FB06AE08E819F810E947E1A8C0161E173E058
S1130FC00E94471A66E0C8010E947E1A6AE08E8178
S1130FD09F810E947E1A8C0166EF72E00E94471A7C
S1130FE066E0C8010E947E1A6AE08E819F810E9499
S1130FF07E1AEC0167EE72E00E94471A66E0CE01A9
S11310000E947E1ADF91CF911F910F910895AF92A4
S1131010BF92CF92DF92EF92FF920F931F93CF93E1
S1131020DF9300D000D0CDB7DEB78C0119821A82CD
S11310301B821C821D821E820E948C0A6C01CE01BE
S113104001960E94C5185C0166E0F80186819781CB
S11310500E947E1A6AE00E947E1A7C0168EC72E0AB
S11310600E94471A6AE0C7010E947E1A7C016CEB59
S113107072E00E94471A66E0C7010E947E1A6AE085
S11310800E947E1A7C0165EB72E00E94471AB5014A
S1131090C7010E9469186AE00E947E1A7C0167EA0F
S11310A072E00E94471AB601C7010E94C51A6AE09D
S11310B00E947E1A7C0165EA72E00E94471A4FEF93
S11310C05FE060E070E0C7010E94F91AC090280850
S11310D0D09029086AE0F801868197810E947E1ADF
S11310E07C016AE972E00E94471AB601C7010E94B6
S11310F0C51A66E00E947E1A66E00E947E1AF80114
S1131100868197810E9422172696CDBFDEBFDF918C
S1131110CF911F910F91FF90EF90DF90CF90BF90F0
S1131120AF900895CF93DF9300D000D0CDB7DEB752
S11311308C0119821A821B821C821D821E826AE023
S1131140DC0116968D919C9117970E947E1A7C0162
S113115066E374E00E94471A66E0C7010E947E1AA3
S1131160F8018485882321F0813009F45DC0D8C05A
S113117086819781DC01ED91FC910480F581E02D5D
S113118019958823A9F1F80186819781DC01ED91F5
S1131190FC910680F781E02D1995992781309105FE
S11311A0F9F0039709F0D8C06AE0F80186819781C5
S11311B00E947E1A8C0168E274E00E94471A66E07D
S11311C0C8010E947E1A93E088ED08B618BE84BF59
S11311D0909380008091820081FDFCCF08BEFFCFF8
S11311E0C8010E945F0761E0C8010E941015B4C0E5
S11311F080E591E30E94D117882309F4ADC0D8019A
S11312001696ED91FC9117970190F081E02DE28004
S1131210F38080E591E30E94B317682FF80186817B
S11312209781F701199598C086819781DC01ED912A
S1131230FC910480F581E02D1995882309F48CC074
S1131240F80186819781DC01ED91FC910680F7819C
S1131250E02D19959C0133272836310559F13CF4CA
S11312602B31310559F12536310541F13BC0233786
S11312703105C1F02637310589F02E36310591F557
S1131280CE0101960E94C518BC01F80186819781A0
S11312900E94691866E00E947E1A5EC0C8010E941E
S11312A007085AC0D80116968D919C9117970E94F1
S11312B0291652C0C8010E945F074EC06AE0F801B7
S11312C0868197810E947E1A7C0166E174E00E9407
S11312D0471A66E0C7010E947E1A60E0C8010E94B6
S11312E010153AC0F801A681B781ED91FC911197D0
S11312F00280F381E02D682FCD0119956AE0D801B1
S113130016968D919C9117970E947E1A7C0160E13C
S113131074E00E94471A66E0C7010E947E1A1CC04E
S11313206AE0F801868197810E947E1A8C0163EF3E
S113133073E00E94471A66E0C8010E947E1A93E097
S113134088ED08B618BE84BF909380008091820017
S113135081FDFCCF08BEFFCFF80186859785A08963
S1131360B1890196A11DB11D86879787A08BB18B8A
S113137061E070E080E090E00E94E412F1CE0F930F
S11313801F93CF93DF93EC010E94D3108091BC2074
S113139081111DC0A1ECB0E2E5ECF0E2ED93FC9309
S11313A0119712961D921C921397ADEBB0E28FEF3A
S11313B09FE012968D939C9313971D921C92119704
S11313C082839383A083B18381E08093BC202097A0
S11313D009F45FC09E012B5F3F4F2496CE3FDF4050
S11313E008F05AC0E091C120F091C220A1ECB0E213
S11313F002C0DF01FC01828193818217930720F4EC
S1131400808191810097A9F7C0E2ED3BFC0709F4C4
S113141046C0CD91DC9111978E010B5F1F4F8081E7
S113142091818D939C9382819381821B930B8B304A
S1131430910510F1BF01620F731FDB0112968D93AA
S11314409C9313972283338312964D915C91139747
S113145081EC90E201C0CD01EC01A881B981129622
S11314602D913C91139724173507A8F3EB01A8831A
S1131470B983DC016D937C938091002090910120CD
S113148022813381821B930B80930020909301204F
S113149008C000E010E005C000E010E002C000E079
S11314A010E00E94F511C801DF91CF911F910F91B7
S11314B008950F931F93CF93DF93009741F1EC01AD
S11314C08C01055011090E94D310F8014281538107
S11314D0A1ECB0E201C0DF01ED91FC9111972281F2
S11314E0338124173507B8F32597E883F9830D93DF
S11314F01C9320910020309101208A819B81820FCE
S1131500931F80930020909301200E94F511DF9196
S1131510CF911F910F910895809100209091012007
S11315200895FC010396818392834FEF5FEFBA0124
S113153043835483658376838783908781879287E7
S113154010820895FC01128613860895CF93DF93C9
S1131550FC01DB0121813281E9018C819D8114969A
S11315608D939C9315978181928116968D939C936C
S113157017978C819D81EC016E837F83E9016C83D5
S11315807D83618372831A96ED93FC931B9780810C
S11315908F5F8083DF91CF9108950F931F93CF9333
S11315A0DF93EB01088119812A813B810F3F4FEFC3
S11315B014072407340731F4DC011996ED91FC91EA
S11315C01A971FC0FC013396DC0117964D915C916C
S11315D01897DA014D915D916D917C91041715076F
S11315E02607370770F00480F581E02DA481B581CA
S11315F04D915D916D917C9104171507260737076E
S113160090F7A481B581AC83BD831696CD93DC930A
S11316101797EE83FF83C483D5838A879B87FC0156
S113162020812F5F2083DF91CF911F910F91089527
S1131630FC01A481B5818681978116968D939C9334
S11316401797A681B7818481958114968D939C9375
S11316501597A285B38511968D919C911297E817E1
S1131660F90731F48681978111968D939C93129793
S1131670128613868C9181508C93089580936031E7
S11316809093613131E1FC013083319722E2208370
S11316903197A3E3A08331976083319770833197A7
S11316A0108231971082319760E8608331971082FD
S11316B03197108231971082319762E060833197BD
S11316C063E06083319764E06083319765E0608311
S11316D0319766E06083319767E06083319768E013
S11316E06083319769E06083319760E1608331976B
S11316F03083319732E13083319733E1308331974E
S113170034E13083319735E13083319736E13083EA
S1131710319737E13083319738E13083319739E1BC
S11317203083319730E23083319731E2308331971F
S11317302083319723E2208331974083319750836C
S1131740319726E22083319727E22083319728E2DC
S11317502083319729E22083319720E32083319736
S113176021E32083899708958CE78093290A8FEFDA
S11317708093280A81E08093000A91E19093010A02
S11317808093070AA0912431B0912531CD91CDBF2A
S1131790DD91DEBFFF91EF91DF91CF91BF91AF91CA
S11317A09F918F917F916F915F914F913F912F9175
S11317B01F910F91FF90EF90DF90CF90BF90AF906B
S11317C09F908F907F906F905F904F903F902F905D
S11317D01F900F900CBE0F900BBE0F900FBE0F907A
S11317E0089508950F920FB6F8940F920BB60F92C6
S11317F00CB60F921F9211242F923F924F925F9238
S11318006F927F928F929F92AF92BF92CF92DF920C
S1131810EF92FF920F931F932F933F934F935F93F6
S11318206F937F938F939F93AF93BF93CF93DF93E4
S1131830EF93FF93A0912431B09125310DB60D9211
S11318400EB60D920E941213A0912431B09125314D
S1131850CD91CDBFDD91DEBFFF91EF91DF91CF91AF
S1131860BF91AF919F918F917F916F915F914F91B4
S11318703F912F911F910F91FF90EF90DF90CF90A8
S1131880BF90AF909F908F907F906F905F904F909C
S11318903F902F901F900F900CBE0F900BBE0F9097
S11318A00FBE0F9008950F920FB6F8940F920BB6D7
S11318B00F920CB60F921F9211242F923F924F92C7
S11318C05F926F927F928F929F92AF92BF92CF92CC
S11318D0DF92EF92FF920F931F932F933F934F93B7
S11318E05F936F937F938F939F93AF93BF93CF93A4
S11318F0DF93EF93FF93A0912431B09125310DB67E
S11319000D920EB60D920E94F4100E941213A09133
S11319102431B0912531CD91CDBFDD91DEBFFF9152
S1131920EF91DF91CF91BF91AF919F918F917F9173
S11319306F915F914F913F912F911F910F91FF9064
S1131940EF90DF90CF90BF90AF909F908F907F905B
S11319506F905F904F903F902F901F900F900CBE10
S11319600F900BBE0F900FBE0F9008950E94530C62
S11319701895CF93DF93EC0188A181110BC0888166
S11319809981892BE1F58A819B810E94CD141A8269
S11319901B8235C0411117C0482F50E08C819D81B6
S11319A00E94F02128A18C819D81820F911D8C833E
S11319B09D832A813B818217930708F1888199814D
S11319C08C839D831CC0482F50E08E819F810E9490
S11319D0F02188A190E09195819591092E813F8114
S11319E0280F391F2E833F834881598124173507D7
S11319F030F42A813B81820F931F8E839F838E8DC7
S1131A008F5F8E8FDF91CF910895FC01808191814A
S1131A100097A1F040A150E026813781240F351FA3
S1131A2026833783A281B3812A173B0710F086836C
S1131A309783CB01668177810E94F02108950F93EB
S1131A401F93CF93DF93EC010FB6F8940F928AA102
S1131A501816B4F48B89811105C012C08B898111C9
S1131A6004C00EC08E010D5E1F4FC8010E94991361
S1131A7081110E9456148AA181508AA3181674F306
S1131A808FEF8AA30F900FBE0FB6F8940F9289A11F
S1131A901816B4F48885811105C012C08885811197
S1131AA004C00EC08E01085F1F4FC8010E94991325
S1131AB081110E94561489A1815089A3181674F3C8
S1131AC08FEF89A30F900FBEDF91CF911F910F91DC
S1131AD008951F93CF93DF93613059F0FC0123895C
S1131AE0308531112CC011E0211110E0211128C0E2
S1131AF001C011E0EC014881598128A130E06F8DCB
S1131B00629FC001639F900D1124BA01680F791F71
S1131B106A837B831E8E4C835D83821B930B840FAD
S1131B20951F8E839F838FEF89A38AA3CE01089686
S1131B300E94910ACE0143960E94910A01C010E0CE
S1131B40812FDF91CF911F9108950F931F93CF930E
S1131B50DF93882301F1062F182F83E290E00E947F
S1131B60BF09EC01892BC9F0109FC0011124019613
S1131B700E94BF0988839983892B39F01F8F08A39A
S1131B8061E0CE010E94690D08C0CE010E94590A8D
S1131B90C0E0D0E002C0C0E0D0E0CE01DF91CF9140
S1131BA01F910F910895AF92BF92CF92DF92EF925F
S1131BB0FF920F931F93CF93DF93CDB7DEB729978F
S1131BC0CDBFDEBF7C015B012E833F8348875987ED
S1131BD010E06C0188E0C80ED11C0FB6F8940F9287
S1131BE0F701968D878D9817A8F4402FB501C7018A
S1131BF00E94B90CF7018389882341F0C7014396F9
S1131C000E949913813011F40E94F20B0F900FBEC1
S1131C1081E056C08E819F81A885B985892B8A2B46
S1131C208B2B21F40F900FBE80E04AC0111105C028
S1131C30CE0101960E94D81311E00F900FBE0E94AE
S1131C40D3100FB6F8940F92F70181A18F3F09F4D6
S1131C5011A2F70182A18F3F09F412A20F900FBEC7
S1131C60BE016A5F7F4FCE0101960E94E913811184
S1131C7021C00FB6F8940F92F701968D0F900FBE06
S1131C80878D981311C04E815F8168857985C6015F
S1131C900E946F13C7010E941F0D0E94F51181114C
S1131CA09CCF0E94F20B99CFC7010E941F0D0E9486
S1131CB0F51193CFC7010E941F0D0E94F51180E01A
S1131CC02996CDBFDEBFDF91CF911F910F91FF9079
S1131CD0EF90DF90CF90BF90AF900895AF92BF92F6
S1131CE0CF92DF92EF92FF920F931F93CF93DF93E4
S1131CF0CDB7DEB72997CDBFDEBF7C015B012E8354
S1131D003F834887598710E06C0183E1C80ED11CDA
S1131D100FB6F8940F92F701868D882399F1C68047
S1131D20D780B501C7010E94050D01111AC0F70142
S1131D30868D8150868F80819181892B29F40E9420
S1131D407314F70182839383F70180858823B1F0AC
S1131D50C70108960E949913813081F40E94F20B06
S1131D600DC0F701C682D7828389882339F0C70161
S1131D7043960E94991381110E94F20B0F900FBE9B
S1131D8081E062C08E819F81A885B985892B8A2BC9
S1131D908B2B21F40F900FBE80E056C0111105C0AB
S1131DA0CE0101960E94D81311E00F900FBE0E943D
S1131DB0D3100FB6F8940F92F70181A18F3F09F465
S1131DC011A2F70182A18F3F09F412A20F900FBE56
S1131DD0BE016A5F7F4FCE0101960E94E913811113
S1131DE02DC00FB6F8940F92F701868D0F900FBE99
S1131DF081111EC080819181892B49F40FB6F8941A
S1131E000F92828193810E9478140F900FBE4E81AD
S1131E105F8168857985C6010E946F13C7010E949E
S1131E201F0D0E94F511811173CF0E94F20B70CF28
S1131E30C7010E941F0D0E94F5116ACFC7010E94BD
S1131E401F0D0E94F51180E02996CDBFDEBFDF9102
S1131E50CF911F910F91FF90EF90DF90CF90BF90A3
S1131E60AF9008950FB6F8940F92FC01868D0F90F1
S1131E700FBE0895C8EFD0E388818230E8F30E9452
S1131E80F20BFACFCF92DF92EF92FF926B017C01BB
S1131E90E0912431F09125316283738384839583A7
S1131EA08091CC309091CD30A091CE30B091CF3094
S1131EB0C816D906EA06FB0668F4609124317091CD
S1131EC025318091DE309091DF306E5F7F4F0E942C
S1131ED0CD0A21C060912431709125318091E03088
S1131EE09091E1306E5F7F4F0E94CD0A8091022075
S1131EF090910320A0910420B0910520C816D90622
S1131F00EA06FB0640F4C0920220D0920320E0923D
S1131F100420F0920520FF90EF90DF90CF90089579
S1131F204F925F926F927F928F929F92AF92BF92E5
S1131F30CF92DF92EF92FF920F931F93CF93DF9391
S1131F405C014B013A01290188E290E00E94BF093B
S1131F50EC01892B09F4D4C0C114D10409F0CCC01C
S1131F60C3010E94BF098B8F9C8F009721F4CE017F
S1131F700E94590AC5C0A30161E170E00E94F921E1
S1131F809301215031098B8D9C8D3C01620E731E8F
S1131F904AE050E0B401CE014D960E9400221EA2F8
S1131FA0102F043008F013E01A8F1FA36E0122E0F3
S1131FB0C20ED11CC6010E94A20ACE010E960E9436
S1131FC0A20ACA87DB8784E090E0A0E0B0E0811B2E
S1131FD09109A109B1098E879F87A88BB98BCE8BF4
S1131FE0DF8BA201B501C3010E943E0B8883998354
S1131FF0E114F10419F0F701C083D1830FB6F8940A
S11320000F928091D0308F5F8093D03080912431B3
S113201090912531892B89F5C0932431D0932531B2
S11320208091D0308130C1F588EF90E30E94910A0D
S113203083E091E30E94910A8EE091E30E94910A69
S113204089E191E30E94910A8DEE90E30E94910A46
S113205082EE90E30E94910A83ED90E30E94910A3C
S11320608DEE90E38093E0309093E13082EE90E344
S11320708093DE309093DF300FC08091C93081119E
S11320800BC0E0912431F0912531828D081720F0A6
S1132090C0932431D09325318A8D9091CB309817F9
S11320A010F48093CB309091C4309F5F9093C430F0
S11320B09091CA30981710F48093CA30FBE08F9F38
S11320C0C0011124B60188509F4C0E94A60A0F90AB
S11320D00FBE8091C930882359F0E0912431F091EA
S11320E02531828D801730F40E94F20B81E009C003
S11320F081E007C081E005C0CB8EDC8EC6013BCFFA
S11321008FEFDF91CF911F910F91FF90EF90DF90B0
S1132110CF90BF90AF909F908F907F906F905F9083
S11321204F9008950FB6F8940F92009721F4809180
S11321302431909125310F900FBEFC01828D0895BA
S1132140AF92BF92CF92DF92EF92FF920F93A12CA6
S1132150B12CC12CD12C0F2EF1EDEF2EF0E3FF2E7C
S1132160F02D00E020E030E044E650E066E370E269
S11321708AE39FE00E94900F813069F4F894809381
S1132180C9301092CC301092CD301092CE301092D3
S1132190CF300E94B40B0F91FF90EF90DF90CF905F
S11321A0BF90AF9008958091C8308F5F8093C830FE
S11321B008950FB6F8940F926091CC307091CD30A1
S11321C08091CE309091CF300F900FBE089500973C
S11321D021F480912431909125314D960895809178
S11321E0D1309091D2300895FF920F931F93CF93E3
S11321F0DF938091C8308111EDC08091CC309091F3
S1132200CD30A091CE30B091CF300196A11DB11D3B
S11322108093CC309093CD30A093CE30B093CF3018
S11322208091CC309091CD30A091CE30B091CF3010
S1132230892B8A2B8B2BF1F58091E0309091E13042
S11322402091DE303091DF302093E0303093E13064
S11322508093DE309093DF308091C5308F5F809320
S1132260C530E091E030F091E130808181110CC003
S11322708FEF9FEFDC018093022090930320A093C3
S11322800420B093052016C0E091E030F091E130D5
S11322900780F085E02D0084F185E02D8281938113
S11322A0A481B5818093022090930320A0930420FD
S11322B0B09305204091CC305091CD306091CE3018
S11322C07091CF308091022090910320A09104203E
S11322D0B0910520481759076A077B0708F47FC0A7
S11322E0E091E030F091E13080818823F9F0E091D1
S11322F0E030F091E1300780F085E02DC085D18594
S11323008A819B81AC81BD814091CC305091CD308C
S11323106091CE307091CF30481759076A077B0718
S113232058F10F2EFBE0FF2EF02D2FC08FEF9FEF03
S1132330DC018093022090930320A0930420B093A7
S113234005204DC0E091E030F091E1300780F08548
S1132350E02DC085D1858A819B81AC81BD8140916E
S1132360CC305091CD306091CE307091CF30481741
S113237059076A077B0748F480930220909303204F
S1132380A0930420B09305202AC08E010E5F1F4F36
S1132390C8010E94180B888D998D892B21F0CE01DC
S11323A00E960E94180B8A8D9091CA30981710F4DB
S11323B08093CA30F89EC0011124B80188509F4C04
S11323C00E94A60AE091E030F091E1308081811111
S11323D0B9CFACCF8091C7308F5F8093C730DF9186
S11323E0CF911F910F91FF900895CF92DF92EF92BA
S11323F0FF920F931F93CF93DF930FB6F8940F922E
S11324008091C83081508093C8308091C830811148
S113241060C08091D03081112CC05EC0D701179666
S1132420ED91FC911897C085D185CE010E960E943E
S1132430180B8E010E5F1F4FC8010E94180B8A8D66
S11324409091CA30981710F48093CA30D89EC00176
S11324501124B80188509F4C0E94A60AE0912431AF
S1132460F09125319A8D828D981770F0CC24C39405
S11324700BC0C12C0F2EF3EDEF2EF0E3FF2EF02D49
S11324800F2EFBE0DF2EF02DF70180818111C6CFE6
S11324908091C730882381F08091C730882399F0D8
S11324A00E94F4108091C73081508093C73080918E
S11324B0C7308111F5CF07C0F1E0CF1621F080912C
S11324C0C630813041F41092C6300E94F20B81E094
S11324D003C080E001C080E00F900FBEDF91CF9178
S11324E01F910F91FF90EF90DF90CF900895CF92BE
S11324F0DF92EF92FF92CF93DF93EC016A017B01AD
S11325000E94D31088819981AA81BB81C80ED91EEB
S1132510EA1EFB1E4091CC305091CD306091CE30FC
S11325207091CF30481759076A077B07B8F4C8166B
S1132530D906EA06FB06E0F58091CC309091CD30C7
S1132540A091CE30B091CF30C882D982EA82FB828A
S11325508C159D05AE05BF05F8F413C0C816D90641
S1132560EA06FB0600F18091CC309091CD30A09129
S1132570CE30B091CF308C159D05AE05BF0598F0D7
S113258017C0809124319091253102960E94180B36
S1132590C701B6010E94420F0E94F51181110DC0BE
S11325A00E94F20B0AC0C882D982EA82FB82E9CF78
S11325B0C882D982EA82FB82EFCFDF91CF91FF906C
S11325C0EF90DF90CF900895CF92DF92EF92FF9239
S11325D06B017C01672B682B692BE9F00E94D310F7
S11325E08091CC309091CD30A091CE30B091CF304D
S11325F0C80ED91EEA1EFB1E80912431909125310C
S113260002960E94180BC701B6010E94420F0E9455
S1132610F511811102C00E94F20BFF90EF90DF9040
S1132620CF9008958091C83081110CC0E091CA30D8
S11326304BE0E49FF0011124E850FF4C8081882393
S113264029F014C081E08093C63008959BE0809106
S1132650CA3081508093CA30E091CA309E9FF00105
S11326601124E850FF4C8081882389F38091CA307B
S1132670282F30E04BE0849FC0011124DC01A850D6
S1132680BF4C1196ED91FC9112970480F581E02DD9
S11326901196ED93FC93129785509F4CE817F90718
S11326A061F4848195814BE0429FF001439FF00DDA
S11326B01124E850FF4C818392838BE0829FF001C8
S11326C0839FF00D1124E850FF4C0180F281E02D2E
S11326D08085918580932431909325310895CF92FC
S11326E0DF92EF92FF926A017B0160912431709135
S11326F02531625F7F4F0E94CD0A809124319091F1
S1132700253102960E94180B8091CC309091CD30E7
S1132710A091CE30B091CF30BC01CD016C0D7D1DA8
S11327208E1D9F1D0E94420FFF90EF90DF90CF906F
S113273008950F931F93CF93DF93DC011796ED91C8
S1132740FC911897C085D1858E01025F1F4FC80187
S11327500E94180B8091C830811116C00C501109C9
S1132760C8010E94180B8A8D9091CA30981710F4F2
S11327708093CA30BBE08B9FC0011124B8018850FC
S11327809F4C0E94A60A05C0B80183ED90E30E9405
S1132790A60AE0912431F091253181E02A8D928DB1
S11327A0291708F480E0DF91CF911F910F910895CC
S11327B02091C530FC0120834091CC305091CD3024
S11327C06091CE307091CF304183528363837483A0
S11327D008958F929F92AF92BF92CF92DF92EF9221
S11327E0FF920F931F93CF93DF93FC010FB6F894DE
S11327F00F928091C5309081981789F08091CC30E8
S11328009091CD30A091CE30B091CF300181128122
S11328102381348180179107A207B307A8F580911B
S1132820CC309091CD30A091CE30B091CF30C180DA
S1132830D280E380F480EB01088119812A813B81F5
S11328408C199D09AE09BF0980179107A207B30728
S1132850E8F4CF018090CC309090CD30A090CE3071
S1132860B090CF30B501A4014C195D096E097F0900
S1132870041B150B260B370B088319832A833B8310
S11328800E94D81380E003C081E001C081E00F9072
S11328900FBEDF91CF911F910F91FF90EF90DF90CA
S11328A0CF90BF90AF909F908F90089581E08093D8
S11328B0C6300895009721F48091243190912531F8
S11328C0DC015B96ED91FC915C978081813141F450
S11328D0319680E090E0019621912131E1F3089551
S11328E080E090E0089580912431909125310895FD
S11328F00F931F93CF93DF93FC01228DA09124317A
S1132900B09125315A968C91281708F041C0A091B6
S11329102431B09125315A963C9184E090E0A0E0B6
S1132920B0E0831B9109A109B10986879787A08B21
S1132930B18B8BE0289F9001112428503F4C848553
S1132940958582179307E9F48F01EF012296CE0152
S11329500E94180BE0912431F0912531828DF80109
S1132960828F9091CA30981710F48093CA30FBE09C
S11329708F9FC0011124BE0188509F4C0E94A60A5B
S113298007C0A0912431B09125315A968C91828F41
S1132990DF91CF911F910F9108950F931F93CF93C0
S11329A0DF93009749F1FC01328D27A1321721F101
S11329B0EC018C010E5F1F4FC8010E94180B8FA100
S11329C08A8F44E050E060E070E0481B51096109DF
S11329D071094E875F87688B798B9091CA309817FD
S11329E010F48093CA30FBE08F9FC0011124B8011A
S11329F088509F4C0E94A60ADF91CF911F910F919E
S1132A000895EC01E881F9810190F081E02D199598
S1132A101A821B826FEF7FEFCB010E94E412FACF80
S1132A20FC016487658708954F925F926F927F924D
S1132A308F929F92AF92BF92CF92DF92EF92FF92CA
S1132A400F931F93CF93DF93CDB7DEB72A97CDBFF4
S1132A50DEBF4C01290138018FE390E2F401808349
S1132A609183FB018081882369F0DE011196319600
S1132A7090E002C0993039F09F5F8D93819181116C
S1132A80F9CF01C090E0E1E0F0E0EC0FFD1FE90FA9
S1132A90F11D10827401F2E0EF0EF11CA12CB12C97
S1132AA0C12CD12C042F9401A201BE016F5F7F4F72
S1132AB086EA92E00E94900FF40166827782408653
S1132AC05186209126313091273124833583809299
S1132AD026319092273114861586409060315090AB
S1132AE06131FFEF4F1A5F0A4092603150926131B9
S1132AF0F4014286538616861786108A118A611459
S1132B00710409F444C0813079F56AE0C3010E947C
S1132B107E1A7C0169E974E00E94471ABE016F5F66
S1132B207F4FC7010E94471A6AE0C7010E947E1ABC
S1132B307C0160E974E00E94471A6AE0C7010E94C0
S1132B407E1A7C0162E874E00E94471A63E0C701C0
S1132B500E947E1AB2010E94C51A62E00E947E1A87
S1132B6066E00E947E1A13C06AE0C3010E947E1AC6
S1132B704C016DE674E00E94471ABE016F5F7F4FFF
S1132B80C4010E94471A66E0C4010E947E1A2A9674
S1132B90CDBFDEBFDF91CF911F910F91FF90EF90DA
S1132BA0DF90CF90BF90AF909F908F907F906F9069
S1132BB05F904F900895CF92DF92EF92FF920F9320
S1132BC01F93CF93DF93EC017B018A819B810E9449
S1132BD0E7106C016AE0C7010E947E1A8C016CEA5E
S1132BE074E00E94471A6AE0C8010E947E1A8C01B0
S1132BF065EA74E00E94471AB601C8010E94471AA8
S1132C006AE0C8010E947E1A8C016FE974E00E9498
S1132C10471A66E0C8010E947E1A8A859B85E8856A
S1132C20F98501E121E0A701BC018E1B9F0B0E94E5
S1132C30DD188C819D81009719F0B7010E94DB1586
S1132C40DF91CF911F910F91FF90EF90DF90CF9084
S1132C5008950F931F93CF93DF93EC018091263156
S1132C6090912731009719F0BE010E94DB156AE0AC
S1132C70CE010E947E1A8C0162EC74E00E94471A15
S1132C806AE0C8010E947E1A8C0167EB74E00E941E
S1132C90471A6AE0C8010E947E1A8C0161EB74E055
S1132CA00E94471A66E0C8010E947E1A8091603132
S1132CB090916131BC016F5F7F4F01E121E0AE0172
S1132CC0835691090E94DD18DF91CF911F910F91D6
S1132CD008958F929F92AF92BF92CF92DF92EF921C
S1132CE0FF920F931F93CF93DF93EC018B018A81A3
S1132CF09B810E94E710BC01C8010E94471AD801B9
S1132D00ED91FC910280F381E02D69E0C8011995F1
S1132D108A819B810E94E710FC0101900020E9F761
S1132D203197E81BF90B389748F4D801ED91FC91E1
S1132D300280F381E02D69E0C8011995CE84DF8417
S1132D40E888F988A884B9848A819B810E945A14EE
S1132D50982E8C848A819B810E949210682FC801CE
S1132D600E943B1B6AE00E947E1AEC0167E375E057
S1132D700E94471A682DCE010E943B1B6AE00E9404
S1132D807E1AEC0165E375E00E94471A692DCE01B5
S1132D900E943B1B6AE00E947E1AEC0163E375E02B
S1132DA00E94471AB501CE010E94C51A6AE00E942A
S1132DB07E1AEC0161E375E00E94471A6AE0CE01D5
S1132DC00E947E1AEC016FE275E00E94471AB70177
S1132DD0A601CE010E94F91ADF91CF911F910F91A4
S1132DE0FF90EF90DF90CF90BF90AF909F908F9027
S1132DF00895CF93DF93EC01CB01DB01ED91FC91BE
S1132E000280F381E02DBE011995CE01DF91CF91AF
S1132E1008950F931F93CF93DF93EC018B01BC01B3
S1132E20C8010E94F91666E00E947E1A8C819D8179
S1132E30009719F0B8010E940917DF91CF911F91F3
S1132E400F9108950F931F93CF93DF93EC016AE0E2
S1132E500E947E1A8C0164E275E00E94471A6AE0BF
S1132E60C8010E947E1A8C016DE175E00E94471A28
S1132E7066E0C8010E947E1A6AE0CE010E947E1AB2
S1132E808C016CE075E00E94471A6AE0C8010E9458
S1132E907E1A8C0160E075E00E94471A6AE0C8015E
S1132EA00E947E1A8C016AEF74E00E94471A66E061
S1132EB0C8010E947E1A6AE0CE010E947E1A8C012B
S1132EC069EE74E00E94471A6AE0C8010E947E1A03
S1132ED08C016DED74E00E94471A6AE0C8010E94FB
S1132EE07E1A8C0167ED74E00E94471A66E0C801FF
S1132EF00E947E1A8091263190912731009719F013
S1132F00BE010E9409170E94EF100E945A14182F44
S1132F106AE0CE010E947E1AEC016CEC74E00E941F
S1132F20471A612FCE010E943B1B6AE00E947E1A61
S1132F30EC016AEC74E00E94471A64E670E0CE018A
S1132F400E94C51A6AE00E947E1AEC0167EC74E0E4
S1132F500E94471A66E0CE010E947E1ADF91CF914B
S1132F601F910F9108950F93CF93DF931F92CDB7C5
S1132F70DEB700E02FEF3FEFA901BE016F5F7F4F87
S1132F80FC01808591850E946E0E813019F489813F
S1132F9090E002C08FEF9FEF0F90DF91CF910F91E0
S1132FA00895FC01808591850E94320F91E0811182
S1132FB001C090E0892F08950F93CF93DF931F9260
S1132FC0CDB7DEB76983FC012285338544855585F9
S1132FD000E0BE016F5F7F4F808591850E94D30D15
S1132FE091E0811101C090E0892F0F90DF91CF9182
S1132FF00F9108958F929F92BF92CF92DF92EF929A
S1133000FF920F931F93CF93DF93EC01B62E4A01E7
S1133010680179010E94391A87E490E288839983D0
S11330208E869F8640E061E08B2D0E94A50D8887E7
S11330309987CA86DB86EC86FD86DF91CF911F9146
S11330400F91FF90EF90DF90CF90BF909F908F9063
S11330500895CF92DF92EF92FF92CF93DF93EC012A
S1133060688179818A819B810F2EF8EECF2EF3E05F
S1133070DF2EE12CF12CF02DA70196010E94852171
S11330809B01AC0160E472E48FE090E00E94752142
S1133090A70196010E94852169017A01AC81BD8155
S11330A020E432E44FE050E00E94D62120E038E4EE
S11330B048EE51E00E948521C701B601620F731FDB
S11330C0841F951FDF91CF91FF90EF90DF90CF90F9
S11330D00895CF92DF92EF92FF920F931F93CF93B5
S11330E0DF93CDB7DEB72F97CDBFDEBF6C018B0169
S11330F0DB016D917D918D919C9128EE33E040E050
S113310050E00E948521BA01A901C6010E94F91A62
S1133110D601ED91FC910280F381E02D6EE2C601AF
S11331201995C8010E9429188E01095F1F4FFE01DD
S113313031967F012AE030E040E050E00E94A72170
S1133140E62F288739874A875B87688579858A854A
S11331509B8520E32E0FD8012E938D01AE15BF055C
S113316049F71F82BE016F5F7F4FC6010E94471A55
S1133170C6012F96CDBFDEBFDF91CF911F910F9176
S1133180FF90EF90DF90CF900895CF93DF93EC0101
S11331900FB6F8940F9280912008909121088C83A7
S11331A09D830E94D910688379838A839B830F90BF
S11331B00FBECE01DF91CF9108955F926F927F92FF
S11331C08F929F92AF92BF92CF92DF92EF92FF9233
S11331D00F931F93CF93DF935C014B017A01122F5E
S11331E0702E63E0CA010E947E1AA814B90408F084
S11331F07DC0650184E1C80ED11C00E06A2C5B2C03
S1133200B501C7010E94C51A6AE00E947E1A69E4EA
S113321075E00E94471A112309F46DC0002309F4D4
S11332206AC06AE0C7010E947E1A64E475E00E94E5
S1133230471A61C0112371F001110CC088818715F0
S113324049F06AE0C7010E947E1A6FE375E00E94AC
S1133250471A01E06991C7010E943B1BDC01ED9113
S1133260FC910280F381E02D60E21995CC16DD0615
S113327009F7112389F06AE0C7010E947E1AEC0164
S113328069E375E00E94471AE881F9810280F381BD
S1133290E02D60E2CE011995C62DD52D699180EE01
S11332A0860F8F3548F4D701ED91FC910280F381AC
S11332B0E02DC701199509C0D701ED91FC91028059
S11332C0F381E02D6EE2C7011995CC16DD0631F7C6
S11332D0B4E1AB0EB11C66E0C7010E947E1A84E122
S11332E0C80ED11CA814B90408F488CF62E0C70141
S11332F00E947E1A03C0C62DD52D9CCFDF91CF919D
S11333001F910F91FF90EF90DF90CF90BF90AF90FF
S11333109F908F907F906F905F9008950E94BF0957
S11333200895009711F00E94590A08950E94BF0958
S113333008950895CF93DF93FC01DA01403A68E0E1
S1133340560749F480E496E08283938382E0848381
S113335083E0858332C0403B78E0570749F480E43A
S113336096E08283938386E0848387E0858325C007
S1133370403A89E0580749F480E696E082839383D3
S113338082E0848383E0858318C0403B69E056076C
S113339049F480E696E08283938386E0848387E021
S11333A085830BC0403A5A4041F480E896E082831A
S11333B0938382E0848383E08583A683B783CD01EE
S11333C00196808791870396828793872581C2819E
S11333D0D3814C8181E090E0BC0102C0660F771F6D
S11333E02A95E2F79B01242B2C832581C281D3816A
S11333F04881BC0102C0660F771F2A95E2F79B0142
S1133400242B28833481C281D381288102C0880F70
S1133410991F3A95E2F7809590958223888380E1FD
S113342013968C93139783E015968C93159780EFDE
S113343017968C93179781E216968C93169788E1CA
S113344014968C9380E8858780E4868780E284875D
S11334500680F781E02D80818081DF91CF910895EE
S113346081E0089580E090E0089580E00895089553
S11334700895FC0187E590E2808391838AE082834A
S1133480138283E0858314821682178208950F9332
S11334901F93CF93DF938C01FB01DC0114968C9175
S11334A0811104C06081611117C023C0D801149632
S11334B01C92EB01219664916623D9F0D801ED9119
S11334C0FC910280F381E02DC8011995FE016491FD
S11334D021966111F3CF0DC0EF012196D801ED9132
S11334E0FC910280F381E02DC80119956991611165
S11334F0F5CFDF91CF911F910F910895CF93DF9373
S1133500EC01862F90E08B309105D8F5FC018827DB
S1133510E250FF4F8F4F0C94C62182E08A8331C062
S113352088E08A832EC08AE08A832BC080E18A8364
S113353028C081E08B8325C01B8223C0E881F981E8
S11335400280F381E02D6DE0CE011995E881F981C7
S11335500280F381E02D6AE0CE01199512C0E88162
S1133560F9810284F385E02DCE0119950AC0E88122
S1133570F9810084F185E02DCE01199502C081E026
S11335808C83CE01DF91CF910895FF920F931F9307
S1133590CF93DF93CDB7DEB76197CDBFDEBF8C018C
S11335A0F62E972FF8014281403121F0483011F076
S11335B0423041F4692FC8010E943B1B6F2D0E94C9
S11335C03B1B0DC050E0BE016F5F7F4F8F2D0E94EB
S11335D03C22BE016F5F7F4FC8010E94471AC80199
S11335E06196CDBFDEBFDF91CF911F910F91FF9008
S11335F00895DF92EF92FF920F931F93CF93DF937F
S1133600CDB7DEB7A197CDBFDEBF8C01D42EE52E9A
S1133610F62E972FF8012281203121F0283011F065
S1133620223071F4692FC8010E943B1B6F2D0E9448
S11336303B1B6E2D0E943B1B6D2D0E943B1B0FC03C
S113364030E0AE014F5F5F4F6D2D7E2D8F2D0E94B8
S11336500F22BE016F5F7F4FC8010E94471AC80145
S1133660A196CDBFDEBFDF91CF911F910F91FF9047
S1133670EF90DF900895CF92DF92EF92FF920F9335
S11336801F93CF93DF93CDB7DEB72997CDBFDEBFAE
S11336908C01E62EDC0113968C911397882341F05C
S11336A0ED91FC910280F381E02DC801199556C07B
S11336B0F8014281423019F56894CC24C3F8D12C26
S11336C06894FF24F7F88E2D8F2151F0D801ED91E5
S11336D0FC910280F381E02D61E3C801199509C0D2
S11336E0D801ED91FC910280F381E02D60E3C801E3
S11336F01995F694B1E0CB1AD10829F72FC04031BF
S1133700F9F462956F700190F081E02D0280F381ED
S1133710E02D6A3010F0695C01C0605DC801199544
S11337206E2D6F70D801ED91FC910280F381E02D34
S11337306A3010F0695C01C0605DC80119950EC063
S113374050E0BE016F5F7F4F8E2D90E00E943C22BF
S1133750BE016F5F7F4FC8010E94471AC8012996B6
S1133760CDBFDEBFDF91CF911F910F91FF90EF90FE
S1133770DF90CF900895DC015096ED91FC91519724
S1133780808154964C915497842329F009C0215088
S1133790310919F412C021E23EE490819423B9F373
S11337A0908156968C915697892B80831E96ED9125
S11337B0FC911F97608381E0089580E00895CF9382
S11337C0DF93FC01C18DD28D28813981A38DB48D05
S11337D04D915C9124173507E9F3A789B08D0D90BD
S11337E0BC91A02DA20FB31F8C912F5F3F4F288354
S11337F039832436310528F0018CF28DE02D1082B6
S1133800118290E0DF91CF910895CF93DF93EC0183
S1133810A98DBA8DEB8DFC8D81E04D915C91208159
S113382031814217530709F480E0DF91CF91089565
S1133830DC01ED91FC910280F381E02D6CE019959F
S11338400895EF92FF920F931F93CF93DF93EC01B0
S11338507B018A010E94391AA801B701CE0108969A
S11338600E949A1987E690E288839983003A88E057
S1133870180769F484E491E38F8B988F8AE391E3CA
S1133880898F9A8F80E391E38B8F9C8F42C0003B9A
S1133890E8E01E0769F482E491E38F8B988F88E354
S11338A091E3898F9A8F8EE291E38B8F9C8F31C045
S11338B0003AF9E01F0769F480E491E38F8B988F55
S11338C086E391E3898F9A8F8CE291E38B8F9C8FAF
S11338D020C0003B89E0180769F48EE391E38F8BE5
S11338E0988F84E391E3898F9A8F8AE291E38B8F97
S11338F09C8F0FC0003A1A4061F48CE391E38F8BE4
S1133900988F82E391E3898F9A8F88E291E38B8F7A
S11339109C8F0F89188D84E690E00E949619F80117
S113392080839183E98DFA8D10821182EB8DFC8D59
S113393010821182DF91CF911F910F91FF90EF9030
S113394008951F920F920FB60F92112408B60F928A
S113395018BE0BB60F921BBE2F933F938F939F936A
S1133960EF93FF932091A008E0914431F091453109
S11339708091303190913131E80FF91F208380918B
S113398030319091313101968436910560F4809301
S113399030319093313120913A3130913B3182175B
S11339A09307F1F40CC010923031109231318091B0
S11339B03A3190913B311816190691F40EC00196D4
S11339C08436910528F480933A3190933B3108C0B2
S11339D010923A3110923B3103C081E090E0F3CF72
S11339E0FF91EF919F918F913F912F910F900BBE7B
S11339F00F9008BE0F900FBE0F901F9018951F9246
S1133A000F920FB60F92112408B60F9218BE0BB680
S1133A100F921BBE2F933F938F939F93EF93FF932C
S1133A202091B008E0914231F091433180912E31E0
S1133A3090912F31E80FF91F208380912E319091BE
S1133A402F3101968436910560F480932E31909342
S1133A502F31209138313091393182179307F1F4A5
S1133A600CC010922E3110922F31809138319091E8
S1133A7039311816190691F40EC001968436910551
S1133A8028F4809338319093393108C0109238313A
S1133A901092393103C081E090E0F3CFFF91EF91B0
S1133AA09F918F913F912F910F900BBE0F9008BE65
S1133AB00F900FBE0F901F9018951F920F920FB684
S1133AC00F92112408B60F9218BE0BB60F921BBEAC
S1133AD02F933F938F939F93EF93FF932091A0098C
S1133AE0E0914031F0914131809130319091313108
S1133AF0E80FF91F208380912C3190912D3101968C
S1133B008436910560F480932C3190932D3120916B
S1133B1036313091373182179307F1F40CC010928B
S1133B202C3110922D318091363190913731181605
S1133B30190691F40EC001968436910528F48093F9
S1133B4036319093373108C01092363110923731A4
S1133B5003C081E090E0F3CFFF91EF919F918F91AB
S1133B603F912F910F900BBE0F9008BE0F900FBE88
S1133B700F901F9018951F920F920FB60F92112459
S1133B8008B60F9218BE0BB60F921BBE2F933F932D
S1133B908F939F93EF93FF932091B009E0913E316F
S1133BA0F0913F3180912A3190912B31E80FF91F28
S1133BB0208380912A3190912B310196843691058E
S1133BC060F480932A3190932B31209134313091D9
S1133BD0353182179307F1F40CC010922A311092F8
S1133BE02B3180913431909135311816190691F4A6
S1133BF00EC001968436910528F480933431909355
S1133C00353108C0109234311092353103C081E04F
S1133C1090E0F3CFFF91EF919F918F913F912F917E
S1133C200F900BBE0F9008BE0F900FBE0F901F9009
S1133C3018951F920F920FB60F92112408B60F9287
S1133C4018BE0BB60F921BBE2F933F938F939F9377
S1133C50EF93FF932091A00AE0913C31F0913D3124
S1133C608091283190912931E80FF91F20838091A8
S1133C7028319091293101968436910560F480931E
S1133C802831909329312091323130913331821788
S1133C909307F1F40CC010922831109229318091CD
S1133CA03231909133311816190691F40EC00196F1
S1133CB08436910528F4809332319093333108C0CF
S1133CC0109232311092333103C081E090E0F3CF8F
S1133CD0FF91EF919F918F913F912F910F900BBE88
S1133CE00F9008BE0F900FBE0F901F9018950F9362
S1133CF0CF93DF931F92CDB7DEB72FB72983F89404
S1133D001BBEFC0108ED04BF608389818FBF0F9047
S1133D10DF91CF910F9108950F931F93CF93DF936A
S1133D20CDB7DEB76D97CDBFDEBFE0E6F6E080E449
S1133D3081838583F894E0E5F0E08081826080836C
S1133D40818181FFFDCF60914000687F616080E4E4
S1133D5090E00E94771EE0E5F0E080818E7F808312
S1133D609DEF88ED08B618BE84BF9093800008BE0E
S1133D7040EB58E060E070E0CE0101960E94211C07
S1133D8067E0CE0101960E947E1A8C0163E770E21F
S1133D900E94471A66E0C8010E947E1A66E00E94EB
S1133DA07E1A82E190E00E948E198E010F5F1F4FF0
S1133DB024E031E040E062E970E20E944F0782E1D2
S1133DC090E00E948E1924E031E042E06AE970E25A
S1133DD00E94820382E190E00E948E1924E031E087
S1133DE043E061EA70E20E94F20382E190E00E9403
S1133DF08E1924E031E044E068EA70E20E9457043E
S1133E0082E490E00E948E1924E031E041E061EB0D
S1133E1070E20E948C0582E190E00E948E1924E0F9
S1133E2031E044E067EB70E20E943F0787E0809353
S1133E30A20078940E94A01080E090E06D96CDBF1F
S1133E40DEBFDF91CF911F910F9108950F931F93C0
S1133E500AE010E020E030E040E050E060E270E092
S1133E6080E591E30E94FA171F910F91089550582D
S1133E70BB27AA270E944F1F0C94C9200E94BB2075
S1133E8038F00E94C22020F039F49F3F19F426F440
S1133E900C94B8200EF4E095E7FB0C94B220E92FC3
S1133EA00E94DA2058F3BA1762077307840795074C
S1133EB020F079F4A6F50C94FC200EF4E0950B2E7A
S1133EC0BA2FA02D0B01B90190010C01CA01A00168
S1133ED01124FF27591B99F0593F50F4503E68F1C3
S1133EE01A16F040A22F232F342F4427585FF3CF04
S1133EF0469537952795A795F0405395C9F77EF4D5
S1133F001F16BA0B620B730B840BBAF09150A1F01D
S1133F10FF0FBB1F661F771F881FC2F70EC0BA0FA3
S1133F20621F731F841F48F4879577956795B7952B
S1133F30F7959E3F08F0B0CF9395880F08F0992726
S1133F40EE0F9795879508950E948E2008F481E0DE
S1133F5008950E94BD1F0C94C9200E94C22058F0ED
S1133F600E94BB2040F029F45F3F29F00C94B2205A
S1133F7051110C94FD200C94B8200E94DA2068F3AF
S1133F809923B1F3552391F3951B550BBB27AA270E
S1133F9062177307840738F09F5F5F4F220F331F48
S1133FA0441FAA1FA9F335D00E2E3AF0E0E832D010
S1133FB091505040E695001CCAF72BD0FE2F29D013
S1133FC0660F771F881FBB1F261737074807AB07E5
S1133FD0B0E809F0BB0B802DBF01FF2793585F4F5A
S1133FE03AF09E3F510578F00C94B2200C94FD20D9
S1133FF05F3FE4F3983ED4F3869577956795B7953C
S1134000F7959F5FC9F7880F911D9695879597F946
S11340100895E1E0660F771F881FBB1F62177307BF
S11340208407BA0720F0621B730B840BBA0BEE1FD4
S113403088F7E09508950E9422206894B1110C94A9
S1134040FD2008950E94E22088F09F5798F0B92F30
S11340509927B751B0F0E1F0660F771F881F991FB9
S11340601AF0BA95C9F714C0B13091F00E94FC203F
S1134070B1E008950C94FC20672F782F8827B85F4F
S113408039F0B93FCCF3869577956795B395D9F711
S11340903EF490958095709561957F4F8F4F9F4F1B
S11340A00895E89409C097FB3EF490958095709527
S11340B061957F4F8F4F9F4F9923A9F0F92F96E970
S11340C0BB279395F695879577956795B795F111E5
S11340D0F8CFFAF4BB0F11F460FF1BC06F5F7F4F82
S11340E08F4F9F4F16C0882311F096E911C0772394
S11340F021F09EE8872F762F05C0662371F096E89D
S1134100862F70E060E02AF09A95660F771F881F6B
S1134110DAF7880F9695879597F90895990F00080F
S1134120550FAA0BE0E8FEEF16161706E807F90785
S1134130C0F012161306E407F50798F0621B730B20
S1134140840B950B39F40A2661F0232B242B252BA1
S113415021F408950A2609F4A140A6958FEF811D44
S1134160811D089597F99F6780E870E060E00895E5
S11341709FEF80EC089500240A941616170618067B
S11341800906089500240A94121613061406050657
S11341900895092E0394000C11F4882352F0BB0FE8
S11341A040F4BF2B11F460FF04C06F5F7F4F8F4F4B
S11341B09F4F089557FD9058440F551F59F05F3F86
S11341C071F04795880F97FB991F61F09F3F79F035
S11341D087950895121613061406551FF2CF4695B7
S11341E0F1DF08C0161617061806991FF1CF869539
S11341F07105610508940895E894BB27662777271D
S1134200CB0197F908950E948E2008F48FEF08954A
S11342100E941B210C94C9200E94BB2038F00E94EC
S1134220C22020F0952311F00C94B2200C94B820F5
S113423011240C94FD200E94DA2070F3959FC1F3A1
S1134240950F50E0551F629FF001729FBB27F00D40
S1134250B11D639FAA27F00DB11DAA1F649F662795
S1134260B00DA11D661F829F2227B00DA11D621FE4
S1134270739FB00DA11D621F839FA00D611D221F9E
S1134280749F3327A00D611D231F849F600D211D82
S1134290822F762F6A2F11249F5750409AF0F1F005
S11342A088234AF0EE0FFF1FBB1F661F771F881F6E
S11342B091505040A9F79E3F510580F00C94B220D4
S11342C00C94FD205F3FE4F3983ED4F386957795F4
S11342D06795B795F795E7959F5FC1F7FE2B880F14
S11342E0911D9695879597F90895DB018F939F9378
S11342F00E94D621BF91AF91A29F800D911DA39FD3
S1134300900DB29F900D11240895A1E21A2EAA1BBC
S1134310BB1BFD010DC0AA1FBB1FEE1FFF1FA21771
S1134320B307E407F50720F0A21BB30BE40BF50B6E
S1134330661F771F881F991F1A9469F760957095F7
S1134340809590959B01AC01BD01CF010895052E88
S113435097FB1EF400940E94BE2157FD07D00E94D3
S1134360852107FC03D04EF40C94BE215095409552
S1134370309521953F4F4F4F5F4F0895909580950D
S1134380709561957F4F8F4F9F4F0895EE0FFF1FDC
S1134390881F8BBF0790F691E02D1BBE19940E94D5
S11343A0E121B7FF0895821B930B08950E94E12138
S11343B0A59F900DB49F900DA49F800D911D112475
S11343C00895A29FB001B39FC001A39F700D811DEA
S11343D01124911DB29F700D811D1124911D08950A
S11343E0FB01DC0102C001900D9241505040D8F70E
S11343F00895DC0101C06D9341505040E0F70895E9
S1134400FB01DC014150504048F001900D92002026
S1134410C9F701C01D9241505040E0F7089525327C
S1134420310520F4223010F00C941A22FA01108283
S1134430CA010895BB27FA01A62F621771058105E9
S11344409105330B30FB66F0AA27660F771F881F90
S1134450991FAA1FA21710F0A21B63953850A9F741
S1134460A05DAA3308F0A95DA19336F7B111B19309
S11344701082CA010C9461224532510520F4423065
S113448010F00C944722FB011082CB010895BB2746
S1134490FB015527AA27880F991FAA1FA41710F0FC
S11344A0A41B83955051B9F7A05DAA3308F0A95D08
S11344B0A193009779F7B111B1931192CB010C94A8
S11344C06122DC01FC01672F71917723E1F73297B8
S11344D004C07C916D9370836291AE17BF07C8F3DB
S10944E00895F894FFCFDB
S11344E6FF0FFFFFFFFF00000000E1026916000056
S11344F60000920369160000000002046916000019
S113450600006704691600000000CD066916000065
S113451600009208691649444C45000000000099C1
S113452619691600000000301ADC17D117B31737C3
S11345361A381A00000000301A9919351A321A3737
S11345461A381A00000000301ABB1B051CDF1B3783
S11345561A181C4672656552544F5320584D4547E8
S1134566412054657374696E672050726F67726177
S11345766D0055736572496E7400456E634D7472B1
S113458600456E6350656E004C696D5377746368BD
S10F4596004D6F746F720050574D000010
S9030000FC
