S01600004652454552544F535F5348454C4C2E73726563CD
S11300000C94A7020C94DD020C94DD020C94DD0226
S11300100C94DD020C94DD020C94DD020C94DD02E0
S11300200C94DD020C94DD020C94DD020C94DD02D0
S11300300C94DD020C94DD020C94DD020C94DD02C0
S11300400C94DD020C94DD020C94DD020C94DD02B0
S11300500C94DD020C94DD020C94DD020C94DD02A0
S11300600C94DD020C94121C0C94DD020C94DD0241
S11300700C94701C0C94DD020C94DD020C94DD02D3
S11300800C94DD020C94DD020C94DD020C94DD0270
S11300900C94DD020C94DD020C94DD020C94DD0260
S11300A00C94DD020C94DD020C94DD020C94DD0250
S11300B00C94DD020C94DD020C94DD020C94DD0240
S11300C00C94DD020C942C0C0C94DD020C94DD02D7
S11300D00C94DD020C94DD020C94DD020C94DD0220
S11300E00C94DD020C94DD020C948A1D0C94DD0248
S11300F00C94DD020C94DD020C94DD020C94DD0200
S11301000C94DD020C94DD020C94DD020C94DD02EF
S11301100C94DD020C94DD020C94DD020C94DD02DF
S11301200C94DD020C94DD020C94DD020C94DD02CF
S11301300C94DD020C94DD020C94DD020C94DD02BF
S11301400C94DD020C94DD020C94DD020C94DD02AF
S11301500C94DD020C94DD020C94DD020C94DD029F
S11301600C94CE1C0C94DD020C94DD020C942C1D1A
S11301700C94DD020C94DD020C94DD020C94DD027F
S11301800C94DD020C94DD020C94DD020C94DD026F
S11301900C94DD020C94DD020C94DD020C94DD025F
S11301A00C94DD020C94DD020C94DD020C94DD024F
S11301B00C94DD020C94DD020C94DD020C94DD023F
S11301C00C94DD020C94DD020C94DD020C94DD022F
S11301D00C94DD020C94DD020C94DD020C94DD021F
S11301E00C94DD020C94DD020C94DD020C94DD020F
S11301F00C94DD020C94DD020C94DD02FE19011A4C
S1130200041A071A0A1A0D1A0F1A201A281A321A6F
S1130210301A0C94A9190C9408080C94DF150C944A
S1130220A8190C94A3190C942B040C94281A0C945C
S11302308C1E0C94C6030C94041A0C9429170C9469
S1130240011A0C94761B0C946D030C94A4020C9468
S11302500A190C94201A0C94FE190C9447170C9448
S11302600F1A0C9452170C94B00E0C94321A0C946E
S1130270DF020C94891B0C94301A0C94071A0C940A
S11302800D1A0C94A6190C942C1B0C94A1190C9403
S11302900A1A0C94501B2C20544343304343413DD1
S11302A0002F002C204865617020667265653A2035
S11302B00054696D653A200044656320203620327D
S11302C0303137004D45343035206261736520721A
S11302D06164696F2070726F6772616D2056302E91
S11302E034200020202020683A20202048414C500F
S11302F0210020202020653A2020204578697420A0
S1130300636F6D6D616E64206D6F646500202020E5
S113031020733A202020537461636B2064756D70E0
S113032020666F72207461736B7300202020207626
S11303303A20202056657273696F6E20616E6420C6
S1130340736574757020696E666F726D6174696F20
S11303506E00202020206E3A20202053686F7720E2
S11303607468652074696D65207269676874206EAD
S11303706F77002020496E20636F6D6D616E64207D
S11303806D6F6465206F6E6C793A00202043746C45
S11303902D413A20456E74657220636F6D6D616EF8
S11303A064206D6F646500202043746C2D433A20F3
S11303B05265736574207468652041565200206844
S11303C0656C70004D453430352062617365207270
S11303D06164696F2070726F6772616D2056302E90
S11303E03420001B5B33306D001B5B34366D0049D9
S11303F06C6C6567616C207374617465212052654F
S113040073657474696E6720415652003A575446B6
S11304103F004578697420636F6D6D616E64206D73
S11304206F646500526573657474696E6720415624
S113043052005072657373204374726C2D412066B0
S11304406F7220636F6D6D616E64206D6F64650003
S1130450526573657474696E67004552524F522039
S1130460696E207461736B20004552524F522063B1
S113047072656174696E67207461736B20002C204F
S1130480737461636B20617420307800206372653B
S113049061746564005461736B20001B5B32326DC0
S11304A0005461736B3A20001B5B316D001B5B329F
S11304B0326D005461736B3A2049444C45001B5B18
S11304C0316D000909002F0049444C4509093009E0
S11304D02D0900092D2D2D2D00092D2D2D2D2D2D0E
S11304E02D2D2D2D002D2D2D2D09092D2D2D2D09D1
S11304F02D2D2D2D2D000952756E73000946726540
S1130500652F546F74616C004E616D6509095072FA
S1130510692E0953746174650009537461636B0037
S11305205461736B09092020092000090009002F78
S113053000090009001B5B32326D001B5B316D004A
S11305401B5B316D002020000E9477148C1E112447
S11305501FBECFEFCDBFDFE3DEBF00E00CBF18BE90
S113056019BE1ABE1BBE10E2A0E0B0E2ECE7F0E454
S113057000E00BBF02C007900D92A03BB107D9F772
S11305801BBE21E3A0EBB0E201C01D92A635B20769
S1130590E1F712E0C7EAD2E000E006C021970109C2
S11305A0802FFE010E946D1FC63AD10780E0080724
S11305B0A9F70E94FD1D0C943C200C940000CF93DD
S11305C0DF9300D01F92CDB7DEB77C010E944F109D
S11305D069837A838B839C83E0E8F6E08CE08283F2
S11305E082898360828B83898360838BE0E8F1E076
S11305F082E7808389E08087E0E0F9E088E683830E
S11306008FEF9FEF86A397A381E080830F2EA12C09
S1130610F9E0BF2EF02DF50100A111A10FB6F89459
S11306200F920F900FBE0FB6F8940F92C801012ECF
S1130630000CAA0BBB0BAC01BD01440F551F661F78
S1130640771F3A014B01680E791E8A1E9B1EC40156
S1130650B30124E630E040E050E00E944E1F809158
S11306603A3190913B31281B390B2093423130931E
S113067043310F900FBE0FB6F8940F92C8018C1936
S11306809D0980934031909341310F900FBEF70143
S113069086859785A089B1890196A11DB11D86879C
S11306A09787A08BB18B41E050E060E070E0CE0111
S11306B001960E94ED116801AECF0F931F93CF9363
S11306C0DF93EC010E948A148AE090E28883998384
S11306D0DF91CF911F910F910895CF93DF9300D0B5
S11306E01F92CDB7DEB78C010E944F1069837A83C5
S11306F08B839C83E0E8F6E083E08283808B818BAC
S1130700E0E8F1E080E7828389E08287E0E4F8E0D2
S11307108AE6838380EA95E086A397A381E08083B9
S11307206894EE24E6F8FF24F3F8F70180A191A180
S11307300FB6F8940F9280933E3190933F310F900F
S11307400FBEF80186859785A089B1890196A11D00
S1130750B11D86879787A08BB18B41E050E060E0A4
S113076070E0CE0101960E94ED11DFCF0F931F932D
S1130770CF93DF93EC010E948A1482E190E2888394
S11307809983DF91CF911F910F910895CF93DF93B8
S113079000D01F92CDB7DEB77C010E944F10698351
S11307A07A838B839C83E0E6F6E081E0828384E0B5
S11307B0828388E1808B828B08E616E0DD24D39463
S11307C0F801808180FD08C00FB6F8940F92D09292
S11307D03D310F900FBE07C00FB6F8940F921092E0
S11307E03D310F900FBEF801808182FD08C00FB625
S11307F0F8940F92D0923C310F900FBE07C00FB601
S1130800F8940F9210923C310F900FBEF701868539
S11308109785A089B1890196A11DB11D8687978707
S1130820A08BB18B41E050E060E070E0CE01019616
S11308300E94ED11C5CF0F931F93CF93DF93EC016B
S11308400E948A148AE190E288839983DF91CF9190
S11308501F910F910895CF93DF93CDB7DEB76A97B9
S1130860CDBFDEBF8C010E944F1069837A838B83D6
S11308709C83F801FE9681E090E0A0E0B0E08083E4
S11308809183A283B383D801DC968D939C93DD97E7
S1130890A0E4B6E087E011968C93119784E0159656
S11308A08C931597E0E0F8E081E0808383E0818316
S11308B0A6A3B7A310A611A612A613A681818063CE
S11308C081830FB6F8940F9210923A3110923B3113
S11308D00F900FBE6801B0E5CB0ED11C4801EEE5C8
S11308E08E0E911C0F2EFAE0AF2EB12CF02D980134
S11308F0285B3F4F2B8B3C8BC801845B9F4F8987C0
S11309009A87D801A65BBF4FAD8BBE8BF801EC591B
S1130910FF4FEB87FC87245031092D873E870697CC
S1130920898B9A8B5296AF8BB88F1801B6E62B0E33
S1130930311C3496E98FFA8F265031092F87388B72
S1130940F80186859785A089B1890196A11DB11DFD
S113095086879787A08BB18B8485813009F430C05A
S113096020F0823009F44DC04EC0A28EB38E0FB673
S1130970F8940F920F900FBE80913C31882309F4B4
S113098042C00FB6F8940F920F900FBE0FB6F894B2
S11309900F92809142319091433180933A319093F8
S11309A03B310F900FBEF601108211821282138226
S11309B0D4011D921C9261E0C8010E94861423C0D8
S11309C086EF9FEFF801828F938F0FB6F8940F9202
S11309D00F900FBE80913D318823A9F00FB6F89493
S11309E00F920F900FBED6011D921D921D921C9264
S11309F01397F4011082118262E0C8010E948614E8
S1130A0002C0128E138E0FB6F8940F92809140316B
S1130A10909141310F900FBEF801868F978FAB896B
S1130A20BC89AD92BC9223EB30E0E985FA85208342
S1130A303183AD89BE891D921C9220EC30E0EB8598
S1130A40FC852083318320E436E0AD85BE852D937B
S1130A503C9320EC39EFE989FA8920833183D8016A
S1130A605A96ED90FC905B97E81AF90AB701C50114
S1130A700E94B3062B013C01EF89F88D60837183DA
S1130A80D1018D919C91F701E81BF90BCF01A98D40
S1130A90BA8DED93FC93E985FA8520813181829F9B
S1130AA0D001839FB00D929FB00D1124F801E65937
S1130AB0FF4FA083B183EF85F88920813181428182
S1130AC053810E949F1F9B01AC01992324F4215060
S1130AD03F4F4F4F5F4FBB2757FDBA95A52F942F1C
S1130AE0832FF6014081518162817381840F951FA8
S1130AF0A61FB71F8130FAEC9F07FAE9AF07FBE3A3
S1130B00BF0754F080E09AECAAE9BBE3F6018083C6
S1130B109183A283B38317C08115F6E39F07F5E69B
S1130B20AF07F4ECBF0734F0F60180839183A2830E
S1130B30B38309C080E096E3A5E6B4ECF6018083B4
S1130B409183A283B383D6016D917C91C2010E94EB
S1130B509706F801E05AFF4F80839183F401808364
S1130B609183AD85BE852D913C91281739071CF4DE
S1130B70208331830AC0E989FA892081318182176F
S1130B8093071CF4D4012D933C93F801E25BFF4FCF
S1130B90E082F182F401E080F1808E199F09F8016E
S1130BA0EE59FF4F80839183AB85BC854D915C9159
S1130BB0849F9001859F300D949F300D1124332321
S1130BC014F421503F4F832F880F880BF101308399
S1130BD08183D80198961D921C92999792968D9133
S1130BE09C91939760E070E00E94181F3B01072ED0
S1130BF0000C880B990B0E94A41E6D837E838F8347
S1130C00988723E333E34BE851E40E94031F18164B
S1130C1034F481E190E0F80184A395A317C023E3A1
S1130C2033E34BE851EC6D817E818F8198850E947E
S1130C309D1E882334F0D80194966D927C929597EA
S1130C4005C08FEE9FEFF80184A395A3D801D69633
S1130C501D921C92D797D2961D921C92D397D4962C
S1130C601D921C92D597D0968D919C91D1978931E4
S1130C7091053CF088E190E0D8968D939C93D997A8
S1130C800FC0883EBFEF9B0724F0F80180AF91AFFF
S1130C9007C088EE9FEFD801D8968D939C93D9977F
S1130CA0FF203CF0E0E0F8E0E0A6F1A612A613A6CF
S1130CB00CC0E0E0F8E010A611A6D4018D919C913F
S1130CC091958195910982A793A7EF85F889208151
S1130CD0318142815381A8EEB3E00E94941F683EA3
S1130CE0F3E07F078105910548F028EE33E040E00A
S1130CF050E00E942C1FBA01A90104C041E050E059
S1130D0060E070E0CE0101960E94ED1119CE0F93C0
S1130D101F93CF93DF93EC010E948A1482E290E246
S1130D2088839983DF91CF911F910F9108959C013E
S1130D30932F991F9927991F892F90E081509048EC
S1130D40432F4095441F4427441FFC01E21BF30B2F
S1130D5051E0E617F7070CF050E0451719F0C90108
S1130D60860F971F0895811520E8920721F46115D5
S1130D7020E8720729F09C01DB010E94761F089588
S1130D806FEF7FEF8FEF9FE708950F931F93CF933C
S1130D90DF93EC010E948A148AE290E288839983AB
S1130DA0DF91CF911F910F9108950F931F93CF93CC
S1130DB0DF93EC016AE08E819F810E94EF198C0120
S1130DC069EE73E00E94B8196AE0C8010E94EF1945
S1130DD08C0163EE73E00E94B81967E0C8010E94B9
S1130DE0EF196AE08E819F810E94EF198C0164ECF7
S1130DF073E00E94B8196AE0C8010E94EF198C01DF
S1130E006EEB73E00E94B81966E0C8010E94EF1906
S1130E106AE08E819F810E94EF198C0167EA73E07A
S1130E200E94B81966E0C8010E94EF196AE08E8139
S1130E309F810E94EF198C016BE873E00E94B8193E
S1130E4066E0C8010E94EF196AE08E819F810E94CA
S1130E50EF198C0163E773E00E94B81966E0C801DA
S1130E600E94EF196AE08E819F810E94EF198C0124
S1130E7062E573E00E94B81966E0C8010E94EF19A8
S1130E806AE08E819F810E94EF198C016BE273E00E
S1130E900E94B81966E0C8010E94EF196AE08E81C9
S1130EA09F810E94EF198C016DE073E00E94B819D4
S1130EB066E0C8010E94EF196AE08E819F810E945A
S1130EC0EF198C0162EF72E00E94B81966E0C80164
S1130ED00E94EF196AE08E819F810E94EF19EC0154
S1130EE063EE72E00E94B81966E0CE010E94EF1929
S1130EF0DF91CF911F910F910895AF92BF92CF923E
S1130F00DF92EF92FF920F931F93CF93DF9300D062
S1130F1000D0CDB7DEB78C0119821A821B821C82E5
S1130F201D821E820E94020A6C01CE0101960E945B
S1130F303B185C0166E0F801868197810E94EF19F5
S1130F406AE00E94EF197C0164EC72E00E94B81917
S1130F506AE0C7010E94EF197C0168EB72E00E940D
S1130F60B81966E0C7010E94EF196AE00E94EF1900
S1130F707C0161EB72E00E94B819B501C7010E94BF
S1130F80DF176AE00E94EF197C0163EA72E00E94B5
S1130F90B819B601C7010E94361A6AE00E94EF1917
S1130FA07C0161EA72E00E94B8194FEF5FE060E0F3
S1130FB070E0C7010E946A1AC0902808D0902908DE
S1130FC06AE0F801868197810E94EF197C0166E945
S1130FD072E00E94B819B601C7010E94361A66E091
S1130FE00E94EF1966E00E94EF19F801868197814B
S1130FF00E9498162696CDBFDEBFDF91CF911F9138
S11310000F91FF90EF90DF90CF90BF90AF90089535
S1131010CF93DF9300D000D0CDB7DEB78C01198217
S11310201A821B821C821D821E826AE0DC011696D3
S11310308D919C9117970E94EF197C0162E374E0F3
S11310400E94B81966E0C7010E94EF19F80184856F
S1131050882321F0813009F45DC0D8C0868197814E
S1131060DC01ED91FC910480F581E02D1995882334
S1131070A9F1F80186819781DC01ED91FC9106804C
S1131080F781E02D1995992781309105F9F003979F
S113109009F0D8C06AE0F801868197810E94EF19AF
S11310A08C0164E274E00E94B81966E0C8010E94F1
S11310B0EF1993E088ED08B618BE84BF90938000C2
S11310C08091820081FDFCCF08BEFFCFC8010E9441
S11310D0D50661E0C8010E948614B4C084E491E39B
S11310E00E944717882309F4ADC0D8011696ED91E4
S11310F0FC9117970190F081E02DE280F38084E465
S113110091E30E942917682FF80186819781F701DE
S1131110199598C086819781DC01ED91FC9104803A
S1131120F581E02D1995882309F48CC0F801868196
S11311309781DC01ED91FC910680F781E02D1995F2
S11311409C0133272836310559F13CF42B31310504
S113115059F12536310541F13BC023373105C1F042
S11311602637310589F02E36310591F5CE010196E9
S11311700E943B18BC01F801868197810E94DF1709
S113118066E00E94EF195EC0C8010E947D075AC044
S1131190D80116968D919C9117970E949F1552C065
S11311A0C8010E94D5064EC06AE0F8018681978185
S11311B00E94EF197C0162E174E00E94B81966E0B4
S11311C0C7010E94EF1960E0C8010E9486143AC06A
S11311D0F801A681B781ED91FC9111970280F3810A
S11311E0E02D682FCD0119956AE0D80116968D91EE
S11311F09C9117970E94EF197C016CE074E00E94A7
S1131200B81966E0C7010E94EF191CC06AE0F80132
S1131210868197810E94EF198C016FEE73E00E9422
S1131220B81966E0C8010E94EF1993E088ED08B68A
S113123018BE84BF909380008091820081FDFCCF12
S113124008BEFFCFF80186859785A089B1890196EC
S1131250A11DB11D86879787A08BB18B61E070E0DB
S113126080E090E00E945A12F1CE0F931F93CF9327
S1131270DF93EC010E9449108091B02081111DC0C0
S1131280A5EBB0E2E9EBF0E2ED93FC931197129633
S11312901D921C921397A1EBB0E28FEF9FE0129680
S11312A08D939C9313971D921C9211978283938321
S11312B0A083B18381E08093B020209709F45FC0BC
S11312C09E012B5F3F4F2496CE3FDF4008F05AC06B
S11312D0E091B520F091B620A5EBB0E202C0DF01A9
S11312E0FC01828193818217930720F4808191818C
S11312F00097A9F7C0E2E13BFC0709F446C0CD9191
S1131300DC9111978E010B5F1F4F808191818D932A
S11313109C9382819381821B930B8B30910510F1F6
S1131320BF01620F731FDB0112968D939C93139779
S11313302283338312964D915C91139785EB90E24F
S113134001C0CD01EC01A881B98112962D913C9187
S1131350139724173507A8F3EB01A883B983DC019D
S11313606D937C93809100209091012022813381A0
S1131370821B930B809300209093012008C000E00F
S113138010E005C000E010E002C000E010E00E94A0
S11313906B11C801DF91CF911F910F9108950F93A5
S11313A01F93CF93DF93009741F1EC018C0105501B
S11313B011090E944910F80142815381A5EBB0E262
S11313C001C0DF01ED91FC91119722813381241733
S11313D03507B8F32597E883F9830D931C9320917F
S11313E00020309101208A819B81820F931F80937A
S11313F00020909301200E946B11DF91CF911F91E7
S11314000F91089580910020909101200895FC018E
S11314100396818392834FEF5FEFBA014383548332
S11314206583768387839087818792871082089566
S1131430FC01128613860895CF93DF93FC01DB0130
S113144021813281E9018C819D8114968D939C9335
S113145015978181928116968D939C9317978C8111
S11314609D81EC016E837F83E9016C837D836183BD
S113147072831A96ED93FC931B9780818F5F808310
S1131480DF91CF9108950F931F93CF93DF93EB01D7
S1131490088119812A813B810F3F4FEF14072407EC
S11314A0340731F4DC011996ED91FC911A971FC0B1
S11314B0FC013396DC0117964D915C911897DA0183
S11314C04D915D916D917C9104171507260737079F
S11314D070F00480F581E02DA481B5814D915D917A
S11314E06D917C91041715072607370790F7A4819F
S11314F0B581AC83BD831696CD93DC931797EE83A9
S1131500FF83C483D5838A879B87FC0120812F5F57
S11315102083DF91CF911F910F910895FC01A48145
S1131520B5818681978116968D939C931797A68192
S1131530B7818481958114968D939C931597A28588
S1131540B38511968D919C911297E817F90731F4A0
S11315508681978111968D939C9312971286138698
S11315608C9181508C93089580935431909355318C
S113157031E1FC013083319722E220833197A3E3E8
S1131580A0833197608331977083319710823197AC
S11315901082319760E8608331971082319710820E
S11315A031971082319762E06083319763E0608302
S11315B0319764E06083319765E06083319766E03A
S11315C06083319767E06083319768E06083319787
S11315D069E06083319760E16083319730833197AC
S11315E032E13083319733E13083319734E1308312
S11315F0319735E13083319736E13083319737E1E4
S11316003083319738E13083319739E13083319732
S113161030E23083319731E2308331972083319740
S113162023E220833197408331975083319726E218
S11316302083319727E22083319728E22083319752
S113164029E22083319720E32083319721E320830B
S1131650899708958CE78093290A8FEF8093280A4D
S113166081E08093000A91E19093010A8093070A34
S1131670A0911831B0911931CD91CDBFDD91DEBF6C
S1131680FF91EF91DF91CF91BF91AF919F918F9196
S11316907F916F915F914F913F912F911F910F9186
S11316A0FF90EF90DF90CF90BF90AF909F908F907E
S11316B07F906F905F904F903F902F901F900F906E
S11316C00CBE0F900BBE0F900FBE0F90089508959F
S11316D00F920FB6F8940F920BB60F920CB60F92AE
S11316E01F9211242F923F924F925F926F927F929A
S11316F08F929F92AF92BF92CF92DF92EF92FF921E
S11317000F931F932F933F934F935F936F937F9305
S11317108F939F93AF93BF93CF93DF93EF93FF93F5
S1131720A0911831B09119310DB60D920EB60D92EB
S11317300E948812A0911831B0911931CD91CDBF7A
S1131740DD91DEBFFF91EF91DF91CF91BF91AF911A
S11317509F918F917F916F915F914F913F912F91C5
S11317601F910F91FF90EF90DF90CF90BF90AF90BB
S11317709F908F907F906F905F904F903F902F90AD
S11317801F900F900CBE0F900BBE0F900FBE0F90CA
S113179008950F920FB6F8940F920BB60F920CB6F1
S11317A00F921F9211242F923F924F925F926F9249
S11317B07F928F929F92AF92BF92CF92DF92EF92DD
S11317C0FF920F931F932F933F934F935F936F93C6
S11317D07F938F939F93AF93BF93CF93DF93EF93B5
S11317E0FF93A0911831B09119310DB60D920EB638
S11317F00D920E946A100E948812A0911831B09133
S11318001931CD91CDBFDD91DEBFFF91EF91DF9115
S1131810CF91BF91AF919F918F917F916F915F9184
S11318204F913F912F911F910F91FF90EF90DF9077
S1131830CF90BF90AF909F908F907F906F905F906C
S11318404F903F902F901F900F900CBE0F900BBEA7
S11318500F900FBE0F9008950E94C90B1895CF9357
S1131860DF93EC0188A181110BC088819981892BB8
S1131870E1F58A819B810E9443141A821B8235C040
S1131880411117C0482F50E08C819D810E94BB1FDD
S113189028A18C819D81820F911D8C839D832A8137
S11318A03B818217930708F1888199818C839D83FA
S11318B01CC0482F50E08E819F810E94BB1F88A1CD
S11318C090E09195819591092E813F81280F391FD0
S11318D02E833F83488159812417350730F42A81A8
S11318E03B81820F931F8E839F838E8D8F5F8E8F9C
S11318F0DF91CF910895FC01808191810097A1F03F
S113190040A150E026813781240F351F2683378379
S1131910A281B3812A173B0710F086839783CB01FA
S1131920668177810E94BB1F08950F931F93CF9305
S1131930DF93EC010FB6F8940F928AA11816B4F451
S11319408B89811105C012C08B89811104C00EC01E
S11319508E010D5E1F4FC8010E940F1381110E945A
S1131960CC138AA181508AA3181674F38FEF8AA32B
S11319700F900FBE0FB6F8940F9289A11816B4F405
S11319808885811105C012C08885811104C00EC0EC
S11319908E01085F1F4FC8010E940F1381110E941E
S11319A0CC1389A1815089A3181674F38FEF89A3EE
S11319B00F900FBEDF91CF911F910F9108951F9348
S11319C0CF93DF93613059F0FC01238930853111C5
S11319D02CC011E0211110E0211128C001C011E038
S11319E0EC014881598128A130E06F8D629FC001CC
S11319F0639F900D1124BA01680F791F6A837B835A
S1131A001E8E4C835D83821B930B840F951F8E83E4
S1131A109F838FEF89A38AA3CE0108960E94070AA9
S1131A20CE0143960E94070A01C010E0812FDF9186
S1131A30CF911F9108950F931F93CF93DF93882322
S1131A4001F1062F182F83E290E00E943509EC0182
S1131A50892BC9F0109FC001112401960E943509F9
S1131A6088839983892B39F01F8F08A361E0CE0105
S1131A700E94DF0C08C0CE010E94CF09C0E0D0E074
S1131A8002C0C0E0D0E0CE01DF91CF911F910F9151
S1131A900895AF92BF92CF92DF92EF92FF920F938D
S1131AA01F93CF93DF93CDB7DEB72997CDBFDEBFAA
S1131AB07C015B012E833F834887598710E06C01CA
S1131AC088E0C80ED11C0FB6F8940F92F701968DDA
S1131AD0878D9817A8F4402FB501C7010E942F0CD9
S1131AE0F7018389882341F0C70143960E940F13AD
S1131AF0813011F40E94680B0F900FBE81E056C034
S1131B008E819F81A885B985892B8A2B8B2B21F403
S1131B100F900FBE80E04AC0111105C0CE0101969E
S1131B200E944E1311E00F900FBE0E9449100FB691
S1131B30F8940F92F70181A18F3F09F411A2F701E4
S1131B4082A18F3F09F412A20F900FBEBE016A5FFB
S1131B507F4FCE0101960E945F13811121C00FB601
S1131B60F8940F92F701968D0F900FBE878D9813FE
S1131B7011C04E815F8168857985C6010E94E51296
S1131B80C7010E94950C0E946B1181119CCF0E9489
S1131B90680B99CFC7010E94950C0E946B1193CFDB
S1131BA0C7010E94950C0E946B1180E02996CDBF5D
S1131BB0DEBFDF91CF911F910F91FF90EF90DF90E7
S1131BC0CF90BF90AF900895AF92BF92CF92DF9223
S1131BD0EF92FF920F931F93CF93DF93CDB7DEB7AE
S1131BE02997CDBFDEBF7C015B012E833F834887ED
S1131BF0598710E06C0183E1C80ED11C0FB6F8942C
S1131C000F92F701868D882399F1C680D780B5019C
S1131C10C7010E947B0C01111AC0F701868D815007
S1131C20868F80819181892B29F40E94E913F70121
S1131C3082839383F70180858823B1F0C7010896D6
S1131C400E940F13813081F40E94680B0DC0F701CC
S1131C50C682D7828389882339F0C70143960E94BC
S1131C600F1381110E94680B0F900FBE81E062C0B8
S1131C708E819F81A885B985892B8A2B8B2B21F492
S1131C800F900FBE80E056C0111105C0CE01019621
S1131C900E944E1311E00F900FBE0E9449100FB620
S1131CA0F8940F92F70181A18F3F09F411A2F70173
S1131CB082A18F3F09F412A20F900FBEBE016A5F8A
S1131CC07F4FCE0101960E945F1381112DC00FB684
S1131CD0F8940F92F701868D0F900FBE81111EC0EC
S1131CE080819181892B49F40FB6F8940F928281F7
S1131CF093810E94EE130F900FBE4E815F81688521
S1131D007985C6010E94E512C7010E94950C0E94C4
S1131D106B11811173CF0E94680B70CFC7010E94B1
S1131D20950C0E946B116ACFC7010E94950C0E940A
S1131D306B1180E02996CDBFDEBFDF91CF911F915B
S1131D400F91FF90EF90DF90CF90BF90AF900895E8
S1131D500FB6F8940F92FC01868D0F900FBE089574
S1131D60CCEED0E388818230E8F30E94680BFACF8E
S1131D70CF92DF92EF92FF926B017C01E0911831D8
S1131D80F091193162837383848395838091C03089
S1131D909091C130A091C230B091C330C816D90619
S1131DA0EA06FB0668F4609118317091193180914C
S1131DB0D2309091D3306E5F7F4F0E94430A21C08E
S1131DC060911831709119318091D4309091D5304F
S1131DD06E5F7F4F0E94430A8091022090910320FE
S1131DE0A0910420B0910520C816D906EA06FB0686
S1131DF040F4C0920220D0920320E0920420F0929A
S1131E000520FF90EF90DF90CF9008954F925F925E
S1131E106F927F928F929F92AF92BF92CF92DF92F6
S1131E20EF92FF920F931F93CF93DF935C014B01CB
S1131E303A01290188E290E00E943509EC01892BDE
S1131E4009F4D4C0C114D10409F0CCC0C3010E9468
S1131E5035098B8F9C8F009721F4CE010E94CF0906
S1131E60C5C0A30161E170E00E94C41F9301215029
S1131E7031098B8D9C8D3C01620E731E4AE050E04B
S1131E80B401CE014D960E94CB1F1EA2102F043028
S1131E9008F013E01A8F1FA36E0122E0C20ED11CBA
S1131EA0C6010E94180ACE010E960E94180ACA871B
S1131EB0DB8784E090E0A0E0B0E0811B9109A109F8
S1131EC0B1098E879F87A88BB98BCE8BDF8BA2013C
S1131ED0B501C3010E94B40A88839983E114F10413
S1131EE019F0F701C083D1830FB6F8940F92809153
S1131EF0C4308F5F8093C430809118319091193130
S1131F00892B89F5C0931831D09319318091C4304D
S1131F108130C1F58CEE90E30E94070A87EF90E3CD
S1131F200E94070A82E091E30E94070A8DE091E390
S1131F300E94070A81EE90E30E94070A86ED90E36F
S1131F400E94070A87EC90E30E94070A81EE90E35F
S1131F508093D4309093D53086ED90E38093D23043
S1131F609093D3300FC08091BD3081110BC0E091AC
S1131F701831F0911931828D081720F0C09318316F
S1131F80D09319318A8D9091BF30981710F48093B3
S1131F90BF309091B8309F5F9093B8309091BE302D
S1131FA0981710F48093BE30FBE08F9FC00111247A
S1131FB0B60184519F4C0E941C0A0F900FBE809161
S1131FC0BD30882359F0E0911831F0911931828D98
S1131FD0801730F40E94680B81E009C081E007C0DB
S1131FE081E005C0CB8EDC8EC6013BCF8FEFDF9145
S1131FF0CF911F910F91FF90EF90DF90CF90BF9002
S1132000AF909F908F907F906F905F904F900895C6
S11320100FB6F8940F92009721F4809118319091A3
S113202019310F900FBEFC01828D0895AF92BF92BB
S1132030CF92DF92EF92FF920F93A12CB12CC12C7F
S1132040D12C0F2EF5ECEF2EF0E3FF2EF02D00E057
S113205020E030E044E650E06EE270E280EB9EE087
S11320600E94060F813069F4F8948093BD30109279
S1132070C0301092C1301092C2301092C3300E940E
S11320802A0B0F91FF90EF90DF90CF90BF90AF900D
S113209008958091BC308F5F8093BC3008950FB653
S11320A0F8940F926091C0307091C1308091C23029
S11320B09091C3300F900FBE0895009721F4809142
S11320C01831909119314D9608958091C5309091B1
S11320D0C6300895FF920F931F93CF93DF9380919F
S11320E0BC308111EDC08091C0309091C130A0917D
S11320F0C230B091C3300196A11DB11D8093C03090
S11321009093C130A093C230B093C3308091C0305B
S11321109091C130A091C230B091C330892B8A2BE9
S11321208B2BF1F58091D4309091D5302091D23021
S11321303091D3302093D4303093D5308093D23043
S11321409093D3308091B9308F5F8093B930E09110
S1132150D430F091D530808181110CC08FEF9FEF86
S1132160DC018093022090930320A0930420B09379
S1132170052016C0E091D430F091D5300780F08569
S1132180E02D0084F185E02D82819381A481B581C5
S11321908093022090930320A0930420B093052001
S11321A04091C0305091C1306091C2307091C330C1
S11321B08091022090910320A0910420B0910520E9
S11321C0481759076A077B0708F47FC0E091D430A9
S11321D0F091D53080818823F9F0E091D430F091EA
S11321E0D5300780F085E02DC085D1858A819B811B
S11321F0AC81BD814091C0305091C1306091C230FA
S11322007091C330481759076A077B0758F10F2E9E
S1132210FBE0FF2EF02D2FC08FEF9FEFDC018093AA
S1132220022090930320A0930420B09305204DC076
S1132230E091D430F091D5300780F085E02DC08551
S1132240D1858A819B81AC81BD814091C030509100
S1132250C1306091C2307091C330481759076A0782
S11322607B0748F48093022090930320A0930420DA
S1132270B09305202AC08E010E5F1F4FC8010E9433
S11322808E0A888D998D892B21F0CE010E960E949D
S11322908E0A8A8D9091BE30981710F48093BE30C8
S11322A0F89EC0011124B80184519F4C0E941C0A5D
S11322B0E091D430F091D53080818111B9CFACCF89
S11322C08091BB308F5F8093BB30DF91CF911F91A2
S11322D00F91FF900895CF92DF92EF92FF920F93A8
S11322E01F93CF93DF930FB6F8940F928091BC3075
S11322F081508093BC308091BC30811160C080914A
S1132300C43081112CC05EC0D7011796ED91FC91A9
S11323101897C085D185CE010E960E948E0A8E0133
S11323200E5F1F4FC8010E948E0A8A8D9091BE30A5
S1132330981710F48093BE30D89EC0011124B801C0
S113234084519F4C0E941C0AE0911831F09119317C
S11323509A8D828D981770F0CC24C3940BC0C12C35
S11323600F2EF7ECEF2EF0E3FF2EF02D0F2EFBE0F7
S1132370DF2EF02DF70180818111C6CF8091BB3013
S1132380882381F08091BB30882399F00E946A10E1
S11323908091BB3081508093BB308091BB308111E0
S11323A0F5CF07C0F1E0CF1621F08091BA3081302B
S11323B041F41092BA300E94680B81E003C080E0BF
S11323C001C080E00F900FBEDF91CF911F910F915C
S11323D0FF90EF90DF90CF900895CF92DF92EF922D
S11323E0FF92CF93DF93EC016A017B010E944910B5
S11323F088819981AA81BB81C80ED91EEA1EFB1E61
S11324004091C0305091C1306091C2307091C3305E
S1132410481759076A077B07B8F4C816D906EA06AD
S1132420FB06E0F58091C0309091C130A091C2309C
S1132430B091C330C882D982EA82FB828C159D0593
S1132440AE05BF05F8F413C0C816D906EA06FB06A4
S113245000F18091C0309091C130A091C230B09110
S1132460C3308C159D05AE05BF0598F017C080914B
S113247018319091193102960E948E0AC701B60153
S11324800E94B80E0E946B1181110DC00E94680B4E
S11324900AC0C882D982EA82FB82E9CFC882D98283
S11324A0EA82FB82EFCFDF91CF91FF90EF90DF9034
S11324B0CF900895CF92DF92EF92FF926B017C014F
S11324C0672B682B692BE9F00E9449108091C0307A
S11324D09091C130A091C230B091C330C80ED91EC2
S11324E0EA1EFB1E809118319091193102960E94C8
S11324F08E0AC701B6010E94B80E0E946B118111A9
S113250002C00E94680BFF90EF90DF90CF90089577
S11325108091BC3081110CC0E091BE304BE0E49F4F
S1132520F0011124E451FF4C8081882329F014C068
S113253081E08093BA3008959BE08091BE30815051
S11325408093BE30E091BE309E9FF0011124E4518F
S1132550FF4C8081882389F38091BE30282F30E09E
S11325604BE0849FC0011124DC01A451BF4C11969F
S1132570ED91FC9112970480F581E02D1196ED9375
S1132580FC93129781519F4CE817F90761F48481F9
S113259095814BE0429FF001439FF00D1124E451DB
S11325A0FF4C818392838BE0829FF001839FF00D27
S11325B01124E451FF4C0180F281E02D8085918546
S11325C080931831909319310895CF92DF92EF924E
S11325D0FF926A017B016091183170911931625F39
S11325E07F4F0E94430A80911831909119310296CD
S11325F00E948E0A8091C0309091C130A091C23067
S1132600B091C330BC01CD016C0D7D1D8E1D9F1D8D
S11326100E94B80EFF90EF90DF90CF9008950F9333
S11326201F93CF93DF93DC011796ED91FC911897DC
S1132630C085D1858E01025F1F4FC8010E948E0A9A
S11326408091BC30811116C00C501109C8010E9440
S11326508E0A8A8D9091BE30981710F48093BE3004
S1132660BBE08B9FC0011124B80184519F4C0E9490
S11326701C0A05C0B80187EC90E30E941C0AE09193
S11326801831F091193181E02A8D928D291708F4BF
S113269080E0DF91CF911F910F9108952091B9307F
S11326A0FC0120834091C0305091C1306091C23010
S11326B07091C330418352836383748308958F92EE
S11326C09F92AF92BF92CF92DF92EF92FF920F93BD
S11326D01F93CF93DF93FC010FB6F8940F92809170
S11326E0B9309081981789F08091C0309091C130B1
S11326F0A091C230B091C330018112812381348111
S113270080179107A207B307A8F58091C030909174
S1132710C130A091C230B091C330C180D280E38077
S1132720F480EB01088119812A813B818C199D0970
S1132730AE09BF0980179107A207B307E8F4CF01D8
S11327408090C0309090C130A090C230B090C3301F
S1132750B501A4014C195D096E097F09041B150B11
S1132760260B370B088319832A833B830E944E135D
S113277080E003C081E001C081E00F900FBEDF91D3
S1132780CF911F910F91FF90EF90DF90CF90BF906A
S1132790AF909F908F90089581E08093BA30089510
S11327A0009721F48091183190911931DC015B96E6
S11327B0ED91FC915C978081813141F4319680E008
S11327C090E0019621912131E1F3089580E090E0B9
S11327D00895809118319091193108950F931F93A2
S11327E0CF93DF93FC01228DA0911831B091193160
S11327F05A968C91281708F041C0A0911831B091D5
S113280019315A963C9184E090E0A0E0B0E0831B3B
S11328109109A109B10986879787A08BB18B8BE0B9
S1132820289F9001112424513F4C8485958582175B
S11328309307E9F48F01EF012296CE010E948E0ADC
S1132840E0911831F0911931828DF801828F9091C5
S1132850BE30981710F48093BE30FBE08F9FC00108
S11328601124BE0184519F4C0E941C0A07C0A091F0
S11328701831B09119315A968C91828FDF91CF9192
S11328801F910F9108950F931F93CF93DF93009798
S113289049F1FC01328D27A1321721F1EC018C01A1
S11328A00E5F1F4FC8010E948E0A8FA18A8F44E0D9
S11328B050E060E070E0481B5109610971094E87DE
S11328C05F87688B798B9091BE30981710F4809352
S11328D0BE30FBE08F9FC0011124B80184519F4C8E
S11328E00E941C0ADF91CF911F910F910895EC0172
S11328F0E881F9810190F081E02D19951A821B82FB
S11329006FEF7FEFCB010E945A12FACFFC0164876C
S1132910658708954F925F926F927F928F929F92F4
S1132920AF92BF92CF92DF92EF92FF920F931F93D9
S1132930CF93DF93CDB7DEB72A97CDBFDEBF4C016F
S11329402901380187E390E2F40180839183FB013C
S11329508081882369F0DE011196319690E002C0EF
S1132960993039F09F5F8D9381918111F9CF01C026
S113297090E0E1E0F0E0EC0FFD1FE90FF11D1082A3
S11329807401F2E0EF0EF11CA12CB12CC12CD12C5E
S1132990042F9401A201BE016F5F7F4F84EA92E08D
S11329A00E94060FF4016682778240865186209148
S11329B01A3130911B312483358380921A319092DD
S11329C01B31148615864090543150905531FFEFD9
S11329D04F1A5F0A4092543150925531F4014286A5
S11329E0538616861786108A118A6114710409F4B5
S11329F044C0813079F56AE0C3010E94EF197C017B
S1132A0065E974E00E94B819BE016F5F7F4FC7018A
S1132A100E94B8196AE0C7010E94EF197C016CE8B2
S1132A2074E00E94B8196AE0C7010E94EF197C01A2
S1132A306EE774E00E94B81963E0C7010E94EF19C1
S1132A40B2010E94361A62E00E94EF1966E00E9409
S1132A50EF1913C06AE0C3010E94EF194C0169E643
S1132A6074E00E94B819BE016F5F7F4FC4010E94D9
S1132A70B81966E0C4010E94EF192A96CDBFDEBFE3
S1132A80DF91CF911F910F91FF90EF90DF90CF9046
S1132A90BF90AF909F908F907F906F905F904F907A
S1132AA00895CF92DF92EF92FF920F931F93CF93EB
S1132AB0DF93EC017B018A819B810E945D106C0194
S1132AC06AE0C7010E94EF198C0168EA74E00E9471
S1132AD0B8196AE0C8010E94EF198C0161EA74E038
S1132AE00E94B819B601C8010E94B8196AE0C80169
S1132AF00E94EF198C016BE974E00E94B81966E03A
S1132B00C8010E94EF198A859B85E885F98501E152
S1132B1021E0A701BC018E1B9F0B0E9453188C81DE
S1132B209D81009719F0B7010E945115DF91CF9153
S1132B301F910F91FF90EF90DF90CF9008950F9326
S1132B401F93CF93DF93EC0180911A3190911B3145
S1132B50009719F0BE010E9451156AE0CE010E944F
S1132B60EF198C016EEB74E00E94B8196AE0C80199
S1132B700E94EF198C0163EB74E00E94B8196AE0BB
S1132B80C8010E94EF198C016DEA74E00E94B81923
S1132B9066E0C8010E94EF1980915431909155313B
S1132BA0BC016F5F7F4F01E121E0AE0183569109C3
S1132BB00E945318DF91CF911F910F9108958F9226
S1132BC09F92AF92BF92CF92DF92EF92FF920F93B8
S1132BD01F93CF93DF93EC018B018A819B810E9429
S1132BE05D10BC01C8010E94B819D801ED91FC9197
S1132BF00280F381E02D69E0C80119958A819B81E7
S1132C000E945D10FC0101900020E9F73197E81B58
S1132C10F90B389748F4D801ED91FC910280F381C7
S1132C20E02D69E0C8011995CE84DF84E888F9882D
S1132C30A884B9848A819B810E94D013982E8C84A5
S1132C408A819B810E940810682FC8010E94AC1AD7
S1132C506AE00E94EF19EC0163E375E00E94B81981
S1132C60682DCE010E94AC1A6AE00E94EF19EC01B3
S1132C7061E375E00E94B819692DCE010E94AC1A77
S1132C806AE00E94EF19EC016FE275E00E94B81946
S1132C90B501CE010E94361A6AE00E94EF19EC01D8
S1132CA06DE275E00E94B8196AE0CE010E94EF1946
S1132CB0EC016BE275E00E94B819B701A601CE01E0
S1132CC00E946A1ADF91CF911F910F91FF90EF90AC
S1132CD0DF90CF90BF90AF909F908F900895CF9347
S1132CE0DF93EC01CB01DB01ED91FC910280F381D8
S1132CF0E02DBE011995CE01DF91CF9108950F9378
S1132D001F93CF93DF93EC018B01BC01C8010E9498
S1132D106F1666E00E94EF198C819D81009719F06F
S1132D20B8010E947F16DF91CF911F910F910895F2
S1132D300F931F93CF93DF93EC016AE00E94EF1986
S1132D408C0160E275E00E94B8196AE0C8010E9433
S1132D50EF198C0169E175E00E94B81966E0C801B9
S1132D600E94EF196AE0CE010E94EF198C0168E01D
S1132D7075E00E94B8196AE0C8010E94EF198C013D
S1132D806CEF74E00E94B8196AE0C8010E94EF1960
S1132D908C0166EF74E00E94B81966E0C8010E94D5
S1132DA0EF196AE0CE010E94EF198C0165EE74E020
S1132DB00E94B8196AE0C8010E94EF198C0169EDFC
S1132DC074E00E94B8196AE0C8010E94EF198C01EE
S1132DD063ED74E00E94B81966E0C8010E94EF191F
S1132DE080911A3190911B31009719F0BE010E9415
S1132DF07F160E9465100E94D013182F6AE0CE013E
S1132E000E94EF19EC0168EC74E00E94B819612F7C
S1132E10CE010E94AC1A6AE00E94EF19EC0166EC44
S1132E2074E00E94B81964E670E0CE010E94361A7C
S1132E306AE00E94EF19EC0163EC74E00E94B81997
S1132E4066E0CE010E94EF19DF91CF911F910F919F
S1132E5008950F93CF93DF931F92CDB7DEB700E0B1
S1132E602FEF3FEFA901BE016F5F7F4FFC0180850B
S1132E7091850E94E40D813019F4898190E002C0AB
S1132E808FEF9FEF0F90DF91CF910F910895FC0189
S1132E90808591850E94A80E91E0811101C090E087
S1132EA0892F08950F93CF93DF931F92CDB7DEB789
S1132EB06983FC01228533854485558500E0BE0184
S1132EC06F5F7F4F808591850E94490D91E081114C
S1132ED001C090E0892F0F90DF91CF910F91089559
S1132EE08F929F92BF92CF92DF92EF92FF920F93B5
S1132EF01F93CF93DF93EC01B62E4A016801790149
S1132F000E94AA198FE390E2888399838E869F8614
S1132F1040E061E08B2D0E941B0D88879987CA864B
S1132F20DB86EC86FD86DF91CF911F910F91FF9098
S1132F30EF90DF90CF90BF909F908F900895CF92A5
S1132F40DF92EF92FF92CF93DF93EC016881798156
S1132F508A819B810F2EF8EECF2EF3E0DF2EE12C39
S1132F60F12CF02DA70196010E942C1F9B01AC01AE
S1132F7060E472E48FE090E00E94081FA7019601CC
S1132F800E942C1F69017A01AC81BD8120E432E4E6
S1132F904FE050E00E94941F20E038E448EE51E0F6
S1132FA00E942C1FC701B601620F731F841F951F57
S1132FB0DF91CF91FF90EF90DF90CF900895CF9263
S1132FC0DF92EF92FF920F931F93CF93DF93CDB7CE
S1132FD0DEB72F97CDBFDEBF6C018B01DB016D9196
S1132FE07D918D919C9128EE33E040E050E00E9469
S1132FF02C1FBA01A901C6010E946A1AD601ED91DB
S1133000FC910280F381E02D6EE2C6011995C8019E
S11330100E949F178E01095F1F4FFE0131967F01A9
S11330202AE030E040E050E00E944E1FE62F28875F
S113303039874A875B87688579858A859B8520E3FC
S11330402E0FD8012E938D01AE15BF0549F71F82AF
S1133050BE016F5F7F4FC6010E94B819C6012F964B
S1133060CDBFDEBFDF91CF911F910F91FF90EF9005
S1133070DF90CF900895CF93DF93EC010FB6F894CF
S11330800F9280912008909121088C839D830E9447
S11330904F10688379838A839B830F900FBECE0180
S11330A0DF91CF9108955F926F927F928F929F925A
S11330B0AF92BF92CF92DF92EF92FF920F931F9342
S11330C0CF93DF935C014B017A01122F702E63E0E2
S11330D0CA010E94EF19A814B90408F07DC0650163
S11330E084E1C80ED11C00E06A2C5B2CB501C70139
S11330F00E94361A6AE00E94EF1965E475E00E94A6
S1133100B819112309F46DC0002309F46AC06AE0F8
S1133110C7010E94EF1960E475E00E94B81961C00C
S1133120112371F001110CC08881871549F06AE000
S1133130C7010E94EF196BE375E00E94B81901E022
S11331406991C7010E94AC1ADC01ED91FC910280E7
S1133150F381E02D60E21995CC16DD0609F7112301
S113316089F06AE0C7010E94EF19EC0165E375E09C
S11331700E94B819E881F9810280F381E02D60E2B0
S1133180CE011995C62DD52D699180EE860F8F3508
S113319048F4D701ED91FC910280F381E02DC70141
S11331A0199509C0D701ED91FC910280F381E02DBE
S11331B06EE2C7011995CC16DD0631F7B4E1AB0E0A
S11331C0B11C66E0C7010E94EF1984E1C80ED11C4E
S11331D0A814B90408F488CF62E0C7010E94EF196B
S11331E003C0C62DD52D9CCFDF91CF911F910F9198
S11331F0FF90EF90DF90CF90BF90AF909F908F9013
S11332007F906F905F9008950E94350908950E9401
S1133210350908950895CF93DF93FC01DA01403A0C
S113322068E0560749F480E496E08283938382E061
S1133230848383E0858332C0403B78E0570749F4B8
S113324080E496E08283938386E0848387E08583A9
S113325025C0403A89E0580749F480E696E0828325
S1133260938382E0848383E0858318C0403B69E0D4
S1133270560749F480E696E08283938386E084834C
S113328087E085830BC0403A5A4041F480E896E0D9
S11332908283938382E0848383E08583A683B783D8
S11332A0CD01019680879187039682879387258134
S11332B0C281D3814C8181E090E0BC0102C0660FE1
S11332C0771F2A95E2F79B01242B2C832581C28149
S11332D0D3814881BC0102C0660F771F2A95E2F7AB
S11332E09B01242B28833481C281D381288102C08D
S11332F0880F991F3A95E2F78095909582238883E9
S113330080E113968C93139783E015968C9315970D
S113331080EF17968C93179781E216968C931697E5
S113332088E114968C9380E8858780E4868780E220
S113333084870680F781E02D80818081DF91CF91A1
S1133340089581E0089580E090E0089580E0089574
S113335008950895FC018FE490E2808391838AE0CC
S11333608283138283E085831482168217820895F0
S11333700F931F93CF93DF938C01FB01DC01149611
S11333808C91811104C06081611117C023C0D801E0
S113339014961C92EB01219664916623D9F0D8010E
S11333A0ED91FC910280F381E02DC8011995FE0195
S11333B0649121966111F3CF0DC0EF012196D801DC
S11333C0ED91FC910280F381E02DC801199569917A
S11333D06111F5CFDF91CF911F910F910895CF9394
S11333E0DF93EC01862F90E08B309105D8F5FC013A
S11333F08827E250FF4F8F4F0C946D1F82E08A8321
S113340031C088E08A832EC08AE08A832BC080E1A1
S11334108A8328C081E08B8325C01B8223C0E88176
S1133420F9810280F381E02D6DE0CE011995E881E8
S1133430F9810280F381E02D6AE0CE01199512C072
S1133440E881F9810284F385E02DCE0119950AC043
S1133450E881F9810084F185E02DCE01199502C03F
S113346081E08C83CE01DF91CF910895FF920F9379
S11334701F93CF93DF93CDB7DEB76197CDBFDEBF88
S11334808C01F62E972FF8014281403121F048300B
S113349011F0423041F4692FC8010E94AC1A6F2D1B
S11334A00E94AC1A0DC050E0BE016F5F7F4F8F2D9C
S11334B00E940720BE016F5F7F4FC8010E94B819A8
S11334C0C8016196CDBFDEBFDF91CF911F910F91EF
S11334D0FF900895DF92EF92FF920F931F93CF9383
S11334E0DF93CDB7DEB7A197CDBFDEBF8C01D42E5D
S11334F0E52EF62E972FF8012281203121F0283075
S113350011F0223071F4692FC8010E94AC1A6F2D9A
S11335100E94AC1A6E2D0E94AC1A6D2D0E94AC1A3A
S11335200FC030E0AE014F5F5F4F6D2D7E2D8F2DAC
S11335300E94DA1FBE016F5F7F4FC8010E94B81955
S1133540C801A196CDBFDEBFDF91CF911F910F912E
S1133550FF90EF90DF900895CF92DF92EF92FF9269
S11335600F931F93CF93DF93CDB7DEB72997CDBFCA
S1133570DEBF8C01E62EDC0113968C911397882311
S113358041F0ED91FC910280F381E02DC801199581
S113359056C0F8014281423019F56894CC24C3F82E
S11335A0D12C6894FF24F7F88E2D8F2151F0D80187
S11335B0ED91FC910280F381E02D61E3C80119953E
S11335C009C0D801ED91FC910280F381E02D60E304
S11335D0C8011995F694B1E0CB1AD10829F72FC088
S11335E04031F9F462956F700190F081E02D028012
S11335F0F381E02D6A3010F0695C01C0605DC801A0
S113360019956E2D6F70D801ED91FC910280F381B4
S1133610E02D6A3010F0695C01C0605DC801199545
S11336200EC050E0BE016F5F7F4F8E2D90E00E9470
S11336300720BE016F5F7F4FC8010E94B819C801FF
S11336402996CDBFDEBFDF91CF911F910F91FF90DF
S1133650EF90DF90CF900895DC015096ED91FC91AE
S11336605197808154964C915497842329F009C032
S11336702150310919F412C021E23EE490819423CF
S1133680B9F3908156968C915697892B80831E9618
S1133690ED91FC911F97608381E0089580E0089587
S11336A0CF93DF93FC01C18DD28D28813981A38D05
S11336B0B48D4D915C9124173507E9F3A789B08D3A
S11336C00D90BC91A02DA20FB31F8C912F5F3F4F83
S11336D0288339832436310528F0018CF28DE02DBE
S11336E01082118290E0DF91CF910895CF93DF9300
S11336F0EC01A98DBA8DEB8DFC8D81E04D915C912F
S1133700208131814217530709F480E0DF91CF9182
S11337100895DC01ED91FC910280F381E02D6CE0D1
S113372019950895EF92FF920F931F93CF93DF9310
S1133730EC017B018A010E94AA19A801B701CE01FC
S113374008960E940B198FE590E288839983003ACA
S113375088E0180769F488E391E38F8B988F8EE2F1
S113376091E3898F9A8F84E291E38B8F9C8F42C07F
S1133770003BE8E01E0769F486E391E38F8B988FA2
S11337808CE291E3898F9A8F82E291E38B8F9C8FF5
S113379031C0003AF9E01F0769F484E391E38F8BA9
S11337A0988F8AE291E3898F9A8F80E291E38B8FDD
S11337B09C8F20C0003B89E0180769F482E391E301
S11337C08F8B988F88E291E3898F9A8F8EE191E3B2
S11337D08B8F9C8F0FC0003A1A4061F480E391E311
S11337E08F8B988F86E291E3898F9A8F8CE191E396
S11337F08B8F9C8F0F89188D84E690E00E940719A7
S1133800F80180839183E98DFA8D10821182EB8D0A
S1133810FC8D10821182DF91CF911F910F91FF9047
S1133820EF9008951F920F920FB60F92112408B6CD
S11338300F9218BE0BB60F921BBE2F933F938F931C
S11338409F93EF93FF932091A008E0913831F0917A
S113385039318091243190912531E80FF91F20836B
S1133860809124319091253101968436910560F43C
S1133870809324319093253120912E3130912F3132
S113388082179307F1F40CC0109224311092253161
S113389080912E3190912F311816190691F40EC093
S11338A001968436910528F480932E3190932F311C
S11338B008C010922E3110922F3103C081E090E0A5
S11338C0F3CFFF91EF919F918F913F912F910F90A3
S11338D00BBE0F9008BE0F900FBE0F901F9018954F
S11338E01F920F920FB60F92112408B60F9218BEB2
S11338F00BB60F921BBE2F933F938F939F93EF931F
S1133900FF932091B008E0913631F09137318091E6
S1133910223190912331E80FF91F208380912231C5
S11339209091233101968436910560F4809322317D
S11339309093233120912C3130912D3182179307AC
S1133940F1F40CC0109222311092233180912C3169
S113395090912D311816190691F40EC001968436F3
S1133960910528F480932C3190932D3108C0109246
S11339702C3110922D3103C081E090E0F3CFFF9100
S1133980EF919F918F913F912F910F900BBE0F90CC
S113399008BE0F900FBE0F901F9018951F920F92A4
S11339A00FB60F92112408B60F9218BE0BB60F92E1
S11339B01BBE2F933F938F939F93EF93FF9320917D
S11339C0A009E0913431F091353180912431909106
S11339D02531E80FF91F2083809120319091213106
S11339E001968436910560F48093203190932131BF
S11339F020912A3130912B3182179307F1F40CC0B6
S1133A00109220311092213180912A3190912B31E2
S1133A101816190691F40EC001968436910528F4FF
S1133A2080932A3190932B3108C010922A3110923E
S1133A302B3103C081E090E0F3CFFF91EF919F9190
S1133A408F913F912F910F900BBE0F9008BE0F9056
S1133A500FBE0F901F9018951F920F920FB60F92E2
S1133A60112408B60F9218BE0BB60F921BBE2F93EB
S1133A703F938F939F93EF93FF932091B009E0912D
S1133A803231F091333180911E3190911F31E80F22
S1133A90F91F208380911E3190911F310196843645
S1133AA0910560F480931E3190931F312091283149
S1133AB03091293182179307F1F40CC010921E3112
S1133AC010921F31809128319091293118161906CE
S1133AD091F40EC001968436910528F48093283120
S1133AE09093293108C0109228311092293103C0D3
S1133AF081E090E0F3CFFF91EF919F918F913F91FF
S1133B002F910F900BBE0F9008BE0F900FBE0F9019
S1133B101F9018951F920F920FB60F92112408B69A
S1133B200F9218BE0BB60F921BBE2F933F938F9329
S1133B309F93EF93FF932091A00AE0913031F0918D
S1133B40313180911C3190911D31E80FF91F208390
S1133B5080911C3190911D3101968436910560F459
S1133B6080931C3190931D3120912631309127315F
S1133B7082179307F1F40CC010921C3110921D317E
S1133B8080912631909127311816190691F40EC0B0
S1133B9001968436910528F4809326319093273139
S1133BA008C0109226311092273103C081E090E0C2
S1133BB0F3CFFF91EF919F918F913F912F910F90B0
S1133BC00BBE0F9008BE0F900FBE0F901F9018955C
S1133BD00F93CF93DF931F92CDB7DEB72FB729830F
S1133BE0F8941BBEFC0108ED04BF608389818FBF7C
S1133BF00F90DF91CF910F9108950F931F93CF935F
S1133C00DF93CDB7DEB76D97CDBFDEBFE0E6F6E05C
S1133C1080E481838583F894E0E5F0E0808182602C
S1133C208083818181FFFDCF60914000687F616066
S1133C3080E490E00E94E81DE0E5F0E080818E7F62
S1133C4080839DEF88ED08B618BE84BF90938000F2
S1133C5008BE40EB58E060E070E0CE0101960E949F
S1133C60921B67E0CE0101960E94EF198C016BE66E
S1133C7070E20E94B81966E0C8010E94EF1966E07C
S1133C800E94EF1982E190E00E9404198E010F5FF7
S1133C901F4F24E031E040E06AE870E20E94C5066C
S1133CA082E190E00E94041924E031E042E062E9FC
S1133CB070E20E945D0382E190E00E94041924E016
S1133CC031E043E069E970E20E94B60382E190E0EA
S1133CD00E94041924E031E044E060EA70E20E94AA
S1133CE01B048CE690E00E94041924E031E043E0D8
S1133CF069EA70E20E94870687E08093A2007894C4
S1133D000E94161080E090E06D96CDBFDEBFDF917B
S1133D10CF911F910F9108950F931F930AE010E024
S1133D2020E030E040E050E060E270E084E491E3C1
S1133D300E9470171F910F9108950E94DF1E08F4CE
S1133D4081E00895E89409C097FB3EF4909580952E
S1133D50709561957F4F8F4F9F4F9923A9F0F92F4D
S1133D6096E9BB279395F695879577956795B795CB
S1133D70F111F8CFFAF4BB0F11F460FF1BC06F5FB1
S1133D807F4F8F4F9F4F16C0882311F096E911C0C3
S1133D90772321F09EE8872F762F05C0662371F0E4
S1133DA096E8862F70E060E02AF09A95660F771FF8
S1133DB0881FDAF7880F9695879597F90895990FD4
S1133DC00008550FAA0BE0E8FEEF16161706E807E1
S1133DD0F907C0F012161306E407F50798F0621B02
S1133DE0730B840B950B39F40A2661F0232B242BD7
S1133DF0252B21F408950A2609F4A140A6958FEFF6
S1133E00811D811D08950E94DF1E08F48FEF08951F
S1133E10DB018F939F930E94941FBF91AF91A29F48
S1133E20800D911DA39F900DB29F900D11240895B4
S1133E3097FB072E16F4009407D077FD09D00E9453
S1133E40A71F07FC05D03EF4909581959F4F0895D8
S1133E50709561957F4F0895A1E21A2EAA1BBB1B92
S1133E60FD010DC0AA1FBB1FEE1FFF1FA217B30742
S1133E70E407F50720F0A21BB30BE40BF50B661F58
S1133E80771F881F991F1A9469F76095709580951C
S1133E9090959B01AC01BD01CF010895052E97FBC0
S1133EA01EF400940E94651F57FD07D00E942C1F2A
S1133EB007FC03D04EF40C94651F50954095309543
S1133EC021953F4F4F4F5F4F089590958095709582
S1133ED061957F4F8F4F9F4F0895EE0FFF1F881FEF
S1133EE08BBF0790F691E02D1BBE19940E947E1F94
S1133EF0332312F48A1B9B0B0C948F1FA29FB001D7
S1133F00B39FC001A39F700D811D1124911DB29F09
S1133F10700D811D1124911D08950E947E1FB7FF0D
S1133F200895821B930B08950E947E1FA59F900DF8
S1133F30B49F900DA49F800D911D11240895B7FF87
S1133F400C94941F0E94941F821B930B0895AA1B28
S1133F50BB1B51E107C0AA1FBB1FA617B70710F070
S1133F60A61BB70B881F991F5A95A9F780959095A2
S1133F70BC01CD010895FB01DC0102C001900D924A
S1133F8041505040D8F70895DC0101C06D93415071
S1133F905040E0F70895FB01DC014150504048F0E7
S1133FA001900D920020C9F701C01D92415050406C
S1133FB0E0F708952532310520F4223010F00C94F6
S1133FC0E51FFA011082CA010895BB27FA01A62F42
S1133FD06217710581059105330B30FB66F0AA2742
S1133FE0660F771F881F991FAA1FA21710F0A21B24
S1133FF063953850A9F7A05DAA3308F0A95DA19391
S113400036F7B111B1931082CA010C942C204532B9
S1134010510520F4423010F00C941220FB01108260
S1134020CB010895BB27FB015527AA27880F991FA9
S1134030AA1FA41710F0A41B83955051B9F7A05DD3
S1134040AA3308F0A95DA193009779F7B111B19350
S11340501192CB010C942C20DC01FC01672F71918F
S11340607723E1F7329704C07C916D93708362915A
S10F4070AE17BF07C8F30895F894FFCF03
S113407CFF0FFFFFFFFF00000000DF02DF15000051
S113408C00006D03DF1500000000C603DF150000FF
S113409C00002B04DF15000000000808DF1549445C
S11340AC4C4500000000000A19DF1500000000A1B7
S11340BC19521747172917A819A91900000000A1AC
S11340CC190A19A619A319A819A91900000000A105
S11340DC192C1B761B501BA819891B46726565523B
S11340EC544F5320584D4547412054657374696EA1
S11340FC672050726F6772616D0055736572496EFB
S113410C7400456E634D747200456E6350656E00A9
S113411C4C696D5377746368004D6F746F72000053
S9030000FC
