:100000000C9495030C94CB030C94CB030C94CB036E
:100010000C94CB030C94CB030C94CB030C94CB0328
:100020000C94CB030C94CB030C94CB030C94CB0318
:100030000C94CB030C94CB030C94CB030C94CB0308
:100040000C94CB030C94CB030C94CB030C94CB03F8
:100050000C94CB030C94CB030C94CB030C94CB03E8
:100060000C94CB030C947E1F0C94CB030C94CB0309
:100070000C94DC1F0C94CB030C94CB030C94CB039B
:100080000C94CB030C94CB030C94CB030C94CB03B8
:100090000C94CB030C94CB030C94CB030C94CB03A8
:1000A0000C94CB030C94CB030C94CB030C94CB0398
:1000B0000C94CB030C94CB030C94CB030C94CB0388
:1000C0000C94CB030C946F0F0C94CB030C94CB03C8
:1000D0000C94CB030C94CB030C94CB030C94CB0368
:1000E0000C94CB030C94CB030C94F6200C94CB0310
:1000F0000C94CB030C94CB030C94CB030C94CB0348
:100100000C94CB030C94CB030C94CB030C94CB0337
:100110000C94CB030C94CB030C94CB030C94CB0327
:100120000C94CB030C94CB030C94CB030C94CB0317
:100130000C94CB030C94CB030C94CB030C94CB0307
:100140000C94CB030C94CB030C94CB030C94CB03F7
:100150000C94CB030C94CB030C94CB030C94CB03E7
:100160000C943A200C94CB030C94CB030C94982061
:100170000C94CB030C94CB030C94CB030C94CB03C7
:100180000C94CB030C94CB030C94CB030C94CB03B7
:100190000C94CB030C94CB030C94CB030C94CB03A7
:1001A0000C94CB030C94CB030C94CB030C94CB0397
:1001B0000C94CB030C94CB030C94CB030C94CB0387
:1001C0000C94CB030C94CB030C94CB030C94CB0377
:1001D0000C94CB030C94CB030C94CB030C94CB0367
:1001E0000C94CB030C94CB030C94CB030C94CB0357
:1001F0000C94CB030C94CB030C94CB03B60B2E0CBA
:100200002E0C2E0C2E0C2E0C2E0C2E0C2E0C2E0C1E
:100210002E0C2E0C2E0C2E0C2E0C2E0C2E0C2E0C0E
:100220002E0C2E0C2E0C2E0C2E0C2E0C2E0C2E0CFE
:100230002E0C2E0C2E0C2E0C2E0C2E0C2E0C2E0CEE
:100240002E0C2E0C2E0C2E0C2E0C2E0C2E0C2E0CDE
:100250002E0C2E0C2E0C2E0C2E0C2E0C2E0C2E0CCE
:100260002E0C2E0C2E0C2E0C2E0C2E0C2E0C2E0CBE
:100270002E0C2E0C2E0C2E0C2E0C2E0C2E0C2E0CAE
:100280002E0C2E0C2E0C2E0C2E0CCA0B2E0CFC0B36
:10029000B60B2E0CE40BB20B2E0C2E0C2E0C2E0CCF
:1002A0002E0C980B2E0C2E0C2E0C160CAA0B2E0CB2
:1002B0002E0CA60B411D441D471D4A1D4D1D501DF2
:1002C000521D631D6B1D751D731D0C94E91C0C9450
:1002D000521D0C94AA0B0C94B20B0C94E61C0C94BB
:1002E0004D1C0C942E0C0C94B60B0C946B1D0C94A2
:1002F000F8210C94411D0C94501D0C94B4040C94E2
:10030000F3110C94471D0C948A1A0C9422190C9426
:10031000160C0C94951A0C94981E0C945B040C9477
:10032000980B0C94731D0C94A60B0C94E21E0C9469
:10033000441D0C94F51E0C94EC1C0C94CA0B0C94EC
:10034000F20A0C94E40B0C946C1A0C94751D0C942A
:10035000CD030C94BC1E0C944D1D0C944A1D0C94A2
:10036000631D0C94E41C0C9419050C94FC0B0C9468
:10037000EB1C0C9492032C20544343304343413DE7
:10038000002F002C204865617020667265653A2058
:100390000054696D653A200044656320203720329F
:1003A000303137004D45343035206261736520723D
:1003B0006164696F2070726F6772616D2056302EB4
:1003C00034200020202020723A20202052657365BE
:1003D0007420746F2049646C650020202020643AEA
:1003E000202020456D657267656E63792053746FB8
:1003F000700020202020673A2020205377696E6704
:100400002050656E64756C756D20557072696768F3
:10041000742C207468656E20476F2E0020202020E9
:10042000623A202020426567696E2043616C6962F0
:10043000726174696F6E206F6620496E76657274A2
:1004400065642050656E64756C756D3F00202020DA
:1004500020683A20202048414C50210020202020B4
:10046000653A2020204578697420636F6D6D616E58
:1004700064206D6F64650020202020733A202020C6
:10048000537461636B2064756D7020666F722074A5
:1004900061736B730020202020763A20202056655F
:1004A0007273696F6E20616E64207365747570205D
:1004B000696E666F726D6174696F6E002020202016
:1004C0006E3A20202053686F772074686520746925
:1004D0006D65207269676874206E6F77002020490F
:1004E0006E20636F6D6D616E64206D6F6465206F4B
:1004F0006E6C793A00202043746C2D413A20456E91
:1005000074657220636F6D6D616E64206D6F6465DC
:1005100000202043746C2D433A205265736574208B
:1005200074686520415652002068656C70004D4526
:10053000343035206261736520726164696F2070A8
:10054000726F6772616D2056302E3420001B5B3352
:10055000306D001B5B34366D00496C6C6567616CF7
:100560002073746174652120526573657474696EBB
:100570006720415652003A5754463F005265736512
:10058000742C2074727920486F6D696E67206167E2
:1005900061696E206279207072657373696E67207D
:1005A00027622700454D455247454E435920535435
:1005B0004F5000436F6D6D656E63652042616C61E5
:1005C0006E636500426567696E20486F6D696E678E
:1005D000004578697420636F6D6D616E64206D6F86
:1005E000646500526573657474696E672041565284
:1005F000005072657373204374726C2D4120746FC8
:100600002067657420746F20636F6D6D616E642068
:100610006D6F646520666F7220496E7665727465D1
:10062000642050656E64756C756D005265736574F9
:1006300074696E67004552524F5220696E20746192
:10064000736B20004552524F52206372656174698A
:100650006E67207461736B20002C20737461636B70
:1006600020617420307800206372656174656400D5
:100670005461736B20001B5B32326D005461736BED
:100680003A20001B5B316D001B5B32326D00546100
:10069000736B3A2049444C45001B5B316D000909DE
:1006A000002F0049444C45090930092D0900092D46
:1006B0002D2D2D00092D2D2D2D2D2D2D2D2D2D00E8
:1006C0002D2D2D2D09092D2D2D2D092D2D2D2D2DC6
:1006D000000952756E730009467265652F546F7478
:1006E000616C004E616D6509095072692E09537481
:1006F0006174650009537461636B005461736B0925
:10070000092020092000090009002F000900090024
:100710001B5B32326D001B5B316D001B5B316D006A
:10072000202000000E94BA17F82111241FBECFEF2D
:10073000CDBFDFE3DEBF00E00CBF18BE19BE1ABE9E
:100740001BBE10E2A0E0B0E2EAE6F7E400E00BBF77
:1007500002C007900D92AC3BB107D9F71BBE21E355
:10076000ACEBB0E201C01D92A636B207E1F713E090
:10077000C5E9D3E000E006C021970109802FFE0102
:100780000E94D922C439D10780E00807A9F70E9446
:1007900069210C94B3230C940000CF93DF9300D015
:1007A0001F92CDB7DEB77C010E94921369837A83D2
:1007B0008B839C83E0E8F6E08CE08283828983600F
:1007C000828B83898360838BE0E8F1E082E780831A
:1007D00089E08087E0E0F9E088E683838FEF9FEF90
:1007E00086A397A381E080830F2EA12CF9E0BF2E72
:1007F000F02DF50100A111A10FB6F8940F920F9002
:100800000FBE0FB6F8940F92C801012E000CAA0B70
:10081000BB0BAC01BD01440F551F661F771F3A018A
:100820004B01680E791E8A1E9B1EC401B30124E68B
:1008300030E040E050E00E94BA2280914A3190912D
:100840004B31281B390B20935231309353310F9089
:100850000FBE0FB6F8940F92C8018C199D098093B2
:100860005031909351310F900FBEF70186859785D7
:10087000A089B1890196A11DB11D86879787A08B9C
:10088000B18B41E050E060E070E0CE0101960E9443
:1008900030156801AECF0F931F93CF93DF93EC0118
:1008A0000E94CD178AE090E288839983DF91CF91EF
:1008B0001F910F910895CF93DF9300D01F92CDB772
:1008C000DEB78C010E94921369837A838B839C83A9
:1008D000E0E8F6E083E08283808B818BE0E8F1E062
:1008E00080E7828389E08287E0E4F8E08AE6838318
:1008F00080EA95E086A397A381E080836894EE2444
:10090000E6F8FF24F3F8F70180A191A10FB6F8945F
:100910000F9280934E3190934F310F900FBEF8019C
:1009200086859785A089B1890196A11DB11D86870D
:100930009787A08BB18B41E050E060E070E0CE0182
:1009400001960E943015DFCF0F931F93CF93DF9353
:10095000EC010E94CD1782E190E288839983DF91B8
:10096000CF911F910F910895CF93DF9300D01F92E5
:10097000CDB7DEB77C010E94921369837A838B83A3
:100980009C83E0E6F6E081E0828384E0828388E174
:10099000808B828B08E616E0DD24D394F8018081F9
:1009A00080FD08C00FB6F8940F92D0924D310F9091
:1009B0000FBE07C00FB6F8940F9210924D310F90F2
:1009C0000FBEF801808182FD08C00FB6F8940F9227
:1009D000D0924C310F900FBE07C00FB6F8940F9213
:1009E00010924C310F900FBEF70186859785A08934
:1009F000B1890196A11DB11D86879787A08BB18B08
:100A000041E050E060E070E0CE0101960E943015B8
:100A1000C5CF0F931F93CF93DF93EC010E94CD17A7
:100A20008AE190E288839983DF91CF911F910F91A2
:100A30000895CF93DF93CDB7DEB76A97CDBFDEBF02
:100A40008C010E94921369837A838B839C83F801C3
:100A5000FE9681E090E0A0E0B0E080839183A283E5
:100A6000B383D801DC968D939C93DD97A0E4B6E028
:100A700087E011968C93119784E015968C931597C7
:100A8000E0E0F8E081E0808383E08183A6A3B7A360
:100A900010A611A612A613A68181806381830FB6CA
:100AA000F8940F9210924A3110924B310F900FBE72
:100AB0001D8A1E8A5801B0E5AB0EB11CF801FE96E6
:100AC000ED83FE836801FEE5CF0ED11C9801205A0C
:100AD0003F4F2F87388B0F2EFAE02F2E312CF02D21
:100AE000C801885B9F4F898B9A8BD801A45BBF4F4D
:100AF000AF83B887F801E65BFF4FEB8BFC8B2C5F75
:100B00003F4F29873A8704978B879C871697AD8735
:100B1000BE874801B6E68B0E911CF80146855785C5
:100B2000608971894F5F5F4F6F4F7F4F468757874F
:100B3000608B718B8485823009F499C030F48823EE
:100B400069F0813009F458C0CBC1843009F407C181
:100B500008F4A1C0843609F48FC1C2C10FB6F8945D
:100B60000F9210924A3110924B310F900FBE0FB678
:100B7000F8940F920F900FBE80914931882309F4A9
:100B8000AFC10FB6F8940F92109246310F900FBE7E
:100B90000FB6F8940F92109247310F900FBEF801E4
:100BA000228E338E0FB6F8940F920F900FBE809165
:100BB0004C31882309F494C10FB6F8940F920F902A
:100BC0000FBE0FB6F8940F9280915231909153312D
:100BD00080934A3190934B310F900FBED5011D92F7
:100BE0001D921D921C921397F6011082118261E0F2
:100BF000C8010E94C91774C10FB6F8940F921092E1
:100C000049310F900FBE86EF9FEF828F938F0FB603
:100C1000F8940F920F900FBE80914D318823C1F050
:100C20000FB6F8940F92E0915231F0915331EF8B5F
:100C3000F88F0F900FBED5011D921D921D921C9230
:100C40001397F6011082118262E0C8010E94C91751
:100C50000FB6F8940F920F900FBE80914631882303
:100C600009F43EC160E0C8010E94C91739C164EFB0
:100C700071E080E090E00E949D15D5011D921D92CB
:100C80001D921C921397F801128E138E63E0C80117
:100C90000E94C91725C18F89988D99230CF401965C
:100CA0009C01359527952D8B3E8B0FB6F8940F92AE
:100CB0000F900FBE8091523190915331281B390B08
:100CC000C9013695322F22273795279590FF02C00C
:100CD00021503F4F60E070E0832F932F990F990BC5
:100CE0000E9449098932910544F088E290E0D801D8
:100CF0005A968D939C935B970FC0883DBFEF9B07DF
:100D000024F0F801828F938F07C088ED9FEFD80100
:100D10005A968D939C935B970FB6F8940F920F9011
:100D20000FBE80914631882359F00FB6F8940F9288
:100D3000109246310F900FBE60E0C8010E94C917A3
:100D40000FB6F8940F920F900FBE80914831882310
:100D500009F4C6C064E0C8010E94C917C1C00FB63B
:100D6000F8940F92109248310F900FBE0FB6F8947E
:100D70000F920F900FBE80914E3190914F3120ED28
:100D800032E07901E81AF90AB701E98DFA8D6E1B94
:100D90007F0B072E000C880B990BAD81BE812D9126
:100DA0003D914D915C910E94BA2267EE6203C001B1
:100DB000639F900D1124992314F481509F4F792F34
:100DC000770F770B692FEF85F88980819181D601A4
:100DD0008D939C932AE13CEFE29EC001E39E900D2F
:100DE000F29E900D1124992314F481509F4F892F66
:100DF000990F990BED89FE898E0F9F1F0E9449095B
:100E00008A36FFEF9F073CF487302FEF92072CF4D0
:100E100086E09FEF02C08AE69FEF0FB6F8940F922C
:100E20000F900FBE2091523130915331821B930BA2
:100E30009C013695322F22273795279590FF02C0C7
:100E400021503F4F832F880F880BD8015A963C932F
:100E50005A975B968C930FB6F8940F920F900FBE33
:100E600080914631882309F439C060E0C8010E94AE
:100E7000C917E98EFA8E34C0F801128E138ECB0199
:100E8000BA012CE231E040E050E00E949822672B4A
:100E9000682B692B71F4D8011696ED90FC9017978A
:100EA0006EE170E2C7010E94FB1C66E0C7010E9470
:100EB000321D0FB6F8940F920F900FBE80914631FD
:100EC000882371F00FB6F8940F92109246310F906C
:100ED0000FBE60E0C8010E94C91702C0E98EFA8EF9
:100EE0000FB6F8940F9280915031909151310F903C
:100EF0000FBEF801868F978FA989BA892D923C92EF
:100F000023EB30E0EF81F88520833183AB89BC8906
:100F10001D921C9220EC30E0E985FA852083318314
:100F200020E436E0AB85BC852D933C9320EC39EF73
:100F3000ED85FE8520833183D8015A96ED90FC9093
:100F40005B97E81AF90AB701C1010E9465092B01F4
:100F50003C01F801E45AFF4F60837183F401808102
:100F600091819701281B390BC901F801E859FF4FFE
:100F700020833183AF81B8852D913C91829FD00130
:100F8000839FB00D929FB00D11243296A083B18340
:100F9000ED81FE8120813181428153810E940B23AA
:100FA0009B01AC01992324F421503F4F4F4F5F4FD9
:100FB000BB2757FDBA95A52F942F832FF5014081AC
:100FC000518162817381840F951FA61FB71F8130E5
:100FD000FAEC9F07FAE9AF07FBE3BF0754F080E0A4
:100FE0009AECAAE9BBE3F50180839183A283B383E2
:100FF00017C08115F6E39F07F5E6AF07F4ECBF07CE
:1010000034F0F50180839183A283B38309C080E02B
:1010100096E3A5E6B4ECF50180839183A283B383C4
:10102000D5016D917C91C2010E944909EF85F88933
:1010300080839183D6018D939C931197EB85FC85DA
:1010400020813181281739071CF42D933C930AC065
:10105000AD85BE852D913C91821793071CF4F60156
:1010600020833183F801E25BFF4FE082F182D601F9
:101070002D913C91821B930B749680839183E9851B
:10108000FA8540815181849F9001859F300D949F06
:10109000300D1124332314F421503F4F832F880F38
:1010A000880BD4013C9311968C93F8016685778563
:1010B0008089918926E930E040E050E00E94982242
:1010C000672B682B692B61F46D897E89D801169690
:1010D0008D919C9117970E94791D66E00E94321DA8
:1010E0000FB6F8940F920F900FBE80914D31811181
:1010F00012C00FB6F8940F920F900FBE80914C3132
:10110000811109C00FB6F8940F920F900FBE809115
:101110004731882389F0F5011082118212821382EF
:10112000D6011D921C92F80184858350823020F4F0
:1011300064E6C8010E94C917D80198961D921C92B6
:10114000999792968D919C91939760E070E00E94A0
:1011500084227B01072E000C880B990B0E94102221
:101160002B013C0123E333E34BE851E40E946F225F
:10117000181634F481E190E0F80184A395A315C01A
:1011800023E333E34BE851ECC301B2010E9409228F
:10119000882334F0D8019496ED92FC92959705C07F
:1011A0008FEE9FEFF80184A395A3D801D6961D92E8
:1011B0001C92D797D2961D921C92D397D4961D92CB
:1011C0001C92D597D0968D919C91D197893191059C
:1011D0003CF088E190E0D8968D939C93D9970FC00E
:1011E000883EBFEF9B0724F0F80180AF91AF07C0A6
:1011F00088EE9FEFD801D8968D939C93D997F601EE
:101200008081918199233CF0E0E0F8E080A791A7EC
:1012100012A613A60CC0E0E0F8E010A611A6D601B5
:101220008D919C9191958195910982A793A7ED81CC
:10123000FE812081318142815381A8EEB3E00E947A
:101240000023683EF3E07F078105910548F028EE12
:1012500033E040E050E00E949822BA01A90104C0A6
:1012600041E050E060E070E0CE0101960E94301550
:1012700054CC0F931F93CF93DF93EC010E94CD17B3
:101280008EE290E288839983DF91CF911F910F9135
:1012900008959C01932F991F9927991F892F90E0FA
:1012A00081509048432F4095441F4427441FFC0120
:1012B000E21BF30B51E0E617F7070CF050E045177F
:1012C00019F0C901860F971F0895811520E892072C
:1012D00021F4611520E8720729F09C01DB010E94CE
:1012E000E22208956FEF7FEF8FEF9FE708950F934E
:1012F0001F93CF93DF93EC010E94CD1786E390E21A
:1013000088839983DF91CF911F910F9108950F9357
:101310001F93CF93DF93EC016AE08E819F810E943F
:10132000321D8C0163E575E00E94FB1C6AE0C80178
:101330000E94321D8C016DE475E00E94FB1C67E089
:10134000C8010E94321D6AE08E819F810E94321D79
:101350008C016EE275E00E94FB1C6AE0C8010E94ED
:10136000321D8C0168E275E00E94FB1C66E0C8013A
:101370000E94321D6AE08E819F810E94321D8C0185
:1013800061E175E00E94FB1C66E0C8010E94321D0D
:101390006AE08E819F810E94321D8C0165EF74E0AE
:1013A0000E94FB1C66E0C8010E94321D6AE08E812B
:1013B0009F810E94321D8C016DED74E00E94FB1C28
:1013C00066E0C8010E94321D6AE08E819F810E9402
:1013D000321D8C016CEB74E00E94FB1C66E0C801BE
:1013E0000E94321D6AE08E819F810E94321D8C0115
:1013F00065E974E00E94FB1C66E0C8010E94321D92
:101400006AE08E819F810E94321D8C0167E774E043
:101410000E94FB1C66E0C8010E94321D6AE08E81BA
:101420009F810E94321D8C016CE574E00E94FB1CC0
:1014300066E0C8010E94321D6AE08E819F810E9491
:10144000321D8C016DE474E00E94FB1C66E0C80153
:101450000E94321D6AE08E819F810E94321D8C01A4
:101460006CE174E00E94FB1C66E0C8010E94321D22
:101470006AE08E819F810E94321D8C0162EF73E0D1
:101480000E94FB1C66E0C8010E94321D6AE08E814A
:101490009F810E94321D8C016AED73E00E94FB1C4B
:1014A00066E0C8010E94321D6AE08E819F810E9421
:1014B000321DEC0163EC73E00E94FB1C66E0CE0180
:1014C0000E94321DDF91CF911F910F910895AF922D
:1014D000BF92CF92DF92EF92FF920F931F93CF9321
:1014E000DF9300D000D0CDB7DEB78C0119821A820D
:1014F0001B821C821D821E820E94450D6C01CE0142
:1015000001960E947E1B5C0166E0F801868197814E
:101510000E94321D6AE00E94321D7C0164EA73E081
:101520000E94FB1C6AE0C7010E94321D7C0168E931
:1015300073E00E94FB1C66E0C7010E94321D6AE056
:101540000E94321D7C0161E973E00E94FB1CB50121
:10155000C7010E94221B6AE00E94321D7C0163E8E1
:1015600073E00E94FB1CB601C7010E94A21D6AE045
:101570000E94321D7C0161E873E00E94FB1C4FEF6A
:101580005FE060E070E0C7010E94D61DC0902808AF
:10159000D09029086AE0F801868197810E94321D67
:1015A0007C0166E773E00E94FB1CB601C7010E9444
:1015B000A21D66E00E94321D66E00E94321DF80105
:1015C000868197810E94DB192696CDBFDEBFDF9111
:1015D000CF911F910F91FF90EF90DF90CF90BF9030
:1015E000AF900895CF93DF9300D000D0CDB7DEB792
:1015F0008C0119821A821B821C821D821E826AE063
:10160000DC0116968D919C9117970E94321D7C01EA
:1016100061EF75E00E94FB1C66E0C7010E94321D6D
:10162000F8018485882321F0813009F45DC032C13E
:1016300086819781DC01ED91FC910480F581E02D9C
:1016400019958823A9F1F80186819781DC01ED9134
:10165000FC910680F781E02D19959927813091053D
:10166000F9F0039709F031C16AE0F80186819781AA
:101670000E94321D8C0163EE75E00E94FB1C66E047
:10168000C8010E94321D93E088ED08B618BE84BFE1
:10169000909380008091820081FDFCCF08BEFFCF37
:1016A000C8010E94870961E0C8010E94C9170DC1E5
:1016B00084E591E30E948A1A882309F406C1D801BF
:1016C0001696ED91FC9117970190F081E02DE28044
:1016D000F38084E591E30E946C1A682FF8018681FB
:1016E0009781F7011995F1C086819781DC01ED9111
:1016F000FC910480F581E02D1995882309F4E5C05B
:10170000F80186819781DC01ED91FC910680F781DB
:10171000E02D1995BC01FC01FF277B97EC35F10505
:1017200008F09CC08827E250FF4F8F4F0C94D922BD
:10173000CE0101960E947E1BBC01F8018681978133
:101740000E94221B66E00E94321DBFC0C8010E9499
:10175000670ABBC0D80116968D919C9117970E947D
:10176000E218B3C0C8010E948709AFC06AE0F8015F
:10177000868197810E94321D7C0161ED75E00E9497
:10178000FB1C66E0C7010E94321D60E0C8010E9498
:10179000C9179BC00FB6F8940F9281E0809349312E
:1017A0000F900FBE6AE0D80116968D919C91179705
:1017B0000E94321D7C0164EC75E00E94FB1C66E017
:1017C000C7010E94321D81C00FB6F8940F9281E0CC
:1017D000809348310F900FBE6AE0F80186819781AF
:1017E0000E94321D7C0163EB75E00E94FB1C66E0E9
:1017F000C7010E94321D69C00FB6F8940F9281E0B4
:10180000809347310F900FBE6AE0D80116968D91F4
:101810009C9117970E94321D7C0164EA75E00E943A
:10182000FB1C66E0C7010E94321D4FC00FB6F89442
:101830000F9281E0809346310F900FBE6AE0F8016D
:10184000868197810E94321D7C016CE775E00E94C1
:10185000FB1C66E0C7010E94321D37C0D8011696F6
:101860008D919C911797DC01ED91FC910280F381A1
:10187000E02D19956AE0F801868197810E94321D5A
:101880007C0166E775E00E94FB1C66E0C7010E94D0
:10189000321D1BC06AE0868197810E94321D8C0137
:1018A00069E575E00E94FB1C66E0C8010E94321DDC
:1018B00093E088ED08B618BE84BF909380008091B5
:1018C000820081FDFCCF08BEFFCFF8018685978599
:1018D000A089B1890196A11DB11D86879787A08B2C
:1018E000B18B61E070E080E090E00E949D1598CEA1
:1018F0000F931F93CF93DF93EC010E948C13809181
:10190000BC2081111DC0A1ECB0E2E5ECF0E2ED934A
:10191000FC93119712961D921C921397ADEBB0E2B7
:101920008FEF9FE012968D939C9313971D921C92BC
:10193000119782839383A083B18381E08093BC203D
:10194000209709F45FC09E012B5F3F4F2496CE3F46
:10195000DF4008F05AC0E091C120F091C220A1EC14
:10196000B0E202C0DF01FC018281938182179307FC
:1019700020F4808191810097A9F7C0E2ED3BFC073C
:1019800009F446C0CD91DC9111978E010B5F1F4F7A
:10199000808191818D939C9382819381821B930B93
:1019A0008B30910510F1BF01620F731FDB0112969E
:1019B0008D939C9313972283338312964D915C9160
:1019C000139781EC90E201C0CD01EC01A881B981AF
:1019D00012962D913C91139724173507A8F3EB012C
:1019E000A883B983DC016D937C9380910020909152
:1019F000012022813381821B930B809300209093DE
:101A0000012008C000E010E005C000E010E002C0C6
:101A100000E010E00E94AE14C801DF91CF911F9149
:101A20000F9108950F931F93CF93DF93009741F188
:101A3000EC018C01055011090E948C13F8014281C0
:101A40005381A1ECB0E201C0DF01ED91FC9111974F
:101A50002281338124173507B8F32597E883F9836A
:101A60000D931C9320910020309101208A819B814D
:101A7000820F931F80930020909301200E94AE1448
:101A8000DF91CF911F910F91089580910020909147
:101A900001200895FC010396818392834FEF5FEF4D
:101AA000BA014383548365837683878390878187D4
:101AB000928710820895FC01128613860895CF93B1
:101AC000DF93FC01DB0121813281E9018C819D8161
:101AD00014968D939C9315978181928116968D9380
:101AE0009C9317978C819D81EC016E837F83E90124
:101AF0006C837D83618372831A96ED93FC931B97AD
:101B000080818F5F8083DF91CF9108950F931F9322
:101B1000CF93DF93EB01088119812A813B810F3F2D
:101B20004FEF14072407340731F4DC011996ED91C7
:101B3000FC911A971FC0FC013396DC0117964D915A
:101B40005C911897DA014D915D916D917C9104172C
:101B500015072607370770F00480F581E02DA48172
:101B6000B5814D915D916D917C9104171507260704
:101B7000370790F7A481B581AC83BD831696CD93CA
:101B8000DC931797EE83FF83C483D5838A879B8773
:101B9000FC0120812F5F2083DF91CF911F910F9156
:101BA0000895FC01A481B5818681978116968D9355
:101BB0009C931797A681B7818481958114968D9304
:101BC0009C931597A285B38511968D919C91129740
:101BD000E817F90731F48681978111968D939C93CC
:101BE0001297128613868C9181508C93089580935E
:101BF00064319093653131E1FC013083319722E209
:101C000020833197A3E3A08331976083319770835A
:101C10003197108231971082319760E86083319755
:101C200010823197108231971082319762E0608381
:101C3000319763E06083319764E06083319765E0BA
:101C40006083319766E06083319767E06083319706
:101C500068E06083319769E06083319760E1608379
:101C600031973083319732E13083319733E13083DC
:101C7000319734E13083319735E13083319736E164
:101C80003083319737E13083319738E130833197B2
:101C900039E13083319730E23083319731E230835C
:101CA00031972083319723E2208331974083319706
:101CB0005083319726E22083319727E220833197A2
:101CC00028E22083319729E22083319720E3208383
:101CD000319721E32083899708958CE78093290A1F
:101CE0008FEF8093280A81E08093000A91E190931E
:101CF000010A8093070AA0912431B0912531CD913A
:101D0000CDBFDD91DEBFFF91EF91DF91CF91BF910C
:101D1000AF919F918F917F916F915F914F913F9183
:101D20002F911F910F91FF90EF90DF90CF90BF9078
:101D3000AF909F908F907F906F905F904F903F906B
:101D40002F901F900F900CBE0F900BBE0F900FBEE8
:101D50000F90089508950F920FB6F8940F920BB656
:101D60000F920CB60F921F9211242F923F924F9216
:101D70005F926F927F928F929F92AF92BF92CF921B
:101D8000DF92EF92FF920F931F932F933F934F9306
:101D90005F936F937F938F939F93AF93BF93CF93F3
:101DA000DF93EF93FF93A0912431B09125310DB6CD
:101DB0000D920EB60D920E94CB15A0912431B091D8
:101DC0002531CD91CDBFDD91DEBFFF91EF91DF9148
:101DD000CF91BF91AF919F918F917F916F915F91C3
:101DE0004F913F912F911F910F91FF90EF90DF90B6
:101DF000CF90BF90AF909F908F907F906F905F90AB
:101E00004F903F902F901F900F900CBE0F900BBEE5
:101E10000F900FBE0F9008950F920FB6F8940F9287
:101E20000BB60F920CB60F921F9211242F923F9275
:101E30004F925F926F927F928F929F92AF92BF92DA
:101E4000CF92DF92EF92FF920F931F932F933F93C6
:101E50004F935F936F937F938F939F93AF93BF93B2
:101E6000CF93DF93EF93FF93A0912431B09125316D
:101E70000DB60D920EB60D920E94AD130E94CB15B9
:101E8000A0912431B0912531CD91CDBFDD91DEBF40
:101E9000FF91EF91DF91CF91BF91AF919F918F9182
:101EA0007F916F915F914F913F912F911F910F9172
:101EB000FF90EF90DF90CF90BF90AF909F908F906A
:101EC0007F906F905F904F903F902F901F900F905A
:101ED0000CBE0F900BBE0F900FBE0F9008950E9486
:101EE0000C0F1895CF93DF93EC0188A181110BC0E3
:101EF00088819981892BE1F58A819B810E948617CF
:101F00001A821B8235C0411117C0482F50E08C81C6
:101F10009D810E94272328A18C819D81820F911D84
:101F20008C839D832A813B818217930708F18881E6
:101F300099818C839D831CC0482F50E08E819F81A6
:101F40000E94272388A190E09195819591092E8187
:101F50003F81280F391F2E833F83488159812417E1
:101F6000350730F42A813B81820F931F8E839F8334
:101F70008E8D8F5F8E8FDF91CF910895FC018081D0
:101F800091810097A1F040A150E026813781240F74
:101F9000351F26833783A281B3812A173B0710F0B0
:101FA00086839783CB01668177810E9427230895DA
:101FB0000F931F93CF93DF93EC010FB6F8940F921A
:101FC0008AA11816B4F48B89811105C012C08B89BF
:101FD000811104C00EC08E010D5E1F4FC8010E940A
:101FE000521681110E940F178AA181508AA31816D8
:101FF00074F38FEF8AA30F900FBE0FB6F8940F9271
:1020000089A11816B4F48885811105C012C088858D
:10201000811104C00EC08E01085F1F4FC8010E94CD
:10202000521681110E940F1789A1815089A3181699
:1020300074F38FEF89A30F900FBEDF91CF911F91A3
:102040000F9108951F93CF93DF93613059F0FC01F6
:102050002389308531112CC011E0211110E02111AC
:1020600028C001C011E0EC014881598128A130E06D
:102070006F8D629FC001639F900D1124BA01680F9C
:10208000791F6A837B831E8E4C835D83821B930B37
:10209000840F951F8E839F838FEF89A38AA3CE0120
:1020A00008960E944A0DCE0143960E944A0D01C037
:1020B00010E0812FDF91CF911F9108950F931F930F
:1020C000CF93DF93882301F1062F182F83E290E04E
:1020D0000E94780CEC01892BC9F0109FC0011124DB
:1020E00001960E94780C88839983892B39F01F8F81
:1020F00008A361E0CE010E94221008C0CE010E9418
:10210000120DC0E0D0E002C0C0E0D0E0CE01DF910F
:10211000CF911F910F910895AF92BF92CF92DF920E
:10212000EF92FF920F931F93CF93DF93CDB7DEB75C
:102130002997CDBFDEBF7C015B012E833F8348879B
:10214000598710E06C0188E0C80ED11C0FB6F894D6
:102150000F92F701968D878D9817A8F4402FB5013F
:10216000C7010E94720FF7018389882341F0C701DC
:1021700043960E945216813011F40E94AB0E0F90CC
:102180000FBE81E056C08E819F81A885B985892BBD
:102190008A2B8B2B21F40F900FBE80E04AC01111C7
:1021A00005C0CE0101960E94911611E00F900FBE5E
:1021B0000E948C130FB6F8940F92F70181A18F3F04
:1021C00009F411A2F70182A18F3F09F412A20F9026
:1021D0000FBEBE016A5F7F4FCE0101960E94A2161C
:1021E000811121C00FB6F8940F92F701968D0F90D0
:1021F0000FBE878D981311C04E815F8168857985E8
:10220000C6010E942816C7010E94D80F0E94AE1472
:1022100081119CCF0E94AB0E99CFC7010E94D80FAD
:102220000E94AE1493CFC7010E94D80F0E94AE1433
:1022300080E02996CDBFDEBFDF91CF911F910F9136
:10224000FF90EF90DF90CF90BF90AF900895AF9246
:10225000BF92CF92DF92EF92FF920F931F93CF9393
:10226000DF93CDB7DEB72997CDBFDEBF7C015B0121
:102270002E833F834887598710E06C0183E1C80EA5
:10228000D11C0FB6F8940F92F701868D882399F12F
:10229000C680D780B501C7010E94BE0F01111AC0C8
:1022A000F701868D8150868F80819181892B29F459
:1022B0000E942C17F70182839383F701808588237E
:1022C000B1F0C70108960E945216813081F40E9435
:1022D000AB0E0DC0F701C682D7828389882339F0FF
:1022E000C70143960E94521681110E94AB0E0F90B7
:1022F0000FBE81E062C08E819F81A885B985892B40
:102300008A2B8B2B21F40F900FBE80E056C0111149
:1023100005C0CE0101960E94911611E00F900FBEEC
:102320000E948C130FB6F8940F92F70181A18F3F92
:1023300009F411A2F70182A18F3F09F412A20F90B4
:102340000FBEBE016A5F7F4FCE0101960E94A216AA
:1023500081112DC00FB6F8940F92F701868D0F9062
:102360000FBE81111EC080819181892B49F40FB667
:10237000F8940F92828193810E9431170F900FBEC3
:102380004E815F8168857985C6010E942816C70144
:102390000E94D80F0E94AE14811173CF0E94AB0E21
:1023A00070CFC7010E94D80F0E94AE146ACFC70138
:1023B0000E94D80F0E94AE1480E02996CDBFDEBFE8
:1023C000DF91CF911F910F91FF90EF90DF90CF9011
:1023D000BF90AF9008950FB6F8940F92FC01868DD0
:1023E0000F900FBE0895C8EFD0E388818230E8F3E4
:1023F0000E94AB0EFACFCF92DF92EF92FF926B0169
:102400007C01E0912431F0912531628373838483D0
:1024100095838091CC309091CD30A091CE30B09109
:10242000CF30C816D906EA06FB0668F4609124315D
:10243000709125318091DE309091DF306E5F7F4F5B
:102440000E94860D21C060912431709125318091C8
:10245000E0309091E1306E5F7F4F0E94860D809159
:10246000022090910320A0910420B0910520C8166D
:10247000D906EA06FB0640F4C0920220D09203205F
:10248000E0920420F0920520FF90EF90DF90CF9033
:1024900008954F925F926F927F928F929F92AF9228
:1024A000BF92CF92DF92EF92FF920F931F93CF9341
:1024B000DF935C014B013A01290188E290E00E9420
:1024C000780CEC01892B09F4D4C0C114D10409F0B3
:1024D000CCC0C3010E94780C8B8F9C8F009721F495
:1024E000CE010E94120DC5C0A30161E170E00E94FF
:1024F00030239301215031098B8D9C8D3C01620E5C
:10250000731E4AE050E0B401CE014D960E9437237D
:102510001EA2102F043008F013E01A8F1FA36E01C3
:1025200022E0C20ED11CC6010E945B0DCE010E96A8
:102530000E945B0DCA87DB8784E090E0A0E0B0E0FA
:10254000811B9109A109B1098E879F87A88BB98B3F
:10255000CE8BDF8BA201B501C3010E94F70D8883EA
:102560009983E114F10419F0F701C083D1830FB608
:10257000F8940F928091D0308F5F8093D03080910B
:10258000243190912531892B89F5C0932431D09342
:1025900025318091D0308130C1F588EF90E30E94E1
:1025A0004A0D83E091E30E944A0D8EE091E30E9480
:1025B0004A0D89E191E30E944A0D8DEE90E30E945D
:1025C0004A0D82EE90E30E944A0D83ED90E30E9453
:1025D0004A0D8DEE90E38093E0309093E13082EEEF
:1025E00090E38093DE309093DF300FC08091C9304C
:1025F00081110BC0E0912431F0912531828D0817B3
:1026000020F0C0932431D09325318A8D9091CB3026
:10261000981710F48093CB309091C4309F5F9093C3
:10262000C4309091CA30981710F48093CA30FBE000
:102630008F9FC0011124B60188509F4C0E945F0DEE
:102640000F900FBE8091C930882359F0E09124315A
:10265000F0912531828D801730F40E94AB0E81E01D
:1026600009C081E007C081E005C0CB8EDC8EC601C9
:102670003BCF8FEFDF91CF911F910F91FF90EF90A4
:10268000DF90CF90BF90AF909F908F907F906F9092
:102690005F904F9008950FB6F8940F92009721F431
:1026A00080912431909125310F900FBEFC01828DD5
:1026B0000895AF92BF92CF92DF92EF92FF920F9365
:1026C000A12CB12CC12CD12C0F2EF1EDEF2EF0E36B
:1026D000FF2EF02D00E020E030E044E650E06AE319
:1026E00070E283EF91E10E944912813069F4F8941D
:1026F0008093C9301092CC301092CD301092CE30F1
:102700001092CF300E946D0E0F91FF90EF90DF90EE
:10271000CF90BF90AF9008958091C8308F5F809325
:10272000C83008950FB6F8940F926091CC30709134
:10273000CD308091CE309091CF300F900FBE089564
:10274000009721F480912431909125314D96089580
:102750008091D1309091D2300895FF920F931F93C2
:10276000CF93DF938091C8308111EDC08091CC3040
:102770009091CD30A091CE30B091CF300196A11D77
:10278000B11D8093CC309093CD30A093CE30B093D8
:10279000CF308091CC309091CD30A091CE30B0919F
:1027A000CF30892B8A2B8B2BF1F58091E0309091E3
:1027B000E1302091DE303091DF302093E0303093F3
:1027C000E1308093DE309093DF308091C5308F5FB1
:1027D0008093C530E091E030F091E130808181114B
:1027E0000CC08FEF9FEFDC018093022090930320B9
:1027F000A0930420B093052016C0E091E030F09142
:10280000E1300780F085E02D0084F185E02D8281A4
:102810009381A481B5818093022090930320A0939B
:102820000420B09305204091CC305091CD30609180
:10283000CE307091CF308091022090910320A091F2
:102840000420B0910520481759076A077B0708F450
:102850007FC0E091E030F091E13080818823F9F091
:10286000E091E030F091E1300780F085E02DC08507
:10287000D1858A819B81AC81BD814091CC305091C2
:10288000CD306091CE307091CF30481759076A072C
:102890007B0758F10F2EFBE0FF2EF02D2FC08FEF9E
:1028A0009FEFDC018093022090930320A0930420EB
:1028B000B09305204DC0E091E030F091E130078009
:1028C000F085E02DC085D1858A819B81AC81BD8159
:1028D0004091CC305091CD306091CE307091CF305E
:1028E000481759076A077B0748F4809302209093A2
:1028F0000320A0930420B09305202AC08E010E5F10
:102900001F4FC8010E94D10D888D998D892B21F010
:10291000CE010E960E94D10D8A8D9091CA309817E3
:1029200010F48093CA30F89EC0011124B801885079
:102930009F4C0E945F0DE091E030F091E13080818A
:102940008111B9CFACCF8091C7308F5F8093C730F2
:10295000DF91CF911F910F91FF900895CF92DF9259
:10296000EF92FF920F931F93CF93DF930FB6F894DC
:102970000F928091C83081508093C8308091C830C8
:10298000811160C08091D03081112CC05EC0D70110
:102990001796ED91FC911897C085D185CE010E96C2
:1029A0000E94D10D8E010E5F1F4FC8010E94D10DF4
:1029B0008A8D9091CA30981710F48093CA30D89EAF
:1029C000C0011124B80188509F4C0E945F0DE09116
:1029D0002431F09125319A8D828D981770F0CC2496
:1029E000C3940BC0C12C0F2EF3EDEF2EF0E3FF2E9E
:1029F000F02D0F2EFBE0DF2EF02DF70180818111ED
:102A0000C6CF8091C730882381F08091C73088235A
:102A100099F00E94AD138091C73081508093C730E8
:102A20008091C7308111F5CF07C0F1E0CF1621F0BA
:102A30008091C630813041F41092C6300E94AB0EB6
:102A400081E003C080E001C080E00F900FBEDF9105
:102A5000CF911F910F91FF90EF90DF90CF9008954D
:102A6000CF92DF92EF92FF92CF93DF93EC016A0156
:102A70007B010E948C1388819981AA81BB81C80E39
:102A8000D91EEA1EFB1E4091CC305091CD30609192
:102A9000CE307091CF30481759076A077B07B8F4DA
:102AA000C816D906EA06FB06E0F58091CC30909175
:102AB000CD30A091CE30B091CF30C882D982EA8299
:102AC000FB828C159D05AE05BF05F8F413C0C81632
:102AD000D906EA06FB0600F18091CC309091CD300A
:102AE000A091CE30B091CF308C159D05AE05BF05BD
:102AF00098F017C0809124319091253102960E9460
:102B0000D10DC701B6010E94FB110E94AE148111C4
:102B10000DC00E94AB0E0AC0C882D982EA82FB8235
:102B2000E9CFC882D982EA82FB82EFCFDF91CF91D1
:102B3000FF90EF90DF90CF900895CF92DF92EF92C9
:102B4000FF926B017C01672B682B692BE9F00E94D7
:102B50008C138091CC309091CD30A091CE30B0913B
:102B6000CF30C80ED91EEA1EFB1E809124319091F1
:102B7000253102960E94D10DC701B6010E94FB11BA
:102B80000E94AE14811102C00E94AB0EFF90EF9024
:102B9000DF90CF9008958091C83081110CC0E091F2
:102BA000CA304BE0E49FF0011124E850FF4C8081D3
:102BB000882329F014C081E08093C63008959BE0FB
:102BC0008091CA3081508093CA30E091CA309E9F74
:102BD000F0011124E850FF4C8081882389F3809113
:102BE000CA30282F30E04BE0849FC0011124DC0163
:102BF000A850BF4C1196ED91FC9112970480F5817D
:102C0000E02D1196ED93FC93129785509F4CE81799
:102C1000F90761F4848195814BE0429FF001439F65
:102C2000F00D1124E850FF4C818392838BE0829F4A
:102C3000F001839FF00D1124E850FF4C0180F281D8
:102C4000E02D8085918580932431909325310895DE
:102C5000CF92DF92EF92FF926A017B016091243163
:102C600070912531625F7F4F0E94860D80912431E3
:102C70009091253102960E94D10D8091CC30909197
:102C8000CD30A091CE30B091CF30BC01CD016C0DD4
:102C90007D1D8E1D9F1D0E94FB11FF90EF90DF9008
:102CA000CF9008950F931F93CF93DF93DC01179676
:102CB000ED91FC911897C085D1858E01025F1F4F61
:102CC000C8010E94D10D8091C830811116C00C50EE
:102CD0001109C8010E94D10D8A8D9091CA309817B0
:102CE00010F48093CA30BBE08B9FC0011124B8015F
:102CF00088509F4C0E945F0D05C0B80183ED90E3A2
:102D00000E945F0DE0912431F091253181E02A8D00
:102D1000928D291708F480E0DF91CF911F910F91D8
:102D200008952091C530FC0120834091CC30509112
:102D3000CD306091CE307091CF3041835283638328
:102D4000748308958F929F92AF92BF92CF92DF9239
:102D5000EF92FF920F931F93CF93DF93FC010FB677
:102D6000F8940F928091C5309081981789F08091E6
:102D7000CC309091CD30A091CE30B091CF30018148
:102D800012812381348180179107A207B307A8F528
:102D90008091CC309091CD30A091CE30B091CF3099
:102DA000C180D280E380F480EB01088119812A81FF
:102DB0003B818C199D09AE09BF0980179107A207B5
:102DC000B307E8F4CF018090CC309090CD30A09044
:102DD000CE30B090CF30B501A4014C195D096E0919
:102DE0007F09041B150B260B370B088319832A83D5
:102DF0003B830E94911680E003C081E001C081E026
:102E00000F900FBEDF91CF911F910F91FF90EF9028
:102E1000DF90CF90BF90AF909F908F90089581E00A
:102E20008093C6300895009721F4809124319091C9
:102E30002531DC015B96ED91FC915C9780818131BD
:102E400041F4319680E090E0019621912131E1F347
:102E5000089580E090E0089580912431909125318B
:102E600008950F931F93CF93DF93FC01228DA091C0
:102E70002431B09125315A968C91281708F041C021
:102E8000A0912431B09125315A963C9184E090E094
:102E9000A0E0B0E0831B9109A109B109868797875B
:102EA000A08BB18B8BE0289F9001112428503F4CC0
:102EB0008485958582179307E9F48F01EF012296A7
:102EC000CE010E94D10DE0912431F0912531828D07
:102ED000F801828F9091CA30981710F48093CA300D
:102EE000FBE08F9FC0011124BE0188509F4C0E94BF
:102EF0005F0D07C0A0912431B09125315A968C9175
:102F0000828FDF91CF911F910F9108950F931F939F
:102F1000CF93DF93009749F1FC01328D27A132173F
:102F200021F1EC018C010E5F1F4FC8010E94D10DF1
:102F30008FA18A8F44E050E060E070E0481B5109A7
:102F4000610971094E875F87688B798B9091CA30D0
:102F5000981710F48093CA30FBE08F9FC0011124B2
:102F6000B80188509F4C0E945F0DDF91CF911F9157
:102F70000F910895EC01E881F9810190F081E02D35
:102F800019951A821B826FEF7FEFCB010E949D156E
:102F9000FACFFC016487658708954F925F926F9224
:102FA0007F928F929F92AF92BF92CF92DF92EF92D9
:102FB000FF920F931F93CF93DF93CDB7DEB72A977E
:102FC000CDBFDEBF4C012901380183E490E2F4015A
:102FD00080839183FB018081882369F0DE01119653
:102FE000319690E002C0993039F09F5F8D938191C6
:102FF0008111F9CF01C090E0E1E0F0E0EC0FFD1F9E
:10300000E90FF11D10827401F2E0EF0EF11CA12C0A
:10301000B12CC12CD12C042F9401A201BE016F5FF1
:103020007F4F82E993E00E944912F4016682778221
:103030004086518620912631309127312483358373
:103040008092263190922731148615864090643103
:1030500050906531FFEF4F1A5F0A409264315092F1
:103060006531F4014286538616861786108A118AC6
:103070006114710409F444C0813079F56AE0C30138
:103080000E94321D7C0160E776E00E94FB1CBE01BD
:103090006F5F7F4FC7010E94FB1C6AE0C7010E945F
:1030A000321D7C0167E676E00E94FB1C6AE0C701E6
:1030B0000E94321D7C0169E576E00E94FB1C63E002
:1030C000C7010E94321DB2010E94A21D62E00E944F
:1030D000321D66E00E94321D13C06AE0C3010E94E7
:1030E000321D4C0164E476E00E94FB1CBE016F5F60
:1030F0007F4FC4010E94FB1C66E0C4010E94321D88
:103100002A96CDBFDEBFDF91CF911F910F91FF9027
:10311000EF90DF90CF90BF90AF909F908F907F9077
:103120006F905F904F900895CF92DF92EF92FF9251
:103130000F931F93CF93DF93EC017B018A819B81D7
:103140000E94A0136C016AE0C7010E94321D8C012D
:1031500063E876E00E94FB1C6AE0C8010E94321D11
:103160008C016CE776E00E94FB1CB601C8010E944E
:10317000FB1C6AE0C8010E94321D8C0166E776E004
:103180000E94FB1C66E0C8010E94321D8A859B8557
:10319000E885F98501E121E0A701BC018E1B9F0BA9
:1031A0000E94961B8C819D81009719F0B7010E94A7
:1031B0009418DF91CF911F910F91FF90EF90DF90C6
:1031C000CF9008950F931F93CF93DF93EC018091DD
:1031D000263190912731009719F0BE010E94941872
:1031E0006AE0CE010E94321D8C0169E976E00E94FE
:1031F000FB1C6AE0C8010E94321D8C016EE876E07B
:103200000E94FB1C6AE0C8010E94321D8C0168E824
:1032100076E00E94FB1C66E0C8010E94321D80918E
:10322000643190916531BC016F5F7F4F01E121E016
:10323000AE01835691090E94961BDF91CF911F9199
:103240000F9108958F929F92AF92BF92CF92DF928B
:10325000EF92FF920F931F93CF93DF93EC018B01BB
:103260008A819B810E94A013BC01C8010E94FB1CA3
:10327000D801ED91FC910280F381E02D69E0C80155
:1032800019958A819B810E94A013FC010190002066
:10329000E9F73197E81BF90B389748F4D801ED911D
:1032A000FC910280F381E02D69E0C8011995CE847C
:1032B000DF84E888F988A884B9848A819B810E9488
:1032C0001317982E8C848A819B810E944B13682F40
:1032D000C8010E94181E6AE00E94321DEC016EE0D7
:1032E00077E00E94FB1C682DCE010E94181E6AE048
:1032F0000E94321DEC016CE077E00E94FB1C692DFE
:10330000CE010E94181E6AE00E94321DEC016AE0A4
:1033100077E00E94FB1CB501CE010E94A21D6AE06D
:103320000E94321DEC0168E077E00E94FB1C6AE01D
:10333000CE010E94321DEC0166E077E00E94FB1C8A
:10334000B701A601CE010E94D61DDF91CF911F913A
:103350000F91FF90EF90DF90CF90BF90AF909F9034
:103360008F900895CF93DF93EC01CB01DB01ED91BA
:10337000FC910280F381E02DBE011995CE01DF9111
:10338000CF9108950F931F93CF93DF93EC018B019F
:10339000BC01C8010E94B21966E00E94321D8C81F6
:1033A0009D81009719F0B8010E94C219DF91CF9159
:1033B0001F910F9108950F931F93CF93DF93EC010B
:1033C0006AE00E94321D8C016BEF76E00E94FB1CCC
:1033D0006AE0C8010E94321D8C0164EF76E00E9411
:1033E000FB1C66E0C8010E94321D6AE0CE010E940B
:1033F000321D8C0163EE76E00E94FB1C6AE0C8017E
:103400000E94321D8C0167ED76E00E94FB1C6AE091
:10341000C8010E94321D8C0161ED76E00E94FB1C08
:1034200066E0C8010E94321D6AE0CE010E94321D92
:103430008C0160EC76E00E94FB1C6AE0C8010E94EF
:10344000321D8C0164EB76E00E94FB1C6AE0C8012F
:103450000E94321D8C016EEA76E00E94FB1C66E041
:10346000C8010E94321D809126319091273100972A
:1034700019F0BE010E94C2190E94A8130E941317DE
:10348000182F6AE0CE010E94321DEC0163EA76E05B
:103490000E94FB1C612FCE010E94181E6AE00E9450
:1034A000321DEC0161EA76E00E94FB1C64E670E0EC
:1034B000CE010E94A21D6AE00E94321DEC016EE95D
:1034C00076E00E94FB1C66E0CE010E94321DDF9177
:1034D000CF911F910F9108950F93CF93DF931F9278
:1034E000CDB7DEB700E02FEF3FEFA901BE016F5F60
:1034F0007F4FFC01808591850E942711813019F44E
:10350000898190E002C08FEF9FEF0F90DF91CF9104
:103510000F910895FC01808591850E94EB1191E047
:10352000811101C090E0892F08950F93CF93DF930D
:103530001F92CDB7DEB76983FC01228533854485B0
:10354000558500E0BE016F5F7F4F808591850E94A9
:103550008C1091E0811101C090E0892F0F90DF91D4
:10356000CF910F9108958F929F92BF92CF92DF9249
:10357000EF92FF920F931F93CF93DF93EC01B62E40
:103580004A01680179010E94ED1C8BE490E2888376
:1035900099838E869F8640E061E08B2D0E945E10AD
:1035A00088879987CA86DB86EC86FD86DF91CF9176
:1035B0001F910F91FF90EF90DF90CF90BF909F9061
:1035C0008F900895CF92DF92EF92FF92CF93DF9387
:1035D000EC01688179818A819B810F2EF8EECF2ED4
:1035E000F3E0DF2EE12CF12CF02DA70196010E94D3
:1035F00098229B01AC0160E472E48FE090E00E94AD
:103600007422A70196010E94982269017A01AC8177
:10361000BD8120E432E44FE050E00E94002320E02E
:1036200038E448EE51E00E949822C701B601620FCB
:10363000731F841F951FDF91CF91FF90EF90DF9054
:10364000CF900895CF92DF92EF92FF920F931F9346
:10365000CF93DF93CDB7DEB72F97CDBFDEBF6C0121
:103660008B01DB016D917D918D919C9128EE33E072
:1036700040E050E00E949822BA01A901C6010E94D0
:10368000D61DD601ED91FC910280F381E02D6EE212
:10369000C6011995C8010E94E21A8E01095F1F4FE9
:1036A000FE0131967F012AE030E040E050E00E94C8
:1036B000BA22E62F288739874A875B87688579850C
:1036C0008A859B8520E32E0FD8012E938D01AE15A0
:1036D000BF0549F71F82BE016F5F7F4FC6010E9481
:1036E000FB1CC6012F96CDBFDEBFDF91CF911F918E
:1036F0000F91FF90EF90DF90CF900895CF93DF93DD
:10370000EC010FB6F8940F92809120089091210857
:103710008C839D830E949213688379838A839B8321
:103720000F900FBECE01DF91CF9108955F926F92FF
:103730007F928F929F92AF92BF92CF92DF92EF9241
:10374000FF920F931F93CF93DF935C014B017A019C
:10375000122F702E63E0CA010E94321DA814B90412
:1037600008F07DC0650184E1C80ED11C00E06A2C20
:103770005B2CB501C7010E94A21D6AE00E94321DA8
:1037800060E277E00E94FB1C112309F46DC0002366
:1037900009F46AC06AE0C7010E94321D6BE177E05C
:1037A0000E94FB1C61C0112371F001110CC08881C3
:1037B000871549F06AE0C7010E94321D66E177E093
:1037C0000E94FB1C01E06991C7010E94181EDC01E8
:1037D000ED91FC910280F381E02D60E21995CC1609
:1037E000DD0609F7112389F06AE0C7010E94321D46
:1037F000EC0160E177E00E94FB1CE881F981028026
:10380000F381E02D60E2CE011995C62DD52D699189
:1038100080EE860F8F3548F4D701ED91FC91028040
:10382000F381E02DC701199509C0D701ED91FC91F5
:103830000280F381E02D6EE2C7011995CC16DD06FA
:1038400031F7B4E1AB0EB11C66E0C7010E94321D36
:1038500084E1C80ED11CA814B90408F488CF62E032
:10386000C7010E94321D03C0C62DD52D9CCFDF910C
:10387000CF911F910F91FF90EF90DF90CF90BF906D
:10388000AF909F908F907F906F905F9008950E946F
:10389000780C08950E94780C08950895CF93DF93D3
:1038A000FC01DA01403A68E0560749F480E496E00A
:1038B0008283938382E0848383E0858332C0403BAC
:1038C00078E0570749F480E496E08283938386E0AA
:1038D000848387E0858325C0403A89E0580749F40E
:1038E00080E696E08283938382E0848383E085830D
:1038F00018C0403B69E0560749F480E696E08283B1
:10390000938386E0848387E085830BC0403A5A40E6
:1039100041F480E896E08283938382E0848383E0AD
:103920008583A683B783CD0101968087918703960F
:10393000828793872581C281D3814C8181E090E089
:10394000BC0102C0660F771F2A95E2F79B01242B6A
:103950002C832581C281D3814881BC0102C0660FBE
:10396000771F2A95E2F79B01242B28833481C2819B
:10397000D381288102C0880F991F3A95E2F780957C
:1039800090958223888380E113968C93139783E02C
:1039900015968C93159780EF17968C93179781E265
:1039A00016968C93169788E114968C9380E88587F9
:1039B00080E4868780E284870680F781E02D80811D
:1039C0008081DF91CF91089581E0089580E090E0BB
:1039D000089580E0089508950895FC018BE590E234
:1039E000808391838AE08283138283E085831482BB
:1039F0001682178208950F931F93CF93DF938C0144
:103A0000FB01DC0114968C91811104C0608161116D
:103A100017C023C0D80114961C92EB012196649123
:103A20006623D9F0D801ED91FC910280F381E02D5D
:103A3000C8011995FE01649121966111F3CF0DC063
:103A4000EF012196D801ED91FC910280F381E02DE8
:103A5000C801199569916111F5CFDF91CF911F913F
:103A60000F910895CF93DF93EC01862F90E08B3078
:103A70009105D8F5FC018827E65AFE4F8F4F0C942C
:103A8000D92282E08A8331C088E08A832EC08AE00E
:103A90008A832BC080E18A8328C081E08B8325C084
:103AA0001B8223C0E881F9810280F381E02D6DE063
:103AB000CE011995E881F9810280F381E02D6AE059
:103AC000CE01199512C0E881F9810284F385E02DB9
:103AD000CE0119950AC0E881F9810084F185E02DB5
:103AE000CE01199502C081E08C83CE01DF91CF9188
:103AF00008950F931F93CF93DF93CDB7DEB76197F0
:103B0000CDBFDEBF8C019B01FC0192819A3021F078
:103B1000C8010E94A21D0DC04AE0BE016F5F7F4F29
:103B2000C9010E944623BE016F5F7F4FC8010E94FA
:103B3000FB1CC8016196CDBFDEBFDF91CF911F9105
:103B40000F910895FF920F931F93CF93DF93CDB7FB
:103B5000DEB76197CDBFDEBF8C01F62E972FF8013F
:103B60004281403121F0483011F0423041F4692F58
:103B7000C8010E94181E6F2D0E94181E0DC050E033
:103B8000BE016F5F7F4F8F2D0E947E23BE016F5F4E
:103B90007F4FC8010E94FB1CC8016196CDBFDEBFEC
:103BA000DF91CF911F910F91FF900895DF92EF92D7
:103BB000FF920F931F93CF93DF93CDB7DEB7A197FB
:103BC000CDBFDEBF8C01D42EE52EF62E972FF80147
:103BD0002281203121F0283011F0223071F4692F38
:103BE000C8010E94181E6F2D0E94181E6E2D0E9483
:103BF000181E6D2D0E94181E0FC030E0AE014F5FE1
:103C00005F4F6D2D7E2D8F2D0E945123BE016F5F62
:103C10007F4FC8010E94FB1CC801A196CDBFDEBF2B
:103C2000DF91CF911F910F91FF90EF90DF9008955A
:103C3000CF92DF92EF92FF920F931F93CF93DF9378
:103C4000CDB7DEB72997CDBFDEBF8C01E62EDC01F4
:103C500013968C911397882341F0ED91FC9102808B
:103C6000F381E02DC801199556C0F8014281423018
:103C700019F56894CC24C3F8D12C6894FF24F7F884
:103C80008E2D8F2151F0D801ED91FC910280F381AE
:103C9000E02D61E3C801199509C0D801ED91FC91AF
:103CA0000280F381E02D60E3C8011995F694B1E03C
:103CB000CB1AD10829F72FC04031F9F462956F7003
:103CC0000190F081E02D0280F381E02D6A3010F048
:103CD000695C01C0605DC80119956E2D6F70D801D7
:103CE000ED91FC910280F381E02D6A3010F0695C67
:103CF00001C0605DC80119950EC050E0BE016F5F44
:103D00007F4F8E2D90E00E947E23BE016F5F7F4F1C
:103D1000C8010E94FB1CC8012996CDBFDEBFDF9100
:103D2000CF911F910F91FF90EF90DF90CF9008956A
:103D3000DC015096ED91FC915197808154964C9105
:103D40005497842329F009C02150310919F412C075
:103D500021E23EE490819423B9F3908156968C91B0
:103D60005697892B80831E96ED91FC911F97608357
:103D700081E0089580E00895CF93DF93FC01C18D29
:103D8000D28D28813981A38DB48D4D915C912417FA
:103D90003507E9F3A789B08D0D90BC91A02DA20F36
:103DA000B31F8C912F5F3F4F288339832436310511
:103DB00028F0018CF28DE02D1082118290E0DF91CD
:103DC000CF910895CF93DF93EC01A98DBA8DEB8D40
:103DD000FC8D81E04D915C91208131814217530728
:103DE00009F480E0DF91CF910895DC01ED91FC9121
:103DF0000280F381E02D6CE019950895EF92FF9217
:103E00000F931F93CF93DF93EC017B018A010E94F4
:103E1000ED1CA801B701CE0108960E944E1C8BE64E
:103E200090E288839983003A88E0180769F484E473
:103E300091E38F8B988F8AE391E3898F9A8F80E348
:103E400091E38B8F9C8F42C0003BE8E01E0769F432
:103E500082E491E38F8B988F88E391E3898F9A8F27
:103E60008EE291E38B8F9C8F31C0003AF9E01F07FF
:103E700069F480E491E38F8B988F86E391E3898FD7
:103E80009A8F8CE291E38B8F9C8F20C0003B89E05E
:103E9000180769F48EE391E38F8B988F84E391E3A5
:103EA000898F9A8F8AE291E38B8F9C8F0FC0003AA3
:103EB0001A4061F48CE391E38F8B988F82E391E356
:103EC000898F9A8F88E291E38B8F9C8F0F89188D51
:103ED00084E690E00E944A1CF80180839183E98D7A
:103EE000FA8D10821182EB8DFC8D10821182DF9190
:103EF000CF911F910F91FF90EF9008951F920F9215
:103F00000FB60F92112408B60F9218BE0BB60F927F
:103F10001BBE2F933F938F939F93EF93FF9320911B
:103F2000A008E0914431F091453180913031909179
:103F30003131E80FF91F2083809130319091313178
:103F400001968436910560F480933031909331313D
:103F500020913A3130913B3182179307F1F40CC034
:103F6000109230311092313180913A3190913B3141
:103F70001816190691F40EC001968436910528F49E
:103F800080933A3190933B3108C010923A311092AD
:103F90003B3103C081E090E0F3CFFF91EF919F911F
:103FA0008F913F912F910F900BBE0F9008BE0F90F5
:103FB0000FBE0F901F9018951F920F920FB60F9281
:103FC000112408B60F9218BE0BB60F921BBE2F938A
:103FD0003F938F939F93EF93FF932091B008E091CD
:103FE0004231F091433180912E3190912F31E80F81
:103FF000F91F208380912E3190912F3101968436C4
:10400000910560F480932E3190932F3120913831B7
:104010003091393182179307F1F40CC010922E3190
:1040200010922F318091383190913931181619063C
:1040300091F40EC001968436910528F480933831AE
:104040009093393108C0109238311092393103C041
:1040500081E090E0F3CFFF91EF919F918F913F919D
:104060002F910F900BBE0F9008BE0F900FBE0F90B8
:104070001F9018951F920F920FB60F92112408B639
:104080000F9218BE0BB60F921BBE2F933F938F93C8
:104090009F93EF93FF932091A009E0914031F0911D
:1040A00041318091303190913131E80FF91F2083F7
:1040B00080912C3190912D3101968436910560F4D8
:1040C00080932C3190932D312091363130913731BE
:1040D00082179307F1F40CC010922C3110922D31FD
:1040E00080913631909137311816190691F40EC02F
:1040F00001968436910528F48093363190933731B8
:1041000008C0109236311092373103C081E090E040
:10411000F3CFFF91EF919F918F913F912F910F904E
:104120000BBE0F9008BE0F900FBE0F901F901895FA
:104130001F920F920FB60F92112408B60F9218BE5D
:104140000BB60F921BBE2F933F938F939F93EF93CA
:10415000FF932091B009E0913E31F0913F31809181
:104160002A3190912B31E80FF91F208380912A3159
:1041700090912B3101968436910560F480932A3119
:1041800090932B3120913431309135318217930740
:10419000F1F40CC010922A3110922B3180913431FD
:1041A000909135311816190691F40EC00196843697
:1041B000910528F4809334319093353108C01092E2
:1041C00034311092353103C081E090E0F3CFFF919C
:1041D000EF919F918F913F912F910F900BBE0F9078
:1041E00008BE0F900FBE0F901F9018951F920F9250
:1041F0000FB60F92112408B60F9218BE0BB60F928D
:104200001BBE2F933F938F939F93EF93FF93209128
:10421000A00AE0913C31F0913D318091283190919C
:104220002931E80FF91F208380912831909129319D
:1042300001968436910560F480932831909329315A
:10424000209132313091333182179307F1F40CC051
:10425000109228311092293180913231909133316E
:104260001816190691F40EC001968436910528F4AB
:10427000809332319093333108C0109232311092D2
:10428000333103C081E090E0F3CFFF91EF919F9134
:104290008F913F912F910F900BBE0F9008BE0F9002
:1042A0000FBE0F901F9018950F93CF93DF931F921F
:1042B000CDB7DEB72FB72983F8941BBEFC0108EDFC
:1042C00004BF608389818FBF0F90DF91CF910F91E1
:1042D00008950F931F93CF93DF93CDB7DEB76D97FC
:1042E000CDBFDEBFE0E6F6E080E481838583F8940D
:1042F000E0E5F0E0808182608083818181FFFDCFF5
:1043000060914000687F616080E490E00E945421E9
:10431000E0E5F0E080818E7F80839DEF88ED08B638
:1043200018BE84BF9093800008BE40EB58E060E068
:1043300070E0CE0101960E94FE1E67E0CE0101965C
:104340000E94321D8C0167E770E20E94FB1C66E050
:10435000C8010E94321D66E00E94321D82E190E099
:104360000E94471C8E010F5F1F4F24E031E040E0A8
:1043700066E970E20E94770982E190E00E94471CA2
:1043800024E031E042E06EE970E20E944B0482E1F9
:1043900090E00E94471C24E031E043E065EA70E2CF
:1043A0000E94A40482E190E00E94471C24E031E0D6
:1043B00044E06CEA70E20E9409058CE690E00E94FD
:1043C000471C24E031E043E065EB70E20E943909CC
:1043D00087E08093A20078940E94591380E090E0D7
:1043E0006D96CDBFDEBFDF91CF911F910F910895E4
:1043F0000F931F930AE010E020E030E040E050E02F
:1044000060E270E084E591E30E94B31A1F910F917E
:1044100008950E944B2208F481E00895E89409C0B1
:1044200097FB3EF490958095709561957F4F8F4FE7
:104430009F4F9923A9F0F92F96E9BB279395F695FD
:10444000879577956795B795F111F8CFFAF4BB0F7B
:1044500011F460FF1BC06F5F7F4F8F4F9F4F16C0DF
:10446000882311F096E911C0772321F09EE8872F69
:10447000762F05C0662371F096E8862F70E060E025
:104480002AF09A95660F771F881FDAF7880F96959E
:10449000879597F90895990F0008550FAA0BE0E842
:1044A000FEEF16161706E807F907C0F012161306F6
:1044B000E407F50798F0621B730B840B950B39F436
:1044C0000A2661F0232B242B252B21F408950A269C
:1044D00009F4A140A6958FEF811D811D08950E94CA
:1044E0004B2208F48FEF0895DB018F939F930E9476
:1044F0000023BF91AF91A29F800D911DA39F900DAE
:10450000B29F900D1124089597FB072E16F4009486
:1045100007D077FD09D00E94132307FC05D03EF495
:10452000909581959F4F0895709561957F4F08955F
:10453000A1E21A2EAA1BBB1BFD010DC0AA1FBB1FA7
:10454000EE1FFF1FA217B307E407F50720F0A21B19
:10455000B30BE40BF50B661F771F881F991F1A9486
:1045600069F760957095809590959B01AC01BD01B0
:10457000CF010895052E97FB1EF400940E94D122CE
:1045800057FD07D00E94982207FC03D04EF40C94EC
:10459000D12250954095309521953F4F4F4F5F4F19
:1045A000089590958095709561957F4F8F4F9F4F9F
:1045B0000895EE0FFF1F881F8BBF0790F691E02D27
:1045C0001BBE19940E94EA22332312F48A1B9B0B10
:1045D0000C94FB22A29FB001B39FC001A39F700D5A
:1045E000811D1124911DB29F700D811D1124911DFB
:1045F00008950E94EA22B7FF0895821B930B089545
:104600000E94EA22A59F900DB49F900DA49F800D5B
:10461000911D11240895B7FF0C9400230E940023DC
:10462000821B930B0895AA1BBB1B51E107C0AA1F55
:10463000BB1FA617B70710F0A61BB70B881F991F43
:104640005A95A9F780959095BC01CD010895FB017D
:10465000DC0102C001900D9241505040D8F70895FE
:10466000DC0101C06D9341505040E0F70895FB011B
:10467000DC014150504048F001900D920020C9F7F4
:1046800001C01D9241505040E0F70895BB274A30C9
:1046900031F4992322F4BDE2909581959F4F0C94BB
:1046A0008A232532310520F4223010F00C945C234B
:1046B000FA011082CA010895BB27FA01A62F6217DA
:1046C000710581059105330B30FB66F0AA27660F53
:1046D000771F881F991FAA1FA21710F0A21B6395AE
:1046E0003850A9F7A05DAA3308F0A95DA19336F769
:1046F000B111B1931082CA010C94A3234532510524
:1047000020F4423010F00C948923FB011082CB017D
:104710000895BB27FB015527AA27880F991FAA1FB9
:10472000A41710F0A41B83955051B9F7A05DAA33CC
:1047300008F0A95DA193009779F7B111B193119297
:10474000CB010C94A323DC01FC01672F719177232B
:10475000E1F7329704C07C916D9370836291AE173C
:0A476000BF07C8F30895F894FFCFD7
:10476A00FF0FFFFFFFFF00000000CD03221900002A
:10477A0000005B04221900000000B40422194572EB
:10478A00726F72205374617465000000000019058D
:10479A00221900000000F20A221949444C4500007F
:1047AA000000004D1C221900000000E41C951A8A22
:1047BA001A6C1AEB1CEC1C00000000E41C4D1CE9EE
:1047CA001CE61CEB1CEC1C00000000E41C981EE21A
:1047DA001EBC1EEB1CF51E4672656552544F5320D3
:1047EA00584D4547412054657374696E672050726D
:1047FA006F6772616D0055736572496E7400456E1C
:10480A00634D747200456E6350656E004C696D535A
:0C481A0077746368004D6F746F720000CB
:00000001FF
