:100000000C94AD020C94E3020C94E3020C94E30212
:100010000C94E3020C94E3020C94E3020C94E302CC
:100020000C94E3020C94E3020C94E3020C94E302BC
:100030000C94E3020C94E3020C94E3020C94E302AC
:100040000C94E3020C94E3020C94E3020C94E3029C
:100050000C94E3020C94E3020C94E3020C94E3028C
:100060000C94E3020C94581C0C94E3020C94E302ED
:100070000C94B61C0C94E3020C94E3020C94E3027F
:100080000C94E3020C94E3020C94E3020C94E3025C
:100090000C94E3020C94E3020C94E3020C94E3024C
:1000A0000C94E3020C94E3020C94E3020C94E3023C
:1000B0000C94E3020C94E3020C94E3020C94E3022C
:1000C0000C94E3020C94490C0C94E3020C94E302AC
:1000D0000C94E3020C94E3020C94E3020C94E3020C
:1000E0000C94E3020C94E3020C94D01D0C94E302F4
:1000F0000C94E3020C94E3020C94E3020C94E302EC
:100100000C94E3020C94E3020C94E3020C94E302DB
:100110000C94E3020C94E3020C94E3020C94E302CB
:100120000C94E3020C94E3020C94E3020C94E302BB
:100130000C94E3020C94E3020C94E3020C94E302AB
:100140000C94E3020C94E3020C94E3020C94E3029B
:100150000C94E3020C94E3020C94E3020C94E3028B
:100160000C94141D0C94E3020C94E3020C94721D85
:100170000C94E3020C94E3020C94E3020C94E3026B
:100180000C94E3020C94E3020C94E3020C94E3025B
:100190000C94E3020C94E3020C94E3020C94E3024B
:1001A0000C94E3020C94E3020C94E3020C94E3023B
:1001B0000C94E3020C94E3020C94E3020C94E3022B
:1001C0000C94E3020C94E3020C94E3020C94E3021B
:1001D0000C94E3020C94E3020C94E3020C94E3020B
:1001E0000C94E3020C94E3020C94E3020C94E302FB
:1001F0000C94E3020C94E3020C94E3021B1A1E1A03
:10020000211A241A271A2A1A2C1A3D1A451A4F1A8B
:100210004D1A0C9400080C94FC150C9438030C94A3
:10022000271A0C94AA020C942C1A0C9446170C94BE
:1002300090040C94C6190C942A1A0C94BE190C94B0
:10024000961B0C94C3190C94241A0C94C5190C9485
:10025000BB030C94211A0C9427190C94C0190C940C
:100260001E1A0C94CF1B0C944F1A0C9464170C9408
:10027000BC1B0C94721B0C942B040C9498060C94CD
:100280006F170C94F31E0C9413030C942D090C940B
:10029000CD0E0C941B1A0C94451A0C944D1A0C9408
:1002A0003D1A2C20544343304343413D002F002C42
:1002B000204865617020667265653A200054696D5A
:1002C000653A200044656320203620323031370003
:1002D0004D45343035206261736520726164696F09
:1002E0002070726F6772616D2056302E34200020AE
:1002F000202020683A20202048414C502100202016
:100300002020653A2020204578697420636F6D6D48
:10031000616E64206D6F64650020202020733A2098
:100320002020537461636B2064756D7020666F725A
:10033000207461736B730020202020763A202020E7
:1003400056657273696F6E20616E64207365747593
:100350007020696E666F726D6174696F6E00202027
:1003600020206E3A20202053686F77207468652023
:1003700074696D65207269676874206E6F770020FC
:1003800020496E20636F6D6D616E64206D6F6465D2
:10039000206F6E6C793A00202043746C2D413A2016
:1003A000456E74657220636F6D6D616E64206D6F54
:1003B000646500202043746C2D433A2052657365B8
:1003C000742074686520415652002068656C700086
:1003D0004D45343035206261736520726164696F08
:1003E0002070726F6772616D2056302E3420001BB2
:1003F0005B33306D001B5B34366D00496C6C656798
:10040000616C207374617465212052657365747426
:10041000696E6720415652003A5754463F0045786E
:10042000697420636F6D6D616E64206D6F6465002B
:10043000526573657474696E67204156520050723C
:10044000657373204374726C2D4120666F72206354
:100450006F6D6D616E64206D6F64650052657365CC
:100460007474696E67004552524F5220696E207451
:1004700061736B20004552524F5220637265617464
:10048000696E67207461736B20002C207374616344
:100490006B2061742030780020637265617465643C
:1004A000005461736B20001B5B32326D005461732A
:1004B0006B3A20001B5B316D001B5B32326D0054C8
:1004C00061736B3A2049444C45001B5B316D000958
:1004D00009002F0049444C45090930092D0900093C
:1004E0002D2D2D2D00092D2D2D2D2D2D2D2D2D2D8D
:1004F000002D2D2D2D09092D2D2D2D092D2D2D2DC5
:100500002D000952756E730009467265652F546F90
:1005100074616C004E616D6509095072692E095352
:10052000746174650009537461636B005461736B8B
:1005300009092020092000090009002F00090009ED
:10054000001B5B32326D001B5B316D001B5B316D3C
:10055000002020000E949414F31E11241FBECFEF30
:10056000CDBFDFE3DEBF00E00CBF18BE19BE1ABE70
:100570001BBE10E2A0E0B0E2E0E6F1E400E00BBF59
:1005800002C007900D92A63FB107D9F71BBE21E329
:10059000A6EFB0E201C01D92AC39B207E1F712E05C
:1005A000CDEAD2E000E006C021970109802FFE01CC
:1005B0000E94D41FCC3AD10780E00807A9F70E9417
:1005C000431E0C94AE200C9400009C01932F991FA5
:1005D0009927991F892F90E081509048432F40958B
:1005E000441F4427441FFC01E21BF30B51E0E617B4
:1005F000F7070CF050E0451719F0C901860F971F57
:100600000895811520E8920721F4611520E872070A
:1006100029F09C01DB010E94DD1F08956FEF7FEF41
:100620008FEF9FE70895CF93DF9300D01F92CDB750
:10063000DEB70E946C1069837A838B839C8342E1CE
:1006400050E060E070E0CE0101960E940A12F7CF00
:100650000F931F93CF93DF93EC010E94A7148AE0BE
:1006600090E288839983DF91CF911F910F91089534
:10067000CF93DF9300D01F92CDB7DEB77C010E94ED
:100680006C1069837A838B839C83E0E8F6E08CE0CE
:10069000828382898360828B83898360838BE0E895
:1006A000F1E082E7808389E08087E0E0F9E088E696
:1006B00083838FEF9FEF86A397A381E080830F2E24
:1006C000A12CF9E0BF2EF02DF50100A111A10FB66C
:1006D000F8940F92C801012E000CAA0BBB0BAC01C1
:1006E000BD01440F551F661F771F3A014B01680E6D
:1006F000791E8A1E9B1EC401B30124E630E040E04F
:1007000050E00E94B51F20938831309389310F90BB
:100710000FBE0FB6F8940F92C8018C199D098093F3
:100720008631909387310F900FBEF70186859785AC
:10073000A089B1890196A11DB11D86879787A08BDD
:10074000B18B41E050E060E070E0CE0101960E9484
:100750000A126801B9CF0F931F93CF93DF93EC0177
:100760000E94A71482E190E288839983DF91CF9160
:100770001F910F910895CF93DF9300D01F92CDB7B3
:10078000DEB78C010E946C1069837A838B839C8313
:10079000E0E8F6E083E08283808B818BE0E8F1E0A3
:1007A00080E7828389E08287E0E4F8E08AE6838359
:1007B00080EA95E086A397A381E080836894EE2485
:1007C000E6F8FF24F3F8F701A0A1B1A10FB6F89461
:1007D0000F9224E630E00E94F41F4B015C01992344
:1007E0002CF4F3E08F0E911CA11CB11CD501C401A7
:1007F000B595A79597958795B595A795979587955D
:1008000080938431909385310F900FBEF8018685D7
:100810009785A089B1890196A11DB11D868797870B
:10082000A08BB18B43E050E060E070E0CE01019618
:100830000E940A12C8CF0F931F93CF93DF93EC014E
:100840000E94A7148AE190E288839983DF91CF9177
:100850001F910F910895CF93DF9300D01F92CDB7D2
:10086000DEB77C010E946C1069837A838B839C8342
:10087000E0E6F6E081E0828384E0828388E1808B99
:10088000828B08E616E0DD24D394F801808180FD98
:1008900008C00FB6F8940F92D09283310F900FBE1C
:1008A00007C00FB6F8940F92109283310F900FBECD
:1008B000F801808182FD08C00FB6F8940F92D092A3
:1008C00082310F900FBE07C00FB6F8940F921092AE
:1008D00082310F900FBEF70186859785A089B18977
:1008E0000196A11DB11D86879787A08BB18B43E030
:1008F00050E060E070E0CE0101960E940A12C5CF80
:100900000F931F93CF93DF93EC010E94A71482E211
:1009100090E288839983DF91CF911F910F91089581
:10092000CF93DF93CDB7DEB76697CDBFDEBF8C0127
:100930000E946C1069837A838B839C83F801FE96F6
:1009400085E090E0A0E0B0E080839183A283B38350
:1009500081E090E0F80184AF95AF1801F8E42F0E24
:10096000311C27E02D8B1E8AA801445B5F4F49870D
:100970005A87C801865B9F4F8F87988BF801EC5987
:10098000FF4FEB87FC873801F4E46F0E711C980170
:100990002A5B3F4F2D873E87405F5F4F498B5A8BC5
:1009A000280156E6450E511C4E968B8B9C8B4801B8
:1009B0009EE3890E911C5801E0E5AE0EB11C680162
:1009C000FEE5CF0ED11CF80186859785A089B189F7
:1009D0000196A11DB11D86879787A08BB18B24E658
:1009E00030E0228F338F0FB6F8940F9280918631CA
:1009F000909187310F900FBE868F978F4D89F101AF
:100A000040835E89518343EB50E0E985FA8540835A
:100A10005183EF85F8891082118243EF50E0EB8516
:100A2000FC854083518340E456E0F30140835183C9
:100A300040EC59EFED85FE85408351837901E81A3A
:100A4000F90AB70187E090E00E9401036D837E837D
:100A50008F8398872D813E81E989FA8920833183AC
:100A6000F201808191819701281B390BC901EB8923
:100A7000FC8920833183E985FA8520813181829F39
:100A8000D001839FB00D929FB00D1124F801E6595B
:100A9000FF4FA083B183F4012081318142815381D2
:100AA0000E9406209B01AC01992324F421503F4F62
:100AB0004F4F5F4FBB2757FDBA95A52F942F832F1C
:100AC000F5014081518162817381840F951FA61FBA
:100AD000B71F8130FAEC9F07FAE9AF07FBE3BF07C6
:100AE00034F4F50180839183A283B38309C080E04D
:100AF0009AECAAE9BBE3F50180839183A283B383D7
:100B0000F501608171818D819E810E94E502F8016D
:100B1000E05AFF4F80839183F60180839183F30134
:100B2000208131812817390724F4F601208331838D
:100B30000AC0ED85FE8520813181821793071CF460
:100B4000F60120833183F801E25BFF4FE082F182FE
:100B5000F601E080F1808E199F09F801EE59FF4FF0
:100B600080839183EB85FC8540815181849F900136
:100B7000859F300D949F300D1124332314F42150A0
:100B80003F4F832F880F880BF20130838183F80158
:100B9000668577858089918925E030E040E050E0E6
:100BA0000E94931F672B682B692B99F4F80106802C
:100BB000F781E02DED83FE8366E270E2CF010E94B3
:100BC000D519B7018D819E810E94531A66E00E945B
:100BD0000C1A0FB6F8940F920F900FBE80918331CC
:100BE000811109C00FB6F8940F920F900FBE80913B
:100BF0008231882359F0F801128E138EF50110828C
:100C0000118212821382F601108211820FB6F894BB
:100C10000F92F60180819181809380319093813190
:100C20000F900FBEF80110A611A682A193A160E05B
:100C300070E00E947F1F7B01072E000C880B990B30
:100C40000E940B1F6D837E838F83988723E333E39A
:100C50004BE851E40E946A1F181634F481E190E0D9
:100C6000F80184A395A315C023E333E34BE851ECCB
:100C70006D817E818F8198850E94041F882324F0D6
:100C8000F801E4A2F5A205C08FEE9FEFF80184A35E
:100C900095A3F80116AA17AA12AA13AA14AA15AAAC
:100CA00080A991A9893191052CF088E190E080AF6D
:100CB00091AF0DC0883EFFEF9F0724F0F80180AF91
:100CC00091AF05C088EE9FEFF80180AF91AFF401BE
:100CD0002081318142815381A8EEB3E00E94FB1F45
:100CE000683EF3E07F078105910548F028EE33E088
:100CF00040E050E00E94931FBA01A90104C041E006
:100D000050E060E070E0CE0101960E940A125BCED6
:100D10000F931F93CF93DF93EC010E94A71487E3F7
:100D200090E288839983DF91CF911F910F9108956D
:100D3000CF93DF9300D01F92CDB7DEB70E946C1027
:100D400069837A838B839C8346E050E060E070E0A7
:100D5000CE0101960E940A12F7CF0F931F93CF93F3
:100D6000DF93EC010E94A7148FE390E288839983BC
:100D7000DF91CF911F910F9108950F931F93CF9300
:100D8000DF93EC010E94A71487E490E288839983A3
:100D9000DF91CF911F910F9108950F931F93CF93E0
:100DA000DF93EC016AE08E819F810E940C1A8C0116
:100DB00065EF73E00E94D5196AE0C8010E940C1A21
:100DC0008C016FEE73E00E94D51967E0C8010E94A4
:100DD0000C1A6AE08E819F810E940C1A8C0160EDD2
:100DE00073E00E94D5196AE0C8010E940C1A8C01B8
:100DF0006AEC73E00E94D51966E0C8010E940C1AE3
:100E00006AE08E819F810E940C1A8C0163EB73E073
:100E10000E94D51966E0C8010E940C1A6AE08E8112
:100E20009F810E940C1A8C0167E973E00E94D5191A
:100E300066E0C8010E940C1A6AE08E819F810E94C0
:100E40000C1A8C016FE773E00E94D51966E0C801A7
:100E50000E940C1A6AE08E819F810E940C1A8C01FC
:100E60006EE573E00E94D51966E0C8010E940C1A75
:100E70006AE08E819F810E940C1A8C0167E373E007
:100E80000E94D51966E0C8010E940C1A6AE08E81A2
:100E90009F810E940C1A8C0169E173E00E94D519B0
:100EA00066E0C8010E940C1A6AE08E819F810E9450
:100EB0000C1A8C016EEF72E00E94D51966E0C80131
:100EC0000E940C1A6AE08E819F810E940C1AEC012C
:100ED0006FEE72E00E94D51966E0CE010E940C1AF6
:100EE000DF91CF911F910F910895AF92BF92CF9252
:100EF000DF92EF92FF920F931F93CF93DF9300D077
:100F000000D0CDB7DEB78C0119821A821B821C82F9
:100F10001D821E820E941F0A6C01CE0101960E9452
:100F200058185C0166E0F801868197810E940C1ACE
:100F30006AE00E940C1A7C0160ED72E00E94D519F3
:100F40006AE0C7010E940C1A7C0164EC72E00E9406
:100F5000D51966E0C7010E940C1A6AE00E940C1ABB
:100F60007C016DEB72E00E94D519B501C7010E94AA
:100F7000FC176AE00E940C1A7C016FEA72E00E9482
:100F8000D519B601C7010E947C1A6AE00E940C1AAA
:100F90007C016DEA72E00E94D5194FEF5FE060E0DE
:100FA00070E0C7010E94B01AC0902808D0902908AC
:100FB0006AE0F801868197810E940C1A7C0162EA3E
:100FC00072E00E94D519B601C7010E947C1A66E042
:100FD0000E940C1A66E00E940C1AF8018681978123
:100FE0000E94B5162696CDBFDEBFDF91CF911F912F
:100FF0000F91FF90EF90DF90CF90BF90AF9008954A
:10100000CF93DF9300D000D0CDB7DEB78C0119822B
:101010001A821B821C821D821E826AE0DC011696E7
:101020008D919C9117970E940C1A7C016EE374E0DD
:101030000E94D51966E0C7010E940C1AF801848548
:10104000882321F0813009F45DC0D8C08681978162
:10105000DC01ED91FC910480F581E02D1995882348
:10106000A9F1F80186819781DC01ED91FC91068060
:10107000F781E02D1995992781309105F9F00397B3
:1010800009F0D8C06AE0F801868197810E940C1AA5
:101090008C0160E374E00E94D51966E0C8010E94EB
:1010A0000C1A93E088ED08B618BE84BF90938000B8
:1010B0008091820081FDFCCF08BEFFCFC8010E9455
:1010C000CD0661E0C8010E94A314B4C08AE891E390
:1010D0000E946417882309F4ADC0D8011696ED91DB
:1010E000FC9117970190F081E02DE280F3808AE86F
:1010F00091E30E944617682FF80186819781F701D6
:10110000199598C086819781DC01ED91FC9104804E
:10111000F581E02D1995882309F48CC0F8018681AA
:101120009781DC01ED91FC910680F781E02D199506
:101130009C0133272836310559F13CF42B31310518
:1011400059F12536310541F13BC023373105C1F056
:101150002637310589F02E36310591F5CE010196FD
:101160000E945818BC01F801868197810E94FC17E3
:1011700066E00E940C1A5EC0C8010E9475075AC042
:10118000D80116968D919C9117970E94BC1552C05C
:10119000C8010E94CD064EC06AE0F80186819781A1
:1011A0000E940C1A7C016EE174E00E94D51966E081
:1011B000C7010E940C1A60E0C8010E94A3143AC043
:1011C000F801A681B781ED91FC9111970280F3811E
:1011D000E02D682FCD0119956AE0D80116968D9102
:1011E0009C9117970E940C1A7C0168E174E00E94A0
:1011F000D51966E0C7010E940C1A1CC06AE0F8010C
:10120000868197810E940C1A8C016BEF73E00E941B
:10121000D51966E0C8010E940C1A93E088ED08B663
:1012200018BE84BF909380008091820081FDFCCF26
:1012300008BEFFCFF80186859785A089B189019600
:10124000A11DB11D86879787A08BB18B61E070E0EF
:1012500080E090E00E947712F1CECF93DF9300D030
:101260001F92CDB7DEB70E946C1069837A838B839F
:101270009C8342E050E060E070E0CE0101960E9465
:101280000A12F7CF0F931F93CF93DF93EC010E94C5
:10129000A7148FE490E288839983DF91CF911F9107
:1012A0000F9108950F931F93CF93DF93EC010E944A
:1012B00066108091F62081111DC0ABEFB0E2EFEF18
:1012C000F0E2ED93FC93119712961D921C921397E6
:1012D000A7EFB0E28FEF9FE012968D939C93139748
:1012E0001D921C92119782839383A083B18381E026
:1012F0008093F620209709F45FC09E012B5F3F4F3B
:101300002496CE3FDF4008F05AC0E091FB20F091D8
:10131000FC20ABEFB0E202C0DF01FC0182819381CF
:101320008217930720F4808191810097A9F7C0E28A
:10133000E73FFC0709F446C0CD91DC9111978E017F
:101340000B5F1F4F808191818D939C93828193814C
:10135000821B930B8B30910510F1BF01620F731F3D
:10136000DB0112968D939C931397228333831296FD
:101370004D915C9113978BEF90E201C0CD01EC0190
:10138000A881B98112962D913C91139724173507A6
:10139000A8F3EB01A883B983DC016D937C93809162
:1013A00000209091012022813381821B930B809336
:1013B00000209093012008C000E010E005C000E08C
:1013C00010E002C000E010E00E948811C801DF9127
:1013D000CF911F910F9108950F931F93CF93DF9398
:1013E000009741F1EC018C01055011090E94661033
:1013F000F80142815381ABEFB0E201C0DF01ED9112
:10140000FC9111972281338124173507B8F3259772
:10141000E883F9830D931C932091002030910120E3
:101420008A819B81820F931F8093002090930120DB
:101430000E948811DF91CF911F910F9108958091A3
:101440000020909101200895FC01039681839283EE
:101450004FEF5FEFBA0143835483658376838783BD
:1014600090878187928710820895FC0112861386E7
:101470000895CF93DF93FC01DB0121813281E901E3
:101480008C819D8114968D939C9315978181928177
:1014900016968D939C9317978C819D81EC016E839A
:1014A0007F83E9016C837D83618372831A96ED9358
:1014B000FC931B9780818F5F8083DF91CF9108958C
:1014C0000F931F93CF93DF93EB01088119812A813A
:1014D0003B810F3F4FEF14072407340731F4DC0141
:1014E0001996ED91FC911A971FC0FC013396DC010F
:1014F00017964D915C911897DA014D915D916D9120
:101500007C91041715072607370770F00480F581D2
:10151000E02DA481B5814D915D916D917C91041771
:1015200015072607370790F7A481B581AC83BD83E3
:101530001696CD93DC931797EE83FF83C483D583F0
:101540008A879B87FC0120812F5F2083DF91CF91C9
:101550001F910F910895FC01A481B5818681978127
:1015600016968D939C931797A681B7818481958158
:1015700014968D939C931597A285B38511968D91A2
:101580009C911297E817F90731F48681978111969B
:101590008D939C931297128613868C9181508C9315
:1015A000089580939A3190939B3131E1FC0130830F
:1015B000319722E220833197A3E3A08331976083A0
:1015C000319770833197108231971082319760E89C
:1015D0006083319710823197108231971082319752
:1015E00062E06083319763E06083319764E06083F9
:1015F000319765E06083319766E06083319767E0FB
:101600006083319768E06083319769E06083319748
:1016100060E1608331973083319732E130833197D5
:1016200033E13083319734E13083319735E13083D2
:10163000319736E13083319737E13083319738E1A4
:101640003083319739E13083319730E230833197FD
:1016500031E2308331972083319723E22083319721
:10166000408331975083319726E22083319727E2D8
:101670002083319728E22083319729E22083319714
:1016800020E32083319721E32083899708958CE715
:101690008093290A8FEF8093280A81E08093000AC3
:1016A00091E19093010A8093070AA0915E31B09175
:1016B0005F31CD91CDBFDD91DEBFFF91EF91DF9125
:1016C000CF91BF91AF919F918F917F916F915F91DA
:1016D0004F913F912F911F910F91FF90EF90DF90CD
:1016E000CF90BF90AF909F908F907F906F905F90C2
:1016F0004F903F902F901F900F900CBE0F900BBEFD
:101700000F900FBE0F90089508950F920FB6F894A2
:101710000F920BB60F920CB60F921F9211242F92BC
:101720003F924F925F926F927F928F929F92AF9271
:10173000BF92CF92DF92EF92FF920F931F932F935E
:101740003F934F935F936F937F938F939F93AF9349
:10175000BF93CF93DF93EF93FF93A0915E31B0914E
:101760005F310DB60D920EB60D920E94A512A0919A
:101770005E31B0915F31CD91CDBFDD91DEBFFF9184
:10178000EF91DF91CF91BF91AF919F918F917F9119
:101790006F915F914F913F912F911F910F91FF900A
:1017A000EF90DF90CF90BF90AF909F908F907F9001
:1017B0006F905F904F903F902F901F900F900CBEB6
:1017C0000F900BBE0F900FBE0F9008950F920FB6A3
:1017D000F8940F920BB60F920CB60F921F92112431
:1017E0002F923F924F925F926F927F928F929F9231
:1017F000AF92BF92CF92DF92EF92FF920F931F931F
:101800002F933F934F935F936F937F938F939F9308
:10181000AF93BF93CF93DF93EF93FF93A0915E318C
:10182000B0915F310DB60D920EB60D920E948710E9
:101830000E94A512A0915E31B0915F31CD91CDBFD4
:10184000DD91DEBFFF91EF91DF91CF91BF91AF911D
:101850009F918F917F916F915F914F913F912F91C8
:101860001F910F91FF90EF90DF90CF90BF90AF90BE
:101870009F908F907F906F905F904F903F902F90B0
:101880001F900F900CBE0F900BBE0F900FBE0F90CD
:1018900008950E94E60B1895CF93DF93EC0188A181
:1018A00081110BC088819981892BE1F58A819B8107
:1018B0000E9460141A821B8235C0411117C0482F44
:1018C00050E08C819D810E94222028A18C819D81E5
:1018D000820F911D8C839D832A813B818217930700
:1018E00008F1888199818C839D831CC0482F50E02A
:1018F0008E819F810E94222088A190E09195819500
:1019000091092E813F81280F391F2E833F83488103
:1019100059812417350730F42A813B81820F931FA8
:101920008E839F838E8D8F5F8E8FDF91CF910895F1
:10193000FC01808191810097A1F040A150E02681B7
:101940003781240F351F26833783A281B3812A175D
:101950003B0710F086839783CB01668177810E94D5
:10196000222008950F931F93CF93DF93EC010FB6BE
:10197000F8940F928AA11816B4F48B89811105C0CE
:1019800012C08B89811104C00EC08E010D5E1F4FE5
:10199000C8010E942C1381110E94E9138AA1815071
:1019A0008AA3181674F38FEF8AA30F900FBE0FB699
:1019B000F8940F9289A11816B4F48885811105C096
:1019C00012C08885811104C00EC08E01085F1F4FB0
:1019D000C8010E942C1381110E94E91389A1815032
:1019E00089A3181674F38FEF89A30F900FBEDF91B0
:1019F000CF911F910F9108951F93CF93DF93613083
:101A000059F0FC012389308531112CC011E02111DE
:101A100010E0211128C001C011E0EC01488159817A
:101A200028A130E06F8D629FC001639F900D11244B
:101A3000BA01680F791F6A837B831E8E4C835D8396
:101A4000821B930B840F951F8E839F838FEF89A337
:101A50008AA3CE0108960E94240ACE0143960E94D2
:101A6000240A01C010E0812FDF91CF911F910895CA
:101A70000F931F93CF93DF93882301F1062F182F25
:101A800083E290E00E945209EC01892BC9F0109F7B
:101A9000C001112401960E94520988839983892BE1
:101AA00039F01F8F08A361E0CE010E94FC0C08C032
:101AB000CE010E94EC09C0E0D0E002C0C0E0D0E05E
:101AC000CE01DF91CF911F910F910895AF92BF92F8
:101AD000CF92DF92EF92FF920F931F93CF93DF93FA
:101AE000CDB7DEB72997CDBFDEBF7C015B012E836A
:101AF0003F834887598710E06C0188E0C80ED11CED
:101B00000FB6F8940F92F701968D878D9817A8F469
:101B1000402FB501C7010E944C0CF701838988232F
:101B200041F0C70143960E942C13813011F40E94AA
:101B3000850B0F900FBE81E056C08E819F81A885D6
:101B4000B985892B8A2B8B2B21F40F900FBE80E057
:101B50004AC0111105C0CE0101960E946B1311E01D
:101B60000F900FBE0E9466100FB6F8940F92F70107
:101B700081A18F3F09F411A2F70182A18F3F09F4DF
:101B800012A20F900FBEBE016A5F7F4FCE01019679
:101B90000E947C13811121C00FB6F8940F92F701B7
:101BA000968D0F900FBE878D981311C04E815F8167
:101BB00068857985C6010E940213C7010E94B20C94
:101BC0000E94881181119CCF0E94850B99CFC7017B
:101BD0000E94B20C0E94881193CFC7010E94B20CE0
:101BE0000E94881180E02996CDBFDEBFDF91CF91A2
:101BF0001F910F91FF90EF90DF90CF90BF90AF902B
:101C00000895AF92BF92CF92DF92EF92FF920F931F
:101C10001F93CF93DF93CDB7DEB72997CDBFDEBF3C
:101C20007C015B012E833F834887598710E06C015C
:101C300083E1C80ED11C0FB6F8940F92F701868D80
:101C4000882399F1C680D780B501C7010E94980CFE
:101C500001111AC0F701868D8150868F8081918194
:101C6000892B29F40E940614F70182839383F701DC
:101C700080858823B1F0C70108960E942C1381301B
:101C800081F40E94850B0DC0F701C682D78283893B
:101C9000882339F0C70143960E942C1381110E94BA
:101CA000850B0F900FBE81E062C08E819F81A88559
:101CB000B985892B8A2B8B2B21F40F900FBE80E0E6
:101CC00056C0111105C0CE0101960E946B1311E0A0
:101CD0000F900FBE0E9466100FB6F8940F92F70196
:101CE00081A18F3F09F411A2F70182A18F3F09F46E
:101CF00012A20F900FBEBE016A5F7F4FCE01019608
:101D00000E947C1381112DC00FB6F8940F92F70139
:101D1000868D0F900FBE81111EC080819181892B0D
:101D200049F40FB6F8940F92828193810E940B14AC
:101D30000F900FBE4E815F8168857985C6010E9434
:101D40000213C7010E94B20C0E948811811173CF47
:101D50000E94850B70CFC7010E94B20C0E948811AF
:101D60006ACFC7010E94B20C0E94881180E02996B8
:101D7000CDBFDEBFDF91CF911F910F91FF90EF900C
:101D8000DF90CF90BF90AF9008950FB6F8940F9268
:101D9000FC01868D0F900FBE0895C2E3D1E38881C8
:101DA0008230E8F30E94850BFACFCF92DF92EF9258
:101DB000FF926B017C01E0915E31F0915F316283B3
:101DC0007383848395838091063190910731A0912C
:101DD0000831B0910931C816D906EA06FB0668F445
:101DE00060915E3170915F3180911831909119311D
:101DF0006E5F7F4F0E94600A21C060915E317091DA
:101E00005F3180911A3190911B316E5F7F4F0E943C
:101E1000600A8091022090910320A0910420B0914B
:101E20000520C816D906EA06FB0640F4C092022037
:101E3000D0920320E0920420F0920520FF90EF90D2
:101E4000DF90CF9008954F925F926F927F928F9222
:101E50009F92AF92BF92CF92DF92EF92FF920F9339
:101E60001F93CF93DF935C014B013A01290188E274
:101E700090E00E945209EC01892B09F4D4C0C114EE
:101E8000D10409F0CCC0C3010E9452098B8F9C8FF2
:101E9000009721F4CE010E94EC09C5C0A30161E1C5
:101EA00070E00E942B209301215031098B8D9C8D75
:101EB0003C01620E731E4AE050E0B401CE014D9623
:101EC0000E9432201EA2102F043008F013E01A8F57
:101ED0001FA36E0122E0C20ED11CC6010E94350A6A
:101EE000CE010E960E94350ACA87DB8784E090E017
:101EF000A0E0B0E0811B9109A109B1098E879F87FD
:101F0000A88BB98BCE8BDF8BA201B501C3010E94D8
:101F1000D10A88839983E114F10419F0F701C08391
:101F2000D1830FB6F8940F9280910A318F5F80931E
:101F30000A3180915E3190915F31892B89F5C09390
:101F40005E31D0935F3180910A318130C1F582E3F7
:101F500091E30E94240A8DE391E30E94240A88E41D
:101F600091E30E94240A83E591E30E94240A87E218
:101F700091E30E94240A8CE191E30E94240A8DE0FF
:101F800091E30E94240A87E291E380931A319093AF
:101F90001B318CE191E380931831909319310FC07C
:101FA0008091033181110BC0E0915E31F0915F317E
:101FB000828D081720F0C0935E31D0935F318A8DF7
:101FC00090910531981710F4809305319091FE306F
:101FD0009F5F9093FE3090910431981710F4809396
:101FE0000431FBE08F9FC0011124B6018E5C9E4C32
:101FF0000E94390A0F900FBE80910331882359F057
:10200000E0915E31F0915F31828D801730F40E9453
:10201000850B81E009C081E007C081E005C0CB8E5F
:10202000DC8EC6013BCF8FEFDF91CF911F910F91D7
:10203000FF90EF90DF90CF90BF90AF909F908F90E8
:102040007F906F905F904F9008950FB6F8940F9225
:10205000009721F480915E3190915F310F900FBE17
:10206000FC01828D0895AF92BF92CF92DF92EF92E2
:10207000FF920F93A12CB12CC12CD12C0F2EFBE081
:10208000EF2EF1E3FF2EF02D00E020E030E044E6FB
:1020900050E063E570E28DEC9EE00E94230F8130FA
:1020A00069F4F8948093033110920631109207314D
:1020B00010920831109209310E94470B0F91FF9046
:1020C000EF90DF90CF90BF90AF9008958091023154
:1020D0008F5F8093023108950FB6F8940F9260914C
:1020E00006317091073180910831909109310F903C
:1020F0000FBE0895009721F480915E3190915F3179
:102100004D96089580910B3190910C310895FF9276
:102110000F931F93CF93DF93809102318111EDC014
:102120008091063190910731A0910831B091093129
:102130000196A11DB11D8093063190930731A093A4
:102140000831B09309318091063190910731A09107
:102150000831B0910931892B8A2B8B2BF1F58091B5
:102160001A3190911B3120911831309119312093FF
:102170001A3130931B31809318319093193180912B
:10218000FF308F5F8093FF30E0911A31F0911B3167
:10219000808181110CC08FEF9FEFDC0180930220C2
:1021A00090930320A0930420B093052016C0E091E3
:1021B0001A31F0911B310780F085E02D0084F18504
:1021C000E02D82819381A481B58180930220909338
:1021D0000320A0930420B093052040910631509134
:1021E00007316091083170910931809102209091FE
:1021F0000320A0910420B0910520481759076A07D1
:102200007B0708F47FC0E0911A31F0911B31808187
:102210008823F9F0E0911A31F0911B310780F085A5
:10222000E02DC085D1858A819B81AC81BD814091A3
:10223000063150910731609108317091093148178A
:1022400059076A077B0758F10F2EFBE0FF2EF02D90
:102250002FC08FEF9FEFDC0180930220909303202B
:10226000A0930420B09305204DC0E0911A31F09165
:102270001B310780F085E02DC085D1858A819B8147
:10228000AC81BD8140910631509107316091083198
:1022900070910931481759076A077B0748F4809302
:1022A000022090930320A0930420B09305202AC01D
:1022B0008E010E5F1F4FC8010E94AB0A888D998D59
:1022C000892B21F0CE010E960E94AB0A8A8D909147
:1022D0000431981710F480930431F89EC001112442
:1022E000B8018E5C9E4C0E94390AE0911A31F0913F
:1022F0001B3180818111B9CFACCF809101318F5FCB
:1023000080930131DF91CF911F910F91FF9008953C
:10231000CF92DF92EF92FF920F931F93CF93DF93B1
:102320000FB6F8940F928091023181508093023160
:1023300080910231811160C080910A3181112CC0DD
:102340005EC0D7011796ED91FC911897C085D18595
:10235000CE010E960E94AB0A8E010E5F1F4FC80180
:102360000E94AB0A8A8D90910431981710F48093E3
:102370000431D89EC0011124B8018E5C9E4C0E948D
:10238000390AE0915E31F0915F319A8D828D981714
:1023900070F0CC24C3940BC0C12C0F2EFDE0EF2EA7
:1023A000F1E3FF2EF02D0F2EFBE0DF2EF02DF701D5
:1023B00080818111C6CF80910131882381F0809185
:1023C0000131882399F00E9487108091013181505A
:1023D00080930131809101318111F5CF07C0F1E087
:1023E000CF1621F080910031813041F410920031FC
:1023F0000E94850B81E003C080E001C080E00F9067
:102400000FBEDF91CF911F910F91FF90EF90DF9062
:10241000CF900895CF92DF92EF92FF92CF93DF9308
:10242000EC016A017B010E94661088819981AA8172
:10243000BB81C80ED91EEA1EFB1E40910631509189
:1024400007316091083170910931481759076A07BF
:102450007B07B8F4C816D906EA06FB06E0F58091BA
:10246000063190910731A0910831B0910931C882AD
:10247000D982EA82FB828C159D05AE05BF05F8F472
:1024800013C0C816D906EA06FB0600F18091063192
:1024900090910731A0910831B09109318C159D05BB
:1024A000AE05BF0598F017C080915E3190915F3105
:1024B00002960E94AB0AC701B6010E94D50E0E9487
:1024C000881181110DC00E94850B0AC0C882D98273
:1024D000EA82FB82E9CFC882D982EA82FB82EFCF0F
:1024E000DF91CF91FF90EF90DF90CF900895CF9242
:1024F000DF92EF92FF926B017C01672B682B692BB7
:10250000E9F00E9466108091063190910731A09108
:102510000831B0910931C80ED91EEA1EFB1E809108
:102520005E3190915F3102960E94AB0AC701B601FD
:102530000E94D50E0E948811811102C00E94850B55
:10254000FF90EF90DF90CF9008958091023181113C
:102550000CC0E09104314BE0E49FF0011124EE5CEB
:10256000FE4C8081882329F014C081E080930031E3
:1025700008959BE080910431815080930431E09173
:1025800004319E9FF0011124EE5CFE4C8081882373
:1025900089F380910431282F30E04BE0849FC00103
:1025A0001124DC01AE5CBE4C1196ED91FC911297AA
:1025B0000480F581E02D1196ED93FC9312978B5CCE
:1025C0009E4CE817F90761F4848195814BE0429FA6
:1025D000F001439FF00D1124EE5CFE4C8183928349
:1025E0008BE0829FF001839FF00D1124EE5CFE4C86
:1025F0000180F281E02D8085918580935E319093FA
:102600005F310895CF92DF92EF92FF926A017B01D2
:1026100060915E3170915F31625F7F4F0E94600A0E
:1026200080915E3190915F3102960E94AB0A809159
:10263000063190910731A0910831B0910931BC0168
:10264000CD016C0D7D1D8E1D9F1D0E94D50EFF902E
:10265000EF90DF90CF9008950F931F93CF93DF9368
:10266000DC011796ED91FC911897C085D1858E01FC
:10267000025F1F4FC8010E94AB0A80910231811195
:1026800016C00C501109C8010E94AB0A8A8D9091A6
:102690000431981710F480930431BBE08B9FC00184
:1026A0001124B8018E5C9E4C0E94390A05C0B80105
:1026B0008DE091E30E94390AE0915E31F0915F3143
:1026C00081E02A8D928D291708F480E0DF91CF9167
:1026D0001F910F9108952091FF30FC0120834091BC
:1026E0000631509107316091083170910931418371
:1026F00052836383748308958F929F92AF92BF92A7
:10270000CF92DF92EF92FF920F931F93CF93DF93BD
:10271000FC010FB6F8940F928091FF3090819817CA
:1027200089F08091063190910731A0910831B091E4
:102730000931018112812381348180179107A20719
:10274000B307A8F58091063190910731A091083127
:10275000B0910931C180D280E380F480EB0108811F
:1027600019812A813B818C199D09AE09BF09801707
:102770009107A207B307E8F4CF018090063190904B
:102780000731A0900831B0900931B501A4014C196E
:102790005D096E097F09041B150B260B370B088397
:1027A00019832A833B830E946B1380E003C081E07E
:1027B00001C081E00F900FBEDF91CF911F910F916B
:1027C000FF90EF90DF90CF90BF90AF909F908F9051
:1027D000089581E0809300310895009721F480915D
:1027E0005E3190915F31DC015B96ED91FC915C97DD
:1027F0008081813141F4319680E090E00196219111
:102800002131E1F3089580E090E0089580915E31F8
:1028100090915F3108950F931F93CF93DF93FC0145
:10282000228DA0915E31B0915F315A968C9128171C
:1028300008F041C0A0915E31B0915F315A963C9151
:1028400084E090E0A0E0B0E0831B9109A109B10908
:1028500086879787A08BB18B8BE0289F90011124EE
:102860002E5C3E4C8485958582179307E9F48F0191
:10287000EF012296CE010E94AB0AE0915E31F09109
:102880005F31828DF801828F90910431981710F496
:1028900080930431FBE08F9FC0011124BE018E5C48
:1028A0009E4C0E94390A07C0A0915E31B0915F3101
:1028B0005A968C91828FDF91CF911F910F9108953D
:1028C0000F931F93CF93DF93009749F1FC01328D53
:1028D00027A1321721F1EC018C010E5F1F4FC801B7
:1028E0000E94AB0A8FA18A8F44E050E060E070E064
:1028F000481B5109610971094E875F87688B798B85
:1029000090910431981710F480930431FBE08F9F6D
:10291000C0011124B8018E5C9E4C0E94390ADF91DF
:10292000CF911F910F910895EC01E881F9810190F9
:10293000F081E02D19951A821B826FEF7FEFCB019A
:102940000E947712FACFFC016487658708954F9241
:102950005F926F927F928F929F92AF92BF92CF922F
:10296000DF92EF92FF920F931F93CF93DF93CDB738
:10297000DEB72A97CDBFDEBF4C01290138018CE5B7
:1029800090E2F40180839183FB018081882369F0C8
:10299000DE011196319690E002C0993039F09F5FC8
:1029A0008D9381918111F9CF01C090E0E1E0F0E0D9
:1029B000EC0FFD1FE90FF11D10827401F2E0EF0E24
:1029C000F11CA12CB12CC12CD12C042F9401A201FB
:1029D000BE016F5F7F4F8AEA92E00E94230FF401ED
:1029E00066827782408651862091603130916131D4
:1029F00024833583809260319092613114861586EC
:102A000040909A3150909B31FFEF4F1A5F0A4092ED
:102A10009A3150929B31F40142865386168617866E
:102A2000108A118A6114710409F444C0813079F567
:102A30006AE0C3010E940C1A7C0161EA74E00E9402
:102A4000D519BE016F5F7F4FC7010E94D5196AE09B
:102A5000C7010E940C1A7C0168E974E00E94D51934
:102A60006AE0C7010E940C1A7C016AE874E00E94C7
:102A7000D51963E0C7010E940C1AB2010E947C1AAA
:102A800062E00E940C1A66E00E940C1A13C06AE011
:102A9000C3010E940C1A4C0165E774E00E94D5192D
:102AA000BE016F5F7F4FC4010E94D51966E0C4016B
:102AB0000E940C1A2A96CDBFDEBFDF91CF911F91E5
:102AC0000F91FF90EF90DF90CF90BF90AF909F90CD
:102AD0008F907F906F905F904F900895CF92DF928C
:102AE000EF92FF920F931F93CF93DF93EC017B0143
:102AF0008A819B810E947A106C016AE0C7010E9462
:102B00000C1A8C0164EB74E00E94D5196AE0C801CC
:102B10000E940C1A8C016DEA74E00E94D519B6016E
:102B2000C8010E94D5196AE0C8010E940C1A8C01E4
:102B300067EA74E00E94D51966E0C8010E940C1A89
:102B40008A859B85E885F98501E121E0A701BC0123
:102B50008E1B9F0B0E9470188C819D81009719F02D
:102B6000B7010E946E15DF91CF911F910F91FF90D9
:102B7000EF90DF90CF9008950F931F93CF93DF9343
:102B8000EC018091603190916131009719F0BE01A4
:102B90000E946E156AE0CE010E940C1A8C016AEC4C
:102BA00074E00E94D5196AE0C8010E940C1A8C01D9
:102BB0006FEB74E00E94D5196AE0C8010E940C1AFC
:102BC0008C0169EB74E00E94D51966E0C8010E948F
:102BD0000C1A80919A3190919B31BC016F5F7F4FAD
:102BE00001E121E0AE01835691090E947018DF9146
:102BF000CF911F910F9108958F929F92AF92BF92A4
:102C0000CF92DF92EF92FF920F931F93CF93DF93B8
:102C1000EC018B018A819B810E947A10BC01C80162
:102C20000E94D519D801ED91FC910280F381E02D2D
:102C300069E0C80119958A819B810E947A10FC0184
:102C400001900020E9F73197E81BF90B389748F419
:102C5000D801ED91FC910280F381E02D69E0C8017B
:102C60001995CE84DF84E888F988A884B9848A819C
:102C70009B810E94ED13982E8C848A819B810E94F7
:102C80002510682FC8010E94F21A6AE00E940C1AEF
:102C9000EC016FE375E00E94D519682DCE010E940A
:102CA000F21A6AE00E940C1AEC016DE375E00E94D2
:102CB000D519692DCE010E94F21A6AE00E940C1A01
:102CC000EC016BE375E00E94D519B501CE010E94BD
:102CD0007C1A6AE00E940C1AEC0169E375E00E941C
:102CE000D5196AE0CE010E940C1AEC0167E375E089
:102CF0000E94D519B701A601CE010E94B01ADF913A
:102D0000CF911F910F91FF90EF90DF90CF90BF90E8
:102D1000AF909F908F900895CF93DF93EC01CB01FC
:102D2000DB01ED91FC910280F381E02DBE0119954C
:102D3000CE01DF91CF9108950F931F93CF93DF932F
:102D4000EC018B01BC01C8010E948C1666E00E9458
:102D50000C1A8C819D81009719F0B8010E949C1675
:102D6000DF91CF911F910F9108950F931F93CF93F0
:102D7000DF93EC016AE00E940C1A8C016CE275E0B2
:102D80000E94D5196AE0C8010E940C1A8C0165E204
:102D900075E00E94D51966E0C8010E940C1A6AE02D
:102DA000CE010E940C1A8C0164E175E00E94D519D5
:102DB0006AE0C8010E940C1A8C0168E075E00E946C
:102DC000D5196AE0C8010E940C1A8C0162E075E016
:102DD0000E94D51966E0C8010E940C1A6AE0CE0173
:102DE0000E940C1A8C0161EF74E00E94D5196AE010
:102DF000C8010E940C1A8C0165EE74E00E94D5197E
:102E00006AE0C8010E940C1A8C016FED74E00E9408
:102E1000D51966E0C8010E940C1A8091603190912A
:102E20006131009719F0BE010E949C160E94821029
:102E30000E94ED13182F6AE0CE010E940C1AEC01DB
:102E400064ED74E00E94D519612FCE010E94F21A40
:102E50006AE00E940C1AEC0162ED74E00E94D51940
:102E600064E670E0CE010E947C1A6AE00E940C1AAF
:102E7000EC016FEC74E00E94D51966E0CE010E946F
:102E80000C1ADF91CF911F910F9108950F93CF935B
:102E9000DF931F92CDB7DEB700E02FEF3FEFA90120
:102EA000BE016F5F7F4FFC01808591850E94010EFE
:102EB000813019F4898190E002C08FEF9FEF0F906D
:102EC000DF91CF910F910895FC01808591850E943B
:102ED000C50E91E0811101C090E0892F08950F93F4
:102EE000CF93DF931F92CDB7DEB76983FC012285B4
:102EF00033854485558500E0BE016F5F7F4F808537
:102F000091850E94660D91E0811101C090E0892FAA
:102F10000F90DF91CF910F9108958F929F92BF9262
:102F2000CF92DF92EF92FF920F931F93CF93DF9395
:102F3000EC01B62E4A01680179010E94C71984E6A6
:102F400090E2888399838E869F8640E061E08B2D96
:102F50000E94380D88879987CA86DB86EC86FD86B5
:102F6000DF91CF911F910F91FF90EF90DF90CF9065
:102F7000BF909F908F900895CF92DF92EF92FF9233
:102F8000CF93DF93EC01688179818A819B810F2E39
:102F9000F8EECF2EF3E0DF2EE12CF12CF02DA7017F
:102FA00096010E94931F9B01AC0160E472E48FE0E4
:102FB00090E00E946F1FA70196010E94931F690174
:102FC0007A01AC81BD8120E432E44FE050E00E9400
:102FD000FB1F20E038E448EE51E00E94931FC70138
:102FE000B601620F731F841F951FDF91CF91FF9071
:102FF000EF90DF90CF900895CF92DF92EF92FF9203
:103000000F931F93CF93DF93CDB7DEB72F97CDBF2D
:10301000DEBF6C018B01DB016D917D918D919C91E7
:1030200028EE33E040E050E00E94931FBA01A9016E
:10303000C6010E94B01AD601ED91FC910280F38185
:10304000E02D6EE2C6011995C8010E94BC178E01E1
:10305000095F1F4FFE0131967F012AE030E040E01A
:1030600050E00E94B51FE62F288739874A875B8783
:10307000688579858A859B8520E32E0FD8012E935C
:103080008D01AE15BF0549F71F82BE016F5F7F4FEF
:10309000C6010E94D519C6012F96CDBFDEBFDF91B4
:1030A000CF911F910F91FF90EF90DF90CF900895F7
:1030B000CF93DF93EC010FB6F8940F928091200824
:1030C000909121088C839D830E946C106883798382
:1030D0008A839B830F900FBECE01DF91CF9108951D
:1030E0005F926F927F928F929F92AF92BF92CF9298
:1030F000DF92EF92FF920F931F93CF93DF935C01C8
:103100004B017A01122F702E63E0CA010E940C1A43
:10311000A814B90408F07DC0650184E1C80ED11C73
:1031200000E06A2C5B2CB501C7010E947C1A6AE0A2
:103130000E940C1A61E575E00E94D519112309F46B
:103140006DC0002309F46AC06AE0C7010E940C1A2E
:103150006CE475E00E94D51961C0112371F0011172
:103160000CC08881871549F06AE0C7010E940C1ADB
:1031700067E475E00E94D51901E06991C7010E94DA
:10318000F21ADC01ED91FC910280F381E02D60E206
:103190001995CC16DD0609F7112389F06AE0C701FD
:1031A0000E940C1AEC0161E475E00E94D519E881D7
:1031B000F9810280F381E02D60E2CE011995C62DE0
:1031C000D52D699180EE860F8F3548F4D701ED91AA
:1031D000FC910280F381E02DC701199509C0D70148
:1031E000ED91FC910280F381E02D6EE2C70119950B
:1031F000CC16DD0631F7B4E1AB0EB11C66E0C701B9
:103200000E940C1A84E1C80ED11CA814B90408F459
:1032100088CF62E0C7010E940C1A03C0C62DD52DCD
:103220009CCFDF91CF911F910F91FF90EF90DF9096
:10323000CF90BF90AF909F908F907F906F905F9056
:1032400008950E94520908950E9452090895089510
:10325000CF93DF93FC01DA01403A68E0560749F466
:1032600080E496E08283938382E0848383E0858395
:1032700032C0403B78E0570749F480E496E082830F
:10328000938386E0848387E0858325C0403A89E084
:10329000580749F480E696E08283938382E0848332
:1032A00083E0858318C0403B69E0560749F480E617
:1032B00096E08283938386E0848387E085830BC0D6
:1032C000403A5A4041F480E896E08283938382E05A
:1032D000848383E08583A683B783CD0101968087AD
:1032E00091870396828793872581C281D3814C8100
:1032F00081E090E0BC0102C0660F771F2A95E2F7DB
:103300009B01242B2C832581C281D3814881BC0160
:1033100002C0660F771F2A95E2F79B01242B2883B2
:103320003481C281D381288102C0880F991F3A95C8
:10333000E2F7809590958223888380E113968C93A1
:10334000139783E015968C93159780EF17968C93BF
:10335000179781E216968C93169788E114968C93B2
:1033600080E8858780E4868780E284870680F7810D
:10337000E02D80818081DF91CF91089581E00895D3
:1033800080E090E0089580E0089508950895FC019C
:1033900084E790E2808391838AE08283138283E0D2
:1033A000858314821682178208950F931F93CF93FB
:1033B000DF938C01FB01DC0114968C91811104C018
:1033C0006081611117C023C0D80114961C92EB01D3
:1033D000219664916623D9F0D801ED91FC91028089
:1033E000F381E02DC8011995FE01649121966111C8
:1033F000F3CF0DC0EF012196D801ED91FC91028031
:10340000F381E02DC801199569916111F5CFDF9124
:10341000CF911F910F910895CF93DF93EC01862FE9
:1034200090E08B309105D8F5FC018827E250FF4FE2
:103430008F4F0C94D41F82E08A8331C088E08A8346
:103440002EC08AE08A832BC080E18A8328C081E075
:103450008B8325C01B8223C0E881F9810280F38120
:10346000E02D6DE0CE011995E881F9810280F381AC
:10347000E02D6AE0CE01199512C0E881F98102843D
:10348000F385E02DCE0119950AC0E881F981008409
:10349000F185E02DCE01199502C081E08C83CE012B
:1034A000DF91CF9108950F931F93CF93DF93CDB703
:1034B000DEB76197CDBFDEBF8C019B01FC0192811D
:1034C0009A3021F0C8010E947C1A0DC04AE0BE016A
:1034D0006F5F7F4FC9010E944120BE016F5F7F4F28
:1034E000C8010E94D519C8016196CDBFDEBFDF912A
:1034F000CF911F910F910895FF920F931F93CF9338
:10350000DF93CDB7DEB76197CDBFDEBF8C01F62E5E
:10351000972FF8014281403121F0483011F04230BC
:1035200041F4692FC8010E94F21A6F2D0E94F21A0D
:103530000DC050E0BE016F5F7F4F8F2D0E9479203C
:10354000BE016F5F7F4FC8010E94D519C801619607
:10355000CDBFDEBFDF91CF911F910F91FF900895F6
:10356000DF92EF92FF920F931F93CF93DF93CDB72C
:10357000DEB7A197CDBFDEBF8C01D42EE52EF62E8F
:10358000972FF8012281203121F0283011F02230CC
:1035900071F4692FC8010E94F21A6F2D0E94F21A6D
:1035A0006E2D0E94F21A6D2D0E94F21A0FC030E0AB
:1035B000AE014F5F5F4F6D2D7E2D8F2D0E944C20F1
:1035C000BE016F5F7F4FC8010E94D519C801A19647
:1035D000CDBFDEBFDF91CF911F910F91FF90EF9094
:1035E000DF900895CF92DF92EF92FF920F931F9397
:1035F000CF93DF93CDB7DEB72997CDBFDEBF8C0168
:10360000E62EDC0113968C911397882341F0ED91FF
:10361000FC910280F381E02DC801199556C0F80194
:103620004281423019F56894CC24C3F8D12C6894B7
:10363000FF24F7F88E2D8F2151F0D801ED91FC91E8
:103640000280F381E02D61E3C801199509C0D8011A
:10365000ED91FC910280F381E02D60E3C8011995A2
:10366000F694B1E0CB1AD10829F72FC04031F9F414
:1036700062956F700190F081E02D0280F381E02D62
:103680006A3010F0695C01C0605DC80119956E2D4B
:103690006F70D801ED91FC910280F381E02D6A30CA
:1036A00010F0695C01C0605DC80119950EC050E062
:1036B000BE016F5F7F4F8E2D90E00E947920BE018A
:1036C0006F5F7F4FC8010E94D519C8012996CDBFF1
:1036D000DEBFDF91CF911F910F91FF90EF90DF90B0
:1036E000CF900895DC015096ED91FC915197808127
:1036F00054964C915497842329F009C021503109E4
:1037000019F412C021E23EE490819423B9F3908130
:1037100056968C915697892B80831E96ED91FC913D
:103720001F97608381E0089580E00895CF93DF9331
:10373000FC01C18DD28D28813981A38DB48D4D912D
:103740005C9124173507E9F3A789B08D0D90BC91E2
:10375000A02DA20FB31F8C912F5F3F4F2883398379
:103760002436310528F0018CF28DE02D1082118273
:1037700090E0DF91CF910895CF93DF93EC01A98D75
:10378000BA8DEB8DFC8D81E04D915C912081318172
:103790004217530709F480E0DF91CF910895DC01CF
:1037A000ED91FC910280F381E02D6CE01995089574
:1037B000EF92FF920F931F93CF93DF93EC017B0166
:1037C0008A010E94C719A801B701CE0108960E947C
:1037D000281984E890E288839983003A88E01807E2
:1037E00069F48EE791E38F8B988F84E791E3898F5B
:1037F0009A8F8AE691E38B8F9C8F42C0003BE8E072
:103800001E0769F48CE791E38F8B988F82E791E331
:10381000898F9A8F88E691E38B8F9C8F31C0003A15
:10382000F9E01F0769F48AE791E38F8B988F80E7AF
:1038300091E3898F9A8F86E691E38B8F9C8F20C0CE
:10384000003B89E0180769F488E791E38F8B988F34
:103850008EE691E3898F9A8F84E691E38B8F9C8F1C
:103860000FC0003A1A4061F486E791E38F8B988F7E
:103870008CE691E3898F9A8F82E691E38B8F9C8F00
:103880000F89188D84E690E00E942419F801808346
:103890009183E98DFA8D10821182EB8DFC8D10825F
:1038A0001182DF91CF911F910F91FF90EF900895BA
:1038B0001F920F920FB60F92112408B60F9218BEE6
:1038C0000BB60F921BBE2F933F938F939F93EF9353
:1038D000FF932091A008E0917E31F0917F3180919B
:1038E0006A3190916B31E80FF91F208380916A3122
:1038F00090916B3101968436910560F480936A3122
:1039000090936B3120917431309175318217930708
:10391000F1F40CC010926A3110926B3180917431C5
:10392000909175311816190691F40EC001968436DF
:10393000910528F4809374319093753108C01092EA
:1039400074311092753103C081E090E0F3CFFF91A4
:10395000EF919F918F913F912F910F900BBE0F9000
:1039600008BE0F900FBE0F901F9018951F920F92D8
:103970000FB60F92112408B60F9218BE0BB60F9215
:103980001BBE2F933F938F939F93EF93FF932091B1
:10399000B008E0917C31F0917D3180916831909157
:1039A0006931E80FF91F2083809168319091693166
:1039B00001968436910560F4809368319093693163
:1039C000209172313091733182179307F1F40CC05A
:1039D00010926831109269318091723190917331F7
:1039E0001816190691F40EC001968436910528F434
:1039F000809372319093733108C01092723110929B
:103A0000733103C081E090E0F3CFFF91EF919F917C
:103A10008F913F912F910F900BBE0F9008BE0F908A
:103A20000FBE0F901F9018951F920F920FB60F9216
:103A3000112408B60F9218BE0BB60F921BBE2F931F
:103A40003F938F939F93EF93FF932091A009E09171
:103A50007A31F0917B3180916A3190916B31E80F2E
:103A6000F91F2083809166319091673101968436E9
:103A7000910560F4809366319093673120917031A5
:103A80003091713182179307F1F40CC010926631B6
:103A9000109267318091703190917131181619062A
:103AA00091F40EC001968436910528F4809370310C
:103AB0009093713108C0109270311092713103C02F
:103AC00081E090E0F3CFFF91EF919F918F913F9133
:103AD0002F910F900BBE0F9008BE0F900FBE0F904E
:103AE0001F9018951F920F920FB60F92112408B6CF
:103AF0000F9218BE0BB60F921BBE2F933F938F935E
:103B00009F93EF93FF932091B009E0917831F0916A
:103B100079318091643190916531E80FF91F2083EC
:103B2000809164319091653101968436910560F4FD
:103B3000809364319093653120916E3130916F3173
:103B400082179307F1F40CC0109264311092653122
:103B500080916E3190916F311816190691F40EC054
:103B600001968436910528F480936E3190936F31DD
:103B700008C010926E3110926F3103C081E090E066
:103B8000F3CFFF91EF919F918F913F912F910F90E4
:103B90000BBE0F9008BE0F900FBE0F901F90189590
:103BA0001F920F920FB60F92112408B60F9218BEF3
:103BB0000BB60F921BBE2F933F938F939F93EF9360
:103BC000FF932091A00AE0917631F09177318091B6
:103BD000623190916331E80FF91F20838091623147
:103BE0009091633101968436910560F4809362313F
:103BF0009093633120916C3130916D31821793072E
:103C0000F1F40CC0109262311092633180916C31EA
:103C100090916D311816190691F40EC001968436F4
:103C2000910528F480936C3190936D3108C0109207
:103C30006C3110926D3103C081E090E0F3CFFF91C1
:103C4000EF919F918F913F912F910F900BBE0F900D
:103C500008BE0F900FBE0F901F9018950F93CF9333
:103C6000DF931F92CDB7DEB72FB72983F8941BBE21
:103C7000FC0108ED04BF608389818FBF0F90DF9145
:103C8000CF910F9108950F931F93CF93DF93CDB7EB
:103C9000DEB76D97CDBFDEBFE0E6F6E080E481835E
:103CA0008583F894E0E5F0E0808182608083818103
:103CB00081FFFDCF60914000687F616080E490E00B
:103CC0000E942E1EE0E5F0E080818E7F80839DEFD4
:103CD00088ED08B618BE84BF9093800008BE40EB04
:103CE00058E060E070E0CE0101960E94D81B67E0CA
:103CF000CE0101960E940C1A8C0160E970E20E94CC
:103D0000D51966E0C8010E940C1A66E00E940C1AE0
:103D100082E190E00E9421198E010F5F1F4F24E085
:103D200031E040E06FEA70E20E94BD0682E190E07F
:103D30000E94211924E031E044E067EB70E20E9428
:103D4000AB0382E190E00E94211924E031E044E0DD
:103D50006EEB70E20E941B0482E190E00E94211948
:103D600024E031E044E065EC70E20E9480048CE6DF
:103D700090E00E94211924E031E044E06EEC70E212
:103D80000E94880682E190E00E94211924E031E03F
:103D900041E064ED70E20E94420982E190E00E94FD
:103DA000211924E031E042E06EED70E20E94AD06A0
:103DB00082E190E00E94211924E031E043E06AEEC4
:103DC00070E20E94280387E08093A20078940E940A
:103DD000331080E090E06D96CDBFDEBFDF91CF91D4
:103DE0001F910F9108950F931F930AE010E020E0B8
:103DF00030E040E050E060E270E08AE891E30E9449
:103E00008D171F910F9108950E94461F08F481E0BD
:103E10000895E89409C097FB3EF4909580957095BD
:103E200061957F4F8F4F9F4F9923A9F0F92F96E906
:103E3000BB279395F695879577956795B795F1117B
:103E4000F8CFFAF4BB0F11F460FF1BC06F5F7F4F18
:103E50008F4F9F4F16C0882311F096E911C077232A
:103E600021F09EE8872F762F05C0662371F096E833
:103E7000862F70E060E02AF09A95660F771F881F02
:103E8000DAF7880F9695879597F90895990F0008A6
:103E9000550FAA0BE0E8FEEF16161706E807F9071C
:103EA000C0F012161306E407F50798F0621B730BB7
:103EB000840B950B39F40A2661F0232B242B252B38
:103EC00021F408950A2609F4A140A6958FEF811DDB
:103ED000811D08950E94461F08F48FEF0895DB01AD
:103EE0008F939F930E94FB1FBF91AF91A29F800D64
:103EF000911DA39F900DB29F900D1124089597FBE3
:103F0000072E16F4009407D077FD09D00E940E20EA
:103F100007FC05D03EF4909581959F4F08957095CC
:103F200061957F4F0895A1E21A2EAA1BBB1BFD01CC
:103F30000DC0AA1FBB1FEE1FFF1FA217B307E40788
:103F4000F50720F0A21BB30BE40BF50B661F771FE0
:103F5000881F991F1A9469F76095709580959095C0
:103F60009B01AC01BD01CF010895052E97FB1EF406
:103F700000940E94CC1F57FD07D00E94931F07FC9E
:103F800003D04EF40C94CC1F50954095309521955C
:103F90003F4F4F4F5F4F0895909580957095619575
:103FA0007F4F8F4F9F4F0895EE0FFF1F881F8BBFCE
:103FB0000790F691E02D1BBE19940E94E51F332354
:103FC00012F48A1B9B0B0C94F61FA29FB001B39FA7
:103FD000C001A39F700D811D1124911DB29F700D12
:103FE000811D1124911D08950E94E51FB7FF0895BA
:103FF000821B930B08950E94E51FA59F900DB49F0F
:10400000900DA49F800D911D11240895B7FF0C946D
:10401000FB1F0E94FB1F821B930B0895AA1BBB1B57
:1040200051E107C0AA1FBB1FA617B70710F0A61BB8
:10403000B70B881F991F5A95A9F780959095BC01D9
:10404000CD010895FB01DC0102C001900D924150A9
:104050005040D8F70895DC0101C06D9341505040A5
:10406000E0F70895FB01DC014150504048F0019019
:104070000D920020C9F701C01D9241505040E0F759
:104080000895BB274A3031F4992322F4BDE290957C
:1040900081959F4F0C9485202532310520F42230E4
:1040A00010F00C945720FA011082CA010895BB2722
:1040B000FA01A62F6217710581059105330B30FBBC
:1040C00066F0AA27660F771F881F991FAA1FA217DD
:1040D00010F0A21B63953850A9F7A05DAA3308F031
:1040E000A95DA19336F7B111B1931082CA010C9466
:1040F0009E204532510520F4423010F00C9484206B
:10410000FB011082CB010895BB27FB015527AA278D
:10411000880F991FAA1FA41710F0A41B8395505154
:10412000B9F7A05DAA3308F0A95DA193009779F7CC
:10413000B111B1931192CB010C949E20DC01FC01D2
:10414000672F71917723E1F7329704C07C916D93CB
:1041500070836291AE17BF07C8F30895F894FFCF3C
:10416000FF0FFFFFFFFF000000001303FC1500001E
:1041700000003803FC1500000000BB03FC15000024
:1041800000002B04FC1550574D205369676E616C7D
:104190003A2000000000009004FC15000000009888
:1041A00006FC15000000000008FC15000000002DB2
:1041B00009FC1549444C4500000000002719FC1576
:1041C00000000000BE196F1764174617C519C619FD
:1041D00000000000BE192719C319C019C519C61956
:1041E00000000000BE19721BBC1B961BC519CF1B1B
:1041F0004672656552544F5320584D4547412054EF
:10420000657374696E672050726F6772616D0055D7
:10421000736572496E7400456E634D747200456E2D
:104220006350656E004C696D5377746368004D6F21
:10423000746F7200574C6F6F704374726C00506FE4
:10424000734C6F6F704374726C00416E674C6F6F8C
:06425000704374726C0063
:00000001FF
