S01600004652454552544F535F5348454C4C2E73726563CD
S11300000C94A7020C94DD020C94DD020C94DD0226
S11300100C94DD020C94DD020C94DD020C94DD02E0
S11300200C94DD020C94DD020C94DD020C94DD02D0
S11300300C94DD020C94DD020C94DD020C94DD02C0
S11300400C94350C0C94DD020C94DD020C94DD024E
S11300500C94DD020C94DD020C94DD020C94DD02A0
S11300600C94DD020C94381C0C94DD020C94DD021B
S11300700C94961C0C94DD020C94DD020C94DD02AD
S11300800C94DD020C94DD020C94DD020C94DD0270
S11300900C94DD020C94DD020C94DD020C94DD0260
S11300A00C94DD020C94DD020C94DD020C94DD0250
S11300B00C94DD020C94DD020C94DD020C94DD0240
S11300C00C94DD020C94DD020C94DD020C94DD0230
S11300D00C94DD020C94DD020C94DD020C94DD0220
S11300E00C94DD020C94DD020C94B01D0C94DD0222
S11300F00C94DD020C94DD020C94DD020C94DD0200
S11301000C94DD020C94DD020C94DD020C94DD02EF
S11301100C94DD020C94DD020C94DD020C94DD02DF
S11301200C94DD020C94DD020C94DD020C94DD02CF
S11301300C94DD020C94DD020C94DD020C94DD02BF
S11301400C94DD020C94DD020C94DD020C94DD02AF
S11301500C94DD020C94DD020C94DD020C94DD029F
S11301600C94F41C0C94DD020C94DD020C94521DCE
S11301700C94DD020C94DD020C94DD020C94DD027F
S11301800C94DD020C94DD020C94DD020C94DD026F
S11301900C94DD020C94DD020C94DD020C94DD025F
S11301A00C94DD020C94DD020C94DD020C94DD024F
S11301B00C94DD020C94DD020C94DD020C94DD023F
S11301C00C94DD020C94DD020C94DD020C94DD022F
S11301D00C94DD020C94DD020C94DD020C94DD021F
S11301E00C94DD020C94DD020C94DD020C94DD020F
S11301F00C94DD020C94DD020C94DD020C1A0F1A2F
S1130200121A151A181A1B1A1D1A2E1A361A401AFF
S11302103E1A0C949C1B0C94B61E0C940C1A0C9451
S113022032170C94B7190C94B1190C9411080C944E
S11302300F1A0C94B4190C94B6190C94401A0C941B
S1130240181A0C945B170C94B90E0C9418190C948E
S113025000040C9490030C94A4020C9450170C9476
S11302601D1A0C94AF190C943E1A0C94361A0C9463
S1130270E8150C94151A0C94DF020C94521B0C9480
S11302801B1A0C9468040C942E1A0C94AF1B0C9437
S1130290121A0C94761B2C20544343304343413DA3
S11302A0002F002C204865617020667265653A2035
S11302B00054696D653A20004E6F76203238203242
S11302C0303137004D45343035206261736520721A
S11302D06164696F2070726F6772616D2056302E91
S11302E034200020202020683A20202048414C500F
S11302F0210020202020653A2020204578697420A0
S1130300636F6D6D616E64206D6F646500202020E5
S113031020733A202020537461636B2064756D70E0
S113032020666F72207461736B7300202020207626
S11303303A20202056657273696F6E20616E6420C6
S1130340736574757020696E666F726D6174696F20
S11303506E00202020206E3A20202053686F7720E2
S11303607468652074696D65207269676874206EAD
S11303706F77002020496E20636F6D6D616E64207D
S11303806D6F6465206F6E6C793A00202043746C45
S11303902D413A20456E74657220636F6D6D616EF8
S11303A064206D6F646500202043746C2D433A20F3
S11303B05265736574207468652041565200206844
S11303C0656C70004D453430352062617365207270
S11303D06164696F2070726F6772616D2056302E90
S11303E03420001B5B33306D001B5B34366D0049D9
S11303F06C6C6567616C207374617465212052654F
S113040073657474696E6720415652003A575446B6
S11304103F004578697420636F6D6D616E64206D73
S11304206F646500526573657474696E6720415624
S113043052005072657373204374726C2D412066B0
S11304406F7220636F6D6D616E64206D6F64650003
S1130450526573657474696E67004552524F522039
S1130460696E207461736B20004552524F522063B1
S113047072656174696E67207461736B20002C204F
S1130480737461636B20617420307800206372653B
S113049061746564005461736B20001B5B32326DC0
S11304A0005461736B3A20001B5B316D001B5B329F
S11304B0326D005461736B3A2049444C45001B5B18
S11304C0316D000909002F0049444C4509093009E0
S11304D02D0900092D2D2D2D00092D2D2D2D2D2D0E
S11304E02D2D2D2D002D2D2D2D09092D2D2D2D09D1
S11304F02D2D2D2D2D000952756E73000946726540
S1130500652F546F74616C004E616D6509095072FA
S1130510692E0953746174650009537461636B0037
S11305205461736B09092020092000090009002F78
S113053000090009001B5B32326D001B5B316D004A
S11305401B5B316D002020000E948014B61E112414
S11305501FBECFEFCDBFDFE3DEBF00E00CBF18BE90
S113056019BE1ABE1BBE10E2A0E0B0E2E6E0F4E45D
S113057000E00BBF02C007900D92A83CB107D9F769
S11305801BBE21E3A8ECB0E201C01D92AC36B20759
S1130590E1F712E0C7EAD2E000E006C021970109C2
S11305A0802FFE010E945621C63AD10780E0080739
S11305B0A9F70E94231E0C9401220C940000CF93EF
S11305C0DF9300D01F92CDB7DEB77C010E94581094
S11305D069837A838B839C83E0E8F6E08CE08283F2
S11305E082898360828B83898360838BE0E8F1E076
S11305F082E7808389E08087E0E0F9E088E683830E
S11306008FEF9FEF86A397A381E080830F2EA12C09
S1130610F9E0BF2EF02DF50100A111A10FB6F89459
S11306200F92C801880F991F880F991F880F991F6F
S1130630800F911F80935631909357310F900FBEC6
S11306400FB6F8940F92C801012E000CAA0BBB0B35
S1130650AC01BD01440F551F661F771F3A014B01C2
S1130660680E791E8A1E9B1EC401B30124E630E085
S113067040E050E00E9437212093583130935931A3
S11306800F900FBE0FB6F8940F92C8018C199D09F4
S1130690092E000CAA0BBB0BAC01BD01440F551F66
S11306A0661F771F840F951FA61FB71FAC01BD01DE
S11306B0440F551F661F771F440F551F661F771F72
S11306C0840F951FA61FB71F809354319093553103
S11306D00F900FBEF70186859785A089B189019691
S11306E0A11DB11D86879787A08BB18B41E050E097
S11306F060E070E0CE0101960E94F61168018BCF94
S11307000F931F93CF93DF93EC010E9493148AE01D
S113071090E288839983DF91CF911F910F9108957F
S1130720CF93DF9300D01F92CDB7DEB78C010E9428
S1130730581069837A838B839C83E0E8F6E083E036
S11307408283808B818BE0E8F1E080E7828389E01B
S11307508287E0E4F8E08AE6838380EA95E086A372
S113076097A381E080836894EE24E6F8FF24F3F8ED
S1130770F701A0A1B1A10FB6F8940F9224E630E0DE
S11307800E945F214B015C0199232CF4F3E08F0E4E
S1130790911CA11CB11CD501C401B595A7959795D1
S11307A08795B595A79597958795809352319093A2
S11307B053310F900FBEF80186859785A089B189C2
S11307C00196A11DB11D86879787A08BB18B44E646
S11307D050E060E070E0CE0101960E94F611C8CFAF
S11307E00F931F93CF93DF93EC010E94931482E144
S11307F090E288839983DF91CF911F910F9108959F
S1130800CF93DF9300D01F92CDB7DEB78C010E9447
S1130810581069837A838B839C83E0E6F6E081E059
S1130820828384E0828388E1808B828B0F2EF8E6BA
S1130830EF2EF6E0FF2EF02DF701808180FD10C031
S1130840F801C680D78066E170E2C6010E94C6192D
S113085061E0C6010E94441A66E00E94FD1913C0BB
S1130860F701808182FD0FC0F801C680D78062E263
S113087070E2C6010E94C61961E0C6010E94441AD2
S113088066E00E94FD19F80186859785A089B189E3
S11308900196A11DB11D86879787A08BB18B45E07A
S11308A050E060E070E0CE0101960E94F611C4CFE2
S11308B00F931F93CF93DF93EC010E94931483E370
S11308C090E288839983DF91CF911F910F910895CE
S11308D0CF93DF9300D000D0CDB7DEB73C010E94A8
S11308E0581069837A838B839C83F301FE968FE689
S11308F092E1A3E0BCE380839183A283B38381E08C
S113090090E0F30184AF95AF6894442441F8512CEE
S11309100F2EFFE32F2EF02D0F2EFCE33F2EF02D94
S1130920F30186859785A089B1890196A11DB11D22
S113093086879787A08BB18B428E538E168E178E27
S11309402F921F921F921F923F92F3E2FF9327ED83
S11309502F933AE03F930F2EFDEC8F2EFCEC9F2E4D
S1130960A92CFDE3BF2EF02D0F2EF4E1CF2EFEEACD
S1130970DF2EFFE8EF2EFFEBFF2EF02D04E11EEA41
S11309802FE83FE3B501A401CE0105960E949D0521
S1130990F301668D778D028D138D072E000C880B65
S11309A0990B0E94E31F6B017C01B801110F880BA6
S11309B0990B0E94E31FAB01BC0197018601CE0194
S11309C005960E94C4066B017C01F30124AD35AD8C
S11309D0868D978D820F931F868F978F10A611A6F1
S11309E060A571A5072E000C880B990B0E94E31FCC
S11309F09B01AC01C701B6010E94391F0E94AB1FC5
S1130A00F30164A375A364A175A1072E000C880BE0
S1130A10990B0E94E31FCDBFDEBF23E333E34BE812
S1130A2051E40E949320181634F421E130E0F301DC
S1130A3024A335A316C0F30164A175A1072E000CED
S1130A40880B990B0E94E31F23E333E34BE851EC3B
S1130A500E94341F88232CF42FEE3FEFF30124A3CC
S1130A6035A3F30116AA17AA60A571A506A917A9AB
S1130A70072E000C880B990B0E94E31F20E53AE631
S1130A8041EA57E40E9498206B017C01B801110FE0
S1130A90880B990B0E94E31F9B01AC01C701B601AF
S1130AA00E9498200E94AB1FF30162AB73AB46A96E
S1130AB057A9268D378D429FC001439F900D529FA9
S1130AC0900D112484AB95AB20A931A984A995A9D3
S1130AD0820F931F80AF91AF80AD91AD49972CF0F9
S1130AE028E130E020AF31AF0BC0F30180AD91AD10
S1130AF0883E9F4F2CF428EE3FEFF30120AF31AF37
S1130B0041E050E060E070E0CE0101960E94F611F1
S1130B10CE0105960E94040603CF0F931F93CF9333
S1130B20DF93EC010E9493148BE390E28883998312
S1130B30DF91CF911F910F9108952F923F924F9281
S1130B405F926F927F928F929F92AF92BF92CF9259
S1130B50DF92EF92FF920F931F93CF93DF9300D016
S1130B601F92CDB7DEB71C012A013B0109831A830A
S1130B702B833C8380E290E00E940D19FC014082AB
S1130B8051826282738289819A81AB81BC81848320
S1130B909583A683B783C086D186E286F38684864E
S1130BA09586A686B7864A8D5B8D6C8D7D8D408B30
S1130BB0518B628B738B8E8D9F8DA8A1B9A1848B71
S1130BC0958BA68BB78B108E118E128E138E148E6E
S1130BD0158E168E178ED101ED93FC932496CDBFFE
S1130BE0DEBFDF91CF911F910F91FF90EF90DF90C7
S1130BF0CF90BF90AF909F908F907F906F905F90B9
S1130C004F903F902F900895FC018081918100972F
S1130C1011F00E94101908954F925F926F927F9283
S1130C208F929F92AF92BF92CF92DF92EF92FF92F8
S1130C300F931F93CF93DF9300D000D0CDB7DEB7CF
S1130C408D839E83CB01BA01A90198010E94C71E1E
S1130C506B017C01ED81FE812485358546855785B0
S1130C600E94982069837A838B839C83ED81FE8123
S1130C704080518062807380A3019201C701B60154
S1130C800E949820ED81FE81248D358D468D578DEF
S1130C900E94C81E4B015C01ED81FE81648F758F3B
S1130CA0868F978F208D318D428D538DC701B6016C
S1130CB00E94C71EA30192010E94391FED81FE818B
S1130CC020893189428953890E9498202B013C0153
S1130CD0ED81FE812489358946895789C501B4018E
S1130CE00E94982029813A814B815C810E94C81E10
S1130CF09B01AC01C301B2010E94C81EB62EA72EEF
S1130D00982E892EED81FE817480658056804780FF
S1130D10272D362D452D542D0E9493201816B4F0FE
S1130D20ED81FE817084618452844384272D362DA5
S1130D30452D542D6B2D7A2D892D982D0E94341F0D
S1130D40882324F07B2C6A2C592C482CED81FE81BD
S1130D50C08ED18EE28EF38E672D762D852D942D47
S1130D602696CDBFDEBFDF91CF911F910F91FF90EB
S1130D70EF90DF90CF90BF90AF909F908F907F9037
S1130D806F905F904F9008950F931F93FC018081A3
S1130D9091810E940C061F910F9108950F931F9348
S1130DA0CF93DF93EC010E94931483E490E2888351
S1130DB09983DF91CF911F910F9108950F931F9302
S1130DC0CF93DF93EC016AE08E819F810E94FD192D
S1130DD08C0169EE73E00E94C6196AE0C8010E94A2
S1130DE0FD198C0163EE73E00E94C61967E0C80127
S1130DF00E94FD196AE08E819F810E94FD198C0179
S1130E0064EC73E00E94C6196AE0C8010E94FD19EF
S1130E108C016EEB73E00E94C61966E0C8010E9463
S1130E20FD196AE08E819F810E94FD198C0167EA99
S1130E3073E00E94C61966E0C8010E94FD196AE0C9
S1130E408E819F810E94FD198C016BE873E00E94E2
S1130E50C61966E0C8010E94FD196AE08E819F816F
S1130E600E94FD198C0163E773E00E94C61966E0D5
S1130E70C8010E94FD196AE08E819F810E94FD19BC
S1130E808C0162E573E00E94C61966E0C8010E9405
S1130E90FD196AE08E819F810E94FD198C016BE22D
S1130EA073E00E94C61966E0C8010E94FD196AE059
S1130EB08E819F810E94FD198C016DE073E00E9478
S1130EC0C61966E0C8010E94FD196AE08E819F81FF
S1130ED00E94FD198C0162EF72E00E94C61966E05F
S1130EE0C8010E94FD196AE08E819F810E94FD194C
S1130EF0EC0163EE72E00E94C61966E0CE010E9426
S1130F00FD19DF91CF911F910F910895AF92BF9278
S1130F10CF92DF92EF92FF920F931F93CF93DF93C1
S1130F2000D000D0CDB7DEB78C0119821A821B82A3
S1130F301C821D821E820E940B0A6C01CE01019646
S1130F400E9444185C0166E0F801868197810E9442
S1130F50FD196AE00E94FD197C0164EC72E00E94B4
S1130F60C6196AE0C7010E94FD197C0168EB72E0B2
S1130F700E94C61966E0C7010E94FD196AE00E943A
S1130F80FD197C0161EB72E00E94C619B501C7012D
S1130F900E94E8176AE00E94FD197C0163EA72E08E
S1130FA00E94C619B601C7010E945C1A6AE00E9439
S1130FB0FD197C0161EA72E00E94C6194FEF5FE0FF
S1130FC060E070E0C7010E94901AC0902808D09099
S1130FD029086AE0F801868197810E94FD197C0145
S1130FE066E972E00E94C619B601C7010E945C1A44
S1130FF066E00E94FD1966E00E94FD19F8018681F1
S113100097810E94A1162696CDBFDEBFDF91CF91B6
S11310101F910F91FF90EF90DF90CF90BF90AF9012
S11310200895CF93DF9300D000D0CDB7DEB78C0105
S113103019821A821B821C821D821E826AE0DC01D4
S113104016968D919C9117970E94FD197C0162E37D
S113105074E00E94C61966E0C7010E94FD19F801F8
S11310608485882321F0813009F45DC0D8C086814D
S11310709781DC01ED91FC910480F581E02D1995B7
S11310808823A9F1F80186819781DC01ED91FC9117
S11310900680F781E02D1995992781309105F9F0A3
S11310A0039709F0D8C06AE0F801868197810E940D
S11310B0FD198C0164E274E00E94C61966E0C8015F
S11310C00E94FD1993E088ED08B618BE84BF909382
S11310D080008091820081FDFCCF08BEFFCFC80153
S11310E00E94DE0661E0C8010E948F14B4C08AE544
S11310F091E30E945017882309F4ADC0D8011696D5
S1131100ED91FC9117970190F081E02DE280F3803E
S11311108AE591E30E943217682FF801868197814E
S1131120F701199598C086819781DC01ED91FC91B6
S11311300480F581E02D1995882309F48CC0F80109
S113114086819781DC01ED91FC910680F781E02D89
S113115019959C0133272836310559F13CF42B317C
S1131160310559F12536310541F13BC023373105AD
S1131170C1F02637310589F02E36310591F5CE01BF
S113118001960E944418BC01F801868197810E944F
S1131190E81766E00E94FD195EC0C8010E94860738
S11311A05AC0D80116968D919C9117970E94A81544
S11311B052C0C8010E94DE064EC06AE0F801868172
S11311C097810E94FD197C0162E174E00E94C619B6
S11311D066E0C7010E94FD1960E0C8010E948F14F7
S11311E03AC0F801A681B781ED91FC911197028074
S11311F0F381E02D682FCD0119956AE0D801169688
S11312008D919C9117970E94FD197C016CE074E00C
S11312100E94C61966E0C7010E94FD191CC06AE05D
S1131220F801868197810E94FD198C016FEE73E0AD
S11312300E94C61966E0C8010E94FD1993E088ED7A
S113124008B618BE84BF909380008091820081FD0F
S1131250FCCF08BEFFCFF80186859785A089B189A8
S11312600196A11DB11D86879787A08BB18B61E084
S113127070E080E090E00E946312F1CE0F931F9320
S1131280CF93DF93EC010E9452108091C82081110A
S11312901DC0ADECB0E2E1EDF0E2ED93FC931197EB
S11312A012961D921C921397A9ECB0E28FEF9FE067
S11312B012968D939C9313971D921C92119782837F
S11312C09383A083B18381E08093C820209709F49D
S11312D05FC09E012B5F3F4F2496CE3FDF4008F056
S11312E05AC0E091CD20F091CE20ADECB0E202C026
S11312F0DF01FC01828193818217930720F48081AE
S113130091810097A9F7C0E2E93CFC0709F446C0C3
S1131310CD91DC9111978E010B5F1F4F80819181DC
S11313208D939C9382819381821B930B8B309105C7
S113133010F1BF01620F731FDB0112968D939C9312
S113134013972283338312964D915C9113978DECFE
S113135090E201C0CD01EC01A881B98112962D91D2
S11313603C91139724173507A8F3EB01A883B9839D
S1131370DC016D937C938091002090910120228167
S11313803381821B930B809300209093012008C02B
S113139000E010E005C000E010E002C000E010E052
S11313A00E947411C801DF91CF911F910F9108958C
S11313B00F931F93CF93DF93009741F1EC018C01BE
S11313C0055011090E945210F80142815381ADEC7D
S11313D0B0E201C0DF01ED91FC91119722813381CC
S11313E024173507B8F32597E883F9830D931C93E5
S11313F020910020309101208A819B81820F931FCC
S113140080930020909301200E947411DF91CF916A
S11314101F910F91089580910020909101200895CB
S1131420FC010396818392834FEF5FEFBA014383FC
S1131430548365837683878390878187928710821C
S11314400895FC01128613860895CF93DF93FC015F
S1131450DB0121813281E9018C819D8114968D9378
S11314609C9315978181928116968D939C931797DF
S11314708C819D81EC016E837F83E9016C837D8384
S1131480618372831A96ED93FC931B9780818F5F1F
S11314908083DF91CF9108950F931F93CF93DF93B0
S11314A0EB01088119812A813B810F3F4FEF14071B
S11314B02407340731F4DC011996ED91FC911A9755
S11314C01FC0FC013396DC0117964D915C9118976F
S11314D0DA014D915D916D917C91041715072607F2
S11314E0370770F00480F581E02DA481B5814D911A
S11314F05D916D917C91041715072607370790F7C6
S1131500A481B581AC83BD831696CD93DC931797E4
S1131510EE83FF83C483D5838A879B87FC01208164
S11315202F5F2083DF91CF911F910F910895FC01CC
S1131530A481B5818681978116968D939C93179784
S1131540A681B7818481958114968D939C93159778
S1131550A285B38511968D919C911297E817F9078E
S113156031F48681978111968D939C9312971286FC
S113157013868C9181508C93089580936A31909353
S11315806B3131E1FC013083319722E220833197C2
S1131590A3E3A083319760833197708331971082DE
S11315A031971082319760E86083319710823197C8
S11315B0108231971082319762E06083319763E043
S11315C06083319764E06083319765E0608331978D
S11315D066E06083319767E06083319768E06083F9
S11315E0319769E06083319760E16083319730839C
S11315F0319732E13083319733E13083319734E1ED
S11316003083319735E13083319736E13083319738
S113161037E13083319738E13083319739E13083D2
S1131620319730E23083319731E230833197208330
S1131630319723E220833197408331975083319748
S113164026E22083319727E22083319728E2208302
S1131650319729E22083319720E32083319721E3D6
S11316602083899708958CE7809329088FEF8093CE
S1131670280881E08093000891E190930108809309
S11316800708A0913031B0913131CD91CDBFDD91BA
S1131690DEBFFF91EF91DF91CF91BF91AF919F9109
S11316A08F917F916F915F914F913F912F911F91F6
S11316B00F91FF90EF90DF90CF90BF90AF909F90ED
S11316C08F907F906F905F904F903F902F901F90DE
S11316D00F900CBE0F900BBE0F900FBE0F9008958D
S11316E008950F920FB6F8940F920BB60F920CB6A2
S11316F00F921F9211242F923F924F925F926F92FA
S11317007F928F929F92AF92BF92CF92DF92EF928D
S1131710FF920F931F932F933F934F935F936F9376
S11317207F938F939F93AF93BF93CF93DF93EF9365
S1131730FF93A0913031B09131310DB60D920EB6B8
S11317400D920E949112A0913031B0913131CD911E
S1131750CDBFDD91DEBFFF91EF91DF91CF91BF91BE
S1131760AF919F918F917F916F915F914F913F9135
S11317702F911F910F91FF90EF90DF90CF90BF902A
S1131780AF909F908F907F906F905F904F903F901D
S11317902F901F900F900CBE0F900BBE0F900FBE9A
S11317A00F9008950F920FB6F8940F920BB60F9204
S11317B00CB60F921F9211242F923F924F925F9278
S11317C06F927F928F929F92AF92BF92CF92DF924D
S11317D0EF92FF920F931F932F933F934F935F9337
S11317E06F937F938F939F93AF93BF93CF93DF9325
S11317F0EF93FF93A0913031B09131310DB60D923A
S11318000EB60D920E9473100E949112A091303175
S1131810B0913131CD91CDBFDD91DEBFFF91EF911C
S1131820DF91CF91BF91AF919F918F917F916F91F4
S11318305F914F913F912F911F910F91FF90EF90E6
S1131840DF90CF90BF90AF909F908F907F906F90DC
S11318505F904F903F902F901F900F900CBE0F9071
S11318600BBE0F900FBE0F9008950E94D20B1895D7
S1131870CF93DF93EC0188A181110BC088819981FA
S1131880892BE1F58A819B810E944C141A821B8268
S113189035C0411117C0482F50E08C819D810E94B2
S11318A0802128A18C819D81820F911D8C839D8331
S11318B02A813B818217930708F1888199818C835F
S11318C09D831CC0482F50E08E819F810E948021FF
S11318D088A190E09195819591092E813F81280FEF
S11318E0391F2E833F83488159812417350730F4EB
S11318F02A813B81820F931F8E839F838E8D8F5FFE
S11319008E8FDF91CF910895FC01808191810097A2
S1131910A1F040A150E026813781240F351F268392
S11319203783A281B3812A173B0710F086839783FC
S1131930CB01668177810E94802108950F931F93C4
S1131940CF93DF93EC010FB6F8940F928AA1181687
S1131950B4F48B89811105C012C08B89811104C034
S11319600EC08E010D5E1F4FC8010E941813811115
S11319700E94D5138AA181508AA3181674F38FEF9D
S11319808AA30F900FBE0FB6F8940F9289A1181670
S1131990B4F48885811105C012C08885811104C002
S11319A00EC08E01085F1F4FC8010E9418138111D9
S11319B00E94D51389A1815089A3181674F38FEF5F
S11319C089A30F900FBEDF91CF911F910F910895BE
S11319D01F93CF93DF93613059F0FC012389308545
S11319E031112CC011E0211110E0211128C001C0D7
S11319F011E0EC014881598128A130E06F8D629F8C
S1131A00C001639F900D1124BA01680F791F6A8386
S1131A107B831E8E4C835D83821B930B840F951FE7
S1131A208E839F838FEF89A38AA3CE0108960E9499
S1131A30100ACE0143960E94100A01C010E0812FC3
S1131A40DF91CF911F9108950F931F93CF93DF934D
S1131A50882301F1062F182F83E290E00E943E09AB
S1131A60EC01892BC9F0109FC001112401960E943A
S1131A703E0988839983892B39F01F8F08A361E07D
S1131A80CE010E94E80C08C0CE010E94D809C0E033
S1131A90D0E002C0C0E0D0E0CE01DF91CF911F9131
S1131AA00F910895AF92BF92CF92DF92EF92FF927F
S1131AB00F931F93CF93DF93CDB7DEB72997CDBF95
S1131AC0DEBF7C015B012E833F834887598710E08A
S1131AD06C0188E0C80ED11C0FB6F8940F92F70180
S1131AE0968D878D9817A8F4402FB501C7010E94E1
S1131AF0380CF7018389882341F0C70143960E947B
S1131B001813813011F40E94710B0F900FBE81E005
S1131B1056C08E819F81A885B985892B8A2B8B2BF2
S1131B2021F40F900FBE80E04AC0111105C0CE0110
S1131B3001960E94571311E00F900FBE0E9452109D
S1131B400FB6F8940F92F70181A18F3F09F411A207
S1131B50F70182A18F3F09F412A20F900FBEBE01BC
S1131B606A5F7F4FCE0101960E946813811121C0E4
S1131B700FB6F8940F92F701968D0F900FBE878DD4
S1131B80981311C04E815F8168857985C6010E94D2
S1131B90EE12C7010E949E0C0E94741181119CCF09
S1131BA00E94710B99CFC7010E949E0C0E94741170
S1131BB093CFC7010E949E0C0E94741180E0299665
S1131BC0CDBFDEBFDF91CF911F910F91FF90EF90BA
S1131BD0DF90CF90BF90AF900895AF92BF92CF9215
S1131BE0DF92EF92FF920F931F93CF93DF93CDB7C2
S1131BF0DEB72997CDBFDEBF7C015B012E833F8317
S1131C004887598710E06C0183E1C80ED11C0FB6D8
S1131C10F8940F92F701868D882399F1C680D780B6
S1131C20B501C7010E94840C01111AC0F701868D09
S1131C308150868F80819181892B29F40E94F2132F
S1131C40F70182839383F70180858823B1F0C7016C
S1131C5008960E941813813081F40E94710B0DC004
S1131C60F701C682D7828389882339F0C701439656
S1131C700E94181381110E94710B0F900FBE81E016
S1131C8062C08E819F81A885B985892B8A2B8B2B75
S1131C9021F40F900FBE80E056C0111105C0CE0193
S1131CA001960E94571311E00F900FBE0E9452102C
S1131CB00FB6F8940F92F70181A18F3F09F411A296
S1131CC0F70182A18F3F09F412A20F900FBEBE014B
S1131CD06A5F7F4FCE0101960E94681381112DC067
S1131CE00FB6F8940F92F701868D0F900FBE8111F5
S1131CF01EC080819181892B49F40FB6F8940F920C
S1131D00828193810E94F7130F900FBE4E815F81F1
S1131D1068857985C6010E94EE12C7010E949E0C57
S1131D200E947411811173CF0E94710B70CFC7018F
S1131D300E949E0C0E9474116ACFC7010E949E0CDF
S1131D400E94741180E02996CDBFDEBFDF91CF9150
S1131D501F910F91FF90EF90DF90CF90BF90AF90C5
S1131D6008950FB6F8940F92FC01868D0F900FBE64
S1131D700895C4E0D1E388818230E8F30E94710BB6
S1131D80FACFCF92DF92EF92FF926B017C01E09148
S1131D903031F091313162837383848395838091F0
S1131DA0D8309091D930A091DA30B091DB30C81698
S1131DB0D906EA06FB0668F460913031709131313E
S1131DC08091EA309091EB306E5F7F4F0E944C0A15
S1131DD021C060913031709131318091EC3090911B
S1131DE0ED306E5F7F4F0E944C0A809102209091EB
S1131DF00320A0910420B0910520C816D906EA0654
S1131E00FB0640F4C0920220D0920320E09204200A
S1131E10F0920520FF90EF90DF90CF9008954F92BD
S1131E205F926F927F928F929F92AF92BF92CF9266
S1131E30DF92EF92FF920F931F93CF93DF935C0196
S1131E404B013A01290188E290E00E943E09EC012D
S1131E50892B09F4D4C0C114D10409F0CCC0C30146
S1131E600E943E098B8F9C8F009721F4CE010E9423
S1131E70D809C5C0A30161E170E00E9489219301E2
S1131E80215031098B8D9C8D3C01620E731E4AE0FA
S1131E9050E0B401CE014D960E9490211EA2102F55
S1131EA0043008F013E01A8F1FA36E0122E0C20E63
S1131EB0D11CC6010E94210ACE010E960E94210A5D
S1131EC0CA87DB8784E090E0A0E0B0E0811B910941
S1131ED0A109B1098E879F87A88BB98BCE8BDF8B25
S1131EE0A201B501C3010E94BD0A88839983E1144C
S1131EF0F10419F0F701C083D1830FB6F8940F925F
S1131F008091DC308F5F8093DC3080913031909110
S1131F103131892B89F5C0933031D093313180919F
S1131F20DC308130C1F584E091E30E94100A8FE037
S1131F3091E30E94100A8AE191E30E94100A85E26B
S1131F4091E30E94100A89EF90E30E94100A8EEE3A
S1131F5090E30E94100A8FED90E30E94100A89EF2B
S1131F6090E38093EC309093ED308EEE90E3809389
S1131F70EA309093EB300FC08091D53081110BC0C3
S1131F80E0913031F0913131828D081720F0C09307
S1131F903031D09331318A8D9091D730981710F425
S1131FA08093D7309091D0309F5F9093D0309091B0
S1131FB0D630981710F48093D630FBE08F9FC00181
S1131FC01124B6018C5F9E4C0E94250A0F900FBE0F
S1131FD08091D530882359F0E0913031F09131313E
S1131FE0828D801730F40E94710B81E009C081E07A
S1131FF007C081E005C0CB8EDC8EC6013BCF8FEFDE
S1132000DF91CF911F910F91FF90EF90DF90CF90D0
S1132010BF90AF909F908F907F906F905F904F9004
S113202008950FB6F8940F92009721F480913031FF
S1132030909131310F900FBEFC01828D0895AF92C3
S1132040BF92CF92DF92EF92FF920F93A12CB12C0B
S1132050C12CD12C0F2EFDEDEF2EF0E3FF2EF02D31
S113206000E020E030E044E650E067E470E289EB11
S11320709EE00E940F0F813069F4F8948093D5306C
S11320801092D8301092D9301092DA301092DB309E
S11320900E94330B0F91FF90EF90DF90CF90BF9091
S11320A0AF9008958091D4308F5F8093D430089599
S11320B00FB6F8940F926091D8307091D930809116
S11320C0DA309091DB300F900FBE0895009721F421
S11320D080913031909131314D9608958091DD3069
S11320E09091DE300895FF920F931F93CF93DF9367
S11320F08091D4308111EDC08091D8309091D93045
S1132100A091DA30B091DB300196A11DB11D80930E
S1132110D8309093D930A093DA30B093DB308091EB
S1132120D8309091D930A091DA30B091DB30892B3E
S11321308A2B8B2BF1F58091EC309091ED3020912E
S1132140EA303091EB302093EC303093ED308093D3
S1132150EA309093EB308091D1308F5F8093D1300F
S1132160E091EC30F091ED30808181110CC08FEF63
S11321709FEFDC018093022090930320A09304201E
S1132180B093052016C0E091EC30F091ED3007805B
S1132190F085E02D0084F185E02D82819381A48176
S11321A0B5818093022090930320A0930420B093E0
S11321B005204091D8305091D9306091DA30709137
S11321C0DB308091022090910320A0910420B091F3
S11321D00520481759076A077B0708F47FC0E09178
S11321E0EC30F091ED3080818823F9F0E091EC300F
S11321F0F091ED300780F085E02DC085D1858A818E
S11322009B81AC81BD814091D8305091D93060918F
S1132210DA307091DB30481759076A077B0758F1A9
S11322200F2EFBE0FF2EF02D2FC08FEF9FEFDC0170
S11322308093022090930320A0930420B093052060
S11322404DC0E091EC30F091ED300780F085E02D49
S1132250C085D1858A819B81AC81BD814091D83074
S11322605091D9306091DA307091DB3048175907BA
S11322706A077B0748F48093022090930320A0937D
S11322800420B09305202AC08E010E5F1F4FC801A1
S11322900E94970A888D998D892B21F0CE010E9684
S11322A00E94970A8A8D9091D630981710F48093E3
S11322B0D630F89EC0011124B8018C5F9E4C0E9458
S11322C0250AE091EC30F091ED3080818111B9CF95
S11322D0ACCF8091D3308F5F8093D330DF91CF9197
S11322E01F910F91FF900895CF92DF92EF92FF928A
S11322F00F931F93CF93DF930FB6F8940F928091AF
S1132300D43081508093D4308091D430811160C016
S11323108091DC3081112CC05EC0D7011796ED91FD
S1132320FC911897C085D185CE010E960E94970A1C
S11323308E010E5F1F4FC8010E94970A8A8D9091EB
S1132340D630981710F48093D630D89EC00111244B
S1132350B8018C5F9E4C0E94250AE0913031F091C7
S113236031319A8D828D981770F0CC24C3940BC0B0
S1132370C12C0F2EFFEDEF2EF0E3FF2EF02D0F2ECC
S1132380FBE0DF2EF02DF70180818111C6CF809113
S1132390D330882381F08091D330882399F00E9430
S11323A073108091D33081508093D3308091D33097
S11323B08111F5CF07C0F1E0CF1621F08091D23022
S11323C0813041F41092D2300E94710B81E003C03D
S11323D080E001C080E00F900FBEDF91CF911F918C
S11323E00F91FF90EF90DF90CF900895CF92DF92FE
S11323F0EF92FF92CF93DF93EC016A017B010E947D
S1132400521088819981AA81BB81C80ED91EEA1E07
S1132410FB1E4091D8305091D9306091DA307091E0
S1132420DB30481759076A077B07B8F4C816D90682
S1132430EA06FB06E0F58091D8309091D930A0915E
S1132440DA30B091DB30C882D982EA82FB828C1503
S11324509D05AE05BF05F8F413C0C816D906EA06F3
S1132460FB0600F18091D8309091D930A091DA30F8
S1132470B091DB308C159D05AE05BF0598F017C0F3
S1132480809130319091313102960E94970AC701B0
S1132490B6010E94C10E0E94741181110DC00E94E8
S11324A0710B0AC0C882D982EA82FB82E9CFC88252
S11324B0D982EA82FB82EFCFDF91CF91FF90EF9038
S11324C0DF90CF900895CF92DF92EF92FF926B014D
S11324D07C01672B682B692BE9F00E9452108091D4
S11324E0D8309091D930A091DA30B091DB30C80E59
S11324F0D91EEA1EFB1E8091303190913131029633
S11325000E94970AC701B6010E94C10E0E9474116D
S1132510811102C00E94710BFF90EF90DF90CF9069
S113252008958091D43081110CC0E091D6304BE0F5
S1132530E49FF0011124EC5FFE4C8081882329F094
S113254014C081E08093D23008959BE08091D6300E
S113255081508093D630E091D6309E9FF0011124B3
S1132560EC5FFE4C8081882389F38091D630282F3C
S113257030E04BE0849FC0011124DC01AC5FBE4C11
S11325801196ED91FC9112970480F581E02D11963E
S1132590ED93FC931297895F9E4CE817F90761F459
S11325A0848195814BE0429FF001439FF00D1124FB
S11325B0EC5FFE4C818392838BE0829FF001839FCA
S11325C0F00D1124EC5FFE4C0180F281E02D80853A
S11325D0918580933031909331310895CF92DF9279
S11325E0EF92FF926A017B01609130317091313139
S11325F0625F7F4F0E944C0A80913031909131315B
S113260002960E94970A8091D8309091D930A09177
S1132610DA30B091DB30BC01CD016C0D7D1D8E1D17
S11326209F1D0E94C10EFF90EF90DF90CF90089500
S11326300F931F93CF93DF93DC011796ED91FC91D9
S11326401897C085D1858E01025F1F4FC8010E9473
S1132650970A8091D430811116C00C501109C80119
S11326600E94970A8A8D9091D630981710F480931F
S1132670D630BBE08B9FC0011124B8018C5F9E4C07
S11326800E94250A05C0B8018FED90E30E94250A37
S1132690E0913031F091313181E02A8D928D29170A
S11326A008F480E0DF91CF911F910F91089520915C
S11326B0D130FC0120834091D8305091D9306091C1
S11326C0DA307091DB3041835283638374830895DD
S11326D08F929F92AF92BF92CF92DF92EF92FF922E
S11326E00F931F93CF93DF93FC010FB6F8940F92CF
S11326F08091D1309081981789F08091D830909151
S1132700D930A091DA30B091DB300181128123817C
S1132710348180179107A207B307A8F58091D830B8
S11327209091D930A091DA30B091DB30C180D28061
S1132730E380F480EB01088119812A813B818C19A3
S11327409D09AE09BF0980179107A207B307E8F4F2
S1132750CF018090D8309090D930A090DA30B090EA
S1132760DB30B501A4014C195D096E097F09041B16
S1132770150B260B370B088319832A833B830E948E
S1132780571380E003C081E001C081E00F900FBEC9
S1132790DF91CF911F910F91FF90EF90DF90CF9039
S11327A0BF90AF909F908F90089581E08093D23036
S11327B00895009721F48091303190913131DC01FA
S11327C05B96ED91FC915C978081813141F4319667
S11327D080E090E0019621912131E1F3089580E0B9
S11327E090E00895809130319091313108950F93A4
S11327F01F93CF93DF93FC01228DA0913031B091D0
S113280031315A968C91281708F041C0A09130318B
S1132810B09131315A963C9184E090E0A0E0B0E070
S1132820831B9109A109B10986879787A08BB18B76
S11328308BE0289F900111242C5F3E4C8485958564
S113284082179307E9F48F01EF012296CE010E94CB
S1132850970AE0913031F0913131828DF801828F05
S11328609091D630981710F48093D630FBE08F9F68
S1132870C0011124BE018C5F9E4C0E94250A07C032
S1132880A0913031B09131315A968C91828FDF9181
S1132890CF911F910F9108950F931F93CF93DF93BF
S11328A0009749F1FC01328D27A1321721F1EC0187
S11328B08C010E5F1F4FC8010E94970A8FA18A8F57
S11328C044E050E060E070E0481B5109610971097F
S11328D04E875F87688B798B9091D630981710F468
S11328E08093D630FBE08F9FC0011124B8018C5F28
S11328F09E4C0E94250ADF91CF911F910F9108955C
S1132900EC01E881F9810190F081E02D19951A829A
S11329101B826FEF7FEFCB010E946312FACFFC01A1
S11329206487658708954F925F926F927F928F922A
S11329309F92AF92BF92CF92DF92EF92FF920F934A
S11329401F93CF93DF93CDB7DEB72A97CDBFDEBFFA
S11329504C012901380180E590E2F40180839183E0
S1132960FB018081882369F0DE011196319690E0A5
S113297002C0993039F09F5F8D9381918111F9CF15
S113298001C090E0E1E0F0E0EC0FFD1FE90FF11D64
S113299010827401F2E0EF0EF11CA12CB12CC12CB9
S11329A0D12C042F9401A201BE016F5F7F4F84EAF2
S11329B092E00E940F0FF40166827782408651866E
S11329C020913231309133312483358380923231F6
S11329D0909233311486158640906A3150906B3151
S11329E0FFEF4F1A5F0A40926A3150926B31F40143
S11329F04286538616861786108A118A61147104DA
S1132A0009F444C0813079F56AE0C3010E94FD19DC
S1132A107C0165E974E00E94C619BE016F5F7F4FB7
S1132A20C7010E94C6196AE0C7010E94FD197C0112
S1132A306CE874E00E94C6196AE0C7010E94FD199F
S1132A407C016EE774E00E94C61963E0C7010E942E
S1132A50FD19B2010E945C1A62E00E94FD1966E051
S1132A600E94FD1913C06AE0C3010E94FD194C01C4
S1132A7069E674E00E94C619BE016F5F7F4FC4010E
S1132A800E94C61966E0C4010E94FD192A96CDBFB2
S1132A90DEBFDF91CF911F910F91FF90EF90DF90F8
S1132AA0CF90BF90AF909F908F907F906F905F90EA
S1132AB04F900895CF92DF92EF92FF920F931F935E
S1132AC0CF93DF93EC017B018A819B810E94661086
S1132AD06C016AE0C7010E94FD198C0168EA74E088
S1132AE00E94C6196AE0C8010E94FD198C0161EABE
S1132AF074E00E94C619B601C8010E94C6196AE0B2
S1132B00C8010E94FD198C016BE974E00E94C6198A
S1132B1066E0C8010E94FD198A859B85E885F985D0
S1132B2001E121E0A701BC018E1B9F0B0E945C18F0
S1132B308C819D81009719F0B7010E945A15DF918D
S1132B40CF911F910F91FF90EF90DF90CF90089558
S1132B500F931F93CF93DF93EC01809132319091C7
S1132B603331009719F0BE010E945A156AE0CE0174
S1132B700E94FD198C016EEB74E00E94C6196AE094
S1132B80C8010E94FD198C0163EB74E00E94C61910
S1132B906AE0C8010E94FD198C016DEA74E00E948C
S1132BA0C61966E0C8010E94FD1980916A319091AE
S1132BB06B31BC016F5F7F4F01E121E0AE018356B1
S1132BC091090E945C18DF91CF911F910F91089594
S1132BD08F929F92AF92BF92CF92DF92EF92FF9229
S1132BE00F931F93CF93DF93EC018B018A819B8119
S1132BF00E946610BC01C8010E94C619D801ED915B
S1132C00FC910280F381E02D69E0C80119958A8165
S1132C109B810E946610FC0101900020E9F7319726
S1132C20E81BF90B389748F4D801ED91FC91028028
S1132C30F381E02D69E0C8011995CE84DF84E8882A
S1132C40F988A884B9848A819B810E94D913982E1B
S1132C508C848A819B810E941110682FC8010E9474
S1132C60D21A6AE00E94FD19EC0163E375E00E9448
S1132C70C619682DCE010E94D21A6AE00E94FD197D
S1132C80EC0161E375E00E94C619692DCE010E9432
S1132C90D21A6AE00E94FD19EC016FE275E00E940D
S1132CA0C619B501CE010E945C1A6AE00E94FD19A2
S1132CB0EC016DE275E00E94C6196AE0CE010E9443
S1132CC0FD19EC016BE275E00E94C619B701A6017B
S1132CD0CE010E94901ADF91CF911F910F91FF9026
S1132CE0EF90DF90CF90BF90AF909F908F9008951A
S1132CF0CF93DF93EC01CB01DB01ED91FC910280DA
S1132D00F381E02DBE011995CE01DF91CF91089595
S1132D100F931F93CF93DF93EC018B01BC01C80188
S1132D200E94781666E00E94FD198C819D810097AF
S1132D3019F0B8010E948816DF91CF911F910F916D
S1132D4008950F931F93CF93DF93EC016AE00E94E1
S1132D50FD198C0160E275E00E94C6196AE0C801A1
S1132D600E94FD198C0169E175E00E94C61966E0B4
S1132D70C8010E94FD196AE0CE010E94FD198C0170
S1132D8068E075E00E94C6196AE0C8010E94FD1956
S1132D908C016CEF74E00E94C6196AE0C8010E94BD
S1132DA0FD198C0166EF74E00E94C61966E0C80143
S1132DB00E94FD196AE0CE010E94FD198C0165EEA6
S1132DC074E00E94C6196AE0C8010E94FD198C01D2
S1132DD069ED74E00E94C6196AE0C8010E94FD19F9
S1132DE08C0163ED74E00E94C61966E0C8010E947C
S1132DF0FD198091323190913331009719F0BE0161
S1132E000E9488160E946E100E94D913182F6AE03F
S1132E10CE010E94FD19EC0168EC74E00E94C61911
S1132E20612FCE010E94D21A6AE00E94FD19EC01C2
S1132E3066EC74E00E94C61964E670E0CE010E945C
S1132E405C1A6AE00E94FD19EC0163EC74E00E94D4
S1132E50C61966E0CE010E94FD19DF91CF911F9142
S1132E600F9108950F93CF93DF931F92CDB7DEB7E1
S1132E7000E02FEF3FEFA901BE016F5F7F4FFC0120
S1132E80808591850E94ED0D813019F4898190E04F
S1132E9002C08FEF9FEF0F90DF91CF910F910895B4
S1132EA0FC01808591850E94B10E91E0811101C0E1
S1132EB090E0892F08950F93CF93DF931F92CDB79E
S1132EC0DEB76983FC01228533854485558500E09E
S1132ED0BE016F5F7F4F808591850E94520D91E006
S1132EE0811101C090E0892F0F90DF91CF910F9154
S1132EF008958F929F92BF92CF92DF92EF92FF92AA
S1132F000F931F93CF93DF93EC01B62E4A01680110
S1132F1079010E94B81988E590E2888399838E86A6
S1132F209F8640E061E08B2D0E94240D888799875D
S1132F30CA86DB86EC86FD86DF91CF911F910F91C7
S1132F40FF90EF90DF90CF90BF909F908F90089567
S1132F50CF92DF92EF92FF92CF93DF93EC016881DF
S1132F6079818A819B810F2EF8EECF2EF3E0DF2E3C
S1132F70E12CF12CF02DA70196010E9415219B0153
S1132F80AC0160E472E48FE090E00E940521A701A7
S1132F9096010E94152169017A01AC81BD8120E46A
S1132FA032E44FE050E00E94662120E038E448EE2D
S1132FB051E00E941521C701B601620F731F841FDF
S1132FC0951FDF91CF91FF90EF90DF90CF90089500
S1132FD0CF92DF92EF92FF920F931F93CF93DF93E1
S1132FE0CDB7DEB72F97CDBFDEBF6C018B01DB0100
S1132FF06D917D918D919C9128EE33E040E050E0FD
S11330000E941521BA01A901C6010E94901AD60195
S1133010ED91FC910280F381E02D6EE2C6011995D9
S1133020C8010E94A8178E01095F1F4FFE01319647
S11330307F012AE030E040E050E00E943721E62F93
S1133040288739874A875B87688579858A859B8540
S113305020E32E0FD8012E938D01AE15BF0549F73D
S11330601F82BE016F5F7F4FC6010E94C619C60151
S11330702F96CDBFDEBFDF91CF911F910F91FF90AF
S1133080EF90DF90CF900895CF93DF93EC010FB6CC
S1133090F8940F9280912008909121088C839D834D
S11330A00E945810688379838A839B830F900FBE94
S11330B0CE01DF91CF9108955F926F927F928F92AC
S11330C09F92AF92BF92CF92DF92EF92FF920F93B3
S11330D01F93CF93DF935C014B017A01122F702E63
S11330E063E0CA010E94FD19A814B90408F07DC068
S11330F0650184E1C80ED11C00E06A2C5B2CB5018B
S1133100C7010E945C1A6AE00E94FD1965E475E03B
S11331100E94C619112309F46DC0002309F46AC082
S11331206AE0C7010E94FD1960E475E00E94C619B7
S113313061C0112371F001110CC08881871549F019
S11331406AE0C7010E94FD196BE375E00E94C6198D
S113315001E06991C7010E94D21ADC01ED91FC9152
S11331600280F381E02D60E21995CC16DD0609F7A3
S1133170112389F06AE0C7010E94FD19EC0165E39F
S113318075E00E94C619E881F9810280F381E02D7F
S113319060E2CE011995C62DD52D699180EE860F7A
S11331A08F3548F4D701ED91FC910280F381E02D35
S11331B0C701199509C0D701ED91FC910280F381F3
S11331C0E02D6EE2C7011995CC16DD0631F7B4E1A6
S11331D0AB0EB11C66E0C7010E94FD1984E1C80E64
S11331E0D11CA814B90408F488CF62E0C7010E9476
S11331F0FD1903C0C62DD52D9CCFDF91CF911F9112
S11332000F91FF90EF90DF90CF90BF90AF909F9081
S11332108F907F906F905F9008950E943E0908956B
S1133220009711F00E94D80908950E943E0908955C
S11332300895CF93DF93FC01DA01403A68E0560722
S113324049F480E496E08283938382E0848383E07C
S1133250858332C0403B78E0570749F480E496E028
S11332608283938386E0848387E0858325C0403A04
S113327089E0580749F480E696E08283938382E0EC
S1133280848383E0858318C0403B69E0560749F492
S113329080E696E08283938386E0848387E0858357
S11332A00BC0403A5A4041F480E896E0828393830D
S11332B082E0848383E08583A683B783CD0101966E
S11332C0808791870396828793872581C281D381E2
S11332D04C8181E090E0BC0102C0660F771F2A9503
S11332E0E2F79B01242B2C832581C281D381488161
S11332F0BC0102C0660F771F2A95E2F79B01242BBD
S113330028833481C281D381288102C0880F991F08
S11333103A95E2F7809590958223888380E113960D
S11333208C93139783E015968C93159780EF1796DB
S11333308C93179781E216968C93169788E11496CE
S11333408C9380E8858780E4868780E28487068082
S1133350F781E02D80818081DF91CF91089581E014
S1133360089580E090E0089580E008950895089518
S1133370FC0188E690E2808391838AE08283138251
S113338083E0858314821682178208950F931F9316
S1133390CF93DF938C01FB01DC0114968C91811196
S11333A004C06081611117C023C0D80114961C9217
S11333B0EB01219664916623D9F0D801ED91FC913B
S11333C00280F381E02DC8011995FE0164912196D4
S11333D06111F3CF0DC0EF012196D801ED91FC915D
S11333E00280F381E02DC801199569916111F5CF2F
S11333F0DF91CF911F910F910895CF93DF93EC014B
S1133400862F90E08B309105D8F5FC018827E25097
S1133410FF4F8F4F0C94562182E08A8331C088E09D
S11334208A832EC08AE08A832BC080E18A8328C0E5
S113343081E08B8325C01B8223C0E881F98102804F
S1133440F381E02D6DE0CE011995E881F9810280C8
S1133450F381E02D6AE0CE01199512C0E881F9816B
S11334600284F385E02DCE0119950AC0E881F98123
S11334700084F185E02DCE01199502C081E08C8392
S1133480CE01DF91CF910895CF93DF93EC016623B2
S113349041F0E881F9810280F381E02D64E519951A
S11334A007C0E881F9810280F381E02D66E4199573
S11334B0CE01DF91CF910895FF920F931F93CF9385
S11334C0DF93CDB7DEB76197CDBFDEBF8C01F62E9B
S11334D0972FF8014281403121F0483011F04230F9
S11334E041F4692FC8010E94D21A6F2D0E94D21A8A
S11334F00DC050E0BE016F5F7F4F8F2D0E94CC2125
S1133500BE016F5F7F4FC8010E94C619C801619652
S1133510CDBFDEBFDF91CF911F910F91FF90089532
S1133520DF92EF92FF920F931F93CF93DF93CDB768
S1133530DEB7A197CDBFDEBF8C01D42EE52EF62ECB
S1133540972FF8012281203121F0283011F0223008
S113355071F4692FC8010E94D21A6F2D0E94D21AE9
S11335606E2D0E94D21A6D2D0E94D21A0FC030E027
S1133570AE014F5F5F4F6D2D7E2D8F2D0E949F21D9
S1133580BE016F5F7F4FC8010E94C619C801A19692
S1133590CDBFDEBFDF91CF911F910F91FF90EF90D0
S11335A0DF900895CF92DF92EF92FF920F931F93D3
S11335B0CF93DF93CDB7DEB72997CDBFDEBF8C01A4
S11335C0E62EDC0113968C911397882341F0ED913C
S11335D0FC910280F381E02DC801199556C0F801D1
S11335E04281423019F56894CC24C3F8D12C6894F4
S11335F0FF24F7F88E2D8F2151F0D801ED91FC9125
S11336000280F381E02D61E3C801199509C0D80156
S1133610ED91FC910280F381E02D60E3C8011995DE
S1133620F694B1E0CB1AD10829F72FC04031F9F450
S113363062956F700190F081E02D0280F381E02D9E
S11336406A3010F0695C01C0605DC80119956E2D87
S11336506F70D801ED91FC910280F381E02D6A3006
S113366010F0695C01C0605DC80119950EC050E09E
S1133670BE016F5F7F4F8E2D90E00E94CC21BE0172
S11336806F5F7F4FC8010E94C619C8012996CDBF3C
S1133690DEBFDF91CF911F910F91FF90EF90DF90EC
S11336A0CF900895DC015096ED91FC915197808163
S11336B054964C915497842329F009C02150310920
S11336C019F412C021E23EE490819423B9F390816D
S11336D056968C915697892B80831E96ED91FC917A
S11336E01F97608381E0089580E00895CF93DF936E
S11336F0FC01C18DD28D28813981A38DB48D4D916A
S11337005C9124173507E9F3A789B08D0D90BC911E
S1133710A02DA20FB31F8C912F5F3F4F28833983B5
S11337202436310528F0018CF28DE02D10821182AF
S113373090E0DF91CF910895CF93DF93EC01A98DB1
S1133740BA8DEB8DFC8D81E04D915C9120813181AE
S11337504217530709F480E0DF91CF910895DC010B
S1133760ED91FC910280F381E02D6CE019950895B0
S1133770EF92FF920F931F93CF93DF93EC017B01A2
S11337808A010E94B819A801B701CE0108960E94C7
S1133790191988E790E288839983003A88E018072A
S11337A069F480E591E38F8B988F86E491E3898FA8
S11337B09A8F8CE391E38B8F9C8F42C0003BE8E0AF
S11337C01E0769F48EE491E38F8B988F84E491E370
S11337D0898F9A8F8AE391E38B8F9C8F31C0003A53
S11337E0F9E01F0769F48CE491E38F8B988F82E4EE
S11337F091E3898F9A8F88E391E38B8F9C8F20C00C
S1133800003B89E0180769F48AE491E38F8B988F71
S113381080E491E3898F9A8F86E391E38B8F9C8F69
S11338200FC0003A1A4061F488E491E38F8B988FBB
S11338308EE391E3898F9A8F84E391E38B8F9C8F3E
S11338400F89188D84E690E00E941519F801808391
S11338509183E98DFA8D10821182EB8DFC8D10829B
S11338601182DF91CF911F910F91FF90EF900895F6
S11338701F920F920FB60F92112408B60F9218BE22
S11338800BB60F921BBE2F933F938F939F93EF938F
S1133890FF932091A008E0915031F0915131809133
S11338A03C3190913D31E80FF91F208380913C31E8
S11338B090913D3101968436910560F480933C31BA
S11338C090933D31209146313091473182179307CF
S11338D0F1F40CC010923C3110923D31809146318C
S11338E0909147311816190691F40EC0019684364A
S11338F0910528F4809346319093473108C0109283
S113390046311092473103C081E090E0F3CFFF913C
S1133910EF919F918F913F912F910F900BBE0F903C
S113392008BE0F900FBE0F901F9018951F920F9214
S11339300FB60F92112408B60F9218BE0BB60F9251
S11339401BBE2F933F938F939F93EF93FF932091ED
S1133950B008E0914E31F0914F3180913A3190911D
S11339603B31E80FF91F208380913A3190913B312C
S113397001968436910560F480933A3190933B31FB
S1133980209144313091453182179307F1F40CC0F2
S113399010923A3110923B318091443190914531EB
S11339A01816190691F40EC001968436910528F470
S11339B0809344319093453108C010924431109261
S11339C0453103C081E090E0F3CFFF91EF919F91E7
S11339D08F913F912F910F900BBE0F9008BE0F90C7
S11339E00FBE0F901F9018951F920F920FB60F9253
S11339F0112408B60F9218BE0BB60F921BBE2F935C
S1133A003F938F939F93EF93FF932091A009E091AD
S1133A104C31F0914D3180913C3190913D31E80F22
S1133A20F91F208380913831909139310196843681
S1133A30910560F48093383190933931209142316B
S1133A403091433182179307F1F40CC0109238314E
S1133A5010923931809142319091433118161906F0
S1133A6091F40EC001968436910528F48093423176
S1133A709093433108C0109242311092433103C0F5
S1133A8081E090E0F3CFFF91EF919F918F913F916F
S1133A902F910F900BBE0F9008BE0F900FBE0F908A
S1133AA01F9018951F920F920FB60F92112408B60B
S1133AB00F9218BE0BB60F921BBE2F933F938F939A
S1133AC09F93EF93FF932091B009E0914A31F091D5
S1133AD04B318091363190913731E80FF91F2083B3
S1133AE0809136319091373101968436910560F496
S1133AF08093363190933731209140313091413168
S1133B0082179307F1F40CC01092363110923731BA
S1133B1080914031909141311816190691F40EC0EC
S1133B2001968436910528F4809340319093413175
S1133B3008C0109240311092413103C081E090E0FE
S1133B40F3CFFF91EF919F918F913F912F910F9020
S1133B500BBE0F9008BE0F900FBE0F901F901895CC
S1133B601F920F920FB60F92112408B60F9218BE2F
S1133B700BB60F921BBE2F933F938F939F93EF939C
S1133B80FF932091A00AE0914831F091493180914E
S1133B90343190913531E80FF91F2083809134310D
S1133BA09091353101968436910560F480933431D7
S1133BB09093353120913E3130913F3182179307F4
S1133BC0F1F40CC0109234311092353180913E31B1
S1133BD090913F311816190691F40EC0019684365F
S1133BE0910528F480933E3190933F3108C01092A0
S1133BF03E3110923F3103C081E090E0F3CFFF915A
S1133C00EF919F918F913F912F910F900BBE0F9049
S1133C1008BE0F900FBE0F901F9018950F93CF936F
S1133C20DF931F92CDB7DEB72FB72983F8941BBE5D
S1133C30FC0108ED04BF608389818FBF0F90DF9181
S1133C40CF910F9108950F931F93CF93DF93CDB727
S1133C50DEB76D97CDBFDEBFE0E6F6E080E181839D
S1133C6090E2918390E491838583F894E0E5F0E019
S1133C70808182608083818181FFFDCF60914000DB
S1133C80687F616080E490E00E940E1EE0E5F0E051
S1133C9080818E7F80839DEF88ED08B618BE84BF37
S1133CA09093800008BE40EB58E060E070E0CE01E5
S1133CB001960E94B81B67E0CE0101960E94FD198F
S1133CC08C0164E870E20E94C61966E0C8010E9493
S1133CD0FD1966E00E94FD1982E190E00E940D1931
S1133CE08E010F5F1F4F24E031E040E063EA70E291
S1133CF00E94CE0682E190E00E940D1924E031E09A
S1133D0042E06BEA70E20E94800382E190E00E944C
S1133D100D1924E031E043E062EB70E20E94F0030D
S1133D2082E190E00E940D1924E031E044E069EB67
S1133D3070E20E94580482E490E00E940D1924E08D
S1133D4031E041E062EC70E20E948D0587E08093EF
S1133D50A20078940E941F1080E090E06D96CDBF81
S1133D60DEBFDF91CF911F910F9108950F931F93A1
S1133D700AE010E020E030E040E050E060E270E073
S1133D808AE591E30E9479171F910F910895505885
S1133D90BB27AA270E94DF1E0C9459200E944B20A7
S1133DA038F00E94522020F039F49F3F19F426F491
S1133DB00C9448200EF4E095E7FB0C944220E92F84
S1133DC00E946A2058F3BA1762077307840795079D
S1133DD020F079F4A6F50C948C200EF4E0950B2ECB
S1133DE0BA2FA02D0B01B90190010C01CA01A00149
S1133DF01124FF27591B99F0593F50F4503E68F1A4
S1133E001A16F040A22F232F342F4427585FF3CFE4
S1133E10469537952795A795F0405395C9F77EF4B5
S1133E201F16BA0B620B730B840BBAF09150A1F0FE
S1133E30FF0FBB1F661F771F881FC2F70EC0BA0F84
S1133E40621F731F841F48F4879577956795B7950C
S1133E50F7959E3F08F0B0CF9395880F08F0992707
S1133E60EE0F9795879508950E941E2008F481E02F
S1133E7008950E944D1F0C9459200E94522058F01E
S1133E800E944B2040F029F45F3F29F00C9442201B
S1133E9051110C948D200C9448200E946A2068F3E0
S1133EA09923B1F3552391F3951B550BBB27AA27EF
S1133EB062177307840738F09F5F5F4F220F331F29
S1133EC0441FAA1FA9F335D00E2E3AF0E0E832D0F1
S1133ED091505040E695001CCAF72BD0FE2F29D0F4
S1133EE0660F771F881FBB1F261737074807AB07C6
S1133EF0B0E809F0BB0B802DBF01FF2793585F4F3B
S1133F003AF09E3F510578F00C9442200C948D2099
S1133F105F3FE4F3983ED4F3869577956795B7951C
S1133F20F7959F5FC9F7880F911D9695879597F927
S1133F300895E1E0660F771F881FBB1F62177307A0
S1133F408407BA0720F0621B730B840BBA0BEE1FB5
S1133F5088F7E09508950E94B21F6894B1110C94FB
S1133F608D2008950E94722088F09F5798F0B92FF1
S1133F709927B751B0F0E1F0660F771F881F991F9A
S1133F801AF0BA95C9F714C0B13091F00E948C2090
S1133F90B1E008950C948C20672F782F8827B85FA0
S1133FA039F0B93FCCF3869577956795B395D9F7F2
S1133FB03EF490958095709561957F4F8F4F9F4FFC
S1133FC00895E89409C097FB3EF490958095709508
S1133FD061957F4F8F4F9F4F9923A9F0F92F96E951
S1133FE0BB279395F695879577956795B795F111C6
S1133FF0F8CFFAF4BB0F11F460FF1BC06F5F7F4F63
S11340008F4F9F4F16C0882311F096E911C0772374
S113401021F09EE8872F762F05C0662371F096E87D
S1134020862F70E060E02AF09A95660F771F881F4C
S1134030DAF7880F9695879597F90895990F0008F0
S1134040550FAA0BE0E8FEEF16161706E807F90766
S1134050C0F012161306E407F50798F0621B730B01
S1134060840B950B39F40A2661F0232B242B252B82
S113407021F408950A2609F4A140A6958FEF811D25
S1134080811D089597F99F6780E870E060E00895C6
S11340909FEF80EC089500240A941616170618065C
S11340A00906089500240A94121613061406050638
S11340B00895092E0394000C11F4882352F0BB0FC9
S11340C040F4BF2B11F460FF04C06F5F7F4F8F4F2C
S11340D09F4F089557FD9058440F551F59F05F3F67
S11340E071F04795880F97FB991F61F09F3F79F016
S11340F087950895121613061406551FF2CF469598
S1134100F1DF08C0161617061806991FF1CF869519
S11341107105610508940895E894BB2766277727FD
S1134120CB0197F908950E941E2008F48FEF08959B
S11341300E94AB200C9459200E944B2038F00E941E
S1134140522020F0952311F00C9442200C94482026
S113415011240C948D200E946A2070F3959FC1F362
S1134160950F50E0551F629FF001729FBB27F00D21
S1134170B11D639FAA27F00DB11DAA1F649F662776
S1134180B00DA11D661F829F2227B00DA11D621FC5
S1134190739FB00DA11D621F839FA00D611D221F7F
S11341A0749F3327A00D611D231F849F600D211D63
S11341B0822F762F6A2F11249F5750409AF0F1F0E6
S11341C088234AF0EE0FFF1FBB1F661F771F881F4F
S11341D091505040A9F79E3F510580F00C94422025
S11341E00C948D205F3FE4F3983ED4F38695779545
S11341F06795B795F795E7959F5FC1F7FE2B880FF5
S1134200911D9695879597F90895DB018F939F9358
S11342100E946621BF91AF91A29F800D911DA39F23
S1134220900DB29F900D11240895A1E21A2EAA1B9D
S1134230BB1BFD010DC0AA1FBB1FEE1FFF1FA21752
S1134240B307E407F50720F0A21BB30BE40BF50B4F
S1134250661F771F881F991F1A9469F760957095D8
S1134260809590959B01AC01BD01CF010895052E69
S113427097FB1EF400940E944E2157FD07D00E9424
S1134280152107FC03D04EF40C944E215095409513
S1134290309521953F4F4F4F5F4F089590958095EE
S11342A0709561957F4F8F4F9F4F0895EE0FFF1FBD
S11342B0881F8BBF0790F691E02D1BBE19940E94B6
S11342C07121B7FF0895821B930B08950E947121F9
S11342D0A59F900DB49F900DA49F800D911D112456
S11342E00895A29FB001B39FC001A39F700D811DCB
S11342F01124911DB29F700D811D1124911D0895EB
S1134300FB01DC0102C001900D9241505040D8F7EE
S11343100895DC0101C06D9341505040E0F70895C9
S1134320FB01DC014150504048F001900D92002007
S1134330C9F701C01D9241505040E0F7089525325D
S1134340310520F4223010F00C94AA21FA011082D5
S1134350CA010895BB27FA01A62F621771058105CA
S11343609105330B30FB66F0AA27660F771F881F71
S1134370991FAA1FA21710F0A21B63953850A9F722
S1134380A05DAA3308F0A95DA19336F7B111B193EA
S11343901082CA010C94F1214532510520F44230B7
S11343A010F00C94D721FB011082CB010895BB2798
S11343B0FB015527AA27880F991FAA1FA41710F0DD
S11343C0A41B83955051B9F7A05DAA3308F0A95DE9
S11343D0A193009779F7B111B1931192CB010C9489
S11343E0F121DC01FC01672F71917723E1F732970A
S11343F004C07C916D9370836291AE17BF07C8F3BC
S10944000895F894FFCFBB
S1134406FF0FFFFFFFFF00000000DF02E8150000BA
S113441600009003E8156C6566744C696D69743A1E
S1134426200072696768744C696D69743A200000EB
S11344360000000004E815000000006804E8150008
S11344460000001108E81549444C4500000000002E
S11344561819E81500000000AF195B17501732173A
S1134466B619B71900000000AF191819B419B11913
S1134476B619B71900000000AF19521B9C1B761B16
S1134486B619AF1B4672656552544F5320584D45B5
S113449647412054657374696E672050726F677262
S11344A6616D0055736572496E7400456E634D7493
S11344B67200456E6350656E004C696D5377746384
S10B44C668004D6F746F720071
S9030000FC
