:100000000C9495030C94CB030C94CB030C94CB036E
:100010000C94CB030C94CB030C94CB030C94CB0328
:100020000C94CB030C94CB030C94CB030C94CB0318
:100030000C94CB030C94CB030C94CB030C94CB0308
:100040000C94CB030C94CB030C94CB030C94CB03F8
:100050000C94CB030C94CB030C94CB030C94CB03E8
:100060000C94CB030C943B1F0C94CB030C94CB034C
:100070000C94991F0C94CB030C94CB030C94CB03DE
:100080000C94CB030C94CB030C94CB030C94CB03B8
:100090000C94CB030C94CB030C94CB030C94CB03A8
:1000A0000C94CB030C94CB030C94CB030C94CB0398
:1000B0000C94CB030C94CB030C94CB030C94CB0388
:1000C0000C94CB030C94550F0C94CB030C94CB03E2
:1000D0000C94CB030C94CB030C94CB030C94CB0368
:1000E0000C94CB030C94CB030C94B3200C94CB0353
:1000F0000C94CB030C94CB030C94CB030C94CB0348
:100100000C94CB030C94CB030C94CB030C94CB0337
:100110000C94CB030C94CB030C94CB030C94CB0327
:100120000C94CB030C94CB030C94CB030C94CB0317
:100130000C94CB030C94CB030C94CB030C94CB0307
:100140000C94CB030C94CB030C94CB030C94CB03F7
:100150000C94CB030C94CB030C94CB030C94CB03E7
:100160000C94F71F0C94CB030C94CB030C945520E8
:100170000C94CB030C94CB030C94CB030C94CB03C7
:100180000C94CB030C94CB030C94CB030C94CB03B7
:100190000C94CB030C94CB030C94CB030C94CB03A7
:1001A0000C94CB030C94CB030C94CB030C94CB0397
:1001B0000C94CB030C94CB030C94CB030C94CB0387
:1001C0000C94CB030C94CB030C94CB030C94CB0377
:1001D0000C94CB030C94CB030C94CB030C94CB0367
:1001E0000C94CB030C94CB030C94CB030C94CB0357
:1001F0000C94CB030C94CB030C94CB039C0B140CEE
:10020000140C140C140C140C140C140C140C140CEE
:10021000140C140C140C140C140C140C140C140CDE
:10022000140C140C140C140C140C140C140C140CCE
:10023000140C140C140C140C140C140C140C140CBE
:10024000140C140C140C140C140C140C140C140CAE
:10025000140C140C140C140C140C140C140C140C9E
:10026000140C140C140C140C140C140C140C140C8E
:10027000140C140C140C140C140C140C140C140C7E
:10028000140C140C140C140C140CB00B140CE20B06
:100290009C0B140CCA0B980B140C140C140C140C9F
:1002A000140C7E0B140C140C140CFC0B900B140C83
:1002B000140C8C0B271D2A1D2D1D301D331D361DC2
:1002C000381D491D511D5B1D591D0C94B5210C9401
:1002D000361D0C94E20B0C9408190C947E0B0C94B4
:1002E000331C0C94381D0C94591D0C94301D0C9427
:1002F0009F1E0C949C0B0C94CF1C0C94331D0C94DF
:10030000CA1C0C94791E0C94B21E0C94D11C0C9433
:1003100092030C94B4040C94551E0C94CC1C0C94B5
:100320005B040C94D80A0C94701A0C94D21C0C9494
:10033000900B0C94CA0B0C94B00B0C942D1D0C94C8
:10034000FC0B0C94980B0C948C0B0C94511D0C947E
:10035000CD030C94271D0C94140C0C94491D0C9483
:100360002A1D0C9419050C94521A0C945B1D0C94C4
:100370007B1A0C94D9112C20544343304343413D04
:10038000002F002C204865617020667265653A2058
:100390000054696D653A200044656320203720329F
:1003A000303137004D45343035206261736520723D
:1003B0006164696F2070726F6772616D2056302EB4
:1003C00034200020202020723A20202052657365BE
:1003D0007420746F2049646C650020202020643AEA
:1003E000202020456D657267656E63792053746FB8
:1003F000700020202020673A2020205377696E6704
:100400002050656E64756C756D20557072696768F3
:10041000742C207468656E20476F2E0020202020E9
:10042000623A202020426567696E2043616C6962F0
:10043000726174696F6E206F6620496E76657274A2
:1004400065642050656E64756C756D3F00202020DA
:1004500020683A20202048414C50210020202020B4
:10046000653A2020204578697420636F6D6D616E58
:1004700064206D6F64650020202020733A202020C6
:10048000537461636B2064756D7020666F722074A5
:1004900061736B730020202020763A20202056655F
:1004A0007273696F6E20616E64207365747570205D
:1004B000696E666F726D6174696F6E002020202016
:1004C0006E3A20202053686F772074686520746925
:1004D0006D65207269676874206E6F77002020490F
:1004E0006E20636F6D6D616E64206D6F6465206F4B
:1004F0006E6C793A00202043746C2D413A20456E91
:1005000074657220636F6D6D616E64206D6F6465DC
:1005100000202043746C2D433A205265736574208B
:1005200074686520415652002068656C70004D4526
:10053000343035206261736520726164696F2070A8
:10054000726F6772616D2056302E3420001B5B3352
:10055000306D001B5B34366D00496C6C6567616CF7
:100560002073746174652120526573657474696EBB
:100570006720415652003A5754463F005265736512
:10058000742C2074727920486F6D696E67206167E2
:1005900061696E206279207072657373696E67207D
:1005A00027622700454D455247454E435920535435
:1005B0004F5000436F6D6D656E63652042616C61E5
:1005C0006E636500426567696E20486F6D696E678E
:1005D000004578697420636F6D6D616E64206D6F86
:1005E000646500526573657474696E672041565284
:1005F000005072657373204374726C2D4120746FC8
:100600002067657420746F20636F6D6D616E642068
:100610006D6F646520666F7220496E7665727465D1
:10062000642050656E64756C756D005265736574F9
:1006300074696E67004552524F5220696E20746192
:10064000736B20004552524F52206372656174698A
:100650006E67207461736B20002C20737461636B70
:1006600020617420307800206372656174656400D5
:100670005461736B20001B5B32326D005461736BED
:100680003A20001B5B316D001B5B32326D00546100
:10069000736B3A2049444C45001B5B316D000909DE
:1006A000002F0049444C45090930092D0900092D46
:1006B0002D2D2D00092D2D2D2D2D2D2D2D2D2D00E8
:1006C0002D2D2D2D09092D2D2D2D092D2D2D2D2DC6
:1006D000000952756E730009467265652F546F7478
:1006E000616C004E616D6509095072692E09537481
:1006F0006174650009537461636B005461736B0925
:10070000092020092000090009002F000900090024
:100710001B5B32326D001B5B316D001B5B316D006A
:10072000202000000E94A017B52111241FBECFEF8A
:10073000CDBFDFE3DEBF00E00CBF18BE19BE1ABE9E
:100740001BBE10E2A0E0B0E2EEECF6E400E00BBF6E
:1007500002C007900D92AC3BB107D9F71BBE21E355
:10076000ACEBB0E201C01D92A636B207E1F713E090
:10077000C5E9D3E000E006C021970109802FFE0102
:100780000E949622C439D10780E00807A9F70E9489
:1007900026210C9465230C940000CF93DF9300D0A6
:1007A0001F92CDB7DEB77C010E94781369837A83EC
:1007B0008B839C83E0E8F6E08CE08283828983600F
:1007C000828B83898360838BE0E8F1E082E780831A
:1007D00089E08087E0E0F9E088E683838FEF9FEF90
:1007E00086A397A381E080830F2EA12CF9E0BF2E72
:1007F000F02DF50100A111A10FB6F8940F920F9002
:100800000FBE0FB6F8940F92C801012E000CAA0B70
:10081000BB0BAC01BD01440F551F661F771F3A018A
:100820004B01680E791E8A1E9B1EC401B30124E68B
:1008300030E040E050E00E94772280914A31909170
:100840004B31281B390B20935231309353310F9089
:100850000FBE0FB6F8940F92C8018C199D098093B2
:100860005031909351310F900FBEF70186859785D7
:10087000A089B1890196A11DB11D86879787A08B9C
:10088000B18B41E050E060E070E0CE0101960E9443
:1008900016156801AECF0F931F93CF93DF93EC0132
:1008A0000E94B3178AE090E288839983DF91CF9109
:1008B0001F910F910895CF93DF9300D01F92CDB772
:1008C000DEB78C010E94781369837A838B839C83C3
:1008D000E0E8F6E083E08283808B818BE0E8F1E062
:1008E00080E7828389E08287E0E4F8E08AE6838318
:1008F00080EA95E086A397A381E080836894EE2444
:10090000E6F8FF24F3F8F70180A191A10FB6F8945F
:100910000F9280934E3190934F310F900FBEF8019C
:1009200086859785A089B1890196A11DB11D86870D
:100930009787A08BB18B41E050E060E070E0CE0182
:1009400001960E941615DFCF0F931F93CF93DF936D
:10095000EC010E94B31782E190E288839983DF91D2
:10096000CF911F910F910895CF93DF9300D01F92E5
:10097000CDB7DEB77C010E94781369837A838B83BD
:100980009C83E0E6F6E081E0828384E0828388E174
:10099000808B828B08E616E0DD24D394F8018081F9
:1009A00080FD08C00FB6F8940F92D0924D310F9091
:1009B0000FBE07C00FB6F8940F9210924D310F90F2
:1009C0000FBEF801808182FD08C00FB6F8940F9227
:1009D000D0924C310F900FBE07C00FB6F8940F9213
:1009E00010924C310F900FBEF70186859785A08934
:1009F000B1890196A11DB11D86879787A08BB18B08
:100A000041E050E060E070E0CE0101960E941615D2
:100A1000C5CF0F931F93CF93DF93EC010E94B317C1
:100A20008AE190E288839983DF91CF911F910F91A2
:100A30000895CF93DF93CDB7DEB76A97CDBFDEBF02
:100A40008C010E94781369837A838B839C83F801DD
:100A5000FE9681E090E0A0E0B0E080839183A283E5
:100A6000B383D801DC968D939C93DD97A0E4B6E028
:100A700087E011968C93119784E015968C931597C7
:100A8000E0E0F8E081E0808383E08183A6A3B7A360
:100A900010A611A612A613A68181806381830FB6CA
:100AA000F8940F9210924A3110924B310F900FBE72
:100AB0001D8A1E8A5801B0E5AB0EB11CF801FE96E6
:100AC000ED83FE836801FEE5CF0ED11C9801205A0C
:100AD0003F4F2F87388B0F2EFAE02F2E312CF02D21
:100AE000C801885B9F4F898B9A8BD801A45BBF4F4D
:100AF000AF83B887F801E65BFF4FEB8BFC8B2C5F75
:100B00003F4F29873A8704978B879C871697AD8735
:100B1000BE874801B6E68B0E911CF80146855785C5
:100B2000608971894F5F5F4F6F4F7F4F468757874F
:100B3000608B718B8485823009F499C030F48823EE
:100B400069F0813009F458C0CCC1843009F408C17F
:100B500008F4A1C0843609F490C1C3C10FB6F8945B
:100B60000F9210924A3110924B310F900FBE0FB678
:100B7000F8940F920F900FBE80914931882309F4A9
:100B8000B0C10FB6F8940F92109246310F900FBE7D
:100B90000FB6F8940F92109247310F900FBEF801E4
:100BA000228E338E0FB6F8940F920F900FBE809165
:100BB0004C31882309F495C10FB6F8940F920F9029
:100BC0000FBE0FB6F8940F9280915231909153312D
:100BD00080934A3190934B310F900FBED5011D92F7
:100BE0001D921D921C921397F6011082118261E0F2
:100BF000C8010E94AF1775C10FB6F8940F921092FA
:100C000049310F900FBE86EF9FEF828F938F0FB603
:100C1000F8940F920F900FBE80914D318823C1F050
:100C20000FB6F8940F92E0915231F0915331EF8B5F
:100C3000F88F0F900FBED5011D921D921D921C9230
:100C40001397F6011082118262E0C8010E94AF176B
:100C50000FB6F8940F920F900FBE80914631882303
:100C600009F43FC160E0C8010E94AF173AC164EFC8
:100C700071E080E090E00E948315D5011D921D92E5
:100C80001D921C921397F801128E138E63E0C80117
:100C90000E94AF1726C18F89988D99230CF4019675
:100CA0009C01359527952D8B3E8B0FB6F8940F92AE
:100CB0000F900FBE8091523190915331281B390B08
:100CC000C90146E6489F9001499F300D1124332306
:100CD00014F421503F4F60E070E0832F932F990F61
:100CE000990B0E942F098F31910544F08EE190E01D
:100CF000D8015A968D939C935B970FC0823EBFEFAD
:100D00009B0724F0F801828F938F07C082EE9FEF3C
:100D1000D8015A968D939C935B970FB6F8940F92D7
:100D20000F900FBE80914631882359F00FB6F8948A
:100D30000F92109246310F900FBE60E0C8010E94E2
:100D4000AF170FB6F8940F920F900FBE80914831F5
:100D5000882309F4C6C064E0C8010E94AF17C1C06F
:100D60000FB6F8940F92109248310F900FBE0FB645
:100D7000F8940F920F900FBE80914E3190914F31A9
:100D800020ED32E07901E81AF90AB701E98DFA8D10
:100D90006E1B7F0B072E000C880B990BAD81BE815B
:100DA0002D913D914D915C910E94772264EB6203FD
:100DB000C001639F900D1124992314F481509F4F1B
:100DC000792F770F770B692FEF85F88980819181D3
:100DD000D6018D939C9320E034EFE29EC001E39E08
:100DE000900DF29E900D1124992314F481509F4F81
:100DF000892F990F990BED89FE898E0F9F1F0E94F5
:100E00002F098C39FFEF9F073CF4853D2EEF9207A9
:100E10002CF484ED9EEF02C08CE99FEF0FB6F8949E
:100E20000F920F900FBE2091523130915331821B9F
:100E3000930B46E6489F9001499F300D11243323C0
:100E400014F421503F4F832F880F880BD8015A96F6
:100E50003C935A975B968C930FB6F8940F920F9031
:100E60000FBE80914631882309F439C060E0C80183
:100E70000E94AF17E98EFA8E34C0F801128E138EDD
:100E8000CB01BA012CE231E040E050E00E94552253
:100E9000672B682B692B71F4D8011696ED90FC90A6
:100EA00017976EE170E2C7010E94E11C66E0C7017E
:100EB0000E94181D0FB6F8940F920F900FBE8091EC
:100EC0004631882371F00FB6F8940F921092463194
:100ED0000F900FBE60E0C8010E94AF1702C0E98EFC
:100EE000FA8E0FB6F8940F92809150319091513153
:100EF0000F900FBEF801868F978FA989BA892D921E
:100F00003C9223EB30E0EF81F88520833183AB897D
:100F1000BC891D921C9220EC30E0E985FA85208383
:100F2000318320E436E0AB85BC852D933C9320ECE7
:100F300039EFED85FE8520833183D8015A96ED90F7
:100F4000FC905B97E81AF90AB701C1010E944B09AE
:100F50002B013C01F801E45AFF4F60837183F401D7
:100F6000808191819701281B390BC901F801E8594B
:100F7000FF4F20833183AF81B8852D913C91829FB3
:100F8000D001839FB00D929FB00D11243296A083A3
:100F9000B183ED81FE8120813181428153810E94A4
:100FA000C8229B01AC01992324F421503F4F4F4F9D
:100FB0005F4FBB2757FDBA95A52F942F832FF501BF
:100FC0004081518162817381840F951FA61FB71FD5
:100FD0008130FAEC9F07FAE9AF07FBE3BF0754F053
:100FE00080E09AECAAE9BBE3F50180839183A283B8
:100FF000B38317C08115F6E39F07F5E6AF07F4EC5E
:10100000BF0734F0F50180839183A283B38309C0C5
:1010100080E096E3A5E6B4ECF50180839183A2839A
:10102000B383D5016D917C91C2010E942F09EF8598
:10103000F88980839183D6018D939C931197EB85DA
:10104000FC8520813181281739071CF42D933C93AE
:101050000AC0AD85BE852D913C91821793071CF483
:10106000F60120833183F801E25BFF4FE082F182D9
:10107000D6012D913C91821B930B749680839183B2
:10108000E985FA8540815181849F9001859F300DCB
:10109000949F300D1124332314F421503F4F832F9C
:1010A000880F880BD4013C9311968C930FB6F8945B
:1010B0000F920F900FBE80914D31811112C00FB66B
:1010C000F8940F920F900FBE80914C31811109C09E
:1010D0000FB6F8940F920F900FBE8091473188237E
:1010E00089F0F5011082118212821382D6011D92BD
:1010F0001C92F80184858350823020F464E6C80194
:101100000E94AF17D80198961D921C9299979296BB
:101110008D919C91939760E070E00E9441227B0149
:10112000072E000C880B990B0E94CD212B013C014E
:1011300023E333E34BE851E40E942C22181634F4E5
:1011400081E190E0F80184A395A315C023E333E384
:101150004BE851ECC301B2010E94C621882334F050
:10116000D8019496ED92FC92959705C08FEE9FEF73
:10117000F80184A395A3D801D6961D921C92D79707
:10118000D2961D921C92D397D4961D921C92D597FD
:10119000D0968D919C91D197893191053CF088E151
:1011A00090E0D8968D939C93D9970FC0883EBFEF5F
:1011B0009B0724F0F80180AF91AF07C088EE9FEF46
:1011C000D801D8968D939C93D997F601808191810F
:1011D00099233CF0E0E0F8E080A791A712A613A6BF
:1011E0000CC0E0E0F8E010A611A6D6018D919C910C
:1011F00091958195910982A793A7ED81FE81208128
:10120000318142815381A8EEB3E00E94BD22683E45
:10121000F3E07F078105910548F028EE33E040E0D8
:1012200050E00E945522BA01A90104C041E050E0FB
:1012300060E070E0CE0101960E9416156ECC0F930F
:101240001F93CF93DF93EC010E94B3178EE290E2DD
:1012500088839983DF91CF911F910F9108959C010D
:10126000932F991F9927991F892F90E081509048BB
:10127000432F4095441F4427441FFC01E21BF30BFE
:1012800051E0E617F7070CF050E0451719F0C901D7
:10129000860F971F0895811520E8920721F46115A4
:1012A00020E8720729F09C01DB010E949F2208952B
:1012B0006FEF7FEF8FEF9FE708950F931F93CF930B
:1012C000DF93EC010E94B31786E390E28883998351
:1012D000DF91CF911F910F9108950F931F93CF939B
:1012E000DF93EC016AE08E819F810E94181D8C01C2
:1012F00063E575E00E94E11C6AE0C8010E94181DC8
:101300008C016DE475E00E94E11C67E0C8010E9459
:10131000181D6AE08E819F810E94181D8C016EE26B
:1013200075E00E94E11C6AE0C8010E94181D8C0152
:1013300068E275E00E94E11C66E0C8010E94181D89
:101340006AE08E819F810E94181D8C0161E175E029
:101350000E94E11C66E0C8010E94181D6AE08E81AF
:101360009F810E94181D8C0165EF74E00E94E11CB2
:1013700066E0C8010E94181D6AE08E819F810E946C
:10138000181D8C016DED74E00E94E11C66E0C8013F
:101390000E94181D6AE08E819F810E94181D8C0199
:1013A0006CEB74E00E94E11C66E0C8010E94181D0D
:1013B0006AE08E819F810E94181D8C0165E974E0AE
:1013C0000E94E11C66E0C8010E94181D6AE08E813F
:1013D0009F810E94181D8C0167E774E00E94E11C48
:1013E00066E0C8010E94181D6AE08E819F810E94FC
:1013F000181D8C016CE574E00E94E11C66E0C801D8
:101400000E94181D6AE08E819F810E94181D8C0128
:101410006DE474E00E94E11C66E0C8010E94181DA2
:101420006AE08E819F810E94181D8C016CE174E03E
:101430000E94E11C66E0C8010E94181D6AE08E81CE
:101440009F810E94181D8C0162EF73E00E94E11CD5
:1014500066E0C8010E94181D6AE08E819F810E948B
:10146000181D8C016AED73E00E94E11C66E0C80162
:101470000E94181D6AE08E819F810E94181DEC0158
:1014800063EC73E00E94E11C66E0CE010E94181D2F
:10149000DF91CF911F910F910895AF92BF92CF929C
:1014A000DF92EF92FF920F931F93CF93DF9300D0C1
:1014B00000D0CDB7DEB78C0119821A821B821C8244
:1014C0001D821E820E942B0D6C01CE0101960E948E
:1014D000641B5C0166E0F801868197810E94181DFB
:1014E0006AE00E94181D7C0164EA73E00E94E11C1E
:1014F0006AE0C7010E94181D7C0168E973E00E9440
:10150000E11C66E0C7010E94181D6AE00E94181DD8
:101510007C0161E973E00E94E11CB501C7010E94F2
:10152000081B6AE00E94181D7C0163E873E00E94BA
:10153000E11CB601C7010E945F1D6AE00E94181DF0
:101540007C0161E873E00E94E11C4FEF5FE060E026
:1015500070E0C7010E94931DC0902808D090290810
:101560006AE0F801868197810E94181D7C0166E778
:1015700073E00E94E11CB601C7010E945F1D66E096
:101580000E94181D66E00E94181DF801868197814F
:101590000E94C1192696CDBFDEBFDF91CF911F916A
:1015A0000F91FF90EF90DF90CF90BF90AF90089594
:1015B000CF93DF9300D000D0CDB7DEB78C01198276
:1015C0001A821B821C821D821E826AE0DC01169632
:1015D0008D919C9117970E94181D7C0161EF75E019
:1015E0000E94E11C66E0C7010E94181DF801848575
:1015F000882321F0813009F45DC032C18681978152
:10160000DC01ED91FC910480F581E02D1995882392
:10161000A9F1F80186819781DC01ED91FC910680AA
:10162000F781E02D1995992781309105F9F00397FD
:1016300009F031C16AE0F801868197810E94181D86
:101640008C0163EE75E00E94E11C66E0C8010E9417
:10165000181D93E088ED08B618BE84BF90938000F3
:101660008091820081FDFCCF08BEFFCFC8010E949F
:101670006D0961E0C8010E94AF170DC184E591E3D7
:101680000E94701A882309F406C1D8011696ED91BC
:10169000FC9117970190F081E02DE280F38084E5C2
:1016A00091E30E94521A682FF80186819781F70111
:1016B0001995F1C086819781DC01ED91FC91048040
:1016C000F581E02D1995882309F4E5C0F80186819C
:1016D0009781DC01ED91FC910680F781E02D199551
:1016E000BC01FC01FF277B97EC35F10508F09CC09D
:1016F0008827E250FF4F8F4F0C949622CE0101961F
:101700000E94641BBC01F801868197810E94081B1E
:1017100066E00E94181DBFC0C8010E944D0ABBC0F0
:10172000D80116968D919C9117970E94C818B3C046
:10173000C8010E946D09AFC06AE0F80186819781F7
:101740000E94181D7C0161ED75E00E94E11C66E0BD
:10175000C7010E94181D60E0C8010E94AF179BC01E
:101760000FB6F8940F9281E0809349310F900FBE2D
:101770006AE0D80116968D919C9117970E94181DCA
:101780007C0164EC75E00E94E11C66E0C7010E94E8
:10179000181D81C00FB6F8940F9281E080934831F4
:1017A0000F900FBE6AE0F801868197810E94181D94
:1017B0007C0163EB75E00E94E11C66E0C7010E94BA
:1017C000181D69C00FB6F8940F9281E080934731DD
:1017D0000F900FBE6AE0D80116968D919C911797D5
:1017E0000E94181D7C0164EA75E00E94E11C66E01D
:1017F000C7010E94181D4FC00FB6F8940F9281E0E8
:10180000809346310F900FBE6AE0F8018681978180
:101810000E94181D7C016CE775E00E94E11C66E0E7
:10182000C7010E94181D37C0D80116968D919C9152
:101830001797DC01ED91FC910280F381E02D199561
:101840006AE0F801868197810E94181D7C0166E795
:1018500075E00E94E11C66E0C7010E94181D1BC0D4
:101860006AE0868197810E94181D8C0169E575E008
:101870000E94E11C66E0C8010E94181D93E088EDFB
:1018800008B618BE84BF909380008091820081FDCD
:10189000FCCF08BEFFCFF80186859785A089B18966
:1018A0000196A11DB11D86879787A08BB18B61E042
:1018B00070E080E090E00E94831598CE0F931F9314
:1018C000CF93DF93EC010E9472138091BC208111B1
:1018D0001DC0A1ECB0E2E5ECF0E2ED93FC931197B2
:1018E00012961D921C921397ADEBB0E28FEF9FE022
:1018F00012968D939C9313971D921C92119782833D
:101900009383A083B18381E08093BC20209709F466
:101910005FC09E012B5F3F4F2496CE3FDF4008F013
:101920005AC0E091C120F091C220A1ECB0E202C007
:10193000DF01FC01828193818217930720F480816B
:1019400091810097A9F7C0E2ED3BFC0709F446C07E
:10195000CD91DC9111978E010B5F1F4F808191819A
:101960008D939C9382819381821B930B8B30910585
:1019700010F1BF01620F731FDB0112968D939C93D0
:1019800013972283338312964D915C91139781ECC8
:1019900090E201C0CD01EC01A881B98112962D9190
:1019A0003C91139724173507A8F3EB01A883B9835B
:1019B000DC016D937C938091002090910120228125
:1019C0003381821B930B809300209093012008C0E9
:1019D00000E010E005C000E010E002C000E010E010
:1019E0000E949414C801DF91CF911F910F91089527
:1019F0000F931F93CF93DF93009741F1EC018C017C
:101A0000055011090E947213F80142815381A1EC23
:101A1000B0E201C0DF01ED91FC9111972281338189
:101A200024173507B8F32597E883F9830D931C93A2
:101A300020910020309101208A819B81820F931F89
:101A400080930020909301200E949414DF91CF9105
:101A50001F910F9108958091002090910120089589
:101A6000FC010396818392834FEF5FEFBA014383BA
:101A700054836583768387839087818792871082DA
:101A80000895FC01128613860895CF93DF93FC011D
:101A9000DB0121813281E9018C819D8114968D9336
:101AA0009C9315978181928116968D939C9317979D
:101AB0008C819D81EC016E837F83E9016C837D8342
:101AC000618372831A96ED93FC931B9780818F5FDD
:101AD0008083DF91CF9108950F931F93CF93DF936E
:101AE000EB01088119812A813B810F3F4FEF1407D9
:101AF0002407340731F4DC011996ED91FC911A9713
:101B00001FC0FC013396DC0117964D915C9118972C
:101B1000DA014D915D916D917C91041715072607AF
:101B2000370770F00480F581E02DA481B5814D91D7
:101B30005D916D917C91041715072607370790F783
:101B4000A481B581AC83BD831696CD93DC931797A2
:101B5000EE83FF83C483D5838A879B87FC01208122
:101B60002F5F2083DF91CF911F910F910895FC018A
:101B7000A481B5818681978116968D939C93179742
:101B8000A681B7818481958114968D939C93159736
:101B9000A285B38511968D919C911297E817F9074C
:101BA00031F48681978111968D939C9312971286BA
:101BB00013868C9181508C93089580936431909317
:101BC000653131E1FC013083319722E22083319786
:101BD000A3E3A0833197608331977083319710829C
:101BE00031971082319760E8608331971082319786
:101BF000108231971082319762E06083319763E001
:101C00006083319764E06083319765E0608331974A
:101C100066E06083319767E06083319768E06083B6
:101C2000319769E06083319760E160833197308359
:101C3000319732E13083319733E13083319734E1AA
:101C40003083319735E13083319736E130833197F6
:101C500037E13083319738E13083319739E1308390
:101C6000319730E23083319731E2308331972083EE
:101C7000319723E220833197408331975083319706
:101C800026E22083319727E22083319728E22083C0
:101C9000319729E22083319720E32083319721E394
:101CA0002083899708958CE78093290A8FEF80938A
:101CB000280A81E08093000A91E19093010A8093C1
:101CC000070AA0912431B0912531CD91CDBFDD918E
:101CD000DEBFFF91EF91DF91CF91BF91AF919F91C7
:101CE0008F917F916F915F914F913F912F911F91B4
:101CF0000F91FF90EF90DF90CF90BF90AF909F90AB
:101D00008F907F906F905F904F903F902F901F909B
:101D10000F900CBE0F900BBE0F900FBE0F9008954A
:101D200008950F920FB6F8940F920BB60F920CB65F
:101D30000F921F9211242F923F924F925F926F92B7
:101D40007F928F929F92AF92BF92CF92DF92EF924B
:101D5000FF920F931F932F933F934F935F936F9334
:101D60007F938F939F93AF93BF93CF93DF93EF9323
:101D7000FF93A0912431B09125310DB60D920EB68E
:101D80000D920E94B115A0912431B0912531CD91D1
:101D9000CDBFDD91DEBFFF91EF91DF91CF91BF917C
:101DA000AF919F918F917F916F915F914F913F91F3
:101DB0002F911F910F91FF90EF90DF90CF90BF90E8
:101DC000AF909F908F907F906F905F904F903F90DB
:101DD0002F901F900F900CBE0F900BBE0F900FBE58
:101DE0000F9008950F920FB6F8940F920BB60F92C2
:101DF0000CB60F921F9211242F923F924F925F9236
:101E00006F927F928F929F92AF92BF92CF92DF920A
:101E1000EF92FF920F931F932F933F934F935F93F4
:101E20006F937F938F939F93AF93BF93CF93DF93E2
:101E3000EF93FF93A0912431B09125310DB60D920F
:101E40000EB60D920E9493130E94B115A0912431F9
:101E5000B0912531CD91CDBFDD91DEBFFF91EF91E6
:101E6000DF91CF91BF91AF919F918F917F916F91B2
:101E70005F914F913F912F911F910F91FF90EF90A4
:101E8000DF90CF90BF90AF909F908F907F906F909A
:101E90005F904F903F902F901F900F900CBE0F902F
:101EA0000BBE0F900FBE0F9008950E94F20E189572
:101EB000CF93DF93EC0188A181110BC088819981B8
:101EC000892BE1F58A819B810E946C171A821B8203
:101ED00035C0411117C0482F50E08C819D810E9470
:101EE000E42228A18C819D81820F911D8C839D838A
:101EF0002A813B818217930708F1888199818C831D
:101F00009D831CC0482F50E08E819F810E94E42257
:101F100088A190E09195819591092E813F81280FAC
:101F2000391F2E833F83488159812417350730F4A8
:101F30002A813B81820F931F8E839F838E8D8F5FBB
:101F40008E8FDF91CF910895FC0180819181009760
:101F5000A1F040A150E026813781240F351F268350
:101F60003783A281B3812A173B0710F086839783BA
:101F7000CB01668177810E94E42208950F931F931D
:101F8000CF93DF93EC010FB6F8940F928AA1181645
:101F9000B4F48B89811105C012C08B89811104C0F2
:101FA0000EC08E010D5E1F4FC8010E9438168111B0
:101FB0000E94F5168AA181508AA3181674F38FEF38
:101FC0008AA30F900FBE0FB6F8940F9289A118162E
:101FD000B4F48885811105C012C08885811104C0C0
:101FE0000EC08E01085F1F4FC8010E943816811174
:101FF0000E94F51689A1815089A3181674F38FEFFA
:1020000089A30F900FBEDF91CF911F910F9108957B
:102010001F93CF93DF93613059F0FC012389308502
:1020200031112CC011E0211110E0211128C001C094
:1020300011E0EC014881598128A130E06F8D629F49
:10204000C001639F900D1124BA01680F791F6A8344
:102050007B831E8E4C835D83821B930B840F951FA5
:102060008E839F838FEF89A38AA3CE0108960E9457
:10207000300DCE0143960E94300D01C010E0812F3B
:10208000DF91CF911F9108950F931F93CF93DF930B
:10209000882301F1062F182F83E290E00E945E0C46
:1020A000EC01892BC9F0109FC001112401960E94F8
:1020B0005E0C88839983892B39F01F8F08A361E018
:1020C000CE010E94081008C0CE010E94F80CC0E0AA
:1020D000D0E002C0C0E0D0E0CE01DF91CF911F91EF
:1020E0000F910895AF92BF92CF92DF92EF92FF923D
:1020F0000F931F93CF93DF93CDB7DEB72997CDBF53
:10210000DEBF7C015B012E833F834887598710E047
:102110006C0188E0C80ED11C0FB6F8940F92F7013D
:10212000968D878D9817A8F4402FB501C7010E949E
:10213000580FF7018389882341F0C70143960E9415
:102140003816813011F40E94910E0F900FBE81E07D
:1021500056C08E819F81A885B985892B8A2B8B2BB0
:1021600021F40F900FBE80E04AC0111105C0CE01CE
:1021700001960E94771611E00F900FBE0E94721315
:102180000FB6F8940F92F70181A18F3F09F411A2C5
:10219000F70182A18F3F09F412A20F900FBEBE017A
:1021A0006A5F7F4FCE0101960E948816811121C07F
:1021B0000FB6F8940F92F701968D0F900FBE878D92
:1021C000981311C04E815F8168857985C6010E9490
:1021D0000E16C7010E94BE0F0E94941481119CCF5D
:1021E0000E94910E99CFC7010E94BE0F0E949414C5
:1021F00093CFC7010E94BE0F0E94941480E02996DD
:10220000CDBFDEBFDF91CF911F910F91FF90EF9077
:10221000DF90CF90BF90AF900895AF92BF92CF92D2
:10222000DF92EF92FF920F931F93CF93DF93CDB77F
:10223000DEB72997CDBFDEBF7C015B012E833F83D4
:102240004887598710E06C0183E1C80ED11C0FB696
:10225000F8940F92F701868D882399F1C680D78074
:10226000B501C7010E94A40F01111AC0F701868DA4
:102270008150868F80819181892B29F40E941217C9
:10228000F70182839383F70180858823B1F0C7012A
:1022900008960E943816813081F40E94910E0DC07C
:1022A000F701C682D7828389882339F0C701439614
:1022B0000E94381681110E94910E0F900FBE81E08E
:1022C00062C08E819F81A885B985892B8A2B8B2B33
:1022D00021F40F900FBE80E056C0111105C0CE0151
:1022E00001960E94771611E00F900FBE0E947213A4
:1022F0000FB6F8940F92F70181A18F3F09F411A254
:10230000F70182A18F3F09F412A20F900FBEBE0108
:102310006A5F7F4FCE0101960E94881681112DC001
:102320000FB6F8940F92F701868D0F900FBE8111B2
:102330001EC080819181892B49F40FB6F8940F92C9
:10234000828193810E9417170F900FBE4E815F818B
:1023500068857985C6010E940E16C7010E94BE0FCE
:102360000E949414811173CF0E94910E70CFC70107
:102370000E94BE0F0E9494146ACFC7010E94BE0F34
:102380000E94941480E02996CDBFDEBFDF91CF91EB
:102390001F910F91FF90EF90DF90CF90BF90AF9083
:1023A00008950FB6F8940F92FC01868D0F900FBE22
:1023B0000895C8EFD0E388818230E8F30E94910E3F
:1023C000FACFCF92DF92EF92FF926B017C01E09106
:1023D0002431F091253162837383848395838091C6
:1023E000CC309091CD30A091CE30B091CF30C81686
:1023F000D906EA06FB0668F4609124317091253114
:102400008091DE309091DF306E5F7F4F0E946C0DC7
:1024100021C060912431709125318091E0309091FC
:10242000E1306E5F7F4F0E946C0D80910220909191
:102430000320A0910420B0910520C816D906EA0611
:10244000FB0640F4C0920220D0920320E0920420C8
:10245000F0920520FF90EF90DF90CF9008954F927B
:102460005F926F927F928F929F92AF92BF92CF9224
:10247000DF92EF92FF920F931F93CF93DF935C0154
:102480004B013A01290188E290E00E945E0CEC01C8
:10249000892B09F4D4C0C114D10409F0CCC0C30104
:1024A0000E945E0C8B8F9C8F009721F4CE010E94BE
:1024B000F80CC5C0A30161E170E00E94ED22930118
:1024C000215031098B8D9C8D3C01620E731E4AE0B8
:1024D00050E0B401CE014D960E94F4221EA2102FAE
:1024E000043008F013E01A8F1FA36E0122E0C20E21
:1024F000D11CC6010E94410DCE010E960E94410DD5
:10250000CA87DB8784E090E0A0E0B0E0811B9109FE
:10251000A109B1098E879F87A88BB98BCE8BDF8BE2
:10252000A201B501C3010E94DD0D88839983E114E6
:10253000F10419F0F701C083D1830FB6F8940F921C
:102540008091D0308F5F8093D030809124319091F2
:102550002531892B89F5C0932431D0932531809181
:10256000D0308130C1F588EF90E30E94300D83E0D8
:1025700091E30E94300D8EE091E30E94300D89E1DD
:1025800091E30E94300D8DEE90E30E94300D82EEBB
:1025900090E30E94300D83ED90E30E94300D8DEEAC
:1025A00090E38093E0309093E13082EE90E380936B
:1025B000DE309093DF300FC08091C93081110BC0A5
:1025C000E0912431F0912531828D081720F0C093DD
:1025D0002431D09325318A8D9091CB30981710F407
:1025E0008093CB309091C4309F5F9093C430909192
:1025F000CA30981710F48093CA30FBE08F9FC00157
:102600001124B60188509F4C0E94450D0F900FBEBB
:102610008091C930882359F0E0912431F09125311F
:10262000828D801730F40E94910E81E009C081E014
:1026300007C081E005C0CB8EDC8EC6013BCF8FEF9B
:10264000DF91CF911F910F91FF90EF90DF90CF908E
:10265000BF90AF909F908F907F906F905F904F90C2
:1026600008950FB6F8940F92009721F480912431C9
:10267000909125310F900FBEFC01828D0895AF928D
:10268000BF92CF92DF92EF92FF920F93A12CB12CC9
:10269000C12CD12C0F2EF1EDEF2EF0E3FF2EF02DFB
:1026A00000E020E030E044E650E06AE370E289EDCB
:1026B00091E10E942F12813069F4F8948093C9301F
:1026C0001092CC301092CD301092CE301092CF308C
:1026D0000E94530E0F91FF90EF90DF90CF90BF902C
:1026E000AF9008958091C8308F5F8093C83008956F
:1026F0000FB6F8940F926091CC307091CD308091EC
:10270000CE309091CF300F900FBE0895009721F4F6
:1027100080912431909125314D9608958091D1304A
:102720009091D2300895FF920F931F93CF93DF9330
:102730008091C8308111EDC08091CC309091CD3026
:10274000A091CE30B091CF300196A11DB11D8093E4
:10275000CC309093CD30A093CE30B093CF308091D9
:10276000CC309091CD30A091CE30B091CF30892B2C
:102770008A2B8B2BF1F58091E0309091E130209104
:10278000DE303091DF302093E0303093E1308093C1
:10279000DE309093DF308091C5308F5F8093C530FD
:1027A000E091E030F091E130808181110CC08FEF39
:1027B0009FEFDC018093022090930320A0930420DC
:1027C000B093052016C0E091E030F091E130078031
:1027D000F085E02D0084F185E02D82819381A48134
:1027E000B5818093022090930320A0930420B0939E
:1027F00005204091CC305091CD306091CE30709119
:10280000CF308091022090910320A0910420B091BC
:102810000520481759076A077B0708F47FC0E09135
:10282000E030F091E13080818823F9F0E091E030F0
:10283000F091E1300780F085E02DC085D1858A8157
:102840009B81AC81BD814091CC305091CD30609165
:10285000CE307091CF30481759076A077B0758F17F
:102860000F2EFBE0FF2EF02D2FC08FEF9FEFDC012E
:102870008093022090930320A0930420B09305201E
:102880004DC0E091E030F091E1300780F085E02D1F
:10289000C085D1858A819B81AC81BD814091CC303E
:1028A0005091CD306091CE307091CF30481759079C
:1028B0006A077B0748F48093022090930320A0933B
:1028C0000420B09305202AC08E010E5F1F4FC8015F
:1028D0000E94B70D888D998D892B21F0CE010E961F
:1028E0000E94B70D8A8D9091CA30981710F480938A
:1028F000CA30F89EC0011124B80188509F4C0E9434
:10290000450DE091E030F091E13080818111B9CF47
:10291000ACCF8091C7308F5F8093C730DF91CF916C
:102920001F910F91FF900895CF92DF92EF92FF9247
:102930000F931F93CF93DF930FB6F8940F9280916C
:10294000C83081508093C8308091C830811160C0F8
:102950008091D03081112CC05EC0D7011796ED91C7
:10296000FC911897C085D185CE010E960E94B70DB7
:102970008E010E5F1F4FC8010E94B70D8A8D909186
:10298000CA30981710F48093CA30D89EC001112421
:10299000B80188509F4C0E94450DE0912431F09180
:1029A00025319A8D828D981770F0CC24C3940BC07A
:1029B000C12C0F2EF3EDEF2EF0E3FF2EF02D0F2E96
:1029C000FBE0DF2EF02DF70180818111C6CF8091D1
:1029D000C730882381F08091C730882399F00E9406
:1029E00093138091C73081508093C7308091C73056
:1029F0008111F5CF07C0F1E0CF1621F08091C630EC
:102A0000813041F41092C6300E94910E81E003C0E3
:102A100080E001C080E00F900FBEDF91CF911F9149
:102A20000F91FF90EF90DF90CF900895CF92DF92BB
:102A3000EF92FF92CF93DF93EC016A017B010E943A
:102A4000721388819981AA81BB81C80ED91EEA1EA2
:102A5000FB1E4091CC305091CD306091CE307091C2
:102A6000CF30481759076A077B07B8F4C816D9064C
:102A7000EA06FB06E0F58091CC309091CD30A09134
:102A8000CE30B091CF30C882D982EA82FB828C15D9
:102A90009D05AE05BF05F8F413C0C816D906EA06B1
:102AA000FB0600F18091CC309091CD30A091CE30DA
:102AB000B091CF308C159D05AE05BF0598F017C0BD
:102AC000809124319091253102960E94B70DC70163
:102AD000B6010E94E1110E94941481110DC00E9460
:102AE000910E0AC0C882D982EA82FB82E9CFC882ED
:102AF000D982EA82FB82EFCFDF91CF91FF90EF90F6
:102B0000DF90CF900895CF92DF92EF92FF926B010A
:102B10007C01672B682B692BE9F00E94721380916E
:102B2000CC309091CD30A091CE30B091CF30C80E46
:102B3000D91EEA1EFB1E8091243190912531029608
:102B40000E94B70DC701B6010E94E1110E949414C2
:102B5000811102C00E94910EFF90EF90DF90CF9004
:102B600008958091C83081110CC0E091CA304BE0CB
:102B7000E49FF0011124E850FF4C8081882329F064
:102B800014C081E08093C63008959BE08091CA30E4
:102B900081508093CA30E091CA309E9FF001112489
:102BA000E850FF4C8081882389F38091CA30282F18
:102BB00030E04BE0849FC0011124DC01A850BF4CE1
:102BC0001196ED91FC9112970480F581E02D1196FC
:102BD000ED93FC93129785509F4CE817F90761F429
:102BE000848195814BE0429FF001439FF00D1124B9
:102BF000E850FF4C818392838BE0829FF001839F9A
:102C0000F00D1124E850FF4C0180F281E02D808509
:102C1000918580932431909325310895CF92DF924E
:102C2000EF92FF926A017B0160912431709125310E
:102C3000625F7F4F0E946C0D80912431909125310D
:102C400002960E94B70D8091CC309091CD30A0912A
:102C5000CE30B091CF30BC01CD016C0D7D1D8E1DED
:102C60009F1D0E94E111FF90EF90DF90CF9008959B
:102C70000F931F93CF93DF93DC011796ED91FC9197
:102C80001897C085D1858E01025F1F4FC8010E9431
:102C9000B70D8091C830811116C00C501109C801C0
:102CA0000E94B70D8A8D9091CA30981710F48093C6
:102CB000CA30BBE08B9FC0011124B80188509F4CE3
:102CC0000E94450D05C0B80183ED90E30E94450DBB
:102CD000E0912431F091253181E02A8D928D2917E0
:102CE00008F480E0DF91CF911F910F91089520911A
:102CF000C530FC0120834091CC305091CD306091A3
:102D0000CE307091CF3041835283638374830895B2
:102D10008F929F92AF92BF92CF92DF92EF92FF92EB
:102D20000F931F93CF93DF93FC010FB6F8940F928C
:102D30008091C5309081981789F08091CC30909126
:102D4000CD30A091CE30B091CF300181128123815E
:102D5000348180179107A207B307A8F58091CC3082
:102D60009091CD30A091CE30B091CF30C180D28043
:102D7000E380F480EB01088119812A813B818C1961
:102D80009D09AE09BF0980179107A207B307E8F4B0
:102D9000CF018090CC309090CD30A090CE30B090CC
:102DA000CF30B501A4014C195D096E097F09041BE0
:102DB000150B260B370B088319832A833B830E944C
:102DC000771680E003C081E001C081E00F900FBE64
:102DD000DF91CF911F910F91FF90EF90DF90CF90F7
:102DE000BF90AF909F908F90089581E08093C63000
:102DF0000895009721F48091243190912531DC01D0
:102E00005B96ED91FC915C978081813141F4319624
:102E100080E090E0019621912131E1F3089580E076
:102E200090E00895809124319091253108950F9379
:102E30001F93CF93DF93FC01228DA0912431B09199
:102E400025315A968C91281708F041C0A091243161
:102E5000B09125315A963C9184E090E0A0E0B0E03A
:102E6000831B9109A109B10986879787A08BB18B34
:102E70008BE0289F9001112428503F4C8485958534
:102E800082179307E9F48F01EF012296CE010E9489
:102E9000B70DE0912431F0912531828DF801828FB8
:102EA0009091CA30981710F48093CA30FBE08F9F3E
:102EB000C0011124BE0188509F4C0E94450D07C0DF
:102EC000A0912431B09125315A968C91828FDF9157
:102ED000CF911F910F9108950F931F93CF93DF937D
:102EE000009749F1FC01328D27A1321721F1EC0145
:102EF0008C010E5F1F4FC8010E94B70D8FA18A8FF2
:102F000044E050E060E070E0481B5109610971093C
:102F10004E875F87688B798B9091CA30981710F431
:102F20008093CA30FBE08F9FC0011124B801885004
:102F30009F4C0E94450DDF91CF911F910F910895F5
:102F4000EC01E881F9810190F081E02D19951A8258
:102F50001B826FEF7FEFCB010E948315FACFFC013C
:102F60006487658708954F925F926F927F928F92E8
:102F70009F92AF92BF92CF92DF92EF92FF920F9308
:102F80001F93CF93DF93CDB7DEB72A97CDBFDEBFB8
:102F90004C012901380183E490E2F401808391839C
:102FA000FB018081882369F0DE011196319690E063
:102FB00002C0993039F09F5F8D9381918111F9CFD3
:102FC00001C090E0E1E0F0E0EC0FFD1FE90FF11D22
:102FD00010827401F2E0EF0EF11CA12CB12CC12C77
:102FE000D12C042F9401A201BE016F5F7F4F82E9B3
:102FF00093E00E942F12F401668277824086518608
:1030000020912631309127312483358380922631D7
:103010009092273114861586409064315090653126
:10302000FFEF4F1A5F0A4092643150926531F4010C
:103030004286538616861786108A118A6114710497
:1030400009F444C0813079F56AE0C3010E94181D7B
:103050007C0160E776E00E94E11CBE016F5F7F4F5C
:10306000C7010E94E11C6AE0C7010E94181D7C0193
:1030700067E676E00E94E11C6AE0C7010E94181D25
:103080007C0169E576E00E94E11C63E0C7010E94D3
:10309000181DB2010E945F1D62E00E94181D66E0CB
:1030A0000E94181D13C06AE0C3010E94181D4C0144
:1030B00064E476E00E94E11CBE016F5F7F4FC401B3
:1030C0000E94E11C66E0C4010E94181D2A96CDBF33
:1030D000DEBFDF91CF911F910F91FF90EF90DF90B6
:1030E000CF90BF90AF909F908F907F906F905F90A8
:1030F0004F900895CF92DF92EF92FF920F931F931C
:10310000CF93DF93EC017B018A819B810E94861320
:103110006C016AE0C7010E94181D8C0163E876E02B
:103120000E94E11C6AE0C8010E94181D8C016CE736
:1031300076E00E94E11CB601C8010E94E11C6AE031
:10314000C8010E94181D8C0166E776E00E94E11C10
:1031500066E0C8010E94181D8A859B85E885F9856F
:1031600001E121E0A701BC018E1B9F0B0E947C1B8B
:103170008C819D81009719F0B7010E947A18DF9128
:10318000CF911F910F91FF90EF90DF90CF90089516
:103190000F931F93CF93DF93EC0180912631909191
:1031A0002731009719F0BE010E947A186AE0CE011B
:1031B0000E94181D8C0169E976E00E94E11C6AE01A
:1031C000C8010E94181D8C016EE876E00E94E11C87
:1031D0006AE0C8010E94181D8C0168E876E00E9430
:1031E000E11C66E0C8010E94181D80916431909135
:1031F0006531BC016F5F7F4F01E121E0AE01835675
:1032000091090E947C1BDF91CF911F910F9108952E
:103210008F929F92AF92BF92CF92DF92EF92FF92E6
:103220000F931F93CF93DF93EC018B018A819B81D6
:103230000E948613BC01C8010E94E11CD801ED91D7
:10324000FC910280F381E02D69E0C80119958A8123
:103250009B810E948613FC0101900020E9F73197C1
:10326000E81BF90B389748F4D801ED91FC910280E6
:10327000F381E02D69E0C8011995CE84DF84E888E8
:10328000F988A884B9848A819B810E94F916982EB6
:103290008C848A819B810E943113682FC8010E940F
:1032A000D51D6AE00E94181DEC016EE077E00E94D7
:1032B000E11C682DCE010E94D51D6AE00E94181DF8
:1032C000EC016CE077E00E94E11C692DCE010E94C8
:1032D000D51D6AE00E94181DEC016AE077E00E94AB
:1032E000E11CB501CE010E945F1D6AE00E94181D1D
:1032F000EC0168E077E00E94E11C6AE0CE010E94E8
:10330000181DEC0166E077E00E94E11CB701A60100
:10331000CE010E94931DDF91CF911F910F91FF90DD
:10332000EF90DF90CF90BF90AF909F908F900895D7
:10333000CF93DF93EC01CB01DB01ED91FC91028097
:10334000F381E02DBE011995CE01DF91CF91089553
:103350000F931F93CF93DF93EC018B01BC01C80146
:103360000E94981966E00E94181D8C819D8100972B
:1033700019F0B8010E94A819DF91CF911F910F9108
:1033800008950F931F93CF93DF93EC016AE00E949F
:10339000181D8C016BEF76E00E94E11C6AE0C80109
:1033A0000E94181D8C0164EF76E00E94E11C66E02B
:1033B000C8010E94181D6AE0CE010E94181D8C01F0
:1033C00063EE76E00E94E11C6AE0C8010E94181DCD
:1033D0008C0167ED76E00E94E11C6AE0C8010E9462
:1033E000181D8C0161ED76E00E94E11C66E0C801C9
:1033F0000E94181D6AE0CE010E94181D8C0160EC2D
:1034000076E00E94E11C6AE0C8010E94181D8C0150
:1034100064EB76E00E94E11C6AE0C8010E94181D7E
:103420008C016EEA76E00E94E11C66E0C8010E9411
:10343000181D8091263190912731009719F0BE0117
:103440000E94A8190E948E130E94F916182F6AE094
:10345000CE010E94181DEC0163EA76E00E94E11C97
:10346000612FCE010E94D51D6AE00E94181DEC015B
:1034700061EA76E00E94E11C64E670E0CE010E9401
:103480005F1D6AE00E94181DEC016EE976E00E9463
:10349000E11C66E0CE010E94181DDF91CF911F91C3
:1034A0000F9108950F93CF93DF931F92CDB7DEB79F
:1034B00000E02FEF3FEFA901BE016F5F7F4FFC01DE
:1034C000808591850E940D11813019F4898190E0E9
:1034D00002C08FEF9FEF0F90DF91CF910F91089572
:1034E000FC01808591850E94D11191E0811101C07C
:1034F00090E0892F08950F93CF93DF931F92CDB75C
:10350000DEB76983FC01228533854485558500E05B
:10351000BE016F5F7F4F808591850E94721091E0A0
:10352000811101C090E0892F0F90DF91CF910F9111
:1035300008958F929F92BF92CF92DF92EF92FF9267
:103540000F931F93CF93DF93EC01B62E4A016801CE
:1035500079010E94D31C8BE490E2888399838E8644
:103560009F8640E061E08B2D0E94441088879987F8
:10357000CA86DB86EC86FD86DF91CF911F910F9185
:10358000FF90EF90DF90CF90BF909F908F90089525
:10359000CF92DF92EF92FF92CF93DF93EC0168819D
:1035A00079818A819B810F2EF8EECF2EF3E0DF2EFA
:1035B000E12CF12CF02DA70196010E9455229B01D0
:1035C000AC0160E472E48FE090E00E943122A70138
:1035D00096010E94552269017A01AC81BD8120E4E7
:1035E00032E44FE050E00E94BD2220E038E448EE93
:1035F00051E00E945522C701B601620F731F841F5C
:10360000951FDF91CF91FF90EF90DF90CF900895BD
:10361000CF92DF92EF92FF920F931F93CF93DF939E
:10362000CDB7DEB72F97CDBFDEBF6C018B01DB01BD
:103630006D917D918D919C9128EE33E040E050E0BA
:103640000E945522BA01A901C6010E94931DD6010C
:10365000ED91FC910280F381E02D6EE2C601199597
:10366000C8010E94C81A8E01095F1F4FFE013196E2
:103670007F012AE030E040E050E00E947722E62F10
:10368000288739874A875B87688579858A859B85FE
:1036900020E32E0FD8012E938D01AE15BF0549F7FB
:1036A0001F82BE016F5F7F4FC6010E94E11CC601F1
:1036B0002F96CDBFDEBFDF91CF911F910F91FF906D
:1036C000EF90DF90CF900895CF93DF93EC010FB68A
:1036D000F8940F9280912008909121088C839D830B
:1036E0000E947813688379838A839B830F900FBE2F
:1036F000CE01DF91CF9108955F926F927F928F926A
:103700009F92AF92BF92CF92DF92EF92FF920F9370
:103710001F93CF93DF935C014B017A01122F702E20
:1037200063E0CA010E94181DA814B90408F07DC006
:10373000650184E1C80ED11C00E06A2C5B2CB50148
:10374000C7010E945F1D6AE00E94181D60E277E0D9
:103750000E94E11C112309F46DC0002309F46AC022
:103760006AE0C7010E94181D6BE177E00E94E11C2E
:1037700061C0112371F001110CC08881871549F0D7
:103780006AE0C7010E94181D66E177E00E94E11C13
:1037900001E06991C7010E94D51DDC01ED91FC910A
:1037A0000280F381E02D60E21995CC16DD0609F761
:1037B000112389F06AE0C7010E94181DEC0160E145
:1037C00077E00E94E11CE881F9810280F381E02D1D
:1037D00060E2CE011995C62DD52D699180EE860F38
:1037E0008F3548F4D701ED91FC910280F381E02DF3
:1037F000C701199509C0D701ED91FC910280F381B1
:10380000E02D6EE2C7011995CC16DD0631F7B4E163
:10381000AB0EB11C66E0C7010E94181D84E1C80E02
:10382000D11CA814B90408F488CF62E0C7010E9433
:10383000181D03C0C62DD52D9CCFDF91CF911F91B0
:103840000F91FF90EF90DF90CF90BF90AF909F903F
:103850008F907F906F905F9008950E945E0C089506
:103860000E945E0C08950895CF93DF93FC01DA0166
:10387000403A68E0560749F480E496E082839383F7
:1038800082E0848383E0858332C0403B78E0570741
:1038900049F480E496E08283938386E0848387E022
:1038A000858325C0403A89E0580749F480E696E0D0
:1038B0008283938382E0848383E0858318C0403BC6
:1038C00069E0560749F480E696E08283938386E0B8
:1038D000848387E085830BC0403A5A4041F480E8F6
:1038E00096E08283938382E0848383E08583A6834A
:1038F000B783CD010196808791870396828793874E
:103900002581C281D3814C8181E090E0BC0102C05D
:10391000660F771F2A95E2F79B01242B2C832581C4
:10392000C281D3814881BC0102C0660F771F2A95EE
:10393000E2F79B01242B28833481C281D381288123
:1039400002C0880F991F3A95E2F7809590958223DF
:10395000888380E113968C93139783E015968C935C
:10396000159780EF17968C93179781E216968C9394
:10397000169788E114968C9380E8858780E4868783
:1039800080E284870680F781E02D80818081DF914D
:10399000CF91089581E0089580E090E0089580E05F
:1039A000089508950895FC018BE590E2808391834A
:1039B0008AE08283138283E08583148216821782D1
:1039C00008950F931F93CF93DF938C01FB01DC01CC
:1039D00014968C91811104C06081611117C023C0BD
:1039E000D80114961C92EB01219664916623D9F0BC
:1039F000D801ED91FC910280F381E02DC801199569
:103A0000FE01649121966111F3CF0DC0EF01219663
:103A1000D801ED91FC910280F381E02DC801199548
:103A200069916111F5CFDF91CF911F910F910895A9
:103A3000CF93DF93EC01862F90E08B309105D8F582
:103A4000FC018827E65AFE4F8F4F0C94962282E0A5
:103A50008A8331C088E08A832EC08AE08A832BC0A3
:103A600080E18A8328C081E08B8325C01B8223C02C
:103A7000E881F9810280F381E02D6DE0CE01199596
:103A8000E881F9810280F381E02D6AE0CE01199589
:103A900012C0E881F9810284F385E02DCE011995E9
:103AA0000AC0E881F9810084F185E02DCE011995E5
:103AB00002C081E08C83CE01DF91CF910895FF9207
:103AC0000F931F93CF93DF93CDB7DEB76197CDBF31
:103AD000DEBF8C01F62E972FF8014281403121F094
:103AE000483011F0423041F4692FC8010E94D51DC1
:103AF0006F2D0E94D51D0DC050E0BE016F5F7F4F3E
:103B00008F2D0E943023BE016F5F7F4FC8010E943E
:103B1000E11CC8016196CDBFDEBFDF91CF911F913F
:103B20000F91FF900895DF92EF92FF920F931F93F2
:103B3000CF93DF93CDB7DEB7A197CDBFDEBF8C01AA
:103B4000D42EE52EF62E972FF8012281203121F078
:103B5000283011F0223071F4692FC8010E94D51D60
:103B60006F2D0E94D51D6E2D0E94D51D6D2D0E94BA
:103B7000D51D0FC030E0AE014F5F5F4F6D2D7E2D24
:103B80008F2D0E940323BE016F5F7F4FC8010E94EB
:103B9000E11CC801A196CDBFDEBFDF91CF911F917F
:103BA0000F91FF90EF90DF900895CF92DF92EF9208
:103BB000FF920F931F93CF93DF93CDB7DEB7299773
:103BC000CDBFDEBF8C01E62EDC0113968C911397DE
:103BD000882341F0ED91FC910280F381E02DC80132
:103BE000199556C0F8014281423019F56894CC24E9
:103BF000C3F8D12C6894FF24F7F88E2D8F2151F053
:103C0000D801ED91FC910280F381E02D61E3C801C0
:103C1000199509C0D801ED91FC910280F381E02D46
:103C200060E3C8011995F694B1E0CB1AD10829F7E1
:103C30002FC04031F9F462956F700190F081E02D52
:103C40000280F381E02D6A3010F0695C01C0605D94
:103C5000C80119956E2D6F70D801ED91FC9102800D
:103C6000F381E02D6A3010F0695C01C0605DC8012D
:103C700019950EC050E0BE016F5F7F4F8E2D90E012
:103C80000E943023BE016F5F7F4FC8010E94E11C7C
:103C9000C8012996CDBFDEBFDF91CF911F910F9153
:103CA000FF90EF90DF90CF900895DC015096ED915A
:103CB000FC915197808154964C915497842329F01C
:103CC00009C02150310919F412C021E23EE490816B
:103CD0009423B9F3908156968C915697892B8083C3
:103CE0001E96ED91FC911F97608381E0089580E01E
:103CF0000895CF93DF93FC01C18DD28D2881398146
:103D0000A38DB48D4D915C9124173507E9F3A789F4
:103D1000B08D0D90BC91A02DA20FB31F8C912F5F81
:103D20003F4F288339832436310528F0018CF28DEA
:103D3000E02D1082118290E0DF91CF910895CF9312
:103D4000DF93EC01A98DBA8DEB8DFC8D81E04D9157
:103D50005C91208131814217530709F480E0DF91A3
:103D6000CF910895DC01ED91FC910280F381E02D6B
:103D70006CE019950895EF92FF920F931F93CF93E4
:103D8000DF93EC017B018A010E94D31CA801B701DB
:103D9000CE0108960E94341C8BE690E288839983BA
:103DA000003A88E0180769F484E491E38F8B988FD8
:103DB0008AE391E3898F9A8F80E391E38B8F9C8FC5
:103DC00042C0003BE8E01E0769F482E491E38F8B78
:103DD000988F88E391E3898F9A8F8EE291E38B8F9E
:103DE0009C8F31C0003AF9E01F0769F480E491E349
:103DF0008F8B988F86E391E3898F9A8F8CE291E382
:103E00008B8F9C8F20C0003B89E0180769F48EE3FC
:103E100091E38F8B988F84E391E3898F9A8F8AE265
:103E200091E38B8F9C8F0FC0003A1A4061F48CE3B2
:103E300091E38F8B988F82E391E3898F9A8F88E249
:103E400091E38B8F9C8F0F89188D84E690E00E9400
:103E5000301CF80180839183E98DFA8D10821182E4
:103E6000EB8DFC8D10821182DF91CF911F910F910C
:103E7000FF90EF9008951F920F920FB60F921124AA
:103E800008B60F9218BE0BB60F921BBE2F933F932E
:103E90008F939F93EF93FF932091A008E09144317B
:103EA000F09145318091303190913131E80FF91F17
:103EB0002083809130319091313101968436910583
:103EC00060F4809330319093313120913A313091C8
:103ED0003B3182179307F1F40CC0109230311092ED
:103EE000313180913A3190913B311816190691F495
:103EF0000EC001968436910528F480933A31909350
:103F00003B3108C010923A3110923B3103C081E03E
:103F100090E0F3CFFF91EF919F918F913F912F917F
:103F20000F900BBE0F9008BE0F900FBE0F901F900A
:103F300018951F920F920FB60F92112408B60F9288
:103F400018BE0BB60F921BBE2F933F938F939F9378
:103F5000EF93FF932091B008E0914231F09143310B
:103F600080912E3190912F31E80FF91F208380919D
:103F70002E3190912F3101968436910560F4809313
:103F80002E3190932F312091383130913931821771
:103F90009307F1F40CC010922E3110922F318091C2
:103FA0003831909139311816190691F40EC00196E6
:103FB0008436910528F4809338319093393108C0C4
:103FC000109238311092393103C081E090E0F3CF84
:103FD000FF91EF919F918F913F912F910F900BBE89
:103FE0000F9008BE0F900FBE0F901F9018951F9254
:103FF0000F920FB60F92112408B60F9218BE0BB68F
:104000000F921BBE2F933F938F939F93EF93FF933A
:104010002091A009E0914031F091413180913031FF
:1040200090913131E80FF91F208380912C319091CC
:104030002D3101968436910560F480932C31909354
:104040002D31209136313091373182179307F1F4B9
:104050000CC010922C3110922D31809136319091FC
:1040600037311816190691F40EC001968436910561
:1040700028F4809336319093373108C0109236314E
:104080001092373103C081E090E0F3CFFF91EF91C0
:104090009F918F913F912F910F900BBE0F9008BE73
:1040A0000F900FBE0F901F9018951F920F920FB692
:1040B0000F92112408B60F9218BE0BB60F921BBEBA
:1040C0002F933F938F939F93EF93FF932091B0098A
:1040D000E0913E31F0913F3180912A3190912B3126
:1040E000E80FF91F208380912A3190912B3101969E
:1040F0008436910560F480932A3190932B3120917E
:1041000034313091353182179307F1F40CC010929D
:104110002A3110922B31809134319091353118161B
:10412000190691F40EC001968436910528F4809307
:1041300034319093353108C01092343110923531BA
:1041400003C081E090E0F3CFFF91EF919F918F91B9
:104150003F912F910F900BBE0F9008BE0F900FBE96
:104160000F901F9018951F920F920FB60F92112467
:1041700008B60F9218BE0BB60F921BBE2F933F933B
:104180008F939F93EF93FF932091A00AE0913C318E
:10419000F0913D318091283190912931E80FF91F3C
:1041A00020838091283190912931019684369105A0
:1041B00060F48093283190932931209132313091ED
:1041C000333182179307F1F40CC01092283110920A
:1041D000293180913231909133311816190691F4BA
:1041E0000EC001968436910528F480933231909365
:1041F000333108C0109232311092333103C081E064
:1042000090E0F3CFFF91EF919F918F913F912F918C
:104210000F900BBE0F9008BE0F900FBE0F901F9017
:1042200018950F93CF93DF931F92CDB7DEB72FB7BB
:104230002983F8941BBEFC0108ED04BF60838981CB
:104240008FBF0F90DF91CF910F9108950F931F9320
:10425000CF93DF93CDB7DEB76D97CDBFDEBFE0E67E
:10426000F6E080E481838583F894E0E5F0E08081E6
:1042700082608083818181FFFDCF60914000687FF3
:10428000616080E490E00E941121E0E5F0E080812F
:104290008E7F80839DEF88ED08B618BE84BF909313
:1042A000800008BE40EB58E060E070E0CE0101966F
:1042B0000E94BB1E67E0CE0101960E94181D8C0172
:1042C00067E770E20E94E11C66E0C8010E94181DC9
:1042D00066E00E94181D82E190E00E942D1C8E0174
:1042E0000F5F1F4F24E031E040E066E970E20E947A
:1042F0005D0982E190E00E942D1C24E031E042E063
:104300006EE970E20E944B0482E190E00E942D1C55
:1043100024E031E043E065EA70E20E94A40482E117
:1043200090E00E942D1C24E031E044E06CEA70E251
:104330000E9409058CE690E00E942D1C24E031E0EB
:1043400043E065EB70E20E941F0987E08093A200C2
:1043500078940E943F1380E090E06D96CDBFDEBF61
:10436000DF91CF911F910F9108950F931F930AE052
:1043700010E020E030E040E050E060E270E084E5F2
:1043800091E30E94991A1F910F9108950E940822AB
:1043900008F481E00895E89409C097FB3EF49095F5
:1043A0008095709561957F4F8F4F9F4F9923A9F00E
:1043B000F92F96E9BB279395F6958795779567959D
:1043C000B795F111F8CFFAF4BB0F11F460FF1BC0E1
:1043D0006F5F7F4F8F4F9F4F16C0882311F096E974
:1043E00011C0772321F09EE8872F762F05C0662322
:1043F00071F096E8862F70E060E02AF09A95660FDB
:10440000771F881FDAF7880F9695879597F9089593
:10441000990F0008550FAA0BE0E8FEEF16161706D5
:10442000E807F907C0F012161306E407F50798F03D
:10443000621B730B840B950B39F40A2661F0232B56
:10444000242B252B21F408950A2609F4A140A695D2
:104450008FEF811D811D08950E94082208F48FEFBF
:104460000895DB018F939F930E94BD22BF91AF916E
:10447000A29F800D911DA39F900DB29F900D1124BE
:10448000089597FB072E16F4009407D077FD09D006
:104490000E94D02207FC05D03EF4909581959F4F55
:1044A0000895709561957F4F0895A1E21A2EAA1B79
:1044B000BB1BFD010DC0AA1FBB1FEE1FFF1FA217D4
:1044C000B307E407F50720F0A21BB30BE40BF50BD1
:1044D000661F771F881F991F1A9469F7609570955A
:1044E000809590959B01AC01BD01CF010895052EEB
:1044F00097FB1EF400940E948E2257FD07D00E9465
:10450000552207FC03D04EF40C948E225095409512
:10451000309521953F4F4F4F5F4F0895909580956F
:10452000709561957F4F8F4F9F4F0895EE0FFF1F3E
:10453000881F8BBF0790F691E02D1BBE19940E9437
:10454000A722332312F48A1B9B0B0C94B822A29F40
:10455000B001B39FC001A39F700D811D1124911D57
:10456000B29F700D811D1124911D08950E94A722F4
:10457000B7FF0895821B930B08950E94A722A59F61
:10458000900DB49F900DA49F800D911D112408954E
:10459000B7FF0C94BD220E94BD22821B930B08958D
:1045A000AA1BBB1B51E107C0AA1FBB1FA617B70759
:1045B00010F0A61BB70B881F991F5A95A9F7809575
:1045C0009095BC01CD010895FB01DC0102C0019072
:1045D0000D9241505040D8F70895DC0101C06D9311
:1045E00041505040E0F70895FB01DC01415050403C
:1045F00048F001900D920020C9F701C01D92415072
:104600005040E0F708952532310520F4223010F0B3
:104610000C940E23FA011082CA010895BB27FA01F7
:10462000A62F6217710581059105330B30FB66F0EB
:10463000AA27660F771F881F991FAA1FA21710F0BD
:10464000A21B63953850A9F7A05DAA3308F0A95DB5
:10465000A19336F7B111B1931082CA010C9455237E
:104660004532510520F4423010F00C943B23FB01FD
:104670001082CB010895BB27FB015527AA27880F7D
:10468000991FAA1FA41710F0A41B83955051B9F7C6
:10469000A05DAA3308F0A95DA193009779F7B11145
:1046A000B1931192CB010C945523DC01FC01672FCF
:1046B00071917723E1F7329704C07C916D937083F9
:0E46C0006291AE17BF07C8F30895F894FFCFBC
:1046CE00FF0FFFFFFFFF00000000CD0308190000E1
:1046DE0000005B04081900000000B40408194572BC
:1046EE00726F72205374617465000000000019052A
:1046FE00081900000000D80A081949444C4500006A
:10470E00000000331C081900000000CA1C7B1A7040
:10471E001A521AD11CD21C00000000CA1C331CCF26
:10472E001CCC1CD11CD21C00000000CA1C551E9FA4
:10473E001E791ED11CB21E4672656552544F53200F
:10474E00584D4547412054657374696E6720507209
:10475E006F6772616D0055736572496E7400456EB8
:10476E00634D747200456E6350656E004C696D53F7
:0C477E0077746368004D6F746F72000068
:00000001FF
