S01600004652454552544F535F5348454C4C2E73726563CD
S11300000C94AD020C94E3020C94E3020C94E3020E
S11300100C94E3020C94E3020C94E3020C94E302C8
S11300200C94E3020C94E3020C94E3020C94E302B8
S11300300C94E3020C94E3020C94E3020C94E302A8
S11300400C94E3020C94E3020C94E3020C94E30298
S11300500C94E3020C94E3020C94E3020C94E30288
S11300600C94E3020C94061C0C94E3020C94E3023B
S11300700C94641C0C94E3020C94E3020C94E302CD
S11300800C94E3020C94E3020C94E3020C94E30258
S11300900C94E3020C94E3020C94E3020C94E30248
S11300A00C94E3020C94E3020C94E3020C94E30238
S11300B00C94E3020C94E3020C94E3020C94E30228
S11300C00C94E3020C94200C0C94E3020C94E302D1
S11300D00C94E3020C94E3020C94E3020C94E30208
S11300E00C94E3020C94E3020C947E1D0C94E30242
S11300F00C94E3020C94E3020C94E3020C94E302E8
S11301000C94E3020C94E3020C94E3020C94E302D7
S11301100C94E3020C94E3020C94E3020C94E302C7
S11301200C94E3020C94E3020C94E3020C94E302B7
S11301300C94E3020C94E3020C94E3020C94E302A7
S11301400C94E3020C94E3020C94E3020C94E30297
S11301500C94E3020C94E3020C94E3020C94E30287
S11301600C94C21C0C94E3020C94E3020C94201D26
S11301700C94E3020C94E3020C94E3020C94E30267
S11301800C94E3020C94E3020C94E3020C94E30257
S11301900C94E3020C94E3020C94E3020C94E30247
S11301A00C94E3020C94E3020C94E3020C94E30237
S11301B00C94E3020C94E3020C94E3020C94E30227
S11301C00C94E3020C94E3020C94E3020C94E30217
S11301D00C94E3020C94E3020C94E3020C94E30207
S11301E00C94E3020C94E3020C94E3020C94E302F7
S11301F00C94E3020C94E3020C94E302F219F51953
S1130200F819FB19FE19011A031A141A1C1A261AD2
S1130210241A0C9438030C941D170C94D3150C94C5
S1130220241A0C94011A0C943B170C94F2190C9494
S1130230A40E0C9490040C94D7070C9497190C9466
S1130240FE180C946F060C946A1B0C94F8190C9409
S1130250141A0C949C190C949D190C94BB030C94C3
S113026004090C94201B0C949A190C9495190C9461
S1130270A11E0C94AA020C9446170C947D1B0C949A
S1130280441B0C942B040C941C1A0C94031A0C9409
S1130290261A0C9413030C94FE190C94F5190C945F
S11302A0FB192C20544343304343413D002F002C81
S11302B0204865617020667265653A200054696D56
S11302C0653A2000446563202036203230313700FF
S11302D04D45343035206261736520726164696F05
S11302E02070726F6772616D2056302E34200020AA
S11302F0202020683A20202048414C502100202012
S11303002020653A2020204578697420636F6D6D44
S1130310616E64206D6F64650020202020733A2094
S11303202020537461636B2064756D7020666F7256
S1130330207461736B730020202020763A202020E3
S113034056657273696F6E20616E6420736574758F
S11303507020696E666F726D6174696F6E00202023
S113036020206E3A20202053686F7720746865201F
S113037074696D65207269676874206E6F770020F8
S113038020496E20636F6D6D616E64206D6F6465CE
S1130390206F6E6C793A00202043746C2D413A2012
S11303A0456E74657220636F6D6D616E64206D6F50
S11303B0646500202043746C2D433A2052657365B4
S11303C0742074686520415652002068656C700082
S11303D04D45343035206261736520726164696F04
S11303E02070726F6772616D2056302E3420001BAE
S11303F05B33306D001B5B34366D00496C6C656794
S1130400616C207374617465212052657365747422
S1130410696E6720415652003A5754463F0045786A
S1130420697420636F6D6D616E64206D6F64650027
S1130430526573657474696E672041565200507238
S1130440657373204374726C2D4120666F72206350
S11304506F6D6D616E64206D6F64650052657365C8
S11304607474696E67004552524F5220696E20744D
S113047061736B20004552524F5220637265617460
S1130480696E67207461736B20002C207374616340
S11304906B20617420307800206372656174656438
S11304A0005461736B20001B5B32326D0054617326
S11304B06B3A20001B5B316D001B5B32326D0054C4
S11304C061736B3A2049444C45001B5B316D000954
S11304D009002F0049444C45090930092D09000938
S11304E02D2D2D2D00092D2D2D2D2D2D2D2D2D2D89
S11304F0002D2D2D2D09092D2D2D2D092D2D2D2DC1
S11305002D000952756E730009467265652F546F8C
S113051074616C004E616D6509095072692E09534E
S1130520746174650009537461636B005461736B87
S113053009092020092000090009002F00090009E9
S1130540001B5B32326D001B5B316D001B5B316D38
S1130550002020000E946B14A11E11241FBECFEFA7
S1130560CDBFDFE3DEBF00E00CBF18BE19BE1ABE6C
S11305701BBE10E2A0E0B0E2E6EAF0E400E00BBF4C
S113058002C007900D92AA3EB107D9F71BBE21E322
S1130590AAEEB0E201C01D92A039B207E1F712E061
S11305A0CDEAD2E000E006C021970109802FFE01C8
S11305B00E94821FCC3AD10780E00807A9F70E9465
S11305C0F11D0C9451200C9400009C01932F991F51
S11305D09927991F892F90E081509048432F409587
S11305E0441F4427441FFC01E21BF30B51E0E617B0
S11305F0F7070CF050E0451719F0C901860F971F53
S11306000895811520E8920721F4611520E8720706
S113061029F09C01DB010E948B1F08956FEF7FEF8F
S11306208FEF9FE70895CF93DF9300D01F92CDB74C
S1130630DEB70E94431069837A838B839C8342E1F3
S113064050E060E070E0CE0101960E94E111F7CF26
S11306500F931F93CF93DF93EC010E947E148AE0E3
S113066090E288839983DF91CF911F910F91089530
S1130670CF93DF9300D01F92CDB7DEB77C010E94E9
S1130680431069837A838B839C83E0E8F6E08CE0F3
S1130690828382898360828B83898360838BE0E891
S11306A0F1E082E7808389E08087E0E0F9E088E692
S11306B083838FEF9FEF86A397A381E080830F2E20
S11306C0A12CF9E0BF2EF02DF50100A111A10FB668
S11306D0F8940F92C801012E000CAA0BBB0BAC01BD
S11306E0BD01440F551F661F771F3A014B01680E69
S11306F0791E8A1E9B1EC401B30124E630E040E04B
S113070050E00E94631F20937C3130937D310F9021
S11307100FBE0FB6F8940F92C8018C199D098093EF
S11307207A3190937B310F900FBEF70186859785C0
S1130730A089B1890196A11DB11D86879787A08BD9
S1130740B18B41E050E060E070E0CE0101960E9480
S1130750E1116801B9CF0F931F93CF93DF93EC019D
S11307600E947E1482E190E288839983DF91CF9185
S11307701F910F910895CF93DF9300D01F92CDB7AF
S1130780DEB78C010E94431069837A838B839C8338
S1130790E0E8F6E083E08283808B818BE0E8F1E09F
S11307A080E7828389E08287E0E4F8E08AE6838355
S11307B080EA95E086A397A381E080836894EE2481
S11307C0E6F8FF24F3F8F701A0A1B1A10FB6F8945D
S11307D00F9224E630E00E94A21F4B015C01992392
S11307E02CF4F3E08F0E911CA11CB11CD501C401A3
S11307F0B595A79597958795B595A7959795879559
S113080080937831909379310F900FBEF8018685EB
S11308109785A089B1890196A11DB11D8687978707
S1130820A08BB18B43E050E060E070E0CE01019614
S11308300E94E111C8CF0F931F93CF93DF93EC0174
S11308400E947E148AE190E288839983DF91CF919C
S11308501F910F910895CF93DF9300D01F92CDB7CE
S1130860DEB77C010E94431069837A838B839C8367
S1130870E0E6F6E081E0828384E0828388E1808B95
S1130880828B08E616E0DD24D394F801808180FD94
S113089008C00FB6F8940F92D09277310F900FBE24
S11308A007C00FB6F8940F92109277310F900FBED5
S11308B0F801808182FD08C00FB6F8940F92D0929F
S11308C076310F900FBE07C00FB6F8940F921092B6
S11308D076310F900FBEF70186859785A089B1897F
S11308E00196A11DB11D86879787A08BB18B43E02C
S11308F050E060E070E0CE0101960E94E111C5CFA6
S11309000F931F93CF93DF93EC010E947E1482E236
S113091090E288839983DF91CF911F910F9108957D
S1130920CF93DF93CDB7DEB76697CDBFDEBF8C0123
S11309300E94431069837A838B839C83F801FE961B
S113094085E090E0A0E0B0E080839183A283B3834C
S113095081E090E0F80184AF95AF9801285B3F4FA8
S11309602D833E8337E03D8B1E8AA801445B5F4F95
S11309704F835887C801865B9F4F8F87988BEC59AC
S1130980FF4FE987FA8798012C5B3F4F2B873C8701
S1130990465051094D875E874296898B9A8B180180
S11309A096E6290E311C3496EB8BFC8B4801FEE352
S11309B08F0E911C580120E5A20EB11C68013EE582
S11309C0C30ED11CF80186859785A089B18901964B
S11309D0A11DB11D86879787A08BB18B24E630E0DB
S11309E0228F338F0FB6F8940F9280917A319091C1
S11309F07B310F900FBE868F978F4D89ED81FE81DD
S1130A0040835E89518343EB50E0EF81F885408356
S1130A105183EF85F8891082118243EF50E0E98514
S1130A20FA854083518340E456E0EB85FC8540839E
S1130A30518340EC59EFED85FE8540835183790164
S1130A40E81AF90AB70187E090E00E9401032B013C
S1130A503C01E989FA8960837183F1018081918184
S1130A609701281B390BC901EB89FC892083318349
S1130A70EF81F88520813181829FD001839FB00D61
S1130A80929FB00D1124F801E659FF4FA083B18362
S1130A90F40120813181428153810E94B41F9B0162
S1130AA0AC01992324F421503F4F4F4F5F4FBB2794
S1130AB057FDBA95A52F942F832FF50140815181BD
S1130AC062817381840F951FA61FB71F8130FAECD2
S1130AD09F07FAE9AF07FBE3BF0734F4F50180830E
S1130AE09183A283B38309C080E09AECAAE9BBE3B3
S1130AF0F50180839183A283B383F50160817181C1
S1130B00C2010E94E502F801E05AFF4F80839183FD
S1130B10F60180839183EB85FC8520813181281740
S1130B20390724F4F601208331830AC0ED85FE855C
S1130B3020813181821793071CF4F60120833183CD
S1130B40F801E25BFF4FE082F182F60120813181FE
S1130B50821B930BF801EE59FF4F80839183E98543
S1130B60FA8540815181849F9001859F300D949F27
S1130B70300D1124332314F421503F4F832F880F59
S1130B80880BF101308381830FB6F8940F920F9094
S1130B900FBE80917731811109C00FB6F8940F927E
S1130BA00F900FBE80917631882359F0F801128E90
S1130BB0138EF5011082118212821382F6011082C3
S1130BC011820FB6F8940F92F6018081918180937F
S1130BD07431909375310F900FBEF80110A611A6D1
S1130BE082A193A160E070E00E942D1F7B01072E7B
S1130BF0000C880B990B0E94B91E2B013C0123E3C6
S1130C0033E34BE851E40E94181F181634F481E1D1
S1130C1090E0F80184A395A313C023E333E34BE8E6
S1130C2051ECC301B2010E94B21E882324F0F801E2
S1130C30E4A2F5A205C08FEE9FEFF80184A395A36B
S1130C40F80116AA17AA12AA13AA14AA15AA80A907
S1130C5091A9893191052CF088E190E080AF91AFA2
S1130C600DC0883EFFEF9F0724F0F80180AF91AFDD
S1130C7005C088EE9FEFF80180AF91AFF4012081A9
S1130C80318142815381A8EEB3E00E94A91F683EDE
S1130C90F3E07F078105910548F028EE33E040E05A
S1130CA050E00E94411FBA01A90104C041E050E094
S1130CB060E070E0CE0101960E94E11183CE0F93B3
S1130CC01F93CF93DF93EC010E947E148AE290E29B
S1130CD088839983DF91CF911F910F910895CF93CA
S1130CE0DF9300D01F92CDB7DEB70E944310698313
S1130CF07A838B839C8346E050E060E070E0CE0111
S1130D0001960E94E111F7CF0F931F93CF93DF93C6
S1130D10EC010E947E1482E390E288839983DF9140
S1130D20CF911F910F9108950F931F93CF93DF934A
S1130D30EC010E947E148AE390E288839983DF9118
S1130D40CF911F910F9108950F931F93CF93DF932A
S1130D50EC016AE08E819F810E94E3198C0165EFAA
S1130D6073E00E94AC196AE0C8010E94E3198C0187
S1130D706FEE73E00E94AC1967E0C8010E94E319AA
S1130D806AE08E819F810E94E3198C0160ED73E01B
S1130D900E94AC196AE0C8010E94E3198C016AEC54
S1130DA073E00E94AC1966E0C8010E94E3196AE08E
S1130DB08E819F810E94E3198C0163EB73E00E9492
S1130DC0AC1966E0C8010E94E3196AE08E819F8134
S1130DD00E94E3198C0167E973E00E94AC1966E094
S1130DE0C8010E94E3196AE08E819F810E94E31981
S1130DF08C016FE773E00E94AC1966E0C8010E94A1
S1130E00E3196AE08E819F810E94E3198C016EE5EB
S1130E1073E00E94AC1966E0C8010E94E3196AE01D
S1130E208E819F810E94E3198C0167E373E00E9425
S1130E30AC1966E0C8010E94E3196AE08E819F81C3
S1130E400E94E3198C0169E173E00E94AC1966E029
S1130E50C8010E94E3196AE08E819F810E94E31910
S1130E608C016EEF72E00E94AC1966E0C8010E942A
S1130E70E3196AE08E819F810E94E319EC016FEE11
S1130E8072E00E94AC1966E0CE010E94E319DF9182
S1130E90CF911F910F910895AF92BF92CF92DF929D
S1130EA0EF92FF920F931F93CF93DF9300D000D064
S1130EB0CDB7DEB78C0119821A821B821C821D8277
S1130EC01E820E94F6096C01CE0101960E942F1821
S1130ED05C0166E0F801868197810E94E3196AE06B
S1130EE00E94E3197C0160ED72E00E94AC196AE093
S1130EF0C7010E94E3197C0164EC72E00E94AC1902
S1130F0066E0C7010E94E3196AE00E94E3197C01CC
S1130F106DEB72E00E94AC19B501C7010E94D317B2
S1130F206AE00E94E3197C016FEA72E00E94AC1946
S1130F30B601C7010E942A1A6AE00E94E3197C01E3
S1130F406DEA72E00E94AC194FEF5FE060E070E080
S1130F50C7010E945E1AC0902808D09029086AE050
S1130F60F801868197810E94E3197C0162EA72E0AC
S1130F700E94AC19B601C7010E942A1A66E00E94B9
S1130F80E31966E00E94E319F801868197810E94C3
S1130F908C162696CDBFDEBFDF91CF911F910F91A6
S1130FA0FF90EF90DF90CF90BF90AF900895CF93D4
S1130FB0DF9300D000D0CDB7DEB78C0119821A823E
S1130FC01B821C821D821E826AE0DC0116968D91B2
S1130FD09C9117970E94E3197C016EE374E00E94D0
S1130FE0AC1966E0C7010E94E319F80184858823DF
S1130FF021F0813009F45DC0D8C086819781DC017D
S1131000ED91FC910480F581E02D19958823A9F1D7
S1131010F80186819781DC01ED91FC910680F781CE
S1131020E02D1995992781309105F9F0039709F07E
S1131030D8C06AE0F801868197810E94E3198C0187
S113104060E374E00E94AC1966E0C8010E94E319F1
S113105093E088ED08B618BE84BF90938000809119
S1131060820081FDFCCF08BEFFCFC8010E94A40608
S113107061E0C8010E947A14B4C08EE791E30E9433
S11310803B17882309F4ADC0D8011696ED91FC9165
S113109017970190F081E02DE280F3808EE791E3D1
S11310A00E941D17682FF80186819781F701199511
S11310B098C086819781DC01ED91FC910480F581D3
S11310C0E02D1995882309F48CC0F8018681978155
S11310D0DC01ED91FC910680F781E02D19959C01CE
S11310E033272836310559F13CF42B31310559F1B8
S11310F02536310541F13BC023373105C1F0263790
S1131100310589F02E36310591F5CE0101960E9404
S11311102F18BC01F801868197810E94D31766E0DD
S11311200E94E3195EC0C8010E944C075AC0D8014E
S113113016968D919C9117970E94931552C0C801E1
S11311400E94A4064EC06AE0F801868197810E943D
S1131150E3197C016EE174E00E94AC1966E0C701FA
S11311600E94E31960E0C8010E947A143AC0F801B1
S1131170A681B781ED91FC9111970280F381E02D56
S1131180682FCD0119956AE0D80116968D919C912E
S113119017970E94E3197C0168E174E00E94AC197E
S11311A066E0C7010E94E3191CC06AE0F801868169
S11311B097810E94E3198C016BEF73E00E94AC19D4
S11311C066E0C8010E94E31993E088ED08B618BEF2
S11311D084BF909380008091820081FDFCCF08BE83
S11311E0FFCFF80186859785A089B1890196A11D55
S11311F0B11D86879787A08BB18B61E070E080E09A
S113120090E00E944E12F1CECF93DF9300D01F9254
S1131210CDB7DEB70E94431069837A838B839C83A6
S113122042E050E060E070E0CE0101960E94E111DE
S1131230F7CF0F931F93CF93DF93EC010E947E149B
S113124082E490E288839983DF91CF911F910F917B
S113125008950F931F93CF93DF93EC010E943D10E9
S11312608091EA2081111DC0AFEEB0E2E3EFF0E21D
S1131270ED93FC93119712961D921C921397ABEE6B
S1131280B0E28FEF9FE012968D939C9313971D927B
S11312901C92119782839383A083B18381E080930E
S11312A0EA20209709F45FC09E012B5F3F4F2496EC
S11312B0CE3FDF4008F05AC0E091EF20F091F020DB
S11312C0AFEEB0E202C0DF01FC018281938182179C
S11312D0930720F4808191810097A9F7C0E2EB3E47
S11312E0FC0709F446C0CD91DC9111978E010B5F88
S11312F01F4F808191818D939C9382819381821B66
S1131300930B8B30910510F1BF01620F731FDB014A
S113131012968D939C9313972283338312964D9147
S11313205C9113978FEE90E201C0CD01EC01A8818E
S1131330B98112962D913C91139724173507A8F380
S1131340EB01A883B983DC016D937C938091002029
S11313509091012022813381821B930B8093002082
S11313609093012008C000E010E005C000E010E008
S113137002C000E010E00E945F11C801DF91CF912C
S11313801F910F9108950F931F93CF93DF930097AD
S113139041F1EC018C01055011090E943D10F80146
S11313A042815381AFEEB0E201C0DF01ED91FC91C7
S11313B011972281338124173507B8F32597E883E1
S11313C0F9830D931C9320910020309101208A8190
S11313D09B81820F931F80930020909301200E9491
S11313E05F11DF91CF911F910F910895809100209B
S11313F0909101200895FC010396818392834FEF1D
S11314005FEFBA0143835483658376838783908730
S11314108187928710820895FC01128613860895AD
S1131420CF93DF93FC01DB0121813281E9018C81BF
S11314309D8114968D939C93159781819281169624
S11314408D939C9317978C819D81EC016E837F8390
S1131450E9016C837D83618372831A96ED93FC9317
S11314601B9780818F5F8083DF91CF9108950F93C5
S11314701F93CF93DF93EB01088119812A813B816C
S11314800F3F4FEF14072407340731F4DC0119969A
S1131490ED91FC911A971FC0FC013396DC0117965D
S11314A04D915C911897DA014D915D916D917C910C
S11314B0041715072607370770F00480F581E02D1F
S11314C0A481B5814D915D916D917C9104171507AF
S11314D02607370790F7A481B581AC83BD831696A0
S11314E0CD93DC931797EE83FF83C483D5838A87D8
S11314F09B87FC0120812F5F2083DF91CF911F9177
S11315000F910895FC01A481B58186819781169677
S11315108D939C931797A681B781848195811496A6
S11315208D939C931597A285B38511968D919C916B
S11315301297E817F90731F48681978111968D93F4
S11315409C931297128613868C9181508C930895E4
S113155080938E3190938F3131E1FC013083319748
S113156022E220833197A3E3A083319760833197EC
S113157070833197108231971082319760E86083CD
S1131580319710823197108231971082319762E03F
S11315906083319763E06083319764E060833197BF
S11315A065E06083319766E06083319767E060832C
S11315B0319768E06083319769E06083319760E137
S11315C0608331973083319732E13083319733E14F
S11315D03083319734E13083319735E1308331976B
S11315E036E13083319737E13083319738E1308306
S11315F0319739E13083319730E23083319731E2EA
S1131600308331972083319723E2208331974083BD
S113161031975083319726E22083319727E2208344
S1131620319728E22083319729E22083319720E300
S11316302083319721E32083899708958CE7809351
S1131640290A8FEF8093280A81E08093000A91E1B0
S11316509093010A8093070AA0915231B0915331BB
S1131660CD91CDBFDD91DEBFFF91EF91DF91CF91A1
S1131670BF91AF919F918F917F916F915F914F91A6
S11316803F912F911F910F91FF90EF90DF90CF909A
S1131690BF90AF909F908F907F906F905F904F908E
S11316A03F902F901F900F900CBE0F900BBE0F9089
S11316B00FBE0F90089508950F920FB6F8940F92ED
S11316C00BB60F920CB60F921F9211242F923F92D9
S11316D04F925F926F927F928F929F92AF92BF923E
S11316E0CF92DF92EF92FF920F931F932F933F932A
S11316F04F935F936F937F938F939F93AF93BF9316
S1131700CF93DF93EF93FF93A0915231B091533174
S11317100DB60D920EB60D920E947C12A09152311C
S1131720B0915331CD91CDBFDD91DEBFFF91EF91EB
S1131730DF91CF91BF91AF919F918F917F916F91E5
S11317405F914F913F912F911F910F91FF90EF90D7
S1131750DF90CF90BF90AF909F908F907F906F90CD
S11317605F904F903F902F901F900F900CBE0F9062
S11317700BBE0F900FBE0F9008950F920FB6F89402
S11317800F920BB60F920CB60F921F9211242F9248
S11317903F924F925F926F927F928F929F92AF92FD
S11317A0BF92CF92DF92EF92FF920F931F932F93EA
S11317B03F934F935F936F937F938F939F93AF93D5
S11317C0BF93CF93DF93EF93FF93A0915231B091E6
S11317D053310DB60D920EB60D920E945E100E940A
S11317E07C12A0915231B0915331CD91CDBFDD9196
S11317F0DEBFFF91EF91DF91CF91BF91AF919F91A8
S11318008F917F916F915F914F913F912F911F9194
S11318100F91FF90EF90DF90CF90BF90AF909F908B
S11318208F907F906F905F904F903F902F901F907C
S11318300F900CBE0F900BBE0F900FBE0F9008952B
S11318400E94BD0B1895CF93DF93EC0188A1811101
S11318500BC088819981892BE1F58A819B810E9443
S113186037141A821B8235C0411117C0482F50E02B
S11318708C819D810E94D01F28A18C819D81820F23
S1131880911D8C839D832A813B818217930708F1E4
S1131890888199818C839D831CC0482F50E08E8160
S11318A09F810E94D01F88A190E091958195910914
S11318B02E813F81280F391F2E833F834881598110
S11318C02417350730F42A813B81820F931F8E83BE
S11318D09F838E8D8F5F8E8FDF91CF910895FC0152
S11318E0808191810097A1F040A150E02681378149
S11318F0240F351F26833783A281B3812A173B0720
S113190010F086839783CB01668177810E94D01F74
S113191008950F931F93CF93DF93EC010FB6F894C0
S11319200F928AA11816B4F48B89811105C012C0D4
S11319308B89811104C00EC08E010D5E1F4FC8013A
S11319400E94031381110E94C0138AA181508AA3AB
S1131950181674F38FEF8AA30F900FBE0FB6F89486
S11319600F9289A11816B4F48885811105C012C09C
S11319708885811104C00EC08E01085F1F4FC80105
S11319800E94031381110E94C01389A1815089A36D
S1131990181674F38FEF89A30F900FBEDF91CF91C8
S11319A01F910F9108951F93CF93DF93613059F0E6
S11319B0FC012389308531112CC011E0211110E084
S11319C0211128C001C011E0EC014881598128A1EE
S11319D030E06F8D629FC001639F900D1124BA01A6
S11319E0680F791F6A837B831E8E4C835D83821B01
S11319F0930B840F951F8E839F838FEF89A38AA3F4
S1131A00CE0108960E94FB09CE0143960E94FB0971
S1131A1001C010E0812FDF91CF911F9108950F93A2
S1131A201F93CF93DF93882301F1062F182F83E2AE
S1131A3090E00E942909EC01892BC9F0109FC00194
S1131A40112401960E94290988839983892B39F0EE
S1131A501F8F08A361E0CE010E94D30C08C0CE0101
S1131A600E94C309C0E0D0E002C0C0E0D0E0CE01D3
S1131A70DF91CF911F910F910895AF92BF92CF92B2
S1131A80DF92EF92FF920F931F93CF93DF93CDB723
S1131A90DEB72997CDBFDEBF7C015B012E833F8378
S1131AA04887598710E06C0188E0C80ED11C0FB636
S1131AB0F8940F92F701968D878D9817A8F4402F0C
S1131AC0B501C7010E94230CF7018389882341F0E3
S1131AD0C70143960E940313813011F40E945C0BEA
S1131AE00F900FBE81E056C08E819F81A885B98575
S1131AF0892B8A2B8B2B21F40F900FBE80E04AC0D8
S1131B00111105C0CE0101960E94421311E00F90FD
S1131B100FBE0E943D100FB6F8940F92F70181A1F9
S1131B208F3F09F411A2F70182A18F3F09F412A299
S1131B300F900FBEBE016A5F7F4FCE0101960E94D7
S1131B405313811121C00FB6F8940F92F701968DAB
S1131B500F900FBE878D981311C04E815F816885E9
S1131B607985C6010E94D912C7010E94890C0E947E
S1131B705F1181119CCF0E945C0B99CFC7010E9419
S1131B80890C0E945F1193CFC7010E94890C0E94A7
S1131B905F1180E02996CDBFDEBFDF91CF911F9109
S1131BA00F91FF90EF90DF90CF90BF90AF9008958A
S1131BB0AF92BF92CF92DF92EF92FF920F931F9357
S1131BC0CF93DF93CDB7DEB72997CDBFDEBF7C01BE
S1131BD05B012E833F834887598710E06C0183E1C2
S1131BE0C80ED11C0FB6F8940F92F701868D882386
S1131BF099F1C680D780B501C7010E946F0C01110D
S1131C001AC0F701868D8150868F80819181892B3E
S1131C1029F40E94DD13F70182839383F701808501
S1131C208823B1F0C70108960E940313813081F420
S1131C300E945C0B0DC0F701C682D782838988237A
S1131C4039F0C70143960E94031381110E945C0B73
S1131C500F900FBE81E062C08E819F81A885B985F7
S1131C60892B8A2B8B2B21F40F900FBE80E056C05A
S1131C70111105C0CE0101960E94421311E00F908C
S1131C800FBE0E943D100FB6F8940F92F70181A188
S1131C908F3F09F411A2F70182A18F3F09F412A228
S1131CA00F900FBEBE016A5F7F4FCE0101960E9466
S1131CB0531381112DC00FB6F8940F92F701868D3E
S1131CC00F900FBE81111EC080819181892B49F430
S1131CD00FB6F8940F92828193810E94E2130F90C1
S1131CE00FBE4E815F8168857985C6010E94D91235
S1131CF0C7010E94890C0E945F11811173CF0E9459
S1131D005C0B70CFC7010E94890C0E945F116ACFDF
S1131D10C7010E94890C0E945F1180E02996CDBF03
S1131D20DEBFDF91CF911F910F91FF90EF90DF9075
S1131D30CF90BF90AF9008950FB6F8940F92FC0126
S1131D40868D0F900FBE0895C6E2D1E3888182305C
S1131D50E8F30E945C0BFACFCF92DF92EF92FF92EE
S1131D606B017C01E0915231F091533162837383B2
S1131D70848395838091FA309091FB30A091FC305C
S1131D80B091FD30C816D906EA06FB0668F46091E6
S1131D9052317091533180910C3190910D316E5FBD
S1131DA07F4F0E94370A21C06091523170915331A4
S1131DB080910E3190910F316E5F7F4F0E94370AF0
S1131DC08091022090910320A0910420B0910520DD
S1131DD0C816D906EA06FB0640F4C0920220D09247
S1131DE00320E0920420F0920520FF90EF90DF9012
S1131DF0CF9008954F925F926F927F928F929F92AD
S1131E00AF92BF92CF92DF92EF92FF920F931F9304
S1131E10CF93DF935C014B013A01290188E290E002
S1131E200E942909EC01892B09F4D4C0C114D104FE
S1131E3009F0CCC0C3010E9429098B8F9C8F0097A5
S1131E4021F4CE010E94C309C5C0A30161E170E081
S1131E500E94D91F9301215031098B8D9C8D3C0127
S1131E60620E731E4AE050E0B401CE014D960E940A
S1131E70E01F1EA2102F043008F013E01A8F1FA3D6
S1131E806E0122E0C20ED11CC6010E940C0ACE01D2
S1131E900E960E940C0ACA87DB8784E090E0A0E0DB
S1131EA0B0E0811B9109A109B1098E879F87A88B96
S1131EB0B98BCE8BDF8BA201B501C3010E94A80AA6
S1131EC088839983E114F10419F0F701C083D18365
S1131ED00FB6F8940F928091FE308F5F8093FE309E
S1131EE08091523190915331892B89F5C0935231AD
S1131EF0D09353318091FE308130C1F586E291E375
S1131F000E94FB0981E391E30E94FB098CE391E3C6
S1131F100E94FB0987E491E30E94FB098BE191E3B2
S1131F200E94FB0980E191E30E94FB0981E091E3B7
S1131F300E94FB098BE191E380930E3190930F3162
S1131F4080E191E380930C3190930D310FC0809127
S1131F50F73081110BC0E0915231F0915331828DF1
S1131F60081720F0C0935231D09353318A8D909149
S1131F70F930981710F48093F9309091F2309F5F04
S1131F809093F2309091F830981710F48093F830D1
S1131F90FBE08F9FC0011124B6018A5D9E4C0E9414
S1131FA0100A0F900FBE8091F730882359F0E0910A
S1131FB05231F0915331828D801730F40E945C0BC2
S1131FC081E009C081E007C081E005C0CB8EDC8ED2
S1131FD0C6013BCF8FEFDF91CF911F910F91FF90FF
S1131FE0EF90DF90CF90BF90AF909F908F907F90B5
S1131FF06F905F904F9008950FB6F8940F920097EA
S113200021F480915231909153310F900FBEFC0115
S1132010828D0895AF92BF92CF92DF92EF92FF929A
S11320200F93A12CB12CC12CD12C0F2EFFEFEF2E2E
S1132030F0E3FF2EF02D00E020E030E044E650E035
S113204066E470E284EA9EE00E94FA0E813069F44C
S1132050F8948093F7301092FA301092FB3010927B
S1132060FC301092FD300E941E0B0F91FF90EF90F8
S1132070DF90CF90BF90AF9008958091F6308F5F3E
S11320808093F63008950FB6F8940F926091FA3069
S11320907091FB308091FC309091FD300F900FBE19
S11320A00895009721F480915231909153314D96C7
S11320B008958091FF30909100310895FF920F931D
S11320C01F93CF93DF938091F6308111EDC08091FF
S11320D0FA309091FB30A091FC30B091FD30019624
S11320E0A11DB11D8093FA309093FB30A093FC3076
S11320F0B093FD308091FA309091FB30A091FC3088
S1132100B091FD30892B8A2B8B2BF1F580910E3108
S113211090910F3120910C3130910D3120930E317B
S113212030930F3180930C3190930D318091F330C3
S11321308F5F8093F330E0910E31F0910F31808105
S113214081110CC08FEF9FEFDC01809302209093EC
S11321500320A0930420B093052016C0E0910E3113
S1132160F0910F310780F085E02D0084F185E02D9A
S113217082819381A481B58180930220909303206E
S1132180A0930420B09305204091FA305091FB3085
S11321906091FC307091FD30809102209091032079
S11321A0A0910420B0910520481759076A077B07BE
S11321B008F47FC0E0910E31F0910F3180818823C3
S11321C0F9F0E0910E31F0910F310780F085E02DA8
S11321D0C085D1858A819B81AC81BD814091FA30D3
S11321E05091FB306091FC307091FD3048175907D5
S11321F06A077B0758F10F2EFBE0FF2EF02D2FC04E
S11322008FEF9FEFDC018093022090930320A09333
S11322100420B09305204DC0E0910E31F0910F31B0
S11322200780F085E02DC085D1858A819B81AC81B2
S1132230BD814091FA305091FB306091FC30709137
S1132240FD30481759076A077B0748F4809302203A
S113225090930320A0930420B09305202AC08E01FC
S11322600E5F1F4FC8010E94820A888D998D892BA9
S113227021F0CE010E960E94820A8A8D9091F83048
S1132280981710F48093F830F89EC0011124B80117
S11322908A5D9E4C0E94100AE0910E31F0910F313C
S11322A080818111B9CFACCF8091F5308F5F80935D
S11322B0F530DF91CF911F910F91FF900895CF9248
S11322C0DF92EF92FF920F931F93CF93DF930FB69A
S11322D0F8940F928091F63081508093F63080917B
S11322E0F630811160C08091FE3081112CC05EC037
S11322F0D7011796ED91FC911897C085D185CE0131
S11323000E960E94820A8E010E5F1F4FC8010E9422
S1132310820A8A8D9091F830981710F48093F830DF
S1132320D89EC0011124B8018A5D9E4C0E94100AF7
S1132330E0915231F09153319A8D828D981770F05B
S1132340CC24C3940BC0C12C0F2EF1E0EF2EF1E38B
S1132350FF2EF02D0F2EFBE0DF2EF02DF7018081F4
S11323608111C6CF8091F530882381F08091F530BA
S1132370882399F00E945E108091F53081508093FB
S1132380F5308091F5308111F5CF07C0F1E0CF161B
S113239021F08091F430813041F41092F4300E94A5
S11323A05C0B81E003C080E001C080E00F900FBEB1
S11323B0DF91CF911F910F91FF90EF90DF90CF901D
S11323C00895CF92DF92EF92FF92CF93DF93EC01C7
S11323D06A017B010E943D1088819981AA81BB8199
S11323E0C80ED91EEA1EFB1E4091FA305091FB30F4
S11323F06091FC307091FD30481759076A077B07DC
S1132400B8F4C816D906EA06FB06E0F58091FA305E
S11324109091FB30A091FC30B091FD30C882D982FC
S1132420EA82FB828C159D05AE05BF05F8F413C046
S1132430C816D906EA06FB0600F18091FA3090919D
S1132440FB30A091FC30B091FD308C159D05AE059C
S1132450BF0598F017C08091523190915331029684
S11324600E94820AC701B6010E94AC0E0E945F114D
S113247081110DC00E945C0B0AC0C882D982EA8215
S1132480FB82E9CFC882D982EA82FB82EFCFDF9157
S1132490CF91FF90EF90DF90CF900895CF92DF928D
S11324A0EF92FF926B017C01672B682B692BE9F09B
S11324B00E943D108091FA309091FB30A091FC3045
S11324C0B091FD30C80ED91EEA1EFB1E8091523118
S11324D09091533102960E94820AC701B6010E946C
S11324E0AC0E0E945F11811102C00E945C0BFF9030
S11324F0EF90DF90CF9008958091F63081110CC059
S1132500E091F8304BE0E49FF0011124EA5DFE4CC9
S11325108081882329F014C081E08093F4300895E9
S11325209BE08091F83081508093F830E091F8304E
S11325309E9FF0011124EA5DFE4C8081882389F37B
S11325408091F830282F30E04BE0849FC0011124A3
S1132550DC01AA5DBE4C1196ED91FC9112970480AA
S1132560F581E02D1196ED93FC931297875D9E4CB7
S1132570E817F90761F4848195814BE0429FF001EB
S1132580439FF00D1124EA5DFE4C818392838BE01E
S1132590829FF001839FF00D1124EA5DFE4C0180BF
S11325A0F281E02D8085918580935231909353314F
S11325B00895CF92DF92EF92FF926A017B016091BE
S11325C0523170915331625F7F4F0E94370A80917C
S11325D052319091533102960E94820A8091FA30CE
S11325E09091FB30A091FC30B091FD30BC01CD0145
S11325F06C0D7D1D8E1D9F1D0E94AC0EFF90EF90F3
S1132600DF90CF9008950F931F93CF93DF93DC0156
S11326101796ED91FC911897C085D1858E01025FC4
S11326201F4FC8010E94820A8091F630811116C0A2
S11326300C501109C8010E94820A8A8D9091F830C9
S1132640981710F48093F830BBE08B9FC0011124DD
S1132650B8018A5D9E4C0E94100A05C0B80181E051
S113266091E30E94100AE0915231F091533181E0DC
S11326702A8D928D291708F480E0DF91CF911F9164
S11326800F9108952091F330FC0120834091FA309A
S11326905091FB306091FC307091FD304183528346
S11326A06383748308958F929F92AF92BF92CF9267
S11326B0DF92EF92FF920F931F93CF93DF93FC016E
S11326C00FB6F8940F928091F3309081981789F0A7
S11326D08091FA309091FB30A091FC30B091FD30A4
S11326E0018112812381348180179107A207B307E6
S11326F0A8F58091FA309091FB30A091FC30B09114
S1132700FD30C180D280E380F480EB01088119811F
S11327102A813B818C199D09AE09BF098017910755
S1132720A207B307E8F4CF018090FA309090FB3011
S1132730A090FC30B090FD30B501A4014C195D09A6
S11327406E097F09041B150B260B370B08831983AD
S11327502A833B830E94421380E003C081E001C0CE
S113276081E00F900FBEDF91CF911F910F91FF90E9
S1132770EF90DF90CF90BF90AF909F908F9008958F
S113278081E08093F4300895009721F480915231D0
S113279090915331DC015B96ED91FC915C978081C3
S11327A0813141F4319680E090E00196219121310C
S11327B0E1F3089580E090E0089580915231909182
S11327C0533108950F931F93CF93DF93FC01228D10
S11327D0A0915231B09153315A968C91281708F038
S11327E041C0A0915231B09153315A963C9184E04A
S11327F090E0A0E0B0E0831B9109A109B1098687AC
S11328009787A08BB18B8BE0289F900111242A5DC0
S11328103E4C8485958582179307E9F48F01EF0177
S11328202296CE010E94820AE0915231F0915331F6
S1132830828DF801828F9091F830981710F480936C
S1132840F830FBE08F9FC0011124BE018A5D9E4CCD
S11328500E94100A07C0A0915231B09153315A9688
S11328608C91828FDF91CF911F910F9108950F93D7
S11328701F93CF93DF93009749F1FC01328D27A179
S1132880321721F1EC018C010E5F1F4FC8010E9429
S1132890820A8FA18A8F44E050E060E070E0481B18
S11328A05109610971094E875F87688B798B909113
S11328B0F830981710F48093F830FBE08F9FC00134
S11328C01124B8018A5D9E4C0E94100ADF91CF91B9
S11328D01F910F910895EC01E881F9810190F08135
S11328E0E02D19951A821B826FEF7FEFCB010E94B6
S11328F04E12FACFFC016487658708954F925F9268
S11329006F927F928F929F92AF92BF92CF92DF92FB
S1132910EF92FF920F931F93CF93DF93CDB7DEB760
S11329202A97CDBFDEBF4C01290138018FE490E224
S1132930F40180839183FB018081882369F0DE01A7
S11329401196319690E002C0993039F09F5F8D93D3
S113295081918111F9CF01C090E0E1E0F0E0EC0F4A
S1132960FD1FE90FF11D10827401F2E0EF0EF11C5E
S1132970A12CB12CC12CD12C042F9401A201BE0195
S11329806F5F7F4F8AEA92E00E94FA0EF40166823A
S11329907782408651862091543130915531248379
S11329A03583809254319092553114861586409027
S11329B08E3150908F31FFEF4F1A5F0A40928E3163
S11329C050928F31F4014286538616861786108AF8
S11329D0118A6114710409F444C0813079F56AE004
S11329E0C3010E94E3197C0161EA74E00E94AC19FE
S11329F0BE016F5F7F4FC7010E94AC196AE0C70137
S1132A000E94E3197C0168E974E00E94AC196AE051
S1132A10C7010E94E3197C016AE874E00E94AC19C2
S1132A2063E0C7010E94E319B2010E942A1A62E01E
S1132A300E94E31966E00E94E31913C06AE0C3012F
S1132A400E94E3194C0165E774E00E94AC19BE01D1
S1132A506F5F7F4FC4010E94AC1966E0C4010E94FD
S1132A60E3192A96CDBFDEBFDF91CF911F910F915D
S1132A70FF90EF90DF90CF90BF90AF909F908F909A
S1132A807F906F905F904F900895CF92DF92EF9276
S1132A90FF920F931F93CF93DF93EC017B018A8105
S1132AA09B810E9451106C016AE0C7010E94E319E6
S1132AB08C0164EB74E00E94AC196AE0C8010E94C6
S1132AC0E3198C016DEA74E00E94AC19B601C801E7
S1132AD00E94AC196AE0C8010E94E3198C0167EAFC
S1132AE074E00E94AC1966E0C8010E94E3198A856B
S1132AF09B85E885F98501E121E0A701BC018E1BD6
S1132B009F0B0E9447188C819D81009719F0B70193
S1132B100E944515DF91CF911F910F91FF90EF9087
S1132B20DF90CF9008950F931F93CF93DF93EC0121
S1132B308091543190915531009719F0BE010E9453
S1132B4045156AE0CE010E94E3198C016AEC74E039
S1132B500E94AC196AE0C8010E94E3198C016FEB72
S1132B6074E00E94AC196AE0C8010E94E3198C0168
S1132B7069EB74E00E94AC1966E0C8010E94E31995
S1132B8080918E3190918F31BC016F5F7F4F01E155
S1132B9021E0AE01835691090E944718DF91CF913D
S1132BA01F910F9108958F929F92AF92BF92CF92EF
S1132BB0DF92EF92FF920F931F93CF93DF93EC0179
S1132BC08B018A819B810E945110BC01C8010E9423
S1132BD0AC19D801ED91FC910280F381E02D69E0FC
S1132BE0C80119958A819B810E945110FC010190B2
S1132BF00020E9F73197E81BF90B389748F4D8011E
S1132C00ED91FC910280F381E02D69E0C8011995F2
S1132C10CE84DF84E888F988A884B9848A819B817A
S1132C200E94C413982E8C848A819B810E94FC0F7D
S1132C30682FC8010E94A01A6AE00E94E319EC01FF
S1132C406FE375E00E94AC19682DCE010E94A01AB2
S1132C506AE00E94E319EC016DE375E00E94AC198F
S1132C60692DCE010E94A01A6AE00E94E319EC01CA
S1132C706BE375E00E94AC19B501CE010E942A1ADB
S1132C806AE00E94E319EC0169E375E00E94AC1963
S1132C906AE0CE010E94E319EC0167E375E00E944B
S1132CA0AC19B701A601CE010E945E1ADF91CF9143
S1132CB01F910F91FF90EF90DF90CF90BF90AF9056
S1132CC09F908F900895CF93DF93EC01CB01DB01AC
S1132CD0ED91FC910280F381E02DBE011995CE01A6
S1132CE0DF91CF9108950F931F93CF93DF93EC015E
S1132CF08B01BC01C8010E94631666E00E94E319BF
S1132D008C819D81009719F0B8010E947316DF91A0
S1132D10CF911F910F9108950F931F93CF93DF933A
S1132D20EC016AE00E94E3198C016CE275E00E94F8
S1132D30AC196AE0C8010E94E3198C0165E275E0F0
S1132D400E94AC1966E0C8010E94E3196AE0CE0152
S1132D500E94E3198C0164E175E00E94AC196AE0F9
S1132D60C8010E94E3198C0168E075E00E94AC1967
S1132D706AE0C8010E94E3198C0162E075E00E94D8
S1132D80AC1966E0C8010E94E3196AE0CE010E9412
S1132D90E3198C0161EF74E00E94AC196AE0C80188
S1132DA00E94E3198C0165EE74E00E94AC196AE09C
S1132DB0C8010E94E3198C016FED74E00E94AC1904
S1132DC066E0C8010E94E319809154319091553115
S1132DD0009719F0BE010E9473160E9459100E94B8
S1132DE0C413182F6AE0CE010E94E319EC0164EDCC
S1132DF074E00E94AC19612FCE010E94A01A6AE00F
S1132E000E94E319EC0162ED74E00E94AC1964E6DF
S1132E1070E0CE010E942A1A6AE00E94E319EC01D4
S1132E206FEC74E00E94AC1966E0CE010E94E319D5
S1132E30DF91CF911F910F9108950F93CF93DF935B
S1132E401F92CDB7DEB700E02FEF3FEFA901BE011F
S1132E506F5F7F4FFC01808591850E94D80D813082
S1132E6019F4898190E002C08FEF9FEF0F90DF91FA
S1132E70CF910F910895FC01808591850E949C0E4D
S1132E8091E0811101C090E0892F08950F93CF93B1
S1132E90DF931F92CDB7DEB76983FC0122853385AA
S1132EA04485558500E0BE016F5F7F4F8085918525
S1132EB00E943D0D91E0811101C090E0892F0F9097
S1132EC0DF91CF910F9108958F929F92BF92CF92ED
S1132ED0DF92EF92FF920F931F93CF93DF93EC0156
S1132EE0B62E4A01680179010E949E1987E590E295
S1132EF0888399838E869F8640E061E08B2D0E94B3
S1132F000F0D88879987CA86DB86EC86FD86DF915C
S1132F10CF911F910F91FF90EF90DF90CF90BF90D2
S1132F209F908F900895CF92DF92EF92FF92CF936C
S1132F30DF93EC01688179818A819B810F2EF8EE01
S1132F40CF2EF3E0DF2EE12CF12CF02DA70196011A
S1132F500E94411F9B01AC0160E472E48FE090E0A9
S1132F600E941D1FA70196010E94411F69017A0159
S1132F70AC81BD8120E432E44FE050E00E94A91FFF
S1132F8020E038E448EE51E00E94411FC701B60139
S1132F90620F731F841F951FDF91CF91FF90EF90F5
S1132FA0DF90CF900895CF92DF92EF92FF920F932C
S1132FB01F93CF93DF93CDB7DEB72F97CDBFDEBF7F
S1132FC06C018B01DB016D917D918D919C9128EEBB
S1132FD033E040E050E00E94411FBA01A901C6015C
S1132FE00E945E1AD601ED91FC910280F381E02DDE
S1132FF06EE2C6011995C8010E9493178E01095FFC
S11330001F4FFE0131967F012AE030E040E050E09E
S11330100E94631FE62F288739874A875B87688564
S113302079858A859B8520E32E0FD8012E938D0107
S1133030AE15BF0549F71F82BE016F5F7F4FC60102
S11330400E94AC19C6012F96CDBFDEBFDF91CF9190
S11330501F910F91FF90EF90DF90CF900895CF9341
S1133060DF93EC010FB6F8940F92809120089091B1
S113307021088C839D830E944310688379838A830B
S11330809B830F900FBECE01DF91CF9108955F9285
S11330906F927F928F929F92AF92BF92CF92DF9264
S11330A0EF92FF920F931F93CF93DF935C014B0139
S11330B07A01122F702E63E0CA010E94E319A8144A
S11330C0B90408F07DC0650184E1C80ED11C00E09C
S11330D06A2C5B2CB501C7010E942A1A6AE00E947F
S11330E0E31961E575E00E94AC19112309F46DC080
S11330F0002309F46AC06AE0C7010E94E3196CE482
S113310075E00E94AC1961C0112371F001110CC06B
S11331108881871549F06AE0C7010E94E31967E4D2
S113312075E00E94AC1901E06991C7010E94A01AE0
S1133130DC01ED91FC910280F381E02D60E21995B0
S1133140CC16DD0609F7112389F06AE0C7010E9455
S1133150E319EC0161E475E00E94AC19E881F9819E
S11331600280F381E02D60E2CE011995C62DD52DA4
S1133170699180EE860F8F3548F4D701ED91FC916B
S11331800280F381E02DC701199509C0D701ED91A3
S1133190FC910280F381E02D6EE2C7011995CC16F3
S11331A0DD0631F7B4E1AB0EB11C66E0C7010E9445
S11331B0E31984E1C80ED11CA814B90408F488CF1B
S11331C062E0C7010E94E31903C0C62DD52D9CCF30
S11331D0DF91CF911F910F91FF90EF90DF90CF90EF
S11331E0BF90AF909F908F907F906F905F90089565
S11331F00E94290908950E94290908950895CF93EA
S1133200DF93FC01DA01403A68E0560749F480E4B0
S113321096E08283938382E0848383E0858332C053
S1133220403B78E0570749F480E496E08283938337
S113323086E0848387E0858325C0403A89E0580787
S113324049F480E696E08283938382E0848383E07A
S1133250858318C0403B69E0560749F480E696E050
S11332608283938386E0848387E085830BC0403A1E
S11332705A4041F480E896E08283938382E0848319
S113328083E08583A683B783CD01019680879187E8
S11332900396828793872581C281D3814C8181E003
S11332A090E0BC0102C0660F771F2A95E2F79B01EC
S11332B0242B2C832581C281D3814881BC0102C087
S11332C0660F771F2A95E2F79B01242B288334810C
S11332D0C281D381288102C0880F991F3A95E2F7F1
S11332E0809590958223888380E113968C9313971D
S11332F083E015968C93159780EF17968C93179708
S113330081E216968C93169788E114968C9380E844
S1133310858780E4868780E284870680F781E02DB4
S113332080818081DF91CF91089581E0089580E0CC
S113333090E0089580E0089508950895FC0187E6DB
S113334090E2808391838AE08283138283E0858381
S113335014821682178208950F931F93CF93DF93DD
S11333608C01FB01DC0114968C91811104C06081F5
S1133370611117C023C0D80114961C92EB01219649
S113338064916623D9F0D801ED91FC910280F38118
S1133390E02DC8011995FE01649121966111F3CFC6
S11333A00DC0EF012196D801ED91FC910280F381CB
S11333B0E02DC801199569916111F5CFDF91CF9185
S11333C01F910F910895CF93DF93EC01862F90E026
S11333D08B309105D8F5FC018827E250FF4F8F4FC1
S11333E00C94821F82E08A8331C088E08A832EC0D5
S11333F08AE08A832BC080E18A8328C081E08B83A2
S113340025C01B8223C0E881F9810280F381E02D6D
S11334106DE0CE011995E881F9810280F381E02DF8
S11334206AE0CE01199512C0E881F9810284F3851E
S1133430E02DCE0119950AC0E881F9810084F18557
S1133440E02DCE01199502C081E08C83CE01DF917D
S1133450CF910895FF920F931F93CF93DF93CDB72E
S1133460DEB76197CDBFDEBF8C01F62E972FF80132
S11334704281403121F0483011F0423041F4692F4B
S1133480C8010E94A01A6F2D0E94A01A0DC050E01E
S1133490BE016F5F7F4F8F2D0E941C20BE016F5FA6
S11334A07F4FC8010E94AC19C8016196CDBFDEBF31
S11334B0DF91CF911F910F91FF900895DF92EF92CA
S11334C0FF920F931F93CF93DF93CDB7DEB7A197EE
S11334D0CDBFDEBF8C01D42EE52EF62E972FF8013A
S11334E02281203121F0283011F0223071F4692F2B
S11334F0C8010E94A01A6F2D0E94A01A6E2D0E946E
S1133500A01A6D2D0E94A01A0FC030E0AE014F5FCB
S11335105F4F6D2D7E2D8F2D0E94EF1FBE016F5FBB
S11335207F4FC8010E94AC19C801A196CDBFDEBF70
S1133530DF91CF911F910F91FF90EF90DF9008954D
S1133540CF92DF92EF92FF920F931F93CF93DF936B
S1133550CDB7DEB72997CDBFDEBF8C01E62EDC01E7
S113356013968C911397882341F0ED91FC9102807E
S1133570F381E02DC801199556C0F801428142300B
S113358019F56894CC24C3F8D12C6894FF24F7F877
S11335908E2D8F2151F0D801ED91FC910280F381A1
S11335A0E02D61E3C801199509C0D801ED91FC91A2
S11335B00280F381E02D60E3C8011995F694B1E02F
S11335C0CB1AD10829F72FC04031F9F462956F70F6
S11335D00190F081E02D0280F381E02D6A3010F03B
S11335E0695C01C0605DC80119956E2D6F70D801CA
S11335F0ED91FC910280F381E02D6A3010F0695C5A
S113360001C0605DC80119950EC050E0BE016F5F36
S11336107F4F8E2D90E00E941C20BE016F5F7F4F74
S1133620C8010E94AC19C8012996CDBFDEBFDF9145
S1133630CF911F910F91FF90EF90DF90CF9008955D
S1133640DC015096ED91FC915197808154964C91F8
S11336505497842329F009C02150310919F412C068
S113366021E23EE490819423B9F3908156968C91A3
S11336705697892B80831E96ED91FC911F9760834A
S113368081E0089580E00895CF93DF93FC01C18D1C
S1133690D28D28813981A38DB48D4D915C912417ED
S11336A03507E9F3A789B08D0D90BC91A02DA20F29
S11336B0B31F8C912F5F3F4F288339832436310504
S11336C028F0018CF28DE02D1082118290E0DF91C0
S11336D0CF910895CF93DF93EC01A98DBA8DEB8D33
S11336E0FC8D81E04D915C9120813181421753071B
S11336F009F480E0DF91CF910895DC01ED91FC9114
S11337000280F381E02D6CE019950895EF92FF9209
S11337100F931F93CF93DF93EC017B018A010E94E7
S11337209E19A801B701CE0108960E94FF1887E7E9
S113373090E288839983003A88E0180769F482E765
S113374091E38F8B988F88E691E3898F9A8F8EE52A
S113375091E38B8F9C8F42C0003BE8E01E0769F425
S113376080E791E38F8B988F86E691E3898F9A8F18
S11337708CE591E38B8F9C8F31C0003AF9E01F07F1
S113378069F48EE691E38F8B988F84E691E3898FB9
S11337909A8F8AE591E38B8F9C8F20C0003B89E050
S11337A0180769F48CE691E38F8B988F82E691E396
S11337B0898F9A8F88E591E38B8F9C8F0FC0003A95
S11337C01A4061F48AE691E38F8B988F80E691E347
S11337D0898F9A8F86E591E38B8F9C8F0F89188D43
S11337E084E690E00E94FB18F80180839183E98DC0
S11337F0FA8D10821182EB8DFC8D10821182DF9183
S1133800CF911F910F91FF90EF9008951F920F9207
S11338100FB60F92112408B60F9218BE0BB60F9272
S11338201BBE2F933F938F939F93EF93FF9320910E
S1133830A008E0917231F091733180915E319091E2
S11338405F31E80FF91F208380915E3190915F31E1
S113385001968436910560F480935E3190935F31D4
S1133860209168313091693182179307F1F40CC0CB
S113387010925E3110925F3180916831909169317C
S11338801816190691F40EC001968436910528F491
S1133890809368319093693108C010926831109216
S11338A0693103C081E090E0F3CFFF91EF919F91E4
S11338B08F913F912F910F900BBE0F9008BE0F90E8
S11338C00FBE0F901F9018951F920F920FB60F9274
S11338D0112408B60F9218BE0BB60F921BBE2F937D
S11338E03F938F939F93EF93FF932091B008E091C0
S11338F07031F091713180915C3190915D31E80FBC
S1133900F91F208380915C3190915D31019684365A
S1133910910560F480935C3190935D312091663120
S11339203091673182179307F1F40CC010925C3127
S113393010925D31809166319091673118161906A5
S113394091F40EC001968436910528F48093663173
S11339509093673108C0109266311092673103C0AA
S113396081E090E0F3CFFF91EF919F918F913F9190
S11339702F910F900BBE0F9008BE0F900FBE0F90AB
S11339801F9018951F920F920FB60F92112408B62C
S11339900F9218BE0BB60F921BBE2F933F938F93BB
S11339A09F93EF93FF932091A009E0916E31F091E2
S11339B06F3180915E3190915F31E80FF91F208360
S11339C080915A3190915B3101968436910560F46F
S11339D080935A3190935B312091643130916531F9
S11339E082179307F1F40CC010925A3110925B3194
S11339F080916431909165311816190691F40EC0C6
S1133A0001968436910528F480936431909365314E
S1133A1008C0109264311092653103C081E090E0D7
S1133A20F3CFFF91EF919F918F913F912F910F9041
S1133A300BBE0F9008BE0F900FBE0F901F901895ED
S1133A401F920F920FB60F92112408B60F9218BE50
S1133A500BB60F921BBE2F933F938F939F93EF93BD
S1133A60FF932091B009E0916C31F0916D31809118
S1133A70583190915931E80FF91F208380915831C2
S1133A809091593101968436910560F480935831B0
S1133A9090935931209162313091633182179307A9
S1133AA0F1F40CC010925831109259318091623166
S1133AB0909163311816190691F40EC0019684365C
S1133AC0910528F4809362319093633108C0109279
S1133AD062311092633103C081E090E0F3CFFF9133
S1133AE0EF919F918F913F912F910F900BBE0F906B
S1133AF008BE0F900FBE0F901F9018951F920F9243
S1133B000FB60F92112408B60F9218BE0BB60F927F
S1133B101BBE2F933F938F939F93EF93FF9320911B
S1133B20A00AE0916A31F0916B3180915631909105
S1133B305731E80FF91F2083809156319091573106
S1133B4001968436910560F48093563190935731F1
S1133B50209160313091613182179307F1F40CC0E8
S1133B6010925631109257318091603190916131A9
S1133B701816190691F40EC001968436910528F49E
S1133B80809360319093613108C01092603110923B
S1133B90613103C081E090E0F3CFFF91EF919F91F9
S1133BA08F913F912F910F900BBE0F9008BE0F90F5
S1133BB00FBE0F901F9018950F93CF93DF931F9212
S1133BC0CDB7DEB72FB72983F8941BBEFC0108EDEF
S1133BD004BF608389818FBF0F90DF91CF910F91D4
S1133BE008950F931F93CF93DF93CDB7DEB76D97EF
S1133BF0CDBFDEBFE0E6F6E080E481838583F89400
S1133C00E0E5F0E0808182608083818181FFFDCFE7
S1133C1060914000687F616080E490E00E94DC1D58
S1133C20E0E5F0E080818E7F80839DEF88ED08B62B
S1133C3018BE84BF9093800008BE40EB58E060E05B
S1133C4070E0CE0101960E94861B67E0CE010196CA
S1133C500E94E3198C0163E870E20E94AC1966E0EB
S1133C60C8010E94E31966E00E94E31982E190E032
S1133C700E94F8188E010F5F1F4F24E031E040E0EE
S1133C8062EA70E20E94940682E190E00E94F818D1
S1133C9024E031E044E06AEA70E20E94AB0382E18E
S1133CA090E00E94F81824E031E044E061EB70E217
S1133CB00E941B0482E190E00E94F81824E031E0A5
S1133CC044E068EB70E20E9480048CE690E00E947D
S1133CD0F81824E031E044E061EC70E20E945F06F1
S1133CE082E190E00E94F81824E031E041E067ECC2
S1133CF070E20E94190982E190E00E94F81824E021
S1133D0031E042E061ED70E20E94840682E190E0DD
S1133D100E94F81824E031E043E06DED70E20E9467
S1133D20280387E08093A20078940E940A1080E020
S1133D3090E06D96CDBFDEBFDF91CF911F910F91C3
S1133D4008950F931F930AE010E020E030E040E074
S1133D5050E060E270E08EE791E30E9464171F91E7
S1133D600F9108950E94F41E08F481E00895E894E8
S1133D7009C097FB3EF490958095709561957F4FAF
S1133D808F4F9F4F9923A9F0F92F96E9BB2793955D
S1133D90F695879577956795B795F111F8CFFAF46D
S1133DA0BB0F11F460FF1BC06F5F7F4F8F4F9F4F9E
S1133DB016C0882311F096E911C0772321F09EE8FC
S1133DC0872F762F05C0662371F096E8862F70E062
S1133DD060E02AF09A95660F771F881FDAF7880F3C
S1133DE09695879597F90895990F0008550FAA0B92
S1133DF0E0E8FEEF16161706E807F907C0F01216FA
S1133E001306E407F50798F0621B730B840B950BFC
S1133E1039F40A2661F0232B242B252B21F4089551
S1133E200A2609F4A140A6958FEF811D811D0895EE
S1133E300E94F41E08F48FEF0895DB018F939F9383
S1133E400E94A91FBF91AF91A29F800D911DA39FB6
S1133E50900DB29F900D1124089597FB072E16F430
S1133E60009407D077FD09D00E94BC1F07FC05D041
S1133E703EF4909581959F4F0895709561957F4F7D
S1133E800895A1E21A2EAA1BBB1BFD010DC0AA1F97
S1133E90BB1FEE1FFF1FA217B307E407F50720F0AF
S1133EA0A21BB30BE40BF50B661F771F881F991F2A
S1133EB01A9469F760957095809590959B01AC0173
S1133EC0BD01CF010895052E97FB1EF400940E94B6
S1133ED07A1F57FD07D00E94411F07FC03D04EF400
S1133EE00C947A1F50954095309521953F4F4F4F34
S1133EF05F4F089590958095709561957F4F8F4F92
S1133F009F4F0895EE0FFF1F881F8BBF0790F691F8
S1133F10E02D1BBE19940E94931F332312F48A1BB5
S1133F209B0B0C94A41FA29FB001B39FC001A39F3D
S1133F30700D811D1124911DB29F700D811D1124DE
S1133F40911D08950E94931FB7FF0895821B930B40
S1133F5008950E94931FA59F900DB49F900DA49F58
S1133F60800D911D11240895B7FF0C94A91F0E9480
S1133F70A91F821B930B0895AA1BBB1B51E107C009
S1133F80AA1FBB1FA617B70710F0A61BB70B881FE5
S1133F90991F5A95A9F780959095BC01CD01089574
S1133FA0FB01DC0102C001900D9241505040D8F752
S1133FB00895DC0101C06D9341505040E0F708952D
S1133FC0FB01DC014150504048F001900D9200206B
S1133FD0C9F701C01D9241505040E0F708952532C1
S1133FE0310520F4223010F00C94FA1FFA011082EB
S1133FF0CA010895BB27FA01A62F6217710581052E
S11340009105330B30FB66F0AA27660F771F881FD4
S1134010991FAA1FA21710F0A21B63953850A9F785
S1134020A05DAA3308F0A95DA19336F7B111B1934D
S11340301082CA010C9441204532510520F44230CB
S113404010F00C942720FB011082CB010895BB27AC
S1134050FB015527AA27880F991FAA1FA41710F040
S1134060A41B83955051B9F7A05DAA3308F0A95D4C
S1134070A193009779F7B111B1931192CB010C94EC
S11340804120DC01FC01672F71917723E1F732971E
S113409004C07C916D9370836291AE17BF07C8F31F
S10940A00895F894FFCF1F
S11340A6FF0FFFFFFFFF000000001303D3150000FE
S11340B600003803D31500000000BB03D31500002D
S11340C600002B04D315000000009004D315000053
S11340D600006F06D31500000000D707D3150000B3
S11340E600000409D31549444C450000000000FEB5
S11340F618D31500000000951946173B171D179C89
S1134106199D19000000009519FE189A1997199C13
S1134116199D19000000009519201B6A1B441B9C5D
S1134126197D1B4672656552544F5320584D4547B9
S1134136412054657374696E672050726F677261AB
S11341466D0055736572496E7400456E634D7472E5
S113415600456E6350656E004C696D5377746368F1
S1134166004D6F746F7200574C6F6F704374726CAE
S113417600506F734C6F6F704374726C00416E67BE
S10D41864C6F6F704374726C0000FC
S9030000FC
