:100000000C94AB020C94E1020C94E1020C94E1021A
:100010000C94E1020C94E1020C94E1020C94E102D4
:100020000C94E1020C94E1020C94E1020C94E102C4
:100030000C94E1020C94E1020C94E1020C94E102B4
:100040000C94E1020C94E1020C94E1020C94E102A4
:100050000C94E1020C94E1020C94E1020C94E10294
:100060000C94E1020C94BF1A0C94E1020C94E1028E
:100070000C941D1B0C94E1020C94E1020C94E1021F
:100080000C94E1020C94E1020C94E1020C94E10264
:100090000C94E1020C94E1020C94E1020C94E10254
:1000A0000C94E1020C94E1020C94E1020C94E10244
:1000B0000C94E1020C94E1020C94E1020C94E10234
:1000C0000C94E1020C94E1020C94E1020C94E10224
:1000D0000C94E1020C94E1020C94E1020C945C0A91
:1000E0000C94E1020C94E1020C94371C0C94E10294
:1000F0000C94E1020C94951C0C94E1020C94E10226
:100100000C94E1020C94E1020C94E1020C94E102E3
:100110000C94E1020C94E1020C94E1020C94E102D3
:100120000C94E1020C94E1020C94E1020C94E102C3
:100130000C94E1020C94E1020C94E1020C94E102B3
:100140000C94E1020C94E1020C94E1020C94E102A3
:100150000C94E1020C94E1020C94E1020C94E10293
:100160000C947B1B0C94E1020C94E1020C94D91BBF
:100170000C94E1020C94E1020C94E1020C94E10273
:100180000C94E1020C94E1020C94E1020C94E10263
:100190000C94E1020C94E1020C94E1020C94E10253
:1001A0000C94E1020C94E1020C94E1020C94E10243
:1001B0000C94E1020C94E1020C94E1020C94E10233
:1001C0000C94E1020C94E1020C94E1020C94E10223
:1001D0000C94E1020C94E1020C94E1020C94F31CE7
:1001E0000C94E1020C94E1020C94E1020C94E10203
:1001F0000C94E1020C94E1020C94E10248184B18B3
:100200004E1851185418571859186A1872187C1833
:100210007A180C94011A0C9448180C9459150C94E3
:10022000F3170C94ED170C9436060C944B180C94A1
:100230008F040C94F0170C945D040C94F2170C943A
:100240007C180C94061E0C9454180C9482150C9473
:10025000E00C0C943A170C94A8020C9477150C94AB
:1002600059180C94EB170C947A180C9472180C947F
:100270000F140C9451180C94A4030C94B7190C94FB
:1002800057180C94F5030C946A180C94141A0C94D7
:10029000E3020C94C1040C944E180C94DB192C202E
:1002A000544343304343413D002F002C20486561B7
:1002B0007020667265653A200054696D653A2000C9
:1002C0004E6F762032352032303137004D45343094
:1002D00035206261736520726164696F2070726F8E
:1002E0006772616D2056302E342000202020206857
:1002F0003A20202048414C50210020202020653AFF
:100300002020204578697420636F6D6D616E6420D4
:100310006D6F64650020202020733A2020205374E4
:1003200061636B2064756D7020666F7220746173F9
:100330006B730020202020763A20202056657273AF
:10034000696F6E20616E6420736574757020696ECC
:10035000666F726D6174696F6E00202020206E3AA6
:1003600020202053686F77207468652074696D655C
:10037000207269676874206E6F77002020496E20B4
:10038000636F6D6D616E64206D6F6465206F6E6C60
:10039000793A00202043746C2D413A20456E7465F3
:1003A0007220636F6D6D616E64206D6F64650020F7
:1003B0002043746C2D433A20526573657420746831
:1003C0006520415652002068656C70004D45343000
:1003D00035206261736520726164696F2070726F8D
:1003E0006772616D2056302E3420001B5B33306DF8
:1003F000001B5B34366D00496C6C6567616C207363
:10040000746174652120526573657474696E672028
:10041000415652003A5754463F004578697420636C
:100420006F6D6D616E64206D6F64650052657365FC
:100430007474696E67204156520050726573732060
:100440004374726C2D4120666F7220636F6D6D6115
:100450006E64206D6F646500526573657474696EB7
:1004600067004552524F5220696E207461736B20B1
:10047000004552524F52206372656174696E672065
:100480007461736B20002C20737461636B20617442
:100490002030780020637265617465640054617374
:1004A0006B20001B5B32326D005461736B3A20008D
:1004B0001B5B316D001B5B32326D005461736B3A14
:1004C0002049444C45001B5B316D000909002F0099
:1004D00049444C45090930092D0900092D2D2D2DC0
:1004E00000092D2D2D2D2D2D2D2D2D2D002D2D2DBA
:1004F0002D09092D2D2D2D092D2D2D2D2D000952C4
:10050000756E730009467265652F546F74616C00D7
:100510004E616D6509095072692E095374617465E5
:100520000009537461636B005461736B09092020E7
:10053000092000090009002F00090009001B5B3297
:10054000326D001B5B316D001B5B316D00202000A4
:100550000E94A712061E11241FBECFEFCDBFDFE3FE
:10056000DEBF00E00CBF18BE19BE1ABE1BBE10E2F3
:10057000A0E0B0E2E8ECF1E400E00BBF02C00790BD
:100580000D92A43FB107D9F71BBE21E3A4EFB0E25F
:1005900001C01D92A23AB207E1F712E0CBEAD2E025
:1005A00000E006C021970109802FFE010E941F2054
:1005B000CA3AD10780E00807A9F70E94661D0C948B
:1005C000E2200C940000CF93DF9300D01F92CDB7B0
:1005D000DEB77C010E947F0E69837A838B839C83C4
:1005E000E0E8F6E080E3828384898360848B8589F8
:1005F0008360858BE0E8F1E084E7818389E081878F
:10060000E0E4F8E089E683838FEF9FEF86A397A36A
:1006100081E080836894882486F8992493F80F2ECB
:10062000F4E66F2E712CF02D0F2EFCE35F2EF02DD3
:10063000F40100A111A1F701C680D78066E070E245
:10064000C6010E940218B801C6010E94981866E00F
:100650000E9439180FB6F8940F92B801012E000CC1
:10066000880B990B0E94C11E20E030E04AE755E458
:100670000E94171E20E030E044EB53E40E944D1F1F
:100680000E94891E60938C3170938D310F900FBE44
:100690000FB6F8940F92C801880F991F800F911F11
:1006A000B3010E94CA1F60938E3170938F310F90F7
:1006B0000FBE0FB6F8940F92C8018A199B09589E75
:1006C000B001599E700D1124072E000C880B990B58
:1006D0000E94C11E20E030E04AE755E40E94171E48
:1006E0002FE632E143E85AE30E94171E0E94891E5A
:1006F00060938A3170938B310F900FBEF70186851E
:100700009785A089B1890196A11DB11D868797871C
:10071000A08BB18B41E050E060E070E0CE0101962B
:100720000E941D10580184CF0F931F93CF93DF9326
:10073000EC010E94BA128BE190E288839983DF91E9
:10074000CF911F910F910895CF93DF9300D01F9207
:10075000CDB7DEB78C010E947F0E69837A838B83CD
:100760009C83E0E4F6E080E3828383E0848B858BE6
:10077000E0E8F1E084E6808389E08087E0E4F8E067
:1007800089E683838FEF9FEF86A397A381E0808321
:100790006894EE24E6F8FF24F3F8F70180A191A114
:1007A000F80186859785A089B1890196A11DB11DA3
:1007B00086879787A08BB18B41E050E060E070E0C6
:1007C000CE0101960E941D10E8CF0F931F93CF9387
:1007D000DF93EC010E94BA1283E290E2888399834E
:1007E000DF91CF911F910F910895CF93DF9300D0A8
:1007F0001F92CDB7DEB78C010E947F0E69837A838A
:100800008B839C83E0E2F7E081E0828388E1808B48
:1008100094E09283828B0F2EF8E2EF2EF7E0FF2E0A
:10082000F02DF701808180FD10C0F801C680D780CF
:1008300067E270E2C6010E94021861E0C6010E94F0
:10084000801866E00E94391813C0F701808182FD8C
:100850000FC0F801C680D78064E370E2C6010E9431
:10086000021861E0C6010E94801866E00E943918F3
:10087000F80186859785A089B1890196A11DB11DD2
:1008800086879787A08BB18B41E050E060E070E0F5
:10089000CE0101960E941D10C4CF0F931F93CF93DA
:1008A000DF93EC010E94BA1284E490E2888399837A
:1008B000DF91CF911F910F910895CF93DF9300D0D7
:1008C0001F92CDB7DEB78C010E947F0E69837A83B9
:1008D0008B839C83F80186859785A089B1890196D1
:1008E000A11DB11D86879787A08BB18B41E050E099
:1008F00060E070E0CE0101960E941D10EBCF0F93D7
:100900001F93CF93DF93EC010E94BA128CE490E224
:1009100088839983DF91CF911F910F910895CF9391
:10092000DF9300D01F92CDB7DEB78C010E947F0EFF
:1009300069837A838B839C83F80186859785A08958
:10094000B1890196A11DB11D86879787A08BB18BB8
:1009500041E050E060E070E0CE0101960E941D1081
:10096000EBCF0F931F93CF93DF93EC010E94BA124A
:1009700084E590E288839983DF91CF911F910F9155
:100980000895CF93DF9300D01F92CDB7DEB78C01CF
:100990000E947F0E69837A838B839C83F80186850E
:1009A0009785A089B1890196A11DB11D868797877A
:1009B000A08BB18B41E050E060E070E0CE01019689
:1009C0000E941D10EBCF0F931F93CF93DF93EC0189
:1009D0000E94BA128CE590E288839983DF91CF91CF
:1009E0001F910F9108950F931F93CF93DF93EC0105
:1009F0000E94BA1284E690E288839983DF91CF91B6
:100A00001F910F9108950F931F93CF93DF93EC01E4
:100A10006AE08E819F810E9439188C0161EF73E03A
:100A20000E9402186AE0C8010E9439188C016BEE1E
:100A300073E00E94021867E0C8010E9439186AE05A
:100A40008E819F810E9439188C016CEC73E00E94AA
:100A500002186AE0C8010E9439188C0166EC73E044
:100A60000E94021866E0C8010E9439186AE08E816F
:100A70009F810E9439188C016FEA73E00E9402186E
:100A800066E0C8010E9439186AE08E819F810E9449
:100A900039188C0163E973E00E94021866E0C8010E
:100AA0000E9439186AE08E819F810E9439188C015A
:100AB0006BE773E00E94021866E0C8010E943918D3
:100AC0006AE08E819F810E9439188C016AE573E08B
:100AD0000E94021866E0C8010E9439186AE08E81FF
:100AE0009F810E9439188C0163E373E00E94021811
:100AF00066E0C8010E9439186AE08E819F810E94D9
:100B000039188C0165E173E00E94021866E0C801A3
:100B10000E9439186AE08E819F810E9439188C01E9
:100B20006AEF72E00E94021866E0C8010E9439185C
:100B30006AE08E819F810E943918EC016BEE72E0B1
:100B40000E94021866E0CE010E943918DF91CF9111
:100B50001F910F910895AF92BF92CF92DF92EF92C3
:100B6000FF920F931F93CF93DF9300D000D0CDB7A8
:100B7000DEB78C0119821A821B821C821D821E82A2
:100B80000E9430086C01CE0101960E946B165C0138
:100B900066E0F801868197810E9439186AE00E9418
:100BA00039187C016CEC72E00E9402186AE0C701FF
:100BB0000E9439187C0160EC72E00E94021866E025
:100BC000C7010E9439186AE00E9439187C0169EB5C
:100BD00072E00E940218B501C7010E940F166AE078
:100BE0000E9439187C016BEA72E00E940218B6017B
:100BF000C7010E94C1186AE00E9439187C0169EAA5
:100C000072E00E9402184FEF5FE060E070E0C70101
:100C10000E94F518C0902808D09029086AE0F801D1
:100C2000868197810E9439187C016EE972E00E94EA
:100C30000218B601C7010E94C11866E00E94391867
:100C400066E00E943918F801868197810E94C814D5
:100C50002696CDBFDEBFDF91CF911F910F91FF9000
:100C6000EF90DF90CF90BF90AF900895CF93DF9338
:100C700000D000D0CDB7DEB78C0119821A821B825A
:100C80001C821D821E826AE0DC0116968D919C9169
:100C900017970E9439187C016AE374E00E940218D9
:100CA00066E0C7010E943918F8018485882321F085
:100CB000813009F45DC0D8C086819781DC01ED9157
:100CC000FC910480F581E02D19958823A9F1F801A4
:100CD00086819781DC01ED91FC910680F781E02D02
:100CE0001995992781309105F9F0039709F0D8C03B
:100CF0006AE0F801868197810E9439188C016CE2C4
:100D000074E00E94021866E0C8010E94391893E05E
:100D100088ED08B618BE84BF909380008091820051
:100D200081FDFCCF08BEFFCFC8010E94030561E032
:100D3000C8010E94B612B4C080E991E30E94771501
:100D4000882309F4ADC0D8011696ED91FC91179750
:100D50000190F081E02DE280F38080E991E30E9430
:100D60005915682FF80186819781F701199598C068
:100D700086819781DC01ED91FC910480F581E02D65
:100D80001995882309F48CC0F80186819781DC01CC
:100D9000ED91FC910680F781E02D19959C01332798
:100DA0002836310559F13CF42B31310559F12536FE
:100DB000310541F13BC023373105C1F026373105FC
:100DC00089F02E36310591F5CE0101960E946B1601
:100DD000BC01F801868197810E940F1666E00E948F
:100DE00039185EC0C8010E94AB055AC0D8011696DA
:100DF0008D919C9117970E94CF1352C0C8010E94F9
:100E000003054EC06AE0F801868197810E94391877
:100E10007C016AE174E00E94021866E0C7010E944A
:100E2000391860E0C8010E94B6123AC0F801A681E4
:100E3000B781ED91FC9111970280F381E02D682F2D
:100E4000CD0119956AE0D80116968D919C9117975E
:100E50000E9439187C0164E174E00E94021866E087
:100E6000C7010E9439181CC06AE0F8018681978189
:100E70000E9439188C0167EF73E00E94021866E047
:100E8000C8010E94391893E088ED08B618BE84BFE7
:100E9000909380008091820081FDFCCF08BEFFCF3F
:100EA000F80186859785A089B1890196A11DB11D9C
:100EB00086879787A08BB18B61E070E080E090E03F
:100EC0000E948A10F1CE0F931F93CF93DF93EC0112
:100ED0000E94790E8091F42081111DC0A9EFB0E22B
:100EE000EDEFF0E2ED93FC93119712961D921C9298
:100EF0001397A5EFB0E28FEF9FE012968D939C932E
:100F000013971D921C92119782839383A083B183C0
:100F100081E08093F420209709F45FC09E012B5F4D
:100F20003F4F2496CE3FDF4008F05AC0E091F920B1
:100F3000F091FA20A9EFB0E202C0DF01FC0182814A
:100F400093818217930720F4808191810097A9F7FC
:100F5000C0E2E53FFC0709F446C0CD91DC91119752
:100F60008E010B5F1F4F808191818D939C938281B5
:100F70009381821B930B8B30910510F1BF01620F9F
:100F8000731FDB0112968D939C93139722833383F7
:100F900012964D915C91139789EF90E201C0CD01BB
:100FA000EC01A881B98112962D913C9113972417D9
:100FB0003507A8F3EB01A883B983DC016D937C931B
:100FC000809100209091012022813381821B930B1C
:100FD000809300209093012008C000E010E005C03D
:100FE00000E010E002C000E010E00E949B0FC8018A
:100FF000DF91CF911F910F9108950F931F93CF937E
:10100000DF93009741F1EC018C01055011090E941A
:10101000790EF80142815381A9EFB0E201C0DF01EE
:10102000ED91FC9111972281338124173507B8F394
:101030002597E883F9830D931C932091002030912C
:1010400001208A819B81820F931F809300209093BF
:1010500001200E949B0FDF91CF911F910F91089566
:1010600080910020909101200895FC0103968183D6
:1010700092834FEF5FEFBA01438354836583768396
:10108000878390878187928710820895FC0112865A
:1010900013860895CF93DF93FC01DB012181328118
:1010A000E9018C819D8114968D939C931597818184
:1010B000928116968D939C9317978C819D81EC015C
:1010C0006E837F83E9016C837D83618372831A96CB
:1010D000ED93FC931B9780818F5F8083DF91CF918D
:1010E00008950F931F93CF93DF93EB01088119812C
:1010F0002A813B810F3F4FEF14072407340731F457
:10110000DC011996ED91FC911A971FC0FC013396F2
:10111000DC0117964D915C911897DA014D915D9124
:101120006D917C91041715072607370770F004802E
:10113000F581E02DA481B5814D915D916D917C91FA
:10114000041715072607370790F7A481B581AC83EC
:10115000BD831696CD93DC931797EE83FF83C483EC
:10116000D5838A879B87FC0120812F5F2083DF91B5
:10117000CF911F910F910895FC01A481B5818681C3
:10118000978116968D939C931797A681B78184813A
:10119000958114968D939C931597A285B38511968E
:1011A0008D919C911297E817F90731F48681978108
:1011B00011968D939C931297128613868C91815071
:1011C0008C9308958093A0319093A13131E1FC017B
:1011D0003083319722E220833197A3E3A0833197B4
:1011E00060833197708331971082319710823197E5
:1011F00060E86083319710823197108231971082B6
:10120000319762E06083319763E06083319764E0F7
:101210006083319765E06083319766E06083319742
:1012200067E06083319768E06083319769E06083AD
:10123000319760E1608331973083319732E13083B9
:10124000319733E13083319734E13083319735E1A1
:101250003083319736E13083319737E130833197EE
:1012600038E13083319739E13083319730E2308390
:10127000319731E2308331972083319723E2208305
:101280003197408331975083319726E220833197FD
:1012900027E22083319728E22083319729E22083B7
:1012A000319720E32083319721E3208389970895A4
:1012B0008CE78093690A8FEF8093680A81E08093BE
:1012C000400A81E18093410A83E08093470AA0911C
:1012D0005C31B0915D31CD91CDBFDD91DEBFFF912D
:1012E000EF91DF91CF91BF91AF919F918F917F91BE
:1012F0006F915F914F913F912F911F910F91FF90AF
:10130000EF90DF90CF90BF90AF909F908F907F90A5
:101310006F905F904F903F902F901F900F900CBE5A
:101320000F900BBE0F900FBE0F90089581E00895AF
:101330000F920FB6F8940F920BB60F920CB60F9255
:101340001F9211242F923F924F925F926F927F9241
:101350008F929F92AF92BF92CF92DF92EF92FF92C5
:101360000F931F932F933F934F935F936F937F93AD
:101370008F939F93AF93BF93CF93DF93EF93FF939D
:10138000A0915C31B0915D310DB60D920EB60D920B
:101390000E94B810A0915C31B0915D31CD91CDBF6C
:1013A000DD91DEBFFF91EF91DF91CF91BF91AF91C2
:1013B0009F918F917F916F915F914F913F912F916D
:1013C0001F910F91FF90EF90DF90CF90BF90AF9063
:1013D0009F908F907F906F905F904F903F902F9055
:1013E0001F900F900CBE0F900BBE0F900FBE0F9072
:1013F00008950F920FB6F8940F920BB60F920CB699
:101400000F921F9211242F923F924F925F926F92F0
:101410007F928F929F92AF92BF92CF92DF92EF9284
:10142000FF920F931F932F933F934F935F936F936D
:101430007F938F939F93AF93BF93CF93DF93EF935C
:10144000FF93A0915C31B0915D310DB60D920EB657
:101450000D920E949A0E0E94B810A0915C31B0913A
:101460005D31CD91CDBFDD91DEBFFF91EF91DF9179
:10147000CF91BF91AF919F918F917F916F915F912C
:101480004F913F912F911F910F91FF90EF90DF901F
:10149000CF90BF90AF909F908F907F906F905F9014
:1014A0004F903F902F901F900F900CBE0F900BBE4F
:1014B0000F900FBE0F9008950E94F9091895CF93D1
:1014C000DF93EC0188A181110BC088819981892B60
:1014D000E1F58A819B810E9473121A821B8235C0BA
:1014E000411117C0482F50E08C819D810E945620E9
:1014F00028A18C819D81820F911D8C839D832A81DF
:101500003B818217930708F1888199818C839D83A1
:101510001CC0482F50E08E819F810E94562088A1D8
:1015200090E09195819591092E813F81280F391F77
:101530002E833F83488159812417350730F42A814F
:101540003B81820F931F8E839F838E8D8F5F8E8F43
:10155000DF91CF910895FC01808191810097A1F0E6
:1015600040A150E026813781240F351F2683378321
:10157000A281B3812A173B0710F086839783CB01A2
:10158000668177810E94562008950F931F93CF9311
:10159000DF93EC010FB6F8940F928AA11816B4F4F9
:1015A0008B89811105C012C08B89811104C00EC0C6
:1015B0008E010D5E1F4FC8010E943F1181110E94D4
:1015C000FC118AA181508AA3181674F38FEF8AA3A5
:1015D0000F900FBE0FB6F8940F9289A11816B4F4AD
:1015E0008885811105C012C08885811104C00EC094
:1015F0008E01085F1F4FC8010E943F1181110E9498
:10160000FC1189A1815089A3181674F38FEF89A367
:101610000F900FBEDF91CF911F910F9108951F93EF
:10162000CF93DF93613059F0FC012389308531116C
:101630002CC011E0211110E0211128C001C011E0DF
:10164000EC014881598128A130E06F8D629FC00173
:10165000639F900D1124BA01680F791F6A837B8301
:101660001E8E4C835D83821B930B840F951F8E838C
:101670009F838FEF89A38AA3CE0108960E94350825
:10168000CE0143960E94350801C010E0812FDF9102
:10169000CF911F9108950F931F93CF93DF938823CA
:1016A00001F1062F182F83E290E00E946307EC01FE
:1016B000892BC9F0109FC001112401960E94630775
:1016C00088839983892B39F01F8F08A361E0CE01AD
:1016D0000E940F0B08C0CE010E94FD07C0E0D0E0C1
:1016E00002C0C0E0D0E0CE01DF91CF911F910F91F9
:1016F0000895AF92BF92CF92DF92EF92FF920F9335
:101700001F93CF93DF93CDB7DEB72997CDBFDEBF51
:101710007C015B012E833F834887598710E06C0171
:1017200088E0C80ED11C0FB6F8940F92F701968D81
:10173000878D9817A8F4402FB501C7010E945F0A52
:10174000F7018389882341F0C70143960E943F1126
:10175000813011F40E9498090F900FBE81E056C0AD
:101760008E819F81A885B985892B8A2B8B2B21F4AB
:101770000F900FBE80E04AC0111105C0CE01019646
:101780000E947E1111E00F900FBE0E94790E0FB6DD
:10179000F8940F92F70181A18F3F09F411A2F7018C
:1017A00082A18F3F09F412A20F900FBEBE016A5FA3
:1017B0007F4FCE0101960E948F11811121C00FB67B
:1017C000F8940F92F701968D0F900FBE878D9813A6
:1017D00011C04E815F8168857985C6010E9415110F
:1017E000C7010E94C50A0E949B0F81119CCF0E94D5
:1017F000980999CFC7010E94C50A0E949B0F93CFF9
:10180000C7010E94C50A0E949B0F80E02996CDBFA8
:10181000DEBFDF91CF911F910F91FF90EF90DF908E
:10182000CF90BF90AF900895AF92BF92CF92DF92CA
:10183000EF92FF920F931F93CF93DF93CDB7DEB755
:101840002997CDBFDEBF7C015B012E833F83488794
:10185000598710E06C0183E1C80ED11C0FB6F894D3
:101860000F92F701868D882399F1C680D780B50144
:10187000C7010E94AB0A01111AC0F701868D815081
:10188000868F80819181892B29F40E941912F7019A
:1018900082839383F70180858823B1F0C70108967E
:1018A0000E943F11813081F40E9498090DC0F70118
:1018B000C682D7828389882339F0C70143960E9464
:1018C0003F1181110E9498090F900FBE81E062C004
:1018D0008E819F81A885B985892B8A2B8B2B21F43A
:1018E0000F900FBE80E056C0111105C0CE010196C9
:1018F0000E947E1111E00F900FBE0E94790E0FB66C
:10190000F8940F92F70181A18F3F09F411A2F7011A
:1019100082A18F3F09F412A20F900FBEBE016A5F31
:101920007F4FCE0101960E948F1181112DC00FB6FD
:10193000F8940F92F701868D0F900FBE81111EC093
:1019400080819181892B49F40FB6F8940F9282819E
:1019500093810E941E120F900FBE4E815F81688599
:101960007985C6010E941511C7010E94C50A0E940F
:101970009B0F811173CF0E94980970CFC7010E94FD
:10198000C50A0E949B0F6ACFC7010E94C50A0E9428
:101990009B0F80E02996CDBFDEBFDF91CF911F91D5
:1019A0000F91FF90EF90DF90CF90BF90AF90089590
:1019B0000FB6F8940F92FC01868D0F900FBE08951C
:1019C000C0E3D1E388818230E8F30E949809FACF1E
:1019D000CF92DF92EF92FF926B017C01E0915C313C
:1019E000F0915D31628373838483958380910431A8
:1019F00090910531A0910631B0910731C816D906F2
:101A0000EA06FB0668F460915C3170915D3180916B
:101A10001631909117316E5F7F4F0E94710821C07F
:101A200060915C3170915D318091183190911931E4
:101A30006E5F7F4F0E947108809102209091032079
:101A4000A0910420B0910520C816D906EA06FB062D
:101A500040F4C0920220D0920320E0920420F09241
:101A60000520FF90EF90DF90CF9008954F925F9206
:101A70006F927F928F929F92AF92BF92CF92DF929E
:101A8000EF92FF920F931F93CF93DF935C014B0173
:101A90003A01290188E290E00E946307EC01892B5A
:101AA00009F4D4C0C114D10409F0CCC0C3010E9410
:101AB00063078B8F9C8F009721F4CE010E94FD0756
:101AC000C5C0A30161E170E00E945F209301215035
:101AD00031098B8D9C8D3C01620E731E4AE050E0F3
:101AE000B401CE014D960E9466201EA2102F043034
:101AF00008F013E01A8F1FA36E0122E0C20ED11C62
:101B0000C6010E944608CE010E960E944608CA876A
:101B1000DB8784E090E0A0E0B0E0811B9109A1099F
:101B2000B1098E879F87A88BB98BCE8BDF8BA201E3
:101B3000B501C3010E94E20888839983E114F1048E
:101B400019F0F701C083D1830FB6F8940F928091FA
:101B500008318F5F8093083180915C3190915D31C5
:101B6000892B89F5C0935C31D0935D318091083128
:101B70008130C1F580E391E30E9435088BE391E366
:101B80000E94350886E491E30E94350881E591E3DF
:101B90000E94350885E291E30E9435088AE191E3CD
:101BA0000E9435088BE091E30E94350885E291E3BD
:101BB00080931831909319318AE191E38093163123
:101BC000909317310FC08091013181110BC0E091CA
:101BD0005C31F0915D31828D081720F0C0935C314B
:101BE000D0935D318A8D90910331981710F48093D2
:101BF00003319091FC309F5F9093FC3090910231C3
:101C0000981710F480930231FBE08F9FC0011124DC
:101C1000B601805D9E4C0E944A080F900FBE8091D5
:101C20000131882359F0E0915C31F0915D31828D72
:101C3000801730F40E94980981E009C081E007C054
:101C400081E005C0CB8EDC8EC6013BCF8FEFDF91EC
:101C5000CF911F910F91FF90EF90DF90CF90BF90A9
:101C6000AF909F908F907F906F905F904F9008956E
:101C70000FB6F8940F92009721F480915C31909107
:101C80005D310F900FBEFC01828D0895AF92BF921F
:101C9000CF92DF92EF92FF920F93A12CB12CC12C27
:101CA000D12C0F2EF9E0EF2EF1E3FF2EF02D00E006
:101CB00020E030E044E650E068E670E280EE9CE030
:101CC0000E94360D813069F4F894809301311092AE
:101CD00004311092053110920631109207310E94A2
:101CE00058090F91FF90EF90DF90CF90BF90AF9089
:101CF0000895809100318F5F8093003108950FB671
:101D0000F8940F9260910431709105318091063101
:101D1000909107310F900FBE0895009721F48091A4
:101D20005C3190915D314D9608958091093190918B
:101D30000A310895FF920F931F93CF93DF93809101
:101D400000318111EDC08091043190910531A09155
:101D50000631B09107310196A11DB11D8093043168
:101D600090930531A0930631B093073180910431EF
:101D700090910531A0910631B0910731892B8A2BC2
:101D80008B2BF1F5809118319091193120911631FA
:101D900030911731209318313093193180931631D7
:101DA000909317318091FD308F5F8093FD30E091EB
:101DB0001831F0911931808181110CC08FEF9FEFA4
:101DC000DC018093022090930320A0930420B09321
:101DD000052016C0E0911831F09119310780F08587
:101DE000E02D0084F185E02D82819381A481B5816D
:101DF0008093022090930320A0930420B0930520A9
:101E00004091043150910531609106317091073154
:101E10008091022090910320A0910420B091052090
:101E2000481759076A077B0708F47FC0E09118310B
:101E3000F091193180818823F9F0E0911831F09107
:101E400019310780F085E02DC085D1858A819B817D
:101E5000AC81BD81409104315091053160910631D2
:101E600070910731481759076A077B0758F10F2E01
:101E7000FBE0FF2EF02D2FC08FEF9FEFDC01809352
:101E8000022090930320A0930420B09305204DC01E
:101E9000E0911831F09119310780F085E02DC0856F
:101EA000D1858A819B81AC81BD8140910431509163
:101EB00005316091063170910731481759076A075B
:101EC0007B0748F48093022090930320A093042082
:101ED000B09305202AC08E010E5F1F4FC8010E94DB
:101EE000BC08888D998D892B21F0CE010E960E9419
:101EF000BC088A8D90910231981710F480930231BA
:101F0000F89EC0011124B801805D9E4C0E944A08D1
:101F1000E0911831F091193180818111B9CFACCFA6
:101F20008091FF308F5F8093FF30DF91CF911F91C1
:101F30000F91FF900895CF92DF92EF92FF920F934F
:101F40001F93CF93DF930FB6F8940F9280910031D7
:101F500081508093003180910031811160C0809167
:101F6000083181112CC05EC0D7011796ED91FC910C
:101F70001897C085D185CE010E960E94BC088E01AF
:101F80000E5F1F4FC8010E94BC088A8D90910231DC
:101F9000981710F480930231D89EC0011124B80123
:101FA000805D9E4C0E944A08E0915C31F0915D3169
:101FB0009A8D828D981770F0CC24C3940BC0C12CDD
:101FC0000F2EFBE0EF2EF1E3FF2EF02D0F2EFBE0A6
:101FD000DF2EF02DF70180818111C6CF8091FF3077
:101FE000882381F08091FF30882399F00E949A0E17
:101FF0008091FF3081508093FF308091FF308111BC
:10200000F5CF07C0F1E0CF1621F08091FE3081308E
:1020100041F41092FE300E94980981E003C080E0F4
:1020200001C080E00F900FBEDF91CF911F910F9103
:10203000FF90EF90DF90CF900895CF92DF92EF92D4
:10204000FF92CF93DF93EC016A017B010E94790E2E
:1020500088819981AA81BB81C80ED91EEA1EFB1E08
:1020600040910431509105316091063170910731F2
:10207000481759076A077B07B8F4C816D906EA0655
:10208000FB06E0F58091043190910531A091063175
:10209000B0910731C882D982EA82FB828C159D05F6
:1020A000AE05BF05F8F413C0C816D906EA06FB064C
:1020B00000F18091043190910531A0910631B091E9
:1020C00007318C159D05AE05BF0598F017C08091AE
:1020D0005C3190915D3102960E94BC08C701B60147
:1020E0000E94E80C0E949B0F81110DC00E9498096C
:1020F0000AC0C882D982EA82FB82E9CFC882D9822B
:10210000EA82FB82EFCFDF91CF91FF90EF90DF90DB
:10211000CF900895CF92DF92EF92FF926B017C01F6
:10212000672B682B692BE9F00E94790E80910431AE
:1021300090910531A0910631B0910731C80ED91E9A
:10214000EA1EFB1E80915C3190915D3102960E94E7
:10215000BC08C701B6010E94E80C0E949B0F8111C8
:1021600002C00E949809FF90EF90DF90CF900895F1
:102170008091003181110CC0E09102314BE0E49F6D
:10218000F0011124E05DFE4C8081882329F014C009
:1021900081E08093FE3008959BE080910231815070
:1021A00080930231E09102319E9FF0011124E05DA5
:1021B000FE4C8081882389F380910231282F30E002
:1021C0004BE0849FC0011124DC01A05DBE4C119640
:1021D000ED91FC9112970480F581E02D1196ED931D
:1021E000FC9312978D5C9E4CE817F90761F484818B
:1021F00095814BE0429FF001439FF00D1124E05D7B
:10220000FE4C818392838BE0829FF001839FF00DCF
:102210001124E05DFE4C0180F281E02D80859185E6
:1022200080935C3190935D310895CF92DF92EF926D
:10223000FF926A017B0160915C3170915D31625F58
:102240007F4F0E94710880915C3190915D310296C0
:102250000E94BC088091043190910531A091063113
:10226000B0910731BC01CD016C0D7D1D8E1D9F1DF0
:102270000E94E80CFF90EF90DF90CF9008950F93AD
:102280001F93CF93DF93DC011796ED91FC91189784
:10229000C085D1858E01025F1F4FC8010E94BC0816
:1022A00080910031811116C00C501109C8010E94A3
:1022B000BC088A8D90910231981710F480930231F6
:1022C000BBE08B9FC0011124B801805D9E4C0E9431
:1022D0004A0805C0B8018BE091E30E944A08E091EA
:1022E0005C31F0915D3181E02A8D928D291708F4DF
:1022F00080E0DF91CF911F910F9108952091FD30E3
:10230000FC012083409104315091053160910631E8
:1023100070910731418352836383748308958F9250
:102320009F92AF92BF92CF92DF92EF92FF920F9364
:102330001F93CF93DF93FC010FB6F8940F92809117
:10234000FD309081981789F080910431909105318A
:10235000A0910631B091073101811281238134812E
:1023600080179107A207B307A8F5809104319091D7
:102370000531A0910631B0910731C180D280E38050
:10238000F480EB01088119812A813B818C199D0918
:10239000AE09BF0980179107A207B307E8F4CF0180
:1023A0008090043190900531A0900631B0900731B3
:1023B000B501A4014C195D096E097F09041B150BB9
:1023C000260B370B088319832A833B830E947E11D7
:1023D00080E003C081E001C081E00F900FBEDF917B
:1023E000CF911F910F91FF90EF90DF90CF90BF9012
:1023F000AF909F908F90089581E08093FE30089574
:10240000009721F480915C3190915D31DC015B9605
:10241000ED91FC915C978081813141F4319680E0AF
:1024200090E0019621912131E1F3089580E090E060
:10243000089580915C3190915D3108950F931F93C1
:10244000CF93DF93FC01228DA0915C31B0915D317F
:102450005A968C91281708F041C0A0915C31B09138
:102460005D315A963C9184E090E0A0E0B0E0831B9F
:102470009109A109B10986879787A08BB18B8BE061
:10248000289F90011124205D3E4C848595858217FC
:102490009307E9F48F01EF012296CE010E94BC0858
:1024A000E0915C31F0915D31828DF801828F9091E5
:1024B0000231981710F480930231FBE08F9FC00126
:1024C0001124BE01805D9E4C0E944A0807C0A09165
:1024D0005C31B0915D315A968C91828FDF91CF91B2
:1024E0001F910F9108950F931F93CF93DF93009740
:1024F00049F1FC01328D27A1321721F1EC018C0149
:102500000E5F1F4FC8010E94BC088FA18A8F44E054
:1025100050E060E070E0481B5109610971094E8785
:102520005F87688B798B90910231981710F48093B4
:102530000231FBE08F9FC0011124B801805D9E4CE9
:102540000E944A08DF91CF911F910F910895EC01ED
:10255000E881F9810190F081E02D19951A821B82A2
:102560006FEF7FEFCB010E948A10FACFFC016487E6
:10257000658708954F925F926F927F928F929F929C
:10258000AF92BF92CF92DF92EF92FF920F931F9381
:10259000CF93DF93CDB7DEB72A97CDBFDEBF4C0117
:1025A0002901380181E790E2F40180839183FB01E6
:1025B0008081882369F0DE011196319690E002C097
:1025C000993039F09F5F8D9381918111F9CF01C0CE
:1025D00090E0E1E0F0E0EC0FFD1FE90FF11D10824B
:1025E0007401F2E0EF0EF11CA12CB12CC12CD12C06
:1025F000042F9401A201BE016F5F7F4F88EA92E031
:102600000E94360DF40166827782408651862091C1
:102610005E3130915F312483358380925E319092B8
:102620005F31148615864090A0315090A131FFEFA4
:102630004F1A5F0A4092A0315092A131F4014286B4
:10264000538616861786108A118A6114710409F45C
:1026500044C0813079F56AE0C3010E9439187C01D9
:102660006DE974E00E940218BE016F5F7F4FC701E1
:102670000E9402186AE0C7010E9439187C0164E9CF
:1026800074E00E9402186AE0C7010E9439187C01B8
:1026900066E874E00E94021863E0C7010E943918DE
:1026A000B2010E94C11862E00E94391866E00E94DF
:1026B000391813C06AE0C3010E9439184C0161E760
:1026C00074E00E940218BE016F5F7F4FC4010E9438
:1026D000021866E0C4010E9439182A96CDBFDEBFF9
:1026E000DF91CF911F910F91FF90EF90DF90CF90EE
:1026F000BF90AF909F908F907F906F905F904F9022
:102700000895CF92DF92EF92FF920F931F93CF9392
:10271000DF93EC017B018A819B810E948D0E6C010D
:102720006AE0C7010E9439188C0160EB74E00E94D6
:1027300002186AE0C8010E9439188C0169EA74E045
:102740000E940218B601C8010E9402186AE0C8017E
:102750000E9439188C0163EA74E00E94021866E056
:10276000C8010E9439188A859B85E885F98501E1B1
:1027700021E0A701BC018E1B9F0B0E9483168C8158
:102780009D81009719F0B7010E948113DF91CF91CD
:102790001F910F91FF90EF90DF90CF9008950F93CE
:1027A0001F93CF93DF93EC0180915E3190915F3165
:1027B000009719F0BE010E9481136AE0CE010E94C9
:1027C00039188C0166EC74E00E9402186AE0C801B6
:1027D0000E9439188C016BEB74E00E9402186AE0C9
:1027E000C8010E9439188C0165EB74E00E94021840
:1027F00066E0C8010E9439188091A0319091A13102
:10280000BC016F5F7F4F01E121E0AE01835691096A
:102810000E948316DF91CF911F910F9108958F929F
:102820009F92AF92BF92CF92DF92EF92FF920F935F
:102830001F93CF93DF93EC018B018A819B810E94D0
:102840008D0EBC01C8010E940218D801ED91FC91C7
:102850000280F381E02D69E0C80119958A819B818E
:102860000E948D0EFC0101900020E9F73197E81BD2
:10287000F90B389748F4D801ED91FC910280F3816F
:10288000E02D69E0C8011995CE84DF84E888F988D5
:10289000A884B9848A819B810E940012982E8C841E
:1028A0008A819B810E94380E682FC8010E943719C7
:1028B0006AE00E943918EC016BE375E00E9402188F
:1028C000682DCE010E9437196AE00E943918EC0188
:1028D00069E375E00E940218692DCE010E94371944
:1028E0006AE00E943918EC0167E375E00E94021863
:1028F000B501CE010E94C1186AE00E943918EC01AE
:1029000065E375E00E9402186AE0CE010E94391862
:10291000EC0163E375E00E940218B701A601CE0145
:102920000E94F518DF91CF911F910F91FF90EF90CA
:10293000DF90CF90BF90AF909F908F900895CF93EE
:10294000DF93EC01CB01DB01ED91FC910280F3817F
:10295000E02DBE011995CE01DF91CF9108950F931F
:102960001F93CF93DF93EC018B01BC01C8010E9440
:102970009F1466E00E9439188C819D81009719F0A0
:10298000B8010E94AF14DF91CF911F910F9108956C
:102990000F931F93CF93DF93EC016AE00E943918E5
:1029A0008C0168E275E00E9402186AE0C8010E948A
:1029B00039188C0161E275E00E94021866E0C801D6
:1029C0000E9439186AE0CE010E9439188C0160E13A
:1029D00075E00E9402186AE0C8010E9439188C0153
:1029E00064E075E00E9402186AE0C8010E9439188C
:1029F0008C016EEF74E00E94021866E0C8010E942C
:102A000039186AE0CE010E9439188C016DEE74E02D
:102A10000E9402186AE0C8010E9439188C0161EE18
:102A200074E00E9402186AE0C8010E9439188C0103
:102A30006BED74E00E94021866E0C8010E9439182C
:102A400080915E3190915F31009719F0BE010E9434
:102A5000AF140E94950E0E940012182F6AE0CE015A
:102A60000E943918EC0160ED74E00E940218612F99
:102A7000CE010E9437196AE00E943918EC016EEC11
:102A800074E00E94021864E670E0CE010E94C11852
:102A90006AE00E943918EC016BEC74E00E940218A5
:102AA00066E0CE010E943918DF91CF911F910F91FE
:102AB00008950F93CF93DF931F92CDB7DEB700E059
:102AC0002FEF3FEFA901BE016F5F7F4FFC018085B3
:102AD00091850E94140C813019F4898190E002C024
:102AE0008FEF9FEF0F90DF91CF910F910895FC0131
:102AF000808591850E94D80C91E0811101C090E001
:102B0000892F08950F93CF93DF931F92CDB7DEB730
:102B10006983FC01228533854485558500E0BE012B
:102B20006F5F7F4F808591850E94790B91E08111C5
:102B300001C090E0892F0F90DF91CF910F91089500
:102B40008F929F92BF92CF92DF92EF92FF920F935C
:102B50001F93CF93DF93EC01B62E4A0168017901F0
:102B60000E94F41789E790E2888399838E869F8676
:102B700040E061E08B2D0E944B0B88879987CA86C5
:102B8000DB86EC86FD86DF91CF911F910F91FF9040
:102B9000EF90DF90CF90BF909F908F900895CF924D
:102BA000DF92EF92FF92CF93DF93EC0168817981FE
:102BB0008A819B810F2EF8EECF2EF3E0DF2EE12CE1
:102BC000F12CF02DA70196010E94DE1F9B01AC01A4
:102BD00060E472E48FE090E00E94BA1FA7019601C2
:102BE0000E94DE1F69017A01AC81BD8120E432E4DC
:102BF0004FE050E00E94282020E038E448EE51E009
:102C00000E94DE1FC701B601620F731F841F951F4C
:102C1000DF91CF91FF90EF90DF90CF900895CF920A
:102C2000DF92EF92FF920F931F93CF93DF93CDB775
:102C3000DEB72F97CDBFDEBF6C018B01DB016D913D
:102C40007D918D919C9128EE33E040E050E00E9410
:102C5000DE1FBA01A901C6010E94F518D601ED9147
:102C6000FC910280F381E02D6EE2C6011995C80146
:102C70000E94CF158E01095F1F4FFE0131967F0123
:102C80002AE030E040E050E00E940020E62F288754
:102C900039874A875B87688579858A859B8520E3A4
:102CA0002E0FD8012E938D01AE15BF0549F71F8257
:102CB000BE016F5F7F4FC6010E940218C6012F96AA
:102CC000CDBFDEBFDF91CF911F910F91FF90EF90AD
:102CD000DF90CF900895CF93DF93EC010FB6F89477
:102CE0000F9280912008909121088C839D830E94EF
:102CF0007F0E688379838A839B830F900FBECE01FA
:102D0000DF91CF9108955F926F927F928F929F9201
:102D1000AF92BF92CF92DF92EF92FF920F931F93E9
:102D2000CF93DF935C014B017A01122F702E63E089
:102D3000CA010E943918A814B90408F07DC06501C1
:102D400084E1C80ED11C00E06A2C5B2CB501C701E0
:102D50000E94C1186AE00E9439186DE475E00E9473
:102D60000218112309F46DC0002309F46AC06AE057
:102D7000C7010E94391868E475E00E94021861C01A
:102D8000112371F001110CC08881871549F06AE0A8
:102D9000C7010E94391863E475E00E94021801E03F
:102DA0006991C7010E943719DC01ED91FC91028005
:102DB000F381E02D60E21995CC16DD0609F71123A9
:102DC00089F06AE0C7010E943918EC016DE375E0F3
:102DD0000E940218E881F9810280F381E02D60E20F
:102DE000CE011995C62DD52D699180EE860F8F35B0
:102DF00048F4D701ED91FC910280F381E02DC701E9
:102E0000199509C0D701ED91FC910280F381E02D65
:102E10006EE2C7011995CC16DD0631F7B4E1AB0EB1
:102E2000B11C66E0C7010E94391884E1C80ED11CAC
:102E3000A814B90408F488CF62E0C7010E943918C9
:102E400003C0C62DD52D9CCFDF91CF911F910F913F
:102E5000FF90EF90DF90CF90BF90AF909F908F90BA
:102E60007F906F905F9008950E94630708950E947D
:102E7000630708950895CF93DF93FC01DA01403A88
:102E800068E0560749F480E496E08283938382E009
:102E9000848383E085834CC0403B78E0570749F446
:102EA00080E496E08283938386E0848387E0858351
:102EB0003FC0403A89E0580749F480E696E08283B3
:102EC000938382E0848383E0858332C0403B69E062
:102ED000560749F480E696E08283938386E08483F4
:102EE00087E0858325C0403A7AE0570749F480E8B7
:102EF00096E08283938382E0848383E0858318C095
:102F0000403B8AE0580749F480E896E08283938347
:102F100086E0848387E085830BC0403A5B4041F4C0
:102F200080EA96E08283938382E0848383E08583D2
:102F3000A683B783CD010196808791870396828708
:102F400093872581C281D3814C8181E090E0BC01CF
:102F500002C0660F771F2A95E2F79B01242B2C8372
:102F60002581C281D3814881BC0102C0660F771FD1
:102F70002A95E2F79B01242B28833481C281D381D7
:102F8000288102C0880F991F3A95E2F780959095A5
:102F90008223888380E113968C93139783E01596A0
:102FA0008C93159780EF17968C93179781E216965E
:102FB0008C93169788E114968C9380E8858780E43B
:102FC000868780E284870680F781E02D808180817A
:102FD000DF91CF91089581E0089580E090E0089519
:102FE00080E0089508950895FC0189E890E28083C7
:102FF00091838AE08283138283E085831482168220
:10300000178208950F931F93CF93DF938C01FB01D9
:10301000DC0114968C91811104C06081611117C08C
:1030200023C0D80114961C92EB012196649166236B
:10303000D9F0D801ED91FC910280F381E02DC80117
:103040001995FE01649121966111F3CF0DC0EF0136
:103050002196D801ED91FC910280F381E02DC80109
:10306000199569916111F5CFDF91CF911F910F9162
:103070000895CF93DF93EC01862F90E08B3091057C
:10308000D8F5FC018827E250FF4F8F4F0C941F208A
:1030900082E08A8331C088E08A832EC08AE08A83F6
:1030A0002BC080E18A8328C081E08B8325C01B82EE
:1030B00023C0E881F9810280F381E02D6DE0CE012B
:1030C0001995E881F9810280F381E02D6AE0CE0153
:1030D000199512C0E881F9810284F385E02DCE01B3
:1030E00019950AC0E881F9810084F185E02DCE01AF
:1030F000199502C081E08C83CE01DF91CF910895B4
:10310000CF93DF93EC01662341F0E881F9810280DF
:10311000F381E02D64E5199507C0E881F98102800B
:10312000F381E02D66E41995CE01DF91CF910895EA
:103130000F931F93CF93DF93CDB7DEB76197CDBFCA
:10314000DEBF8C019B01FC0192819A3021F0C80105
:103150000E94C1180DC04AE0BE016F5F7F4FC901D8
:103160000E947520BE016F5F7F4FC8010E94021848
:10317000C8016196CDBFDEBFDF91CF911F910F9146
:103180000895FF920F931F93CF93DF93CDB7DEB7D0
:103190006197CDBFDEBF8C01F62E972FF8014281DB
:1031A000403121F0483011F0423041F4692FC8011C
:1031B0000E9437196F2D0E9437190DC050E0BE01D3
:1031C0006F5F7F4F8F2D0E94AD20BE016F5F7F4FDD
:1031D000C8010E940218C8016196CDBFDEBFDF9111
:1031E000CF911F910F91FF900895DF92EF92FF9280
:1031F0000F931F93CF93DF93CDB7DEB7A197CDBFCA
:10320000DEBF8C01D42EE52EF62E972FF8012281F9
:10321000203121F0283011F0223071F4692FC801DB
:103220000E9437196F2D0E9437196E2D0E94371991
:103230006D2D0E9437190FC030E0AE014F5F5F4F18
:103240006D2D7E2D8F2D0E948020BE016F5F7F4FE0
:10325000C8010E940218C801A196CDBFDEBFDF9150
:10326000CF911F910F91FF90EF90DF900895CF9233
:10327000DF92EF92FF920F931F93CF93DF93CDB71F
:10328000DEB72997CDBFDEBF8C01E62EDC01139699
:103290008C911397882341F0ED91FC910280F3818A
:1032A000E02DC801199556C0F8014281423019F548
:1032B0006894CC24C3F8D12C6894FF24F7F88E2DA1
:1032C0008F2151F0D801ED91FC910280F381E02D26
:1032D00061E3C801199509C0D801ED91FC91028004
:1032E000F381E02D60E3C8011995F694B1E0CB1AA3
:1032F000D10829F72FC04031F9F462956F70019021
:10330000F081E02D0280F381E02D6A3010F0695CDD
:1033100001C0605DC80119956E2D6F70D801ED91E7
:10332000FC910280F381E02D6A3010F0695C01C0ED
:10333000605DC80119950EC050E0BE016F5F7F4F00
:103340008E2D90E00E94AD20BE016F5F7F4FC801BF
:103350000E940218C8012996CDBFDEBFDF91CF9130
:103360001F910F91FF90EF90DF90CF900895DC01B7
:103370005096ED91FC915197808154964C915497C1
:10338000842329F009C02150310919F412C021E227
:103390003EE490819423B9F3908156968C91569790
:1033A000892B80831E96ED91FC911F97608381E0AD
:1033B000089580E00895CF93DF93FC01C18DD28DF5
:1033C00028813981A38DB48D4D915C9124173507E7
:1033D000E9F3A789B08D0D90BC91A02DA20FB31F6A
:1033E0008C912F5F3F4F288339832436310528F095
:1033F000018CF28DE02D1082118290E0DF91CF914F
:103400000895CF93DF93EC01A98DBA8DEB8DFC8DE0
:1034100081E04D915C91208131814217530709F47D
:1034200080E0DF91CF910895DC01ED91FC91028065
:10343000F381E02D6CE019950895EF92FF920F93C0
:103440001F93CF93DF93EC017B018A010E94F41755
:10345000A801B701CE0108960E943B1789E990E2C6
:1034600088839983003A88E0180769F488E891E333
:103470008F8B988F8AE791E3898F9A8F8CE691E3FF
:103480008B8F9C8F64C0003BE8E01E0769F486E8E0
:1034900091E38F8B988F88E791E3898F9A8F8AE6E3
:1034A00091E38B8F9C8F53C0003AF9E01F0769F4BA
:1034B00084E891E38F8B988F86E791E3898F9A8FC9
:1034C00088E691E38B8F9C8F42C0003B89E0180710
:1034D00069F482E891E38F8B988F84E791E3898F79
:1034E0009A8F86E691E38B8F9C8F31C0003AEAE099
:1034F0001E0769F480E891E38F8B988F82E791E350
:10350000898F9A8F84E691E38B8F9C8F20C0003B3C
:10351000FAE01F0769F48EE791E38F8B988F80E7BD
:1035200091E3898F9A8F82E691E38B8F9C8F0FC0F6
:10353000003A1B4061F48CE791E38F8B988F8EE605
:1035400091E3898F9A8F80E691E38B8F9C8F0F890F
:10355000188D84E690E00E943717F80180839183EC
:10356000E98DFA8D10821182EB8DFC8D1082118213
:10357000DF91CF911F910F91FF90EF9008951F92CF
:103580000F920FB60F92112408B60F9218BE0BB609
:103590000F921BBE2F933F938F939F93EF93FF93B5
:1035A0002091A008E0918831F091893180916C31AF
:1035B00090916D31E80FF91F208380916C319091CB
:1035C0006D3101968436910560F480936C3190934F
:1035D0006D3120917A3130917B3182179307F1F46C
:1035E0000CC010926C3110926D3180917A319091B3
:1035F0007B311816190691F40EC001968436910598
:1036000028F480937A3190937B3108C010927A31FC
:1036100010927B3103C081E090E0F3CFFF91EF91F6
:103620009F918F913F912F910F900BBE0F9008BEED
:103630000F900FBE0F901F9018951F920F920FB60C
:103640000F92112408B60F9218BE0BB60F921BBE34
:103650002F933F938F939F93EF93FF932091B00805
:10366000E0918631F091873180916A3190916B3190
:10367000E80FF91F208380916A3190916B31019698
:103680008436910560F480936A3190936B31209178
:1036900078313091793182179307F1F40CC0109290
:1036A0006A3110926B31809178319091793118168E
:1036B000190691F40EC001968436910528F4809382
:1036C00078319093793108C0109278311092793125
:1036D00003C081E090E0F3CFFF91EF919F918F9134
:1036E0003F912F910F900BBE0F9008BE0F900FBE11
:1036F0000F901F9018951F920F920FB60F921124E2
:1037000008B60F9218BE0BB60F921BBE2F933F93B5
:103710008F939F93EF93FF932091A009E0918431C1
:10372000F091853180916C3190916D31E80FF91FE6
:10373000208380916831909169310196843691059A
:1037400060F48093683190936931209176313091A3
:10375000773182179307F1F40CC010926831109200
:10376000693180917631909177311816190691F46C
:103770000EC001968436910528F48093763190939B
:10378000773108C0109276311092773103C081E012
:1037900090E0F3CFFF91EF919F918F913F912F9107
:1037A0000F900BBE0F9008BE0F900FBE0F901F9092
:1037B00018951F920F920FB60F92112408B60F9210
:1037C00018BE0BB60F921BBE2F933F938F939F9300
:1037D000EF93FF932091B009E0918231F091833112
:1037E0008091663190916731E80FF91F20838091B5
:1037F00066319091673101968436910560F480932B
:103800006631909367312091743130917531821710
:103810009307F1F40CC010926631109267318091D9
:103820007431909175311816190691F40EC00196F5
:103830008436910528F4809374319093753108C0D3
:10384000109274311092753103C081E090E0F3CF93
:10385000FF91EF919F918F913F912F910F900BBE10
:103860000F9008BE0F900FBE0F901F9018951F92DB
:103870000F920FB60F92112408B60F9218BE0BB616
:103880000F921BBE2F933F938F939F93EF93FF93C2
:103890002091A00AE0918031F091813180916431D2
:1038A00090916531E80FF91F2083809164319091E8
:1038B000653101968436910560F48093643190936C
:1038C0006531209172313091733182179307F1F491
:1038D0000CC01092643110926531809172319091D8
:1038E00073311816190691F40EC0019684369105AD
:1038F00028F4809372319093733108C01092723122
:103900001092733103C081E090E0F3CFFF91EF910B
:103910009F918F913F912F910F900BBE0F9008BEFA
:103920000F900FBE0F901F9018951F920F920FB619
:103930000F92112408B60F9218BE0BB60F921BBE41
:103940002F933F938F939F93EF93FF932091B00A10
:10395000E0917E31F0917F318091623190916331BD
:10396000E80FF91F208380916231909163310196B5
:103970008436910560F48093623190936331209195
:1039800070313091713182179307F1F40CC01092AD
:1039900062311092633180917031909171311816BB
:1039A000190691F40EC001968436910528F480938F
:1039B00070319093713108C0109270311092713152
:1039C00003C081E090E0F3CFFF91EF919F918F9141
:1039D0003F912F910F900BBE0F9008BE0F900FBE1E
:1039E0000F901F9018951F920F920FB60F921124EF
:1039F00008B60F9218BE0BB60F921BBE2F933F93C3
:103A00008F939F93EF93FF932091A00BE0917C31D4
:103A1000F0917D318091603190916131E80FF91F13
:103A200020838091603190916131019684369105B7
:103A300060F4809360319093613120916E313091C8
:103A40006F3182179307F1F40CC01092603110921D
:103A5000613180916E3190916F311816190691F491
:103A60000EC001968436910528F480936E319093B0
:103A70006F3108C010926E3110926F3103C081E037
:103A800090E0F3CFFF91EF919F918F913F912F9114
:103A90000F900BBE0F9008BE0F900FBE0F901F909F
:103AA00018950F93CF93DF931F92CDB7DEB72FB743
:103AB0002983F8941BBEFC0108ED04BF6083898153
:103AC0008FBF0F90DF91CF910F9108950F931F93A8
:103AD000CF93DF93CDB7DEB76D97CDBFDEBFF89440
:103AE000E0E5F0E0808182608083818181FFFDCF0D
:103AF00060914000687F616080E490E00E94511D09
:103B0000E0E5F0E080818E7F80839DEF88ED08B650
:103B100018BE84BF9093800008BE40EA58E060E081
:103B200070E0CE0101960E941D1A67E0CE01019659
:103B30000E9439188C0165EA70E20E94021866E062
:103B4000C8010E94391866E00E94391882E190E0AD
:103B50000E9434178E010F5F1F4F24E031E040E0D8
:103B600064EC70E20E94F30482E190E00E9434175A
:103B700024E031E044E06CEC70E20E94940382E1C6
:103B800090E00E94341724E031E044E063ED70E2FD
:103B90000E94E50382E190E00E94341724E031E0C6
:103BA00044E06AED70E20E944D0482E190E00E94E0
:103BB000341724E031E041E063EE70E20E94E30458
:103BC0008CE390E00E94341724E031E042E06AEE9A
:103BD00070E20E947F0482E190E00E94341724E0AA
:103BE00031E043E060EF70E20E94B10487E080932F
:103BF000A20078940E94460E80E090E06D96CDBFC2
:103C0000DEBFDF91CF911F910F9108950F931F9306
:103C10000AE010E020E030E040E050E060E270E0D8
:103C200080E991E30E94A0151F910F9108950E94D1
:103C30002B1E0C94131F0E940C1F58F00E94051F8E
:103C400040F029F45F3F29F00C94FC1E51110C94B4
:103C5000471F0C94021F0E94241F68F39923B1F39D
:103C6000552391F3951B550BBB27AA2762177307A2
:103C7000840738F09F5F5F4F220F331F441FAA1F36
:103C8000A9F335D00E2E3AF0E0E832D091505040F2
:103C9000E695001CCAF72BD0FE2F29D0660F771FA0
:103CA000881FBB1F261737074807AB07B0E809F086
:103CB000BB0B802DBF01FF2793585F4F3AF09E3F0B
:103CC000510578F00C94FC1E0C94471F5F3FE4F301
:103CD000983ED4F3869577956795B795F7959F5F4E
:103CE000C9F7880F911D9695879597F90895E1E09A
:103CF000660F771F881FBB1F621773078407BA07F9
:103D000020F0621B730B840BBA0BEE1F88F7E09553
:103D100008950E94901E6894B1110C94471F089555
:103D20000E942C1F88F09F5798F0B92F9927B75100
:103D3000B0F0E1F0660F771F881F991F1AF0BA954F
:103D4000C9F714C0B13091F00E94461FB1E0089548
:103D50000C94461F672F782F8827B85F39F0B93F3A
:103D6000CCF3869577956795B395D9F73EF4909502
:103D70008095709561957F4F8F4F9F4F0895E89480
:103D800009C097FB3EF490958095709561957F4FA3
:103D90008F4F9F4F9923A9F0F92F96E9BB27939551
:103DA000F695879577956795B795F111F8CFFAF461
:103DB000BB0F11F460FF1BC06F5F7F4F8F4F9F4F92
:103DC00016C0882311F096E911C0772321F09EE8F0
:103DD000872F762F05C0662371F096E8862F70E056
:103DE00060E02AF09A95660F771F881FDAF7880F30
:103DF0009695879597F9089597F99F6780E870E001
:103E000060E008959FEF80EC089500240A94161650
:103E1000170618060906089500240A9412161306B8
:103E2000140605060895092E0394000C11F4882346
:103E300052F0BB0F40F4BF2B11F460FF04C06F5F62
:103E40007F4F8F4F9F4F089557FD9058440F551F38
:103E500059F05F3F71F04795880F97FB991F61F00C
:103E60009F3F79F087950895121613061406551F83
:103E7000F2CF4695F1DF08C0161617061806991FEF
:103E8000F1CF86957105610508940895E894BB27E4
:103E900066277727CB0197F908950E94601F0C943D
:103EA000131F0E94051F38F00E940C1F20F095235D
:103EB00011F00C94FC1E0C94021F11240C94471F4B
:103EC0000E94241F70F3959FC1F3950F50E0551F7A
:103ED000629FF001729FBB27F00DB11D639FAA275F
:103EE000F00DB11DAA1F649F6627B00DA11D661FAE
:103EF000829F2227B00DA11D621F739FB00DA11DCF
:103F0000621F839FA00D611D221F749F3327A00D88
:103F1000611D231F849F600D211D822F762F6A2F24
:103F200011249F5750409AF0F1F088234AF0EE0F89
:103F3000FF1FBB1F661F771F881F91505040A9F7B6
:103F40009E3F510580F00C94FC1E0C94471F5F3F70
:103F5000E4F3983ED4F3869577956795B795F795F2
:103F6000E7959F5FC1F7FE2B880F911D969587956A
:103F700097F90895DB018F939F930E942820BF91AA
:103F8000AF91A29F800D911DA39F900DB29F900DA8
:103F90001124089597FB072E16F4009407D077FD9F
:103FA00009D00E94332007FC05D03EF490958195FE
:103FB0009F4F0895709561957F4F0895A1E21A2E45
:103FC000AA1BBB1BFD010DC0AA1FBB1FEE1FFF1FBD
:103FD000A217B307E407F50720F0A21BB30BE40B0D
:103FE000F50B661F771F881F991F1A9469F7609554
:103FF0007095809590959B01AC01BD01CF0108950E
:10400000052E97FB1EF400940E94172057FD07D041
:104010000E94DE1F07FC03D04EF40C94172050952D
:104020004095309521953F4F4F4F5F4F08959095A4
:104030008095709561957F4F8F4F9F4F0895EE0F3C
:10404000FF1F881F8BBF0790F691E02D1BBE1994B0
:104050000E944720A59F900DB49F900DA49F800DB6
:10406000911D11240895AA1BBB1B51E107C0AA1F73
:10407000BB1FA617B70710F0A61BB70B881F991F09
:104080005A95A9F780959095BC01CD010895A29FFE
:10409000B001B39FC001A39F700D811D1124911D1C
:1040A000B29F700D811D1124911D0895FB01DC014B
:1040B00002C001900D9241505040D8F70895DC01A4
:1040C00001C06D9341505040E0F70895FB01DC01C1
:1040D0004150504048F001900D920020C9F701C0B6
:1040E0001D9241505040E0F70895BB274A3031F40B
:1040F000992322F4BDE2909581959F4F0C94B920AD
:104100002532310520F4223010F00C948B20FA0176
:104110001082CA010895BB27FA01A62F6217710504
:1041200081059105330B30FB66F0AA27660F771FD8
:10413000881F991FAA1FA21710F0A21B6395385061
:10414000A9F7A05DAA3308F0A95DA19336F7B111D4
:10415000B1931082CA010C94D2204532510520F44B
:10416000423010F00C94B820FB011082CB0108956E
:10417000BB27FB015527AA27880F991FAA1FA41741
:1041800010F0A41B83955051B9F7A05DAA3308F035
:10419000A95DA193009779F7B111B1931192CB0169
:1041A0000C94D220DC01FC01672F71917723E1F799
:1041B000329704C07C916D9370836291AE17BF07F4
:0841C000C8F30895F894FFCF45
:1041C800FF0FFFFFFFFF456E636F64657220507538
:1041D8006C7365733A200000000000E3020F1400BE
:1041E800000000A4030F1472696768744C696D6954
:1041F800743A20006C6566744C696D69743A2000E5
:1042080000000000F5030F14000000005D040F1407
:10421800000000008F040F1400000000C1040F14F8
:104228000000000036060F1449444C450000000009
:10423800003A170F1400000000EB17821577155984
:1042480015F217F31700000000EB173A17F017EDF7
:1042580017F217F31700000000EB17B719011ADB64
:1042680019F217141A4672656552544F5320584D67
:104278004547412054657374696E672050726F67B3
:1042880072616D0055736572496E7400456E634DB9
:10429800747200456E6350656E004C696D53777497
:1042A80063680050574D647276004D6F746F7200EA
:0442B8005049440025
:00000001FF
