S01600004652454552544F535F5348454C4C2E73726563CD
S11300000C94A7020C94DD020C94DD020C94DD0226
S11300100C94DD020C94DD020C94DD020C94DD02E0
S11300200C94DD020C94DD020C94DD020C94DD02D0
S11300300C94DD020C94DD020C94DD020C94DD02C0
S11300400C94DD020C94DD020C94DD020C94DD02B0
S11300500C94DD020C94DD020C94DD020C94DD02A0
S11300600C94DD020C946A1C0C94DD020C94DD02E9
S11300700C94C81C0C94DD020C94DD020C94DD027B
S11300800C94DD020C94DD020C94DD020C94DD0270
S11300900C94DD020C94DD020C94DD020C94DD0260
S11300A00C94DD020C94DD020C94DD020C94DD0250
S11300B00C94DD020C94DD020C94DD020C94DD0240
S11300C00C94DD020C94DD020C94DD020C94DD0230
S11300D00C94DD020C94DD020C94DD020C941A0CD9
S11300E00C94DD020C94DD020C94E21D0C94DD02F0
S11300F00C94DD020C94401E0C94DD020C94DD0281
S11301000C94DD020C94DD020C94DD020C94DD02EF
S11301100C94DD020C94DD020C94DD020C94DD02DF
S11301200C94DD020C94DD020C94DD020C94DD02CF
S11301300C94DD020C94DD020C94DD020C94DD02BF
S11301400C94DD020C94DD020C94DD020C94DD02AF
S11301500C94DD020C94DD020C94DD020C94DD029F
S11301600C94261D0C94DD020C94DD020C94841D69
S11301700C94DD020C94DD020C94DD020C94DD027F
S11301800C94DD020C94DD020C94DD020C94DD026F
S11301900C94DD020C94DD020C94DD020C94DD025F
S11301A00C94DD020C94DD020C94DD020C94DD024F
S11301B00C94DD020C94DD020C94DD020C94DD023F
S11301C00C94DD020C94DD020C94DD020C94DD022F
S11301D00C94DD020C94DD020C94DD020C949E1E42
S11301E00C94DD020C94DD020C94DD020C94DD020F
S11301F00C94DD020C94DD020C94DD020B1A0E1A31
S1130200111A141A171A1A1A1C1A2D1A351A3F1A07
S11302103D1A0C94861B0C941A1A0C94CD150C944C
S1130220111A0C94B5190C94171A0C94AE190C9459
S1130230B0190C94B3190C940B1A0C94F4070C9485
S11302403F1A0C9435170C941C1A0C94B6190C9480
S1130250141A0C9406040C94351A0C942D1A0C944C
S1130260FD180C94A4020C9417170C949B1F0C9467
S1130270BF1B0C940E1A0C94B5030C949E0E0C9494
S11302804B040C94AC1B0C94DF020C9440170C949C
S11302903D1A0C94621B2C20544343304343413D8C
S11302A0002F002C204865617020667265653A2035
S11302B00054696D653A20004E6F76203235203245
S11302C0303137004D45343035206261736520721A
S11302D06164696F2070726F6772616D2056302E91
S11302E034200020202020683A20202048414C500F
S11302F0210020202020653A2020204578697420A0
S1130300636F6D6D616E64206D6F646500202020E5
S113031020733A202020537461636B2064756D70E0
S113032020666F72207461736B7300202020207626
S11303303A20202056657273696F6E20616E6420C6
S1130340736574757020696E666F726D6174696F20
S11303506E00202020206E3A20202053686F7720E2
S11303607468652074696D65207269676874206EAD
S11303706F77002020496E20636F6D6D616E64207D
S11303806D6F6465206F6E6C793A00202043746C45
S11303902D413A20456E74657220636F6D6D616EF8
S11303A064206D6F646500202043746C2D433A20F3
S11303B05265736574207468652041565200206844
S11303C0656C70004D453430352062617365207270
S11303D06164696F2070726F6772616D2056302E90
S11303E03420001B5B33306D001B5B34366D0049D9
S11303F06C6C6567616C207374617465212052654F
S113040073657474696E6720415652003A575446B6
S11304103F004578697420636F6D6D616E64206D73
S11304206F646500526573657474696E6720415624
S113043052005072657373204374726C2D412066B0
S11304406F7220636F6D6D616E64206D6F64650003
S1130450526573657474696E67004552524F522039
S1130460696E207461736B20004552524F522063B1
S113047072656174696E67207461736B20002C204F
S1130480737461636B20617420307800206372653B
S113049061746564005461736B20001B5B32326DC0
S11304A0005461736B3A20001B5B316D001B5B329F
S11304B0326D005461736B3A2049444C45001B5B18
S11304C0316D000909002F0049444C4509093009E0
S11304D02D0900092D2D2D2D00092D2D2D2D2D2D0E
S11304E02D2D2D2D002D2D2D2D09092D2D2D2D09D1
S11304F02D2D2D2D2D000952756E73000946726540
S1130500652F546F74616C004E616D6509095072FA
S1130510692E0953746174650009537461636B0037
S11305205461736B09092020092000090009002F78
S113053000090009001B5B32326D001B5B316D004A
S11305401B5B316D002020000E9465149B1F112449
S11305501FBECFEFCDBFDFE3DEBF00E00CBF18BE90
S113056019BE1ABE1BBE10E2A0E0B0E2E8EDF5E44D
S113057000E00BBF02C007900D92AA3CB107D9F767
S11305801BBE21E3AAECB0E201C01D92A837B2075A
S1130590E1F712E0C7EAD2E000E006C021970109C2
S11305A0802FFE010E943B22C63AD10780E0080753
S11305B0A9F70E94111F0C94EA220C940000CF9317
S11305C0DF9300D01F92CDB7DEB77C010E943D10AF
S11305D069837A838B839C83E0E8F6E080E38283FB
S11305E084898360848B85898360858BE0E8F1E06E
S11305F084E7808389E08087E0E0F9E088E683830C
S11306008FEF9FEF86A397A381E080830F2E612C49
S1130610F9E07F2EF02D0F2EFCE35F2EF02DF30179
S113062000A111A10FB6F8940F924801012E000CFD
S1130630AA08BB08C501B4010E94C82020E030E02C
S11306404AE755E40E941E2020E030E044EB53E4E6
S11306500E947D210E9490206093623170936331E7
S11306600F900FBE0FB6F8940F92D501C401880FF6
S1130670991FAA1FBB1FBC01CD01680D791D8A1DDE
S11306809B1D24E630E040E050E00E941C22CA0199
S1130690B9010E94C8200E94902060936431709335
S11306A065310F900FBEC8018C199D09589EB00189
S11306B0599E700D1124072E000C880B990B0E9473
S11306C0C82020E030E04AE755E40E941E202AE0DA
S11306D037ED43EA5BE30E941E200E9490204B0109
S11306E05C01F701C680D78066E070E2C6010E9413
S11306F0C519B401C6010E94431A6C0169E170E294
S11307000E94C51966E0C6010E94FC190FB6F89450
S11307100F9280926031909261310F900FBEF70179
S113072086859785A089B1890196A11DB11D86870B
S11307309787A08BB18B45E050E060E070E0CE017C
S113074001960E94DB1168016ACF0F931F93CF9328
S1130750DF93EC010E94781484E290E28883998309
S1130760DF91CF911F910F910895CF93DF9300D024
S11307701F92CDB7DEB78C010E943D1069837A8346
S11307808B839C83E0E4F6E080E3828383E0848BC4
S1130790858BE0E8F1E084E6818389E08187E0E409
S11307A0F8E089E683838FEF9FEF86A397A381E028
S11307B080836894EE24E6F8FF24F3F8F70180A11F
S11307C091A1F80186859785A089B1890196A11D1B
S11307D0B11D86879787A08BB18B41E050E060E024
S11307E070E0CE0101960E94DB11E8CF0F931F93B6
S11307F0CF93DF93EC010E9478148CE290E288831B
S11308009983DF91CF911F910F910895CF93DF9337
S113081000D01F92CDB7DEB78C010E943D106983D2
S11308207A838B839C83E0E2F7E081E0828388E132
S1130830808B94E09283828B0F2EF8E2EF2EF7E008
S1130840FF2EF02DF701808180FD8081F8018685DF
S11308509785A089B1890196A11DB11D86879787C7
S1130860A08BB18B41E050E060E070E0CE010196D6
S11308700E94DB11E7CF0F931F93CF93DF93EC011B
S11308800E94781484E390E288839983DF91CF9166
S11308901F910F910895CF93DF9300D000D0CDB76F
S11308A0DEB73C010E943D1069837A838B839C836D
S11308B0F301FE968FE692E1A3E0BCE3808391838B
S11308C0A283B38381E090E0F30184AF95AF689491
S11308D0442441F8512C0F2EFFE32F2EF02D0F2E20
S11308E0FCE33F2EF02DF30186859785A089B1891D
S11308F00196A11DB11D86879787A08BB18B428E6F
S1130900538E168E178E2F921F921F921F923F9214
S1130910F3E2FF9327ED2F933AE03F930F2EFDEC84
S11309208F2EFCEC9F2EA92CFDE3BF2EF02D0F2E55
S1130930F4E1CF2EFEEADF2EFFE8EF2EFFEBFF2ED1
S1130940F02D04E11EEA2FE83FE3B501A401CE0136
S113095005960E948005F301668D778D028D138DB7
S1130960072E000C880B990B0E94C8206B017C0198
S1130970B801110F880B990B0E94C820AB01BC0170
S113098097018601CE0105960E94A7066B017C01A2
S1130990F30124AD35AD868D978D820F931F868F1D
S11309A0978F10A611A660A571A5072E000C880BC1
S11309B0990B0E94C8209B01AC01C701B6010E949B
S11309C01E200E949020F30164A375A364A175A165
S11309D0072E000C880B990B0E94C820CDBFDEBFE8
S11309E023E333E34BE851E40E947821181634F4EE
S11309F021E130E0F30124A335A316C0F30164A17F
S1130A0075A1072E000C880B990B0E94C82023E3C4
S1130A1033E34BE851EC0E94192088232CF42FEE89
S1130A203FEFF30124A335A3F30116AA17AA60A587
S1130A3071A506A917A9072E000C880B990B0E9413
S1130A40C82020E53AE641EA57E40E947D216B0183
S1130A507C01B801110F880B990B0E94C8209B01DF
S1130A60AC01C701B6010E947D210E949020F301D0
S1130A7062AB73AB46A957A9268D378D429FC0013F
S1130A80439F900D529F900D112484AB95AB20A9E8
S1130A9031A984A995A9820F931F80AF91AF80AD2E
S1130AA091AD49972CF028E130E020AF31AF0BC075
S1130AB0F30180AD91AD883E9F4F2CF428EE3FEFBB
S1130AC0F30120AF31AF41E050E060E070E0CE01CF
S1130AD001960E94DB11CE0105960E94E70503CF23
S1130AE00F931F93CF93DF93EC010E9478148CE350
S1130AF090E288839983DF91CF911F910F9108959C
S1130B002F923F924F925F926F927F928F929F9219
S1130B10AF92BF92CF92DF92EF92FF920F931F9307
S1130B20CF93DF9300D01F92CDB7DEB71C012A010B
S1130B303B0109831A832B833C8380E290E00E946B
S1130B40F218FC01408251826282738289819A8107
S1130B50AB81BC8184839583A683B783C086D18609
S1130B60E286F38684869586A686B7864A8D5B8D53
S1130B706C8D7D8D408B518B628B738B8E8D9F8D95
S1130B80A8A1B9A1848B958BA68BB78B108E118EDF
S1130B90128E138E148E158E168E178ED101ED9330
S1130BA0FC932496CDBFDEBFDF91CF911F910F91AF
S1130BB0FF90EF90DF90CF90BF90AF909F908F9079
S1130BC07F906F905F904F903F902F900895FC011D
S1130BD080819181009711F00E94F51808954F9239
S1130BE05F926F927F928F929F92AF92BF92CF92B9
S1130BF0DF92EF92FF920F931F93CF93DF9300D076
S1130C0000D0CDB7DEB78D839E83CB01BA01A90195
S1130C1098010E94AC1F6B017C01ED81FE8124854B
S1130C203585468557850E947D2169837A838B8328
S1130C309C83ED81FE814080518062807380A3019A
S1130C409201C701B6010E947D21ED81FE81248DB0
S1130C50358D468D578D0E94AD1F4B015C01ED8192
S1130C60FE81648F758F868F978F208D318D428D95
S1130C70538DC701B6010E94AC1FA30192010E94CB
S1130C801E20ED81FE8120893189428953890E9489
S1130C907D212B013C01ED81FE8124893589468922
S1130CA05789C501B4010E947D2129813A814B8174
S1130CB05C810E94AD1F9B01AC01C301B2010E9483
S1130CC0AD1FB62EA72E982E892EED81FE8174803D
S1130CD0658056804780272D362D452D542D0E9442
S1130CE078211816B4F0ED81FE81708461845284F9
S1130CF04384272D362D452D542D6B2D7A2D892D8A
S1130D00982D0E941920882324F07B2C6A2C592CBE
S1130D10482CED81FE81C08ED18EE28EF38E672D3C
S1130D20762D852D942D2696CDBFDEBFDF91CF91F4
S1130D301F910F91FF90EF90DF90CF90BF90AF90F5
S1130D409F908F907F906F905F904F9008950F9336
S1130D501F93FC01808191810E94EF051F910F91E7
S1130D6008950F931F93CF93DF93EC010E9478149F
S1130D7084E490E288839983DF91CF911F910F914E
S1130D8008950F931F93CF93DF93EC016AE08E8154
S1130D909F810E94FC198C0169EE73E00E94C519C1
S1130DA06AE0C8010E94FC198C0163EE73E00E94A2
S1130DB0C51967E0C8010E94FC196AE08E819F8111
S1130DC00E94FC198C0164EC73E00E94C5196AE06E
S1130DD0C8010E94FC198C016EEB73E00E94C519D6
S1130DE066E0C8010E94FC196AE08E819F810E941E
S1130DF0FC198C0167EA73E00E94C51966E0C8011A
S1130E000E94FC196AE08E819F810E94FC198C016A
S1130E106BE873E00E94C51966E0C8010E94FC19E2
S1130E206AE08E819F810E94FC198C0163E773E064
S1130E300E94C51966E0C8010E94FC196AE08E810F
S1130E409F810E94FC198C0162E573E00E94C51920
S1130E5066E0C8010E94FC196AE08E819F810E94AD
S1130E60FC198C016BE273E00E94C51966E0C801AD
S1130E700E94FC196AE08E819F810E94FC198C01FA
S1130E806DE073E00E94C51966E0C8010E94FC1978
S1130E906AE08E819F810E94FC198C0162EF72E0EE
S1130EA00E94C51966E0C8010E94FC196AE08E819F
S1130EB09F810E94FC19EC0163EE72E00E94C51947
S1130EC066E0CE010E94FC19DF91CF911F910F9132
S1130ED00895AF92BF92CF92DF92EF92FF920F9359
S1130EE01F93CF93DF9300D000D0CDB7DEB78C0132
S1130EF019821A821B821C821D821E820E94EE09A4
S1130F006C01CE0101960E9429185C0166E0F8018B
S1130F10868197810E94FC196AE00E94FC197C0179
S1130F2064EC72E00E94C5196AE0C7010E94FC19D2
S1130F307C0168EB72E00E94C51966E0C7010E945B
S1130F40FC196AE00E94FC197C0161EB72E00E94CA
S1130F50C519B501C7010E94CD176AE00E94FC19AA
S1130F607C0163EA72E00E94C519B601C7010E94C0
S1130F706C1A6AE00E94FC197C0161EA72E00E942A
S1130F80C5194FEF5FE060E070E0C7010E94A01A4E
S1130F90C0902808D09029086AE0F80186819781DA
S1130FA00E94FC197C0166E972E00E94C519B60131
S1130FB0C7010E946C1A66E00E94FC1966E00E9458
S1130FC0FC19F801868197810E9486162696CDBF6A
S1130FD0DEBFDF91CF911F910F91FF90EF90DF90D3
S1130FE0CF90BF90AF900895CF93DF9300D000D0FF
S1130FF0CDB7DEB78C0119821A821B821C821D8236
S11310001E826AE0DC0116968D919C9117970E94CE
S1131010FC197C0162E374E00E94C51966E0C70113
S11310200E94FC19F8018485882321F0813009F499
S11310305DC0D8C086819781DC01ED91FC9104806C
S1131040F581E02D19958823A9F1F801868197810E
S1131050DC01ED91FC910680F781E02D199599272B
S113106081309105F9F0039709F0D8C06AE0F801DE
S1131070868197810E94FC198C0164E274E00E94CD
S1131080C51966E0C8010E94FC1993E088ED08B612
S113109018BE84BF909380008091820081FDFCCFB4
S11310A008BEFFCFC8010E94C10661E0C8010E94CA
S11310B07414B4C086E691E30E943517882309F4BA
S11310C0ADC0D8011696ED91FC9117970190F0816F
S11310D0E02DE280F38086E691E30E941717682FE3
S11310E0F80186819781F701199598C086819781C7
S11310F0DC01ED91FC910480F581E02D19958823A4
S113110009F48CC0F80186819781DC01ED91FC9192
S11311100680F781E02D19959C0133272836310587
S113112059F13CF42B31310559F12536310541F1A2
S11311303BC023373105C1F02637310589F02E36FF
S1131140310591F5CE0101960E942918BC01F801E0
S1131150868197810E94CD1766E00E94FC195EC0CB
S1131160C8010E9469075AC0D80116968D919C91B6
S113117017970E948D1552C0C8010E94C1064EC027
S11311806AE0F801868197810E94FC197C0162E182
S113119074E00E94C51966E0C7010E94FC1960E072
S11311A0C8010E9474143AC0F801A681B781ED9178
S11311B0FC9111970280F381E02D682FCD011995E0
S11311C06AE0D80116968D919C9117970E94FC199C
S11311D07C016CE074E00E94C51966E0C7010E94BE
S11311E0FC191CC06AE0F801868197810E94FC19F1
S11311F08C016FEE73E00E94C51966E0C8010E947D
S1131200FC1993E088ED08B618BE84BF9093800063
S11312108091820081FDFCCF08BEFFCFF801868556
S11312209785A089B1890196A11DB11D86879787ED
S1131230A08BB18B61E070E080E090E00E944812E6
S1131240F1CE0F931F93CF93DF93EC010E943710DD
S11312508091CA2081111DC0AFECB0E2E3EDF0E251
S1131260ED93FC93119712961D921C921397ABEC7D
S1131270B0E28FEF9FE012968D939C9313971D928B
S11312801C92119782839383A083B18381E080931E
S1131290CA20209709F45FC09E012B5F3F4F24961C
S11312A0CE3FDF4008F05AC0E091CF20F091D0202B
S11312B0AFECB0E202C0DF01FC01828193818217AE
S11312C0930720F4808191810097A9F7C0E2EB3C59
S11312D0FC0709F446C0CD91DC9111978E010B5F98
S11312E01F4F808191818D939C9382819381821B76
S11312F0930B8B30910510F1BF01620F731FDB015B
S113130012968D939C9313972283338312964D9157
S11313105C9113978FEC90E201C0CD01EC01A881A0
S1131320B98112962D913C91139724173507A8F390
S1131330EB01A883B983DC016D937C938091002039
S11313409091012022813381821B930B8093002092
S11313509093012008C000E010E005C000E010E018
S113136002C000E010E00E945911C801DF91CF9142
S11313701F910F9108950F931F93CF93DF930097BD
S113138041F1EC018C01055011090E943710F8015C
S113139042815381AFECB0E201C0DF01ED91FC91D9
S11313A011972281338124173507B8F32597E883F1
S11313B0F9830D931C9320910020309101208A81A0
S11313C09B81820F931F80930020909301200E94A1
S11313D05911DF91CF911F910F91089580910020B1
S11313E0909101200895FC010396818392834FEF2D
S11313F05FEFBA0143835483658376838783908741
S11314008187928710820895FC01128613860895BD
S1131410CF93DF93FC01DB0121813281E9018C81CF
S11314209D8114968D939C93159781819281169634
S11314308D939C9317978C819D81EC016E837F83A0
S1131440E9016C837D83618372831A96ED93FC9327
S11314501B9780818F5F8083DF91CF9108950F93D5
S11314601F93CF93DF93EB01088119812A813B817C
S11314700F3F4FEF14072407340731F4DC011996AA
S1131480ED91FC911A971FC0FC013396DC0117966D
S11314904D915C911897DA014D915D916D917C911C
S11314A0041715072607370770F00480F581E02D2F
S11314B0A481B5814D915D916D917C9104171507BF
S11314C02607370790F7A481B581AC83BD831696B0
S11314D0CD93DC931797EE83FF83C483D5838A87E8
S11314E09B87FC0120812F5F2083DF91CF911F9187
S11314F00F910895FC01A481B58186819781169688
S11315008D939C931797A681B781848195811496B6
S11315108D939C931597A285B38511968D919C917B
S11315201297E817F90731F48681978111968D9304
S11315309C931297128613868C9181508C930895F4
S1131540809376319093773131E1FC013083319788
S113155022E220833197A3E3A083319760833197FC
S113156070833197108231971082319760E86083DD
S1131570319710823197108231971082319762E04F
S11315806083319763E06083319764E060833197CF
S113159065E06083319766E06083319767E060833C
S11315A0319768E06083319769E06083319760E147
S11315B0608331973083319732E13083319733E15F
S11315C03083319734E13083319735E1308331977B
S11315D036E13083319737E13083319738E1308316
S11315E0319739E13083319730E23083319731E2FA
S11315F0308331972083319723E2208331974083CE
S113160031975083319726E22083319727E2208354
S1131610319728E22083319729E22083319720E310
S11316202083319721E32083899708958CE7809361
S1131630690A8FEF8093680A81E08093400A81E110
S11316408093410A83E08093470AA0913231B0919C
S11316503331CD91CDBFDD91DEBFFF91EF91DF91AD
S1131660CF91BF91AF919F918F917F916F915F9136
S11316704F913F912F911F910F91FF90EF90DF9029
S1131680CF90BF90AF909F908F907F906F905F901E
S11316904F903F902F901F900F900CBE0F900BBE59
S11316A00F900FBE0F90089581E008950F920FB62A
S11316B0F8940F920BB60F920CB60F921F9211244E
S11316C02F923F924F925F926F927F928F929F924E
S11316D0AF92BF92CF92DF92EF92FF920F931F933C
S11316E02F933F934F935F936F937F938F939F9326
S11316F0AF93BF93CF93DF93EF93FF93A0913231D6
S1131700B09133310DB60D920EB60D920E94761241
S1131710A0913231B0913331CD91CDBFDD91DEBF97
S1131720FF91EF91DF91CF91BF91AF919F918F91F5
S11317307F916F915F914F913F912F911F910F91E5
S1131740FF90EF90DF90CF90BF90AF909F908F90DD
S11317507F906F905F904F903F902F901F900F90CD
S11317600CBE0F900BBE0F900FBE0F9008950F92FA
S11317700FB6F8940F920BB60F920CB60F921F92FD
S113178011242F923F924F925F926F927F928F9289
S11317909F92AF92BF92CF92DF92EF92FF920F93FC
S11317A01F932F933F934F935F936F937F938F93E5
S11317B09F93AF93BF93CF93DF93EF93FF93A09146
S11317C03231B09133310DB60D920EB60D920E94A6
S11317D058100E947612A0913231B0913331CD91DC
S11317E0CDBFDD91DEBFFF91EF91DF91CF91BF912E
S11317F0AF919F918F917F916F915F914F913F91A5
S11318002F911F910F91FF90EF90DF90CF90BF9099
S1131810AF909F908F907F906F905F904F903F908C
S11318202F901F900F900CBE0F900BBE0F900FBE09
S11318300F9008950E94B70B1895CF93DF93EC0196
S113184088A181110BC088819981892BE1F58A8156
S11318509B810E9431141A821B8235C0411117C02A
S1131860482F50E08C819D810E945E2228A18C81AA
S11318709D81820F911D8C839D832A813B818217D8
S1131880930708F1888199818C839D831CC0482F1C
S113189050E08E819F810E945E2288A190E0919504
S11318A0819591092E813F81280F391F2E833F8313
S11318B0488159812417350730F42A813B81820FEE
S11318C0931F8E839F838E8D8F5F8E8FDF91CF9139
S11318D00895FC01808191810097A1F040A150E01E
S11318E026813781240F351F26833783A281B38154
S11318F02A173B0710F086839783CB016681778193
S11319000E945E2208950F931F93CF93DF93EC01FF
S11319100FB6F8940F928AA11816B4F48B8981112A
S113192005C012C08B89811104C00EC08E010D5EEA
S11319301F4FC8010E94FD1281110E94BA138AA18F
S113194081508AA3181674F38FEF8AA30F900FBEE9
S11319500FB6F8940F9289A11816B4F488858111F2
S113196005C012C08885811104C00EC08E01085FB5
S11319701F4FC8010E94FD1281110E94BA1389A150
S1131980815089A3181674F38FEF89A30F900FBEAB
S1131990DF91CF911F910F9108951F93CF93DF9300
S11319A0613059F0FC012389308531112CC011E0DC
S11319B0211110E0211128C001C011E0EC0148817F
S11319C0598128A130E06F8D629FC001639F900D03
S11319D01124BA01680F791F6A837B831E8E4C839E
S11319E05D83821B930B840F951F8E839F838FEFE0
S11319F089A38AA3CE0108960E94F309CE014396D7
S1131A000E94F30901C010E0812FDF91CF911F9153
S1131A1008950F931F93CF93DF93882301F1062F2B
S1131A20182F83E290E00E942109EC01892BC9F070
S1131A30109FC001112401960E9421098883998373
S1131A40892B39F01F8F08A361E0CE010E94CD0CD1
S1131A5008C0CE010E94BB09C0E0D0E002C0C0E0D3
S1131A60D0E0CE01DF91CF911F910F910895AF92F5
S1131A70BF92CF92DF92EF92FF920F931F93CF9377
S1131A80DF93CDB7DEB72997CDBFDEBF7C015B0105
S1131A902E833F834887598710E06C0188E0C80E85
S1131AA0D11C0FB6F8940F92F701968D878D981775
S1131AB0A8F4402FB501C7010E941D0CF7018389CA
S1131AC0882341F0C70143960E94FD12813011F42E
S1131AD00E94560B0F900FBE81E056C08E819F81ED
S1131AE0A885B985892B8A2B8B2B21F40F900FBEE7
S1131AF080E04AC0111105C0CE0101960E943C133A
S1131B0011E00F900FBE0E9437100FB6F8940F9299
S1131B10F70181A18F3F09F411A2F70182A18F3F40
S1131B2009F412A20F900FBEBE016A5F7F4FCE016F
S1131B3001960E944D13811121C00FB6F8940F92A3
S1131B40F701968D0F900FBE878D981311C04E81AB
S1131B505F8168857985C6010E94D312C7010E94FE
S1131B60830C0E94591181119CCF0E94560B99CF6E
S1131B70C7010E94830C0E94591193CFC7010E9490
S1131B80830C0E94591180E02996CDBFDEBFDF91FE
S1131B90CF911F910F91FF90EF90DF90CF90BF9066
S1131BA0AF900895AF92BF92CF92DF92EF92FF92DF
S1131BB00F931F93CF93DF93CDB7DEB72997CDBF94
S1131BC0DEBF7C015B012E833F834887598710E089
S1131BD06C0183E1C80ED11C0FB6F8940F92F70183
S1131BE0868D882399F1C680D780B501C7010E94EC
S1131BF0690C01111AC0F701868D8150868F80818E
S1131C009181892B29F40E94D713F701828393834E
S1131C10F70180858823B1F0C70108960E94FD1260
S1131C20813081F40E94560B0DC0F701C682D78221
S1131C308389882339F0C70143960E94FD128111DC
S1131C400E94560B0F900FBE81E062C08E819F816F
S1131C50A885B985892B8A2B8B2B21F40F900FBE75
S1131C6080E056C0111105C0CE0101960E943C13BC
S1131C7011E00F900FBE0E9437100FB6F8940F9228
S1131C80F70181A18F3F09F411A2F70182A18F3FCF
S1131C9009F412A20F900FBEBE016A5F7F4FCE01FE
S1131CA001960E944D1381112DC00FB6F8940F9226
S1131CB0F701868D0F900FBE81111EC08081918126
S1131CC0892B49F40FB6F8940F92828193810E9474
S1131CD0DC130F900FBE4E815F8168857985C60144
S1131CE00E94D312C7010E94830C0E9459118111D2
S1131CF073CF0E94560B70CFC7010E94830C0E94C1
S1131D0059116ACFC7010E94830C0E94591180E0C7
S1131D102996CDBFDEBFDF91CF911F910F91FF9028
S1131D20EF90DF90CF90BF90AF9008950FB6F894E6
S1131D300F92FC01868D0F900FBE0895C6E0D1E38B
S1131D4088818230E8F30E94560BFACFCF92DF925B
S1131D50EF92FF926B017C01E0913231F0913331CB
S1131D6062837383848395838091DA309091DB302E
S1131D70A091DC30B091DD30C816D906EA06FB0626
S1131D8068F460913231709133318091EC309091EC
S1131D90ED306E5F7F4F0E942F0A21C06091323177
S1131DA0709133318091EE309091EF306E5F7F4FC0
S1131DB00E942F0A8091022090910320A091042078
S1131DC0B0910520C816D906EA06FB0640F4C09275
S1131DD00220D0920320E0920420F0920520FF908C
S1131DE0EF90DF90CF9008954F925F926F927F9221
S1131DF08F929F92AF92BF92CF92DF92EF92FF9217
S1131E000F931F93CF93DF935C014B013A01290198
S1131E1088E290E00E942109EC01892B09F4D4C0E6
S1131E20C114D10409F0CCC0C3010E9421098B8FD5
S1131E309C8F009721F4CE010E94BB09C5C0A30169
S1131E4061E170E00E9467229301215031098B8D7A
S1131E509C8D3C01620E731E4AE050E0B401CE0139
S1131E604D960E946E221EA2102F043008F013E03B
S1131E701A8F1FA36E0122E0C20ED11CC6010E945C
S1131E80040ACE010E960E94040ACA87DB8784E006
S1131E9090E0A0E0B0E0811B9109A109B1098E870F
S1131EA09F87A88BB98BCE8BDF8BA201B501C301B1
S1131EB00E94A00A88839983E114F10419F0F701C0
S1131EC0C083D1830FB6F8940F928091DE308F5F78
S1131ED08093DE308091323190913331892B89F5B2
S1131EE0C0933231D09333318091DE308130C1F5EB
S1131EF086E091E30E94F30981E191E30E94F309F2
S1131F008CE191E30E94F30987E291E30E94F309D3
S1131F108BEF90E30E94F30980EF90E30E94F309B2
S1131F2081EE90E30E94F3098BEF90E38093EE300F
S1131F309093EF3080EF90E38093EC309093ED300A
S1131F400FC08091D73081110BC0E0913231F091F4
S1131F503331828D081720F0C0933231D09333315E
S1131F608A8D9091D930981710F48093D93090913C
S1131F70D2309F5F9093D2309091D830981710F45C
S1131F808093D830FBE08F9FC0011124B6018A5F93
S1131F909E4C0E94080A0F900FBE8091D730882370
S1131FA059F0E0913231F0913331828D801730F461
S1131FB00E94560B81E009C081E007C081E005C0A2
S1131FC0CB8EDC8EC6013BCF8FEFDF91CF911F917B
S1131FD00F91FF90EF90DF90CF90BF90AF909F90C4
S1131FE08F907F906F905F904F9008950FB6F89404
S1131FF00F92009721F480913231909133310F90F8
S11320000FBEFC01828D0895AF92BF92CF92DF92F2
S1132010EF92FF920F93A12CB12CC12CD12C0F2E37
S1132020FFEDEF2EF0E3FF2EF02D00E020E030E096
S113203044E650E068E470E28EE99EE00E94F40E0B
S1132040813069F4F8948093D7301092DA3010928A
S1132050DB301092DC301092DD300E94160B0F91B1
S1132060FF90EF90DF90CF90BF90AF900895809154
S1132070D6308F5F8093D63008950FB6F8940F92C0
S11320806091DA307091DB308091DC309091DD30FA
S11320900F900FBE0895009721F4809132319091F2
S11320A033314D9608958091DF309091E03008955A
S11320B0FF920F931F93CF93DF938091D6308111BA
S11320C0EDC08091DA309091DB30A091DC30B0919A
S11320D0DD300196A11DB11D8093DA309093DB3081
S11320E0A093DC30B093DD308091DA309091DB3016
S11320F0A091DC30B091DD30892B8A2B8B2BF1F54C
S11321008091EE309091EF302091EC303091ED30B1
S11321102093EE303093EF308093EC309093ED3099
S11321208091D3308F5F8093D330E091EE30F09183
S1132130EF30808181110CC08FEF9FEFDC01809321
S1132140022090930320A0930420B093052016C08E
S1132150E091EE30F091EF300780F085E02D0084BF
S1132160F185E02D82819381A481B5818093022041
S113217090930320A0930420B09305204091DA307B
S11321805091DB306091DC307091DD308091022021
S113219090910320A0910420B0910520481759077D
S11321A06A077B0708F47FC0E091EE30F091EF30CE
S11321B080818823F9F0E091EE30F091EF300780D0
S11321C0F085E02DC085D1858A819B81AC81BD815C
S11321D04091DA305091DB306091DC307091DD3029
S11321E0481759076A077B0758F10F2EFBE0FF2EAB
S11321F0F02D2FC08FEF9FEFDC018093022090938E
S11322000320A0930420B09305204DC0E091EE304C
S1132210F091EF300780F085E02DC085D1858A816B
S11322209B81AC81BD814091DA305091DB3060916B
S1132230DC307091DD30481759076A077B0748F492
S11322408093022090930320A0930420B093052050
S11322502AC08E010E5F1F4FC8010E947A0A888D22
S1132260998D892B21F0CE010E960E947A0A8A8DCF
S11322709091D830981710F48093D830F89EC0010C
S11322801124B8018A5F9E4C0E94080AE091EE3046
S1132290F091EF3080818111B9CFACCF8091D530EE
S11322A08F5F8093D530DF91CF911F910F91FF9075
S11322B00895CF92DF92EF92FF920F931F93CF93E3
S11322C0DF930FB6F8940F928091D63081508093AB
S11322D0D6308091D630811160C08091DE3081117A
S11322E02CC05EC0D7011796ED91FC911897C0855C
S11322F0D185CE010E960E947A0A8E010E5F1F4F81
S1132300C8010E947A0A8A8D9091D830981710F4E7
S11323108093D830D89EC0011124B8018A5F9E4CA6
S11323200E94080AE0913231F09133319A8D828D06
S1132330981770F0CC24C3940BC0C12C0F2EF1EE6F
S1132340EF2EF0E3FF2EF02D0F2EFBE0DF2EF02D0D
S1132350F70180818111C6CF8091D530882381F027
S11323608091D530882399F00E9458108091D530FF
S113237081508093D5308091D5308111F5CF07C03D
S1132380F1E0CF1621F08091D430813041F41092E5
S1132390D4300E94560B81E003C080E001C080E08D
S11323A00F900FBEDF91CF911F910F91FF90EF908F
S11323B0DF90CF900895CF92DF92EF92FF92CF9368
S11323C0DF93EC016A017B010E94371088819981B7
S11323D0AA81BB81C80ED91EEA1EFB1E4091DA30C9
S11323E05091DB306091DC307091DD304817590733
S11323F06A077B07B8F4C816D906EA06FB06E0F5B7
S11324008091DA309091DB30A091DC30B091DD30F6
S1132410C882D982EA82FB828C159D05AE05BF0570
S1132420F8F413C0C816D906EA06FB0600F1809139
S1132430DA309091DB30A091DC30B091DD308C1536
S11324409D05AE05BF0598F017C08091323190917B
S1132450333102960E947A0AC701B6010E94A60E81
S11324600E94591181110DC00E94560B0AC0C882E6
S1132470D982EA82FB82E9CFC882D982EA82FB82CE
S1132480EFCFDF91CF91FF90EF90DF90CF90089541
S1132490CF92DF92EF92FF926B017C01672B682B46
S11324A0692BE9F00E9437108091DA309091DB308B
S11324B0A091DC30B091DD30C80ED91EEA1EFB1E9F
S11324C0809132319091333102960E947A0AC70189
S11324D0B6010E94A60E0E945911811102C00E94E9
S11324E0560BFF90EF90DF90CF9008958091D630F7
S11324F081110CC0E091D8304BE0E49FF00111242D
S1132500EA5FFE4C8081882329F014C081E0809327
S1132510D43008959BE08091D83081508093D83096
S1132520E091D8309E9FF0011124EA5FFE4C808137
S1132530882389F38091D830282F30E04BE0849FA2
S1132540C0011124DC01AA5FBE4C1196ED91FC91EF
S113255012970480F581E02D1196ED93FC93129768
S1132560875F9E4CE817F90761F4848195814BE0FD
S1132570429FF001439FF00D1124EA5FFE4C8183DA
S113258092838BE0829FF001839FF00D1124EA5F18
S1132590FE4C0180F281E02D80859185809332315B
S11325A0909333310895CF92DF92EF92FF926A01B4
S11325B07B016091323170913331625F7F4F0E94B1
S11325C02F0A809132319091333102960E947A0A17
S11325D08091DA309091DB30A091DC30B091DD3025
S11325E0BC01CD016C0D7D1D8E1D9F1D0E94A60E8C
S11325F0FF90EF90DF90CF9008950F931F93CF93A8
S1132600DF93DC011796ED91FC911897C085D18575
S11326108E01025F1F4FC8010E947A0A8091D63052
S1132620811116C00C501109C8010E947A0A8A8DC2
S11326309091D830981710F48093D830BBE08B9FDA
S1132640C0011124B8018A5F9E4C0E94080A05C08B
S1132650B80181EE90E30E94080AE0913231F091D2
S1132660333181E02A8D928D291708F480E0DF91BF
S1132670CF911F910F9108952091D330FC012083B5
S11326804091DA305091DB306091DC307091DD3074
S1132690418352836383748308958F929F92AF9290
S11326A0BF92CF92DF92EF92FF920F931F93CF933B
S11326B0DF93FC010FB6F8940F928091D330908190
S11326C0981789F08091DA309091DB30A091DC305A
S11326D0B091DD300181128123813481801791070B
S11326E0A207B307A8F58091DA309091DB30A0916E
S11326F0DC30B091DD30C180D280E380F480EB0126
S1132700088119812A813B818C199D09AE09BF0971
S113271080179107A207B307E8F4CF018090DA305D
S11327209090DB30A090DC30B090DD30B501A40196
S11327304C195D096E097F09041B150B260B370B19
S1132740088319832A833B830E943C1380E003C0DF
S113275081E001C081E00F900FBEDF91CF911F9106
S11327600F91FF90EF90DF90CF90BF90AF909F902C
S11327708F90089581E08093D4300895009721F4D8
S11327808091323190913331DC015B96ED91FC9173
S11327905C978081813141F4319680E090E001962C
S11327A021912131E1F3089580E090E00895809132
S11327B032319091333108950F931F93CF93DF9368
S11327C0FC01228DA0913231B09133315A968C9113
S11327D0281708F041C0A0913231B09133315A9694
S11327E03C9184E090E0A0E0B0E0831B9109A10952
S11327F0B10986879787A08BB18B8BE0289F9001C6
S113280011242A5F3E4C8485958582179307E9F449
S11328108F01EF012296CE010E947A0AE0913231B3
S1132820F0913331828DF801828F9091D8309817CE
S113283010F48093D830FBE08F9FC0011124BE01B7
S11328408A5F9E4C0E94080A07C0A0913231B09161
S113285033315A968C91828FDF91CF911F910F91D2
S113286008950F931F93CF93DF93009749F1FC01D1
S1132870328D27A1321721F1EC018C010E5F1F4F1D
S1132880C8010E947A0A8FA18A8F44E050E060E078
S113289070E0481B5109610971094E875F87688B95
S11328A0798B9091D830981710F48093D830FBE04E
S11328B08F9FC0011124B8018A5F9E4C0E94080AB0
S11328C0DF91CF911F910F910895EC01E881F98177
S11328D00190F081E02D19951A821B826FEF7FEF32
S11328E0CB010E944812FACFFC01648765870895E2
S11328F04F925F926F927F928F929F92AF92BF920C
S1132900CF92DF92EF92FF920F931F93CF93DF93B7
S1132910CDB7DEB72A97CDBFDEBF4C012901380100
S113292081E590E2F40180839183FB018081882317
S113293069F0DE011196319690E002C0993039F0C9
S11329409F5F8D9381918111F9CF01C090E0E1E007
S1132950F0E0EC0FFD1FE90FF11D10827401F2E0AD
S1132960EF0EF11CA12CB12CC12CD12C042F9401FD
S1132970A201BE016F5F7F4F84EA92E00E94F40ED1
S1132980F4016682778240865186209134313091F9
S113299035312483358380923431909235311486D5
S11329A015864090763150907731FFEF4F1A5F0AC9
S11329B04092763150927731F401428653861686DE
S11329C01786108A118A6114710409F444C0813095
S11329D079F56AE0C3010E94FC197C0165E974E0A1
S11329E00E94C519BE016F5F7F4FC7010E94C519C0
S11329F06AE0C7010E94FC197C016CE874E00E9443
S1132A00C5196AE0C7010E94FC197C016EE774E0F5
S1132A100E94C51963E0C7010E94FC19B2010E941B
S1132A206C1A62E00E94FC1966E00E94FC1913C053
S1132A306AE0C3010E94FC194C0169E674E00E943B
S1132A40C519BE016F5F7F4FC4010E94C51966E0BE
S1132A50C4010E94FC192A96CDBFDEBFDF91CF913D
S1132A601F910F91FF90EF90DF90CF90BF90AF90A8
S1132A709F908F907F906F905F904F900895CF922A
S1132A80DF92EF92FF920F931F93CF93DF93EC01AA
S1132A907B018A819B810E944B106C016AE0C70113
S1132AA00E94FC198C0168EA74E00E94C5196AE06E
S1132AB0C8010E94FC198C0161EA74E00E94C519E6
S1132AC0B601C8010E94C5196AE0C8010E94FC1938
S1132AD08C016BE974E00E94C51966E0C8010E948C
S1132AE0FC198A859B85E885F98501E121E0A70128
S1132AF0BC018E1B9F0B0E9441188C819D81009705
S1132B0019F0B7010E943F15DF91CF911F910F91EA
S1132B10FF90EF90DF90CF9008950F931F93CF9382
S1132B20DF93EC018091343190913531009719F0A5
S1132B30BE010E943F156AE0CE010E94FC198C017F
S1132B406EEB74E00E94C5196AE0C8010E94FC198A
S1132B508C0163EB74E00E94C5196AE0C8010E940D
S1132B60FC198C016DEA74E00E94C51966E0C80185
S1132B700E94FC198091763190917731BC016F5F8E
S1132B807F4F01E121E0AE01835691090E94411873
S1132B90DF91CF911F910F9108958F929F92AF92E1
S1132BA0BF92CF92DF92EF92FF920F931F93CF9336
S1132BB0DF93EC018B018A819B810E944B10BC0145
S1132BC0C8010E94C519D801ED91FC910280F381DE
S1132BD0E02D69E0C80119958A819B810E944B1000
S1132BE0FC0101900020E9F73197E81BF90B3897B5
S1132BF048F4D801ED91FC910280F381E02D69E065
S1132C00C8011995CE84DF84E888F988A884B9843A
S1132C108A819B810E94BE13982E8C848A819B8119
S1132C200E94F60F682FC8010E94E21A6AE00E940F
S1132C30FC19EC0163E375E00E94C519682DCE010F
S1132C400E94E21A6AE00E94FC19EC0161E375E05B
S1132C500E94C519692DCE010E94E21A6AE00E9401
S1132C60FC19EC016FE275E00E94C519B501CE01B3
S1132C700E946C1A6AE00E94FC19EC016DE275E096
S1132C800E94C5196AE0CE010E94FC19EC016BE2B6
S1132C9075E00E94C519B701A601CE010E94A01AD1
S1132CA0DF91CF911F910F91FF90EF90DF90CF9024
S1132CB0BF90AF909F908F900895CF93DF93EC01D6
S1132CC0CB01DB01ED91FC910280F381E02DBE018B
S1132CD01995CE01DF91CF9108950F931F93CF9350
S1132CE0DF93EC018B01BC01C8010E945D1666E014
S1132CF00E94FC198C819D81009719F0B8010E94F3
S1132D006D16DF91CF911F910F9108950F931F932B
S1132D10CF93DF93EC016AE00E94FC198C0160E21E
S1132D2075E00E94C5196AE0C8010E94FC198C0173
S1132D3069E175E00E94C51966E0C8010E94FC19AA
S1132D406AE0CE010E94FC198C0168E075E00E94E3
S1132D50C5196AE0C8010E94FC198C016CEF74E08B
S1132D600E94C5196AE0C8010E94FC198C0166EF33
S1132D7074E00E94C51966E0C8010E94FC196AE06B
S1132D80CE010E94FC198C0165EE74E00E94C51905
S1132D906AE0C8010E94FC198C0169ED74E00E948C
S1132DA0C5196AE0C8010E94FC198C0163ED74E046
S1132DB00E94C51966E0C8010E94FC198091343153
S1132DC090913531009719F0BE010E946D160E9452
S1132DD053100E94BE13182F6AE0CE010E94FC1902
S1132DE0EC0168EC74E00E94C519612FCE010E94C9
S1132DF0E21A6AE00E94FC19EC0166EC74E00E949D
S1132E00C51964E670E0CE010E946C1A6AE00E9463
S1132E10FC19EC0163EC74E00E94C51966E0CE0174
S1132E200E94FC19DF91CF911F910F9108950F9388
S1132E30CF93DF931F92CDB7DEB700E02FEF3FEFC4
S1132E40A901BE016F5F7F4FFC01808591850E94BF
S1132E50D20D813019F4898190E002C08FEF9FEF89
S1132E600F90DF91CF910F910895FC01808591859A
S1132E700E94960E91E0811101C090E0892F08957F
S1132E800F93CF93DF931F92CDB7DEB76983FC0115
S1132E90228533854485558500E0BE016F5F7F4FF1
S1132EA0808591850E94370D91E0811101C090E0E9
S1132EB0892F0F90DF91CF910F9108958F929F9258
S1132EC0BF92CF92DF92EF92FF920F931F93CF9313
S1132ED0DF93EC01B62E4A01680179010E94B7190B
S1132EE089E590E2888399838E869F8640E061E03D
S1132EF08B2D0E94090D88879987CA86DB86EC860C
S1132F00FD86DF91CF911F910F91FF90EF90DF909D
S1132F10CF90BF909F908F900895CF92DF92EF92C1
S1132F20FF92CF93DF93EC01688179818A819B8141
S1132F300F2EF8EECF2EF3E0DF2EE12CF12CF02D46
S1132F40A70196010E94FA219B01AC0160E472E49E
S1132F508FE090E00E94EA21A70196010E94FA21E5
S1132F6069017A01AC81BD8120E432E44FE050E094
S1132F700E94442220E038E448EE51E00E94FA2105
S1132F80C701B601620F731F841F951FDF91CF9194
S1132F90FF90EF90DF90CF900895CF92DF92EF9261
S1132FA0FF920F931F93CF93DF93CDB7DEB72F9785
S1132FB0CDBFDEBF6C018B01DB016D917D918D91E5
S1132FC09C9128EE33E040E050E00E94FA21BA01DF
S1132FD0A901C6010E94A01AD601ED91FC910280BC
S1132FE0F381E02D6EE2C6011995C8010E948D1788
S1132FF08E01095F1F4FFE0131967F012AE030E008
S113300040E050E00E941C22E62F288739874A8737
S11330105B87688579858A859B8520E32E0FD80197
S11330202E938D01AE15BF0549F71F82BE016F5F58
S11330307F4FC6010E94C519C6012F96CDBFDEBFC2
S1133040DF91CF911F910F91FF90EF90DF90CF9080
S11330500895CF93DF93EC010FB6F8940F9280910B
S11330602008909121088C839D830E943D106883E1
S113307079838A839B830F900FBECE01DF91CF911A
S113308008955F926F927F928F929F92AF92BF92B8
S1133090CF92DF92EF92FF920F931F93CF93DF9320
S11330A05C014B017A01122F702E63E0CA010E9469
S11330B0FC19A814B90408F07DC0650184E1C80EA8
S11330C0D11C00E06A2C5B2CB501C7010E946C1A6C
S11330D06AE00E94FC1965E475E00E94C519112399
S11330E009F46DC0002309F46AC06AE0C7010E94B4
S11330F0FC1960E475E00E94C51961C0112371F0E8
S113310001110CC08881871549F06AE0C7010E944B
S1133110FC196BE375E00E94C51901E06991C701D0
S11331200E94E21ADC01ED91FC910280F381E02D12
S113313060E21995CC16DD0609F7112389F06AE0DF
S1133140C7010E94FC19EC0165E375E00E94C519F2
S1133150E881F9810280F381E02D60E2CE011995C6
S1133160C62DD52D699180EE860F8F3548F4D70191
S1133170ED91FC910280F381E02DC701199509C0FE
S1133180D701ED91FC910280F381E02D6EE2C7013D
S11331901995CC16DD0631F7B4E1AB0EB11C66E02F
S11331A0C7010E94FC1984E1C80ED11CA814B904FB
S11331B008F488CF62E0C7010E94FC1903C0C62D41
S11331C0D52D9CCFDF91CF911F910F91FF90EF9060
S11331D0DF90CF90BF90AF909F908F907F906F9033
S11331E05F9008950E9421090895009711F00E94AC
S11331F0BB0908950E94210908950895CF93DF9390
S1133200FC01DA01403A68E0560749F480E496E0AC
S11332108283938382E0848383E085834CC0403B34
S113322078E0570749F480E496E08283938386E04C
S1133230848387E085833FC0403A89E0580749F496
S113324080E696E08283938382E0848383E08583AF
S113325032C0403B69E0560749F480E696E0828339
S1133260938386E0848387E0858325C0403A7AE0AF
S1133270570749F480E896E08283938382E084834D
S113328083E0858318C0403B8AE0580749F480E80E
S113329096E08283938386E0848387E085830BC0F2
S11332A0403A5B4041F480EA96E08283938382E073
S11332B0848383E08583A683B783CD0101968087C9
S11332C091870396828793872581C281D3814C811C
S11332D081E090E0BC0102C0660F771F2A95E2F7F7
S11332E09B01242B2C832581C281D3814881BC017D
S11332F002C0660F771F2A95E2F79B01242B2883CF
S11333003481C281D381288102C0880F991F3A95E4
S1133310E2F7809590958223888380E113968C93BD
S1133320139783E015968C93159780EF17968C93DB
S1133330179781E216968C93169788E114968C93CE
S113334080E8858780E4868780E284870680F78129
S1133350E02D80818081DF91CF91089581E00895EF
S113336080E090E0089580E0089508950895FC01B8
S113337089E690E2808391838AE08283138283E0EA
S1133380858314821682178208950F931F93CF9317
S1133390DF938C01FB01DC0114968C91811104C034
S11333A06081611117C023C0D80114961C92EB01EF
S11333B0219664916623D9F0D801ED91FC910280A5
S11333C0F381E02DC8011995FE01649121966111E4
S11333D0F3CF0DC0EF012196D801ED91FC9102804D
S11333E0F381E02DC801199569916111F5CFDF9141
S11333F0CF911F910F910895CF93DF93EC01862F06
S113340090E08B309105D8F5FC018827E250FF4FFE
S11334108F4F0C943B2282E08A8331C088E08A83F8
S11334202EC08AE08A832BC080E18A8328C081E091
S11334308B8325C01B8223C0E881F9810280F3813C
S1133440E02D6DE0CE011995E881F9810280F381C8
S1133450E02D6AE0CE01199512C0E881F981028459
S1133460F385E02DCE0119950AC0E881F981008425
S1133470F185E02DCE01199502C081E08C83CE0147
S1133480DF91CF9108950F931F93CF93DF93CDB71F
S1133490DEB76197CDBFDEBF8C019B01FC01928139
S11334A09A3021F0C8010E946C1A0DC04AE0BE0196
S11334B06F5F7F4FC9010E947D22BE016F5F7F4F06
S11334C0C8010E94C519C8016196CDBFDEBFDF9156
S11334D0CF911F910F910895FF920F931F93CF9354
S11334E0DF93CDB7DEB76197CDBFDEBF8C01F62E7B
S11334F0972FF8014281403121F0483011F04230D9
S113350041F4692FC8010E94E21A6F2D0E94E21A49
S11335100DC050E0BE016F5F7F4F8F2D0E94B5221A
S1133520BE016F5F7F4FC8010E94C519C801619633
S1133530CDBFDEBFDF91CF911F910F91FF90089512
S1133540DF92EF92FF920F931F93CF93DF93CDB748
S1133550DEB7A197CDBFDEBF8C01D42EE52EF62EAB
S1133560972FF8012281203121F0283011F02230E8
S113357071F4692FC8010E94E21A6F2D0E94E21AA9
S11335806E2D0E94E21A6D2D0E94E21A0FC030E0E7
S1133590AE014F5F5F4F6D2D7E2D8F2D0E948822CF
S11335A0BE016F5F7F4FC8010E94C519C801A19673
S11335B0CDBFDEBFDF91CF911F910F91FF90EF90B0
S11335C0DF900895CF92DF92EF92FF920F931F93B3
S11335D0CF93DF93CDB7DEB72997CDBFDEBF8C0184
S11335E0E62EDC0113968C911397882341F0ED911C
S11335F0FC910280F381E02DC801199556C0F801B1
S11336004281423019F56894CC24C3F8D12C6894D3
S1133610FF24F7F88E2D8F2151F0D801ED91FC9104
S11336200280F381E02D61E3C801199509C0D80136
S1133630ED91FC910280F381E02D60E3C8011995BE
S1133640F694B1E0CB1AD10829F72FC04031F9F430
S113365062956F700190F081E02D0280F381E02D7E
S11336606A3010F0695C01C0605DC80119956E2D67
S11336706F70D801ED91FC910280F381E02D6A30E6
S113368010F0695C01C0605DC80119950EC050E07E
S1133690BE016F5F7F4F8E2D90E00E94B522BE0168
S11336A06F5F7F4FC8010E94C519C8012996CDBF1D
S11336B0DEBFDF91CF911F910F91FF90EF90DF90CC
S11336C0CF900895DC015096ED91FC915197808143
S11336D054964C915497842329F009C02150310900
S11336E019F412C021E23EE490819423B9F390814D
S11336F056968C915697892B80831E96ED91FC915A
S11337001F97608381E0089580E00895CF93DF934D
S1133710FC01C18DD28D28813981A38DB48D4D9149
S11337205C9124173507E9F3A789B08D0D90BC91FE
S1133730A02DA20FB31F8C912F5F3F4F2883398395
S11337402436310528F0018CF28DE02D108211828F
S113375090E0DF91CF910895CF93DF93EC01A98D91
S1133760BA8DEB8DFC8D81E04D915C91208131818E
S11337704217530709F480E0DF91CF910895DC01EB
S1133780ED91FC910280F381E02D6CE01995089590
S1133790EF92FF920F931F93CF93DF93EC017B0182
S11337A08A010E94B719A801B701CE0108960E94A8
S11337B0FE1889E790E288839983003A88E0180725
S11337C069F48EE591E38F8B988F80E591E3898F7F
S11337D09A8F82E491E38B8F9C8F64C0003BE8E076
S11337E01E0769F48CE591E38F8B988F8EE491E347
S11337F0898F9A8F80E491E38B8F9C8F53C0003A1A
S1133800F9E01F0769F48AE591E38F8B988F8CE4C4
S113381091E3898F9A8F8EE391E38B8F9C8F42C0C3
S1133820003B89E0180769F488E591E38F8B988F52
S11338308AE491E3898F9A8F8CE391E38B8F9C8F39
S113384031C0003AEAE01E0769F486E591E38F8B04
S1133850988F88E491E3898F9A8F8AE391E38B8F21
S11338609C8F20C0003BFAE01F0769F484E591E3D4
S11338708F8B988F86E491E3898F9A8F88E391E305
S11338808B8F9C8F0FC0003A1B4061F482E591E35B
S11338908F8B988F84E491E3898F9A8F86E391E3E9
S11338A08B8F9C8F0F89188D84E690E00E94FA1804
S11338B0F80180839183E98DFA8D10821182EB8D5A
S11338C0FC8D10821182DF91CF911F910F91FF9097
S11338D0EF9008951F920F920FB60F92112408B61D
S11338E00F9218BE0BB60F921BBE2F933F938F936C
S11338F09F93EF93FF932091A008E0915E31F091A4
S11339005F318091423190914331E80FF91F208358
S1133910809142319091433101968436910560F44F
S11339208093423190934331209150313091513101
S113393082179307F1F40CC0109242311092433174
S113394080915031909151311816190691F40EC09E
S113395001968436910528F4809350319093513127
S113396008C0109250311092513103C081E090E0B0
S1133970F3CFFF91EF919F918F913F912F910F90F2
S11339800BBE0F9008BE0F900FBE0F901F9018959E
S11339901F920F920FB60F92112408B60F9218BE01
S11339A00BB60F921BBE2F933F938F939F93EF936E
S11339B0FF932091B008E0915C31F0915D318091EA
S11339C0403190914131E80FF91F208380914031BB
S11339D09091413101968436910560F48093403191
S11339E09093413120914E3130914F31821793079A
S11339F0F1F40CC0109240311092413180914E315B
S1133A0090914F311816190691F40EC00196843620
S1133A10910528F480934E3190934F3108C0109251
S1133A204E3110924F3103C081E090E0F3CFFF910B
S1133A30EF919F918F913F912F910F900BBE0F901B
S1133A4008BE0F900FBE0F901F9018951F920F92F3
S1133A500FB60F92112408B60F9218BE0BB60F9230
S1133A601BBE2F933F938F939F93EF93FF932091CC
S1133A70A009E0915A31F0915B31809142319091EB
S1133A804331E80FF91F208380913E3190913F31FB
S1133A9001968436910560F480933E3190933F31D2
S1133AA020914C3130914D3182179307F1F40CC0C1
S1133AB010923E3110923F3180914C3190914D31B2
S1133AC01816190691F40EC001968436910528F44F
S1133AD080934C3190934D3108C010924C31109228
S1133AE04D3103C081E090E0F3CFFF91EF919F91BE
S1133AF08F913F912F910F900BBE0F9008BE0F90A6
S1133B000FBE0F901F9018951F920F920FB60F9231
S1133B10112408B60F9218BE0BB60F921BBE2F933A
S1133B203F938F939F93EF93FF932091B009E0917C
S1133B305831F091593180913C3190913D31E80FE9
S1133B40F91F208380913C3190913D310196843658
S1133B50910560F480933C3190933D3120914A313A
S1133B6030914B3182179307F1F40CC010923C3121
S1133B7010923D3180914A3190914B3118161906BB
S1133B8091F40EC001968436910528F480934A314D
S1133B9090934B3108C010924A3110924B3103C0BC
S1133BA081E090E0F3CFFF91EF919F918F913F914E
S1133BB02F910F900BBE0F9008BE0F900FBE0F9069
S1133BC01F9018951F920F920FB60F92112408B6EA
S1133BD00F9218BE0BB60F921BBE2F933F938F9379
S1133BE09F93EF93FF932091A00AE0915631F091B7
S1133BF0573180913A3190913B31E80FF91F20837E
S1133C0080913A3190913B3101968436910560F46C
S1133C1080933A3190933B3120914831309149312E
S1133C2082179307F1F40CC010923A3110923B3191
S1133C3080914831909149311816190691F40EC0BB
S1133C4001968436910528F4809348319093493144
S1133C5008C0109248311092493103C081E090E0CD
S1133C60F3CFFF91EF919F918F913F912F910F90FF
S1133C700BBE0F9008BE0F900FBE0F901F901895AB
S1133C801F920F920FB60F92112408B60F9218BE0E
S1133C900BB60F921BBE2F933F938F939F93EF937B
S1133CA0FF932091B00AE0915431F0915531809105
S1133CB0383190913931E80FF91F208380913831E0
S1133CC09091393101968436910560F480933831AE
S1133CD090933931209146313091473182179307BF
S1133CE0F1F40CC010923831109239318091463180
S1133CF0909147311816190691F40EC00196843636
S1133D00910528F4809346319093473108C010926E
S1133D1046311092473103C081E090E0F3CFFF9128
S1133D20EF919F918F913F912F910F900BBE0F9028
S1133D3008BE0F900FBE0F901F9018951F920F9200
S1133D400FB60F92112408B60F9218BE0BB60F923D
S1133D501BBE2F933F938F939F93EF93FF932091D9
S1133D60A00BE0915231F091533180913631909112
S1133D703731E80FF91F2083809136319091373124
S1133D8001968436910560F48093363190933731EF
S1133D90209144313091453182179307F1F40CC0DE
S1133DA010923631109237318091443190914531DF
S1133DB01816190691F40EC001968436910528F45C
S1133DC0809344319093453108C01092443110924D
S1133DD0453103C081E090E0F3CFFF91EF919F91D3
S1133DE08F913F912F910F900BBE0F9008BE0F90B3
S1133DF00FBE0F901F9018950F93CF93DF931F92D0
S1133E00CDB7DEB72FB72983F8941BBEFC0108EDAC
S1133E1004BF608389818FBF0F90DF91CF910F9191
S1133E2008950F931F93CF93DF93CDB7DEB76D97AC
S1133E30CDBFDEBFF894E0E5F0E08081826080834E
S1133E40818181FFFDCF60914000687F616080E4E3
S1133E5090E00E94FC1EE0E5F0E080818E7F80838C
S1133E609DEF88ED08B618BE84BF9093800008BE0D
S1133E7040EA58E060E070E0CE0101960E94C81B61
S1133E8067E0CE0101960E94FC198C0165E870E29E
S1133E900E94C51966E0C8010E94FC1966E00E94F0
S1133EA0FC1982E190E00E94F2188E010F5F1F4F0F
S1133EB024E031E040E064EA70E20E94B10682E16D
S1133EC090E00E94F21824E031E042E06CEA70E2F3
S1133ED00E94A50382E190E00E94F21824E031E000
S1133EE043E063EB70E20E94F60382E190E00E94FB
S1133EF0F21824E031E044E06AEB70E20E943B04F3
S1133F0082E490E00E94F21824E031E041E063ECA6
S1133F1070E20E94700587E08093A20078940E946A
S1133F20041080E090E06D96CDBFDEBFDF91CF91AD
S1133F301F910F9108950F931F930AE010E020E062
S1133F4030E040E050E060E270E086E691E30E94F9
S1133F505E171F910F9108955058BB27AA270E94FE
S1133F60C41F0C943E210E94302138F00E94372156
S1133F7020F039F49F3F19F426F40C942D210EF40B
S1133F80E095E7FB0C942721E92F0E944F2158F379
S1133F90BA17620773078407950720F079F4A6F52A
S1133FA00C9471210EF4E0950B2EBA2FA02D0B0169
S1133FB0B90190010C01CA01A0011124FF27591B6A
S1133FC099F0593F50F4503E68F11A16F040A22F70
S1133FD0232F342F4427585FF3CF469537952795E1
S1133FE0A795F0405395C9F77EF41F16BA0B620BE0
S1133FF0730B840BBAF09150A1F0FF0FBB1F661F27
S1134000771F881FC2F70EC0BA0F621F731F841F69
S113401048F4879577956795B795F7959E3F08F08F
S1134020B0CF9395880F08F09927EE0F9795879551
S113403008950E94032108F481E008950E9432202B
S11340400C943E210E94372158F00E94302140F008
S113405029F45F3F29F00C94272151110C9472210B
S11340600C942D210E944F2168F39923B1F3552319
S113407091F3951B550BBB27AA2762177307840777
S113408038F09F5F5F4F220F331F441FAA1FA9F30D
S113409035D00E2E3AF0E0E832D091505040E695FB
S11340A0001CCAF72BD0FE2F29D0660F771F881F5C
S11340B0BB1F261737074807AB07B0E809F0BB0B4F
S11340C0802DBF01FF2793585F4F3AF09E3F510563
S11340D078F00C9427210C9472215F3FE4F3983E0E
S11340E0D4F3869577956795B795F7959F5FC9F74C
S11340F0880F911D9695879597F90895E1E0660FCD
S1134100771F881FBB1F621773078407BA0720F045
S1134110621B730B840BBA0BEE1F88F7E0950895AE
S11341200E9497206894B1110C94722108950E9402
S1134130572188F09F5798F0B92F9927B751B0F0BD
S1134140E1F0660F771F881F991F1AF0BA95C9F717
S113415014C0B13091F00E947121B1E008950C9423
S11341607121672F782F8827B85F39F0B93FCCF3D6
S1134170869577956795B395D9F73EF49095809594
S1134180709561957F4F8F4F9F4F0895E89409C0B4
S113419097FB3EF490958095709561957F4F8F4F76
S11341A09F4F9923A9F0F92F96E9BB279395F6958C
S11341B0879577956795B795F111F8CFFAF4BB0F0A
S11341C011F460FF1BC06F5F7F4F8F4F9F4F16C06E
S11341D0882311F096E911C0772321F09EE8872FF8
S11341E0762F05C0662371F096E8862F70E060E0B4
S11341F02AF09A95660F771F881FDAF7880F96952D
S1134200879597F90895990F0008550FAA0BE0E8D0
S1134210FEEF16161706E807F907C0F01216130684
S1134220E407F50798F0621B730B840B950B39F4C4
S11342300A2661F0232B242B252B21F408950A262A
S113424009F4A140A6958FEF811D811D089597F96A
S11342509F6780E870E060E008959FEF80EC089528
S113426000240A9416161706180609060895002451
S11342700A9412161306140605060895092E0394CB
S1134280000C11F4882352F0BB0F40F4BF2B11F43F
S113429060FF04C06F5F7F4F8F4F9F4F089557FD9E
S11342A09058440F551F59F05F3F71F04795880FA0
S11342B097FB991F61F09F3F79F087950895121637
S11342C013061406551FF2CF4695F1DF08C01616E3
S11342D017061806991FF1CF869571056105089494
S11342E00895E894BB2766277727CB0197F90895AB
S11342F00E94032108F48FEF08950E9490210C94EA
S11343003E210E94302138F00E94372120F095236D
S113431011F00C9427210C942D2111240C9472215A
S11343200E944F2170F3959FC1F3950F50E0551FE4
S1134330629FF001729FBB27F00DB11D639FAA27F6
S1134340F00DB11DAA1F649F6627B00DA11D661F45
S1134350829F2227B00DA11D621F739FB00DA11D66
S1134360621F839FA00D611D221F749F3327A00D20
S1134370611D231F849F600D211D822F762F6A2FBC
S113438011249F5750409AF0F1F088234AF0EE0F21
S1134390FF1FBB1F661F771F881F91505040A9F74E
S11343A09E3F510580F00C9427210C9472215F3FAD
S11343B0E4F3983ED4F3869577956795B795F7958A
S11343C0E7959F5FC1F7FE2B880F911D9695879502
S11343D097F90895DB018F939F930E944422BF9124
S11343E0AF91A29F800D911DA39F900DB29F900D40
S11343F011240895A1E21A2EAA1BBB1BFD010DC0B6
S1134400AA1FBB1FEE1FFF1FA217B307E407F50780
S113441020F0A21BB30BE40BF50B661F771F881F5C
S1134420991F1A9469F760957095809590959B01F2
S1134430AC01BD01CF010895052E97FB1EF4009435
S11344400E94332257FD07D00E94FA2107FC03D0B3
S11344504EF40C94332250954095309521953F4F5E
S11344604F4F5F4F089590958095709561957F4F5C
S11344708F4F9F4F0895EE0FFF1F881F8BBF07902C
S1134480F691E02D1BBE19940E944F22A59F900D1A
S1134490B49F900DA49F800D911D11240895A29F97
S11344A0B001B39FC001A39F700D811D1124911D04
S11344B0B29F700D811D1124911D0895FB01DC0133
S11344C002C001900D9241505040D8F70895DC018C
S11344D001C06D9341505040E0F70895FB01DC01A9
S11344E04150504048F001900D920020C9F701C09E
S11344F01D9241505040E0F70895BB274A3031F4F3
S1134500992322F4BDE2909581959F4F0C94C1228A
S11345102532310520F4223010F00C949322FA0154
S11345201082CA010895BB27FA01A62F62177105EC
S113453081059105330B30FB66F0AA27660F771FC0
S1134540881F991FAA1FA21710F0A21B6395385049
S1134550A9F7A05DAA3308F0A95DA19336F7B111BC
S1134560B1931082CA010C94DA224532510520F429
S1134570423010F00C94C022FB011082CB0108954C
S1134580BB27FB015527AA27880F991FAA1FA41729
S113459010F0A41B83955051B9F7A05DAA3308F01D
S11345A0A95DA193009779F7B111B1931192CB0151
S11345B00C94DA22DC01FC01672F71917723E1F777
S11345C0329704C07C916D9370836291AE17BF07DC
S10B45D0C8F30895F894FFCF2D
S11345D8FF0FFFFFFFFF416E67756C617220566520
S11345E86C6F636974793A2000205B52504D5D000A
S11345F800000000DF02CD1500000000B503CD1552
S1134608000000000604CD15000000004B04CD1581
S113461800000000F407CD1549444C450000000093
S113462800FD18CD1500000000AE19401735171706
S113463817B519B61900000000AE19FD18B319B062
S113464819B519B61900000000AE19621BAC1B8617
S11346581BB519BF1B4672656552544F5320584DFC
S11346684547412054657374696E672050726F67BB
S113467872616D0055736572496E7400456E634DC1
S1134688747200456E6350656E004C696D5377749F
S10D46986368004D6F746F72000038
S9030000FC
