:100000000C94A1020C94D7020C94D7020C94D70242
:100010000C94D7020C94D7020C94D7020C94D702FC
:100020000C94D7020C94D7020C94D7020C94D702EC
:100030000C94D7020C94D7020C94D7020C94D702DC
:100040000C94D7020C94D7020C94D7020C94D702CC
:100050000C94D7020C94D7020C94D7020C94D702BC
:100060000C94D7020C948A180C94D7020C94D702E3
:100070000C94E8180C94D7020C94D7020C94D70275
:100080000C94D7020C94D7020C94D7020C94D7028C
:100090000C94D7020C94D7020C94D7020C94D7027C
:1000A0000C94D7020C94D7020C94D7020C94D7026C
:1000B0000C94D7020C94D7020C94D7020C94D7025C
:1000C0000C94D7020C94D7020C94D7020C94D7024C
:1000D0000C94D7020C94D7020C94D7020C94AC0861
:1000E0000C94D7020C94D7020C94021A0C94D702E9
:1000F0000C94D7020C94601A0C94D7020C94D7027B
:100100000C94D7020C94D7020C94D7020C94D7020B
:100110000C94D7020C94D7020C94D7020C94D702FB
:100120000C94D7020C94D7020C94D7020C94D702EB
:100130000C94D7020C94D7020C94D7020C94D702DB
:100140000C94D7020C94D7020C94D7020C94D702CB
:100150000C94D7020C94D7020C94D7020C94D702BB
:100160000C9446190C94D7020C94D7020C94A41941
:100170000C94D7020C94D7020C94D7020C94D7029B
:100180000C94D7020C94D7020C94D7020C94D7028B
:100190000C94D7020C94D7020C94D7020C94D7027B
:1001A0000C94D7020C94D7020C94D7020C94D7026B
:1001B0000C94D7020C94D7020C94D7020C94D7025B
:1001C0000C94D7020C94D7020C94D7020C94D7024B
:1001D0000C94D7020C94D7020C94D7020C94BE1A3C
:1001E0000C94D7020C94D7020C94D7020C94D7022B
:1001F0000C94D7020C94D7020C94D7022B162E160F
:100200003116341637163A163C164D1655165F162B
:100210005D160C944D160C943A160C9455160C94CD
:10022000D3150C942B160C94D6150C94F2110C9437
:1002300034160C9482170C941D150C9437160C94DC
:1002400086040C943C130C94CE150C949E020C94D2
:100250005D160C945F160C94D5150C94CC170C9469
:10026000DF170C943C160C945A130C9465130C94E1
:10027000D9020C9431160C942E160C94D0150C94B3
:10028000A6170C94300B0C94B71B2C20544343300E
:100290004343413D002F002C204865617020667269
:1002A00065653A200054696D653A20004E6F7620EE
:1002B00032352032303137004D45343035206261DF
:1002C000736520726164696F2070726F6772616D0F
:1002D0002056302E34200020202020683A20202074
:1002E00048414C50210020202020653A2020204504
:1002F00078697420636F6D6D616E64206D6F6465E5
:100300000020202020733A202020537461636B204A
:1003100064756D7020666F72207461736B7300205A
:10032000202020763A20202056657273696F6E2057
:10033000616E6420736574757020696E666F726D8E
:100340006174696F6E00202020206E3A20202053B7
:10035000686F77207468652074696D6520726967BD
:100360006874206E6F77002020496E20636F6D6D7A
:10037000616E64206D6F6465206F6E6C793A002049
:100380002043746C2D413A20456E74657220636F72
:100390006D6D616E64206D6F646500202043746C28
:1003A0002D433A2052657365742074686520415668
:1003B00052002068656C70004D4534303520626114
:1003C000736520726164696F2070726F6772616D0E
:1003D0002056302E3420001B5B33306D001B5B3405
:1003E000366D00496C6C6567616C2073746174656F
:1003F0002120526573657474696E672041565200FE
:100400003A5754463F004578697420636F6D6D61BB
:100410006E64206D6F646500526573657474696EF7
:100420006720415652005072657373204374726C9A
:100430002D4120666F7220636F6D6D616E64206D5B
:100440006F646500526573657474696E6700455228
:10045000524F5220696E207461736B2000455252D6
:100460004F52206372656174696E67207461736BAB
:1004700020002C20737461636B206174203078003D
:100480002063726561746564005461736B20001BA6
:100490005B32326D005461736B3A20001B5B316D2F
:1004A000001B5B32326D005461736B3A2049444C3F
:1004B00045001B5B316D000909002F0049444C4584
:1004C000090930092D0900092D2D2D2D00092D2D8B
:1004D0002D2D2D2D2D2D2D2D002D2D2D2D09092DC1
:1004E0002D2D2D092D2D2D2D2D000952756E7300EA
:1004F00009467265652F546F74616C004E616D65BD
:1005000009095072692E09537461746500095374A6
:1005100061636B005461736B090920200920000995
:100520000009002F00090009001B5B32326D001B1F
:100530005B316D001B5B316D002020000E948A1032
:10054000B71B11241FBECFEFCDBFDFE3DEBF00E03E
:100550000CBF18BE19BE1ABE1BBE10E2A0E0B0E26E
:10056000E4E9F9E300E00BBF02C007900D92AA395D
:10057000B107D9F71BBE21E3AAE9B0E201C01D9281
:10058000A434B207E1F712E0C1EAD2E000E006C00D
:1005900021970109802FFE010E94191CC03AD10742
:1005A00080E00807A9F70E94311B0C94C81C0C942A
:1005B0000000CF93DF93CDB7DEB76D97CDBFDEBF21
:1005C0008C01E0E4F6E083E0828380898360808BA5
:1005D00081898360818BE0E8F1E080E6808389E0B7
:1005E0008087E0E0F8E088E683838FEF9FEF86A3C3
:1005F00097A381E0808340EA58E060E070E0CE019C
:1006000001960E94E81740E058E0FA0120A131A1CC
:100610000FB6F8940F92C901880F991F280F391F40
:100620003695279536952795ABE7B4E10E94221CB5
:100630009695879580933031909331310F900FBE0E
:10064000F80186859785A089B1890196A11DB11D04
:1006500086879787A08BB18B8FE39FE10197F1F796
:1006600000C00000D2CF0F931F93CF93DF93EC0114
:100670000E949D108AE090E288839983DF91CF9158
:100680001F910F9108950F931F93CF93DF93EC0168
:100690000E949D1082E190E288839983DF91CF913F
:1006A0001F910F9108950F931F93CF93DF93EC0148
:1006B0006AE08E819F810E941C168C016DED73E0B3
:1006C0000E94E5156AE0C8010E941C168C0167EDC6
:1006D00073E00E94E51567E0C8010E941C166AE0FD
:1006E0008E819F810E941C168C0168EB73E00E9432
:1006F000E5156AE0C8010E941C168C0162EB73E0EC
:100700000E94E51566E0C8010E941C166AE08E8111
:100710009F810E941C168C016BE973E00E94E51515
:1007200066E0C8010E941C166AE08E819F810E94CB
:100730001C168C016FE773E00E94E51566E0C801A6
:100740000E941C166AE08E819F810E941C168C01FB
:1007500067E673E00E94E51566E0C8010E941C167A
:100760006AE08E819F810E941C168C0166E473E012
:100770000E94E51566E0C8010E941C166AE08E81A1
:100780009F810E941C168C016FE173E00E94E515A9
:1007900066E0C8010E941C166AE08E819F810E945B
:1007A0001C168C0161E073E00E94E51566E0C8014B
:1007B0000E941C166AE08E819F810E941C168C018B
:1007C00066EE72E00E94E51566E0C8010E941C1604
:1007D0006AE08E819F810E941C16EC0167ED72E039
:1007E0000E94E51566E0CE010E941C16DF91CF91B4
:1007F0001F910F910895AF92BF92CF92DF92EF9227
:10080000FF920F931F93CF93DF9300D000D0CDB70B
:10081000DEB78C0119821A821B821C821D821E8205
:100820000E9480066C01CE0101960E944E145C016C
:1008300066E0F801868197810E941C166AE00E949A
:100840001C167C0168EB72E00E94E5156AE0C701A6
:100850000E941C167C016CEA72E00E94E51566E0BD
:10086000C7010E941C166AE00E941C167C0165EA02
:1008700072E00E94E515B501C7010E94F2136AE01B
:100880000E941C167C0167E972E00E94E515B60122
:10089000C7010E948C166AE00E941C167C0165E963
:1008A00072E00E94E5154FEF5FE060E070E0C70185
:1008B0000E94C016C0902808D09029086AE0F8016C
:1008C000868197810E941C167C016AE872E00E9472
:1008D000E515B601C7010E948C1666E00E941C1641
:1008E00066E00E941C16F801868197810E94AB1277
:1008F0002696CDBFDEBFDF91CF911F910F91FF9064
:10090000EF90DF90CF90BF90AF900895CF93DF939B
:1009100000D000D0CDB7DEB78C0119821A821B82BD
:100920001C821D821E826AE0DC0116968D919C91CC
:1009300017970E941C167C0166E274E00E94E51580
:1009400066E0C7010E941C16F8018485882321F007
:10095000813009F45DC0D8C086819781DC01ED91BA
:10096000FC910480F581E02D19958823A9F1F80107
:1009700086819781DC01ED91FC910680F781E02D65
:100980001995992781309105F9F0039709F0D8C09E
:100990006AE0F801868197810E941C168C0168E14B
:1009A00074E00E94E51566E0C8010E941C1693E001
:1009B00088ED08B618BE84BF9093800080918200B5
:1009C00081FDFCCF08BEFFCFC8010E94530361E048
:1009D000C8010E949910B4C082E391E30E945A13A7
:1009E000882309F4ADC0D8011696ED91FC911797B4
:1009F0000190F081E02DE280F38082E391E30E9498
:100A00003C13682FF80186819781F701199598C0EA
:100A100086819781DC01ED91FC910480F581E02DC8
:100A20001995882309F48CC0F80186819781DC012F
:100A3000ED91FC910680F781E02D19959C013327FB
:100A40002836310559F13CF42B31310559F1253661
:100A5000310541F13BC023373105C1F0263731055F
:100A600089F02E36310591F5CE0101960E944E1483
:100A7000BC01F801868197810E94F21366E00E9412
:100A80001C165EC0C8010E94FB035AC0D80116960E
:100A90008D919C9117970E94B21152C0C8010E947B
:100AA00053034EC06AE0F801868197810E941C16AC
:100AB0007C0166E074E00E94E51566E0C7010E94D3
:100AC0001C1660E0C8010E9499103AC0F801A68186
:100AD000B781ED91FC9111970280F381E02D682F91
:100AE000CD0119956AE0D80116968D919C911797C2
:100AF0000E941C167C0160E074E00E94E51566E02F
:100B0000C7010E941C161CC06AE0F801868197810B
:100B10000E941C168C0163EE73E00E94E51566E0EE
:100B2000C8010E941C1693E088ED08B618BE84BF69
:100B3000909380008091820081FDFCCF08BEFFCFA2
:100B4000F80186859785A089B1890196A11DB11DFF
:100B500086879787A08BB18B61E070E080E090E0A2
:100B60000E946D0EF1CE0F931F93CF93DF93EC0194
:100B70000E94C90C80919A2081111DC0AFE9B0E29A
:100B8000E3EAF0E2ED93FC93119712961D921C920A
:100B90001397ABE9B0E28FEF9FE012968D939C9391
:100BA00013971D921C92119782839383A083B18324
:100BB00081E080939A20209709F45FC09E012B5F0B
:100BC0003F4F2496CE3FDF4008F05AC0E0919F206F
:100BD000F091A020AFE9B0E202C0DF01FC01828108
:100BE00093818217930720F4808191810097A9F760
:100BF000C0E2EB39FC0709F446C0CD91DC911197B6
:100C00008E010B5F1F4F808191818D939C93828118
:100C10009381821B930B8B30910510F1BF01620F02
:100C2000731FDB0112968D939C931397228333835A
:100C300012964D915C9113978FE990E201C0CD011E
:100C4000EC01A881B98112962D913C91139724173C
:100C50003507A8F3EB01A883B983DC016D937C937E
:100C6000809100209091012022813381821B930B7F
:100C7000809300209093012008C000E010E005C0A0
:100C800000E010E002C000E010E00E94EB0DC8019F
:100C9000DF91CF911F910F9108950F931F93CF93E1
:100CA000DF93009741F1EC018C01055011090E947E
:100CB000C90CF80142815381AFE9B0E201C0DF0104
:100CC000ED91FC9111972281338124173507B8F3F8
:100CD0002597E883F9830D931C9320910020309190
:100CE00001208A819B81820F931F80930020909323
:100CF00001200E94EB0DDF91CF911F910F9108957C
:100D000080910020909101200895FC010396818339
:100D100092834FEF5FEFBA014383548365837683F9
:100D2000878390878187928710820895FC011286BD
:100D300013860895CF93DF93FC01DB01218132817B
:100D4000E9018C819D8114968D939C9315978181E7
:100D5000928116968D939C9317978C819D81EC01BF
:100D60006E837F83E9016C837D83618372831A962E
:100D7000ED93FC931B9780818F5F8083DF91CF91F0
:100D800008950F931F93CF93DF93EB01088119818F
:100D90002A813B810F3F4FEF14072407340731F4BA
:100DA000DC011996ED91FC911A971FC0FC01339656
:100DB000DC0117964D915C911897DA014D915D9188
:100DC0006D917C91041715072607370770F0048092
:100DD000F581E02DA481B5814D915D916D917C915E
:100DE000041715072607370790F7A481B581AC8350
:100DF000BD831696CD93DC931797EE83FF83C48350
:100E0000D5838A879B87FC0120812F5F2083DF9118
:100E1000CF911F910F910895FC01A481B581868126
:100E2000978116968D939C931797A681B78184819D
:100E3000958114968D939C931597A285B3851196F1
:100E40008D919C911297E817F90731F4868197816B
:100E500011968D939C931297128613868C918150D4
:100E60008C930895809342319093433131E1FC019A
:100E70003083319722E220833197A3E3A083319717
:100E80006083319770833197108231971082319748
:100E900060E8608331971082319710823197108219
:100EA000319762E06083319763E06083319764E05B
:100EB0006083319765E06083319766E060833197A6
:100EC00067E06083319768E06083319769E0608311
:100ED000319760E1608331973083319732E130831D
:100EE000319733E13083319734E13083319735E105
:100EF0003083319736E13083319737E13083319752
:100F000038E13083319739E13083319730E23083F3
:100F1000319731E2308331972083319723E2208368
:100F20003197408331975083319726E22083319760
:100F300027E22083319728E22083319729E220831A
:100F4000319720E32083319721E320838997089507
:100F50008CE78093690A8FEF8093680A81E0809321
:100F6000400A81E18093410A83E08093470AA0917F
:100F70000231B0910331CD91CDBFDD91DEBFFF9144
:100F8000EF91DF91CF91BF91AF919F918F917F9121
:100F90006F915F914F913F912F911F910F91FF9012
:100FA000EF90DF90CF90BF90AF909F908F907F9009
:100FB0006F905F904F903F902F901F900F900CBEBE
:100FC0000F900BBE0F900FBE0F90089581E0089513
:100FD0000F920FB6F8940F920BB60F920CB60F92B9
:100FE0001F9211242F923F924F925F926F927F92A5
:100FF0008F929F92AF92BF92CF92DF92EF92FF9229
:101000000F931F932F933F934F935F936F937F9310
:101010008F939F93AF93BF93CF93DF93EF93FF9300
:10102000A0910231B09103310DB60D920EB60D9222
:101030000E949B0EA0910231B0910331CD91CDBFA2
:10104000DD91DEBFFF91EF91DF91CF91BF91AF9125
:101050009F918F917F916F915F914F913F912F91D0
:101060001F910F91FF90EF90DF90CF90BF90AF90C6
:101070009F908F907F906F905F904F903F902F90B8
:101080001F900F900CBE0F900BBE0F900FBE0F90D5
:1010900008950F920FB6F8940F920BB60F920CB6FC
:1010A0000F921F9211242F923F924F925F926F9254
:1010B0007F928F929F92AF92BF92CF92DF92EF92E8
:1010C000FF920F931F932F933F934F935F936F93D1
:1010D0007F938F939F93AF93BF93CF93DF93EF93C0
:1010E000FF93A0910231B09103310DB60D920EB66F
:1010F0000D920E94EA0C0E949B0EA0910231B091C9
:101100000331CD91CDBFDD91DEBFFF91EF91DF9136
:10111000CF91BF91AF919F918F917F916F915F918F
:101120004F913F912F911F910F91FF90EF90DF9082
:10113000CF90BF90AF909F908F907F906F905F9077
:101140004F903F902F901F900F900CBE0F900BBEB2
:101150000F900FBE0F9008950E9449081895CF93E5
:10116000DF93EC0188A181110BC088819981892BC3
:10117000E1F58A819B810E9456101A821B8235C03C
:10118000411117C0482F50E08C819D810E943C1C6A
:1011900028A18C819D81820F911D8C839D832A8142
:1011A0003B818217930708F1888199818C839D8305
:1011B0001CC0482F50E08E819F810E943C1C88A15A
:1011C00090E09195819591092E813F81280F391FDB
:1011D0002E833F83488159812417350730F42A81B3
:1011E0003B81820F931F8E839F838E8D8F5F8E8FA7
:1011F000DF91CF910895FC01808191810097A1F04A
:1012000040A150E026813781240F351F2683378384
:10121000A281B3812A173B0710F086839783CB0105
:10122000668177810E943C1C08950F931F93CF9392
:10123000DF93EC010FB6F8940F928AA11816B4F45C
:101240008B89811105C012C08B89811104C00EC029
:101250008E010D5E1F4FC8010E94220F81110E9456
:10126000DF0F8AA181508AA3181674F38FEF8AA327
:101270000F900FBE0FB6F8940F9289A11816B4F410
:101280008885811105C012C08885811104C00EC0F7
:101290008E01085F1F4FC8010E94220F81110E941A
:1012A000DF0F89A1815089A3181674F38FEF89A3EA
:1012B0000F900FBEDF91CF911F910F9108951F9353
:1012C000CF93DF93613059F0FC01238930853111D0
:1012D0002CC011E0211110E0211128C001C011E043
:1012E000EC014881598128A130E06F8D629FC001D7
:1012F000639F900D1124BA01680F791F6A837B8365
:101300001E8E4C835D83821B930B840F951F8E83EF
:101310009F838FEF89A38AA3CE0108960E9485063A
:10132000CE0143960E94850601C010E0812FDF9117
:10133000CF911F9108950F931F93CF93DF9388232D
:1013400001F1062F182F83E290E00E94B305EC0113
:10135000892BC9F0109FC001112401960E94B3058A
:1013600088839983892B39F01F8F08A361E0CE0110
:101370000E945F0908C0CE010E944D06C0E0D0E087
:1013800002C0C0E0D0E0CE01DF91CF911F910F915C
:101390000895AF92BF92CF92DF92EF92FF920F9398
:1013A0001F93CF93DF93CDB7DEB72997CDBFDEBFB5
:1013B0007C015B012E833F834887598710E06C01D5
:1013C00088E0C80ED11C0FB6F8940F92F701968DE5
:1013D000878D9817A8F4402FB501C7010E94AF0868
:1013E000F7018389882341F0C70143960E94220FA9
:1013F000813011F40E94E8070F900FBE81E056C0C3
:101400008E819F81A885B985892B8A2B8B2B21F40E
:101410000F900FBE80E04AC0111105C0CE010196A9
:101420000E94610F11E00F900FBE0E94C90C0FB611
:10143000F8940F92F70181A18F3F09F411A2F701EF
:1014400082A18F3F09F412A20F900FBEBE016A5F06
:101450007F4FCE0101960E94720F811121C00FB6FD
:10146000F8940F92F701968D0F900FBE878D981309
:1014700011C04E815F8168857985C6010E94F80E92
:10148000C7010E9415090E94EB0D81119CCF0E949B
:10149000E80799CFC7010E9415090E94EB0D93CF71
:1014A000C7010E9415090E94EB0D80E02996CDBF6F
:1014B000DEBFDF91CF911F910F91FF90EF90DF90F2
:1014C000CF90BF90AF900895AF92BF92CF92DF922E
:1014D000EF92FF920F931F93CF93DF93CDB7DEB7B9
:1014E0002997CDBFDEBF7C015B012E833F834887F8
:1014F000598710E06C0183E1C80ED11C0FB6F89437
:101500000F92F701868D882399F1C680D780B501A7
:10151000C7010E94FB0801111AC0F701868D815096
:10152000868F80819181892B29F40E94FC0FF7011D
:1015300082839383F70180858823B1F0C7010896E1
:101540000E94220F813081F40E94E8070DC0F7014C
:10155000C682D7828389882339F0C70143960E94C7
:10156000220F81110E94E8070F900FBE81E062C038
:101570008E819F81A885B985892B8A2B8B2B21F49D
:101580000F900FBE80E056C0111105C0CE0101962C
:101590000E94610F11E00F900FBE0E94C90C0FB6A0
:1015A000F8940F92F70181A18F3F09F411A2F7017E
:1015B00082A18F3F09F412A20F900FBEBE016A5F95
:1015C0007F4FCE0101960E94720F81112DC00FB680
:1015D000F8940F92F701868D0F900FBE81111EC0F7
:1015E00080819181892B49F40FB6F8940F92828102
:1015F00093810E9401100F900FBE4E815F8168851C
:101600007985C6010E94F80EC7010E9415090E9443
:10161000EB0D811173CF0E94E80770CFC7010E94C4
:1016200015090E94EB0D6ACFC7010E9415090E949F
:10163000EB0D80E02996CDBFDEBFDF91CF911F91EA
:101640000F91FF90EF90DF90CF90BF90AF900895F3
:101650000FB6F8940F92FC01868D0F900FBE08957F
:10166000C6EDD0E388818230E8F30E94E807FACF24
:10167000CF92DF92EF92FF926B017C01E0910231F9
:10168000F091033162837383848395838091AA30C0
:101690009091AB30A091AC30B091AD30C816D90666
:1016A000EA06FB0668F46091023170910331809183
:1016B000BC309091BD306E5F7F4F0E94C10621C04B
:1016C00060910231709103318091BE309091BF30B2
:1016D0006E5F7F4F0E94C10680910220909103208F
:1016E000A0910420B0910520C816D906EA06FB0691
:1016F00040F4C0920220D0920320E0920420F092A5
:101700000520FF90EF90DF90CF9008954F925F9269
:101710006F927F928F929F92AF92BF92CF92DF9201
:10172000EF92FF920F931F93CF93DF935C014B01D6
:101730003A01290188E290E00E94B305EC01892B6F
:1017400009F4D4C0C114D10409F0CCC0C3010E9473
:10175000B3058B8F9C8F009721F4CE010E944D061C
:10176000C5C0A30161E170E00E94451C93012150B6
:1017700031098B8D9C8D3C01620E731E4AE050E056
:10178000B401CE014D960E944C1C1EA2102F0430B5
:1017900008F013E01A8F1FA36E0122E0C20ED11CC5
:1017A000C6010E949606CE010E960E949606CA8732
:1017B000DB8784E090E0A0E0B0E0811B9109A10903
:1017C000B1098E879F87A88BB98BCE8BDF8BA20147
:1017D000B501C3010E94320788839983E114F104A3
:1017E00019F0F701C083D1830FB6F8940F9280915E
:1017F000AE308F5F8093AE30809102319091033193
:10180000892B89F5C0930231D09303318091AE309A
:101810008130C1F586ED90E30E94850681EE90E36C
:101820000E9485068CEE90E30E94850687EF90E388
:101830000E9485068BEC90E30E94850680EC90E385
:101840000E94850681EB90E30E9485068BEC90E375
:101850008093BE309093BF3080EC90E38093BC3097
:101860009093BD300FC08091A73081110BC0E091E3
:101870000231F0910331828D081720F0C0930231BC
:10188000D09303318A8D9091A930981710F48093EA
:10189000A9309091A2309F5F9093A2309091A83090
:1018A000981710F48093A830FBE08F9FC00111249B
:1018B000B6018A529F4C0E949A060F900FBE8091EB
:1018C000A730882359F0E0910231F0910331828DE5
:1018D000801730F40E94E80781E009C081E007C06A
:1018E00081E005C0CB8EDC8EC6013BCF8FEFDF9150
:1018F000CF911F910F91FF90EF90DF90CF90BF900D
:10190000AF909F908F907F906F905F904F900895D1
:101910000FB6F8940F92009721F4809102319091C4
:1019200003310F900FBEFC01828D0895AF92BF92DC
:10193000CF92DF92EF92FF920F93A12CB12CC12C8A
:10194000D12C0F2EFFEAEF2EF0E3FF2EF02D00E05A
:1019500020E030E044E650E066E170E280E39BE0A6
:101960000E94860B813069F4F8948093A73010921E
:10197000AA301092AB301092AC301092AD300E9471
:10198000A8070F91FF90EF90DF90CF90BF90AF909E
:1019900008958091A6308F5F8093A63008950FB68A
:1019A000F8940F926091AA307091AB308091AC3076
:1019B0009091AD300F900FBE0895009721F4809163
:1019C0000231909103314D9608958091AF309091FE
:1019D000B0300895FF920F931F93CF93DF938091C0
:1019E000A6308111EDC08091AA309091AB30A091CA
:1019F000AC30B091AD300196A11DB11D8093AA30DD
:101A00009093AB30A093AC30B093AD308091AA30BE
:101A10009091AB30A091AC30B091AD30892B8A2B36
:101A20008B2BF1F58091BE309091BF302091BC306E
:101A30003091BD302093BE303093BF308093BC30A6
:101A40009093BD308091A3308F5F8093A330E0915D
:101A5000BE30F091BF30808181110CC08FEF9FEFBD
:101A6000DC018093022090930320A0930420B09384
:101A7000052016C0E091BE30F091BF300780F085A0
:101A8000E02D0084F185E02D82819381A481B581D0
:101A90008093022090930320A0930420B09305200C
:101AA0004091AA305091AB306091AC307091AD3024
:101AB0008091022090910320A0910420B0910520F4
:101AC000481759076A077B0708F47FC0E091BE30CA
:101AD000F091BF3080818823F9F0E091BE30F09121
:101AE000BF300780F085E02DC085D1858A819B813C
:101AF000AC81BD814091AA305091AB306091AC3047
:101B00007091AD30481759076A077B0758F10F2EBF
:101B1000FBE0FF2EF02D2FC08FEF9FEFDC018093B5
:101B2000022090930320A0930420B09305204DC081
:101B3000E091BE30F091BF300780F085E02DC08588
:101B4000D1858A819B81AC81BD814091AA30509121
:101B5000AB306091AC307091AD30481759076A07CF
:101B60007B0748F48093022090930320A0930420E5
:101B7000B09305202AC08E010E5F1F4FC8010E943E
:101B80000C07888D998D892B21F0CE010E960E942D
:101B90000C078A8D9091A830981710F48093A83084
:101BA000F89EC0011124B8018A529F4C0E949A06E7
:101BB000E091BE30F091BF3080818111B9CFACCFC0
:101BC0008091A5308F5F8093A530DF91CF911F91D9
:101BD0000F91FF900895CF92DF92EF92FF920F93B3
:101BE0001F93CF93DF930FB6F8940F928091A63096
:101BF00081508093A6308091A630811160C0809181
:101C0000AE3081112CC05EC0D7011796ED91FC91CA
:101C10001897C085D185CE010E960E940C078E01C3
:101C20000E5F1F4FC8010E940C078A8D9091A8304B
:101C3000981710F48093A830D89EC0011124B801E1
:101C40008A529F4C0E949A06E0910231F091033132
:101C50009A8D828D981770F0CC24C3940BC0C12C40
:101C60000F2EF1EBEF2EF0E3FF2EF02D0F2EFBE009
:101C7000DF2EF02DF70180818111C6CF8091A53034
:101C8000882381F08091A530882399F00E94EA0C86
:101C90008091A53081508093A5308091A53081112D
:101CA000F5CF07C0F1E0CF1621F08091A43081304C
:101CB00041F41092A4300E94E80781E003C080E064
:101CC00001C080E00F900FBEDF91CF911F910F9167
:101CD000FF90EF90DF90CF900895CF92DF92EF9238
:101CE000FF926B017C01672B682B692BE9F00E9446
:101CF000C90C8091AA309091AB30A091AC30B091DA
:101D0000AD30C80ED91EEA1EFB1E809102319091A3
:101D1000033102960E940C07C701B6010E94380BDE
:101D20000E94EB0D811102C00E94E807FF90EF9026
:101D3000DF90CF9008958091A63081110CC0E09182
:101D4000A8304BE0E49FF0011124EA52FF4C80815F
:101D5000882329F014C081E08093A43008959BE08B
:101D60008091A83081508093A830E091A8309E9F48
:101D7000F0011124EA52FF4C8081882389F380917D
:101D8000A830282F30E04BE0849FC0011124DC01F3
:101D9000AA52BF4C1196ED91FC9112970480F581E7
:101DA000E02D1196ED93FC93129787529F4CE81704
:101DB000F90761F4848195814BE0429FF001439FD4
:101DC000F00D1124EA52FF4C818392838BE0829FB5
:101DD000F001839FF00D1124EA52FF4C0180F28143
:101DE000E02D808591858093023190930331089591
:101DF000CF92DF92EF92FF926A017B0160910231F4
:101E000070910331625F7F4F0E94C1068091023161
:101E10009091033102960E940C078091AA30909114
:101E2000AB30A091AC30B091AD30BC01CD016C0DA8
:101E30007D1D8E1D9F1D0E94380BFF90EF90DF903F
:101E4000CF9008950F931F93CF93DF93DC011796E4
:101E5000ED91FC911897C085D1858E01025F1F4FCF
:101E6000C8010E940C078091A630811116C00C5049
:101E70001109C8010E940C078A8D9091A83098170B
:101E800010F48093A830BBE08B9FC0011124B801EF
:101E90008A529F4C0E949A0605C0B80181EB90E3DC
:101EA0000E949A06E0910231F091033181E02A8D7F
:101EB000928D291708F480E0DF91CF911F910F9147
:101EC00008952091A330FC0120834091AA305091C5
:101ED000AB306091AC307091AD30418352836383FD
:101EE000748308958F929F92AF92BF92CF92DF92A8
:101EF000EF92FF920F931F93CF93DF93FC010FB6E6
:101F0000F8940F928091A3309081981789F0809176
:101F1000AA309091AB30A091AC30B091AD3001813E
:101F200012812381348180179107A207B307A8F596
:101F30008091AA309091AB30A091AC30B091AD308F
:101F4000C180D280E380F480EB01088119812A816D
:101F50003B818C199D09AE09BF0980179107A20723
:101F6000B307E8F4CF018090AA309090AB30A090F6
:101F7000AC30B090AD30B501A4014C195D096E09CB
:101F80007F09041B150B260B370B088319832A8343
:101F90003B830E94610F80E003C081E001C081E0CB
:101FA0000F900FBEDF91CF911F910F91FF90EF9097
:101FB000DF90CF90BF90AF909F908F90089581E079
:101FC0008093A4300895009721F48091023190917C
:101FD0000331DC015B96ED91FC915C97808181314E
:101FE00041F4319680E090E0019621912131E1F3B6
:101FF000089580E090E0089580910231909103313E
:1020000008950F931F93CF93DF93FC01228DA0912E
:102010000231B09103315A968C91281708F041C0D3
:10202000A0910231B09103315A963C9184E090E046
:10203000A0E0B0E0831B9109A109B10986879787C9
:10204000A08BB18B8BE0289F900111242A523F4C2A
:102050008485958582179307E9F48F01EF01229615
:10206000CE010E940C07E0910231F0910331828D84
:10207000F801828F9091A830981710F48093A830BF
:10208000FBE08F9FC0011124BE018A529F4C0E9429
:102090009A0607C0A0910231B09103315A968C91F3
:1020A000828FDF91CF911F910F9108950F931F930E
:1020B000CF93DF93009749F1FC01328D27A13217AE
:1020C00021F1EC018C010E5F1F4FC8010E940C072B
:1020D0008FA18A8F44E050E060E070E0481B510916
:1020E000610971094E875F87688B798B9091A83061
:1020F000981710F48093A830FBE08F9FC001112443
:10210000B8018A529F4C0E949A06DF91CF911F918D
:102110000F910895EC01E881F9810190F081E02DA3
:1021200019951A821B826FEF7FEFCB010E946D0E13
:10213000FACFFC016487658708954F925F926F9292
:102140007F928F929F92AF92BF92CF92DF92EF9247
:10215000FF920F931F93CF93DF93CDB7DEB72A97EC
:10216000CDBFDEBF4C01290138018FE190E2F401BF
:1021700080839183FB018081882369F0DE011196C1
:10218000319690E002C0993039F09F5F8D93819134
:102190008111F9CF01C090E0E1E0F0E0EC0FFD1F0C
:1021A000E90FF11D10827401F2E0EF0EF11CA12C79
:1021B000B12CC12CD12C042F9401A201BE016F5F60
:1021C0007F4F8EE992E00E94860BF401668277824F
:1021D0004086518620910431309105312483358326
:1021E00080920431909205311486158640904231D8
:1021F00050904331FFEF4F1A5F0A409242315092A4
:102200004331F4014286538616861786108A118A56
:102210006114710409F444C0813079F56AE0C301A6
:102220000E941C167C0169E874E00E94E515BE015D
:102230006F5F7F4FC7010E94E5156AE0C7010E94EA
:102240001C167C0160E874E00E94E5156AE0C70195
:102250000E941C167C0162E774E00E94E51563E0B1
:10226000C7010E941C16B2010E948C1662E00E94F7
:102270001C1666E00E941C1613C06AE0C3010E948F
:102280001C164C016DE574E00E94E515BE016F5F00
:102290007F4FC4010E94E51566E0C4010E941C1630
:1022A0002A96CDBFDEBFDF91CF911F910F91FF9096
:1022B000EF90DF90CF90BF90AF909F908F907F90E6
:1022C0006F905F904F900895CF92DF92EF92FF92C0
:1022D0000F931F93CF93DF93EC017B018A819B8146
:1022E0000E94DD0C6C016AE0C7010E941C168C0183
:1022F0006CE974E00E94E5156AE0C8010E941C16B2
:102300008C0165E974E00E94E515B601C8010E94E0
:10231000E5156AE0C8010E941C168C016FE874E0A4
:102320000E94E51566E0C8010E941C168A859B85FF
:10233000E885F98501E121E0A701BC018E1B9F0B17
:102340000E9466148C819D81009719F0B7010E944C
:102350006411DF91CF911F910F91FF90EF90DF906B
:10236000CF9008950F931F93CF93DF93EC0180914B
:10237000043190910531009719F0BE010E9464115B
:102380006AE0CE010E941C168C0162EB74E00E9490
:10239000E5156AE0C8010E941C168C0167EA74E02A
:1023A0000E94E5156AE0C8010E941C168C0161EAD2
:1023B00074E00E94E51566E0C8010E941C16809139
:1023C000423190914331BC016F5F7F4F01E121E0C9
:1023D000AE01835691090E946614DF91CF911F913F
:1023E0000F9108958F929F92AF92BF92CF92DF92FA
:1023F000EF92FF920F931F93CF93DF93EC018B012A
:102400008A819B810E94DD0CBC01C8010E94E515F8
:10241000D801ED91FC910280F381E02D69E0C801C3
:1024200019958A819B810E94DD0CFC01019000209E
:10243000E9F73197E81BF90B389748F4D801ED918B
:10244000FC910280F381E02D69E0C8011995CE84EA
:10245000DF84E888F988A884B9848A819B810E94F6
:10246000E30F982E8C848A819B810E94880C682FB0
:10247000C8010E9402176AE00E941C16EC0167E284
:1024800075E00E94E515682DCE010E9402176AE0F2
:102490000E941C16EC0165E275E00E94E515692DAD
:1024A000CE010E9402176AE00E941C16EC0163E252
:1024B00075E00E94E515B501CE010E948C166AE018
:1024C0000E941C16EC0161E275E00E94E5156AE0CD
:1024D000CE010E941C16EC016FE175E00E94E5152B
:1024E000B701A601CE010E94C016DF91CF911F91C6
:1024F0000F91FF90EF90DF90CF90BF90AF909F90A3
:102500008F900895CF93DF93EC01CB01DB01ED9128
:10251000FC910280F381E02DBE011995CE01DF917F
:10252000CF9108950F931F93CF93DF93EC018B010D
:10253000BC01C8010E94821266E00E941C168C81B8
:102540009D81009719F0B8010E949212DF91CF91FE
:102550001F910F9108950F931F93CF93DF93EC0179
:102560006AE00E941C168C0164E175E00E94E5158A
:102570006AE0C8010E941C168C016DE075E00E94A3
:10258000E51566E0C8010E941C166AE0CE010E94B3
:102590001C168C016CEF74E00E94E5156AE0C8011E
:1025A0000E941C168C0160EF74E00E94E5156AE041
:1025B000C8010E941C168C016AEE74E00E94E515A9
:1025C00066E0C8010E941C166AE0CE010E941C163B
:1025D0008C0169ED74E00E94E5156AE0C8010E9473
:1025E0001C168C016DEC74E00E94E5156AE0C801D0
:1025F0000E941C168C0167EC74E00E94E51566E0F1
:10260000C8010E941C1680910431909105310097F9
:1026100019F0BE010E9492120E94E50C0E94E30F85
:10262000182F6AE0CE010E941C16EC016CEB74E0DE
:102630000E94E515612FCE010E9402176AE00E94F8
:102640001C16EC016AEB74E00E94E51564E670E08C
:10265000CE010E948C166AE00E941C16EC0167EB0A
:1026600074E00E94E51566E0CE010E941C16DF9121
:10267000CF911F910F9108950F93CF93DF931F92E6
:10268000CDB7DEB700E02FEF3FEFA901BE016F5FCE
:102690007F4FFC01808591850E94640A813019F486
:1026A000898190E002C08FEF9FEF0F90DF91CF9173
:1026B0000F910895FC01808591850E94280B91E07F
:1026C000811101C090E0892F08950F93CF93DF937C
:1026D0001F92CDB7DEB76983FC012285338544851F
:1026E000558500E0BE016F5F7F4F808591850E9418
:1026F000C90991E0811101C090E0892F0F90DF910D
:10270000CF910F9108958F929F92BF92CF92DF92B7
:10271000EF92FF920F931F93CF93DF93EC01B62EAE
:102720004A01680179010E94D71587E290E2888307
:1027300099838E869F8640E061E08B2D0E949B09E5
:1027400088879987CA86DB86EC86FD86DF91CF91E4
:102750001F910F91FF90EF90DF90CF90BF909F90CF
:102760008F900895CF92DF92EF92FF92CF93DF93F5
:10277000EC01688179818A819B810F2EF8EECF2E42
:10278000F3E0DF2EE12CF12CF02DA70196010E9441
:10279000D81B9B01AC0160E472E48FE090E00E94E2
:1027A000C81BA70196010E94D81B69017A01AC8160
:1027B000BD8120E432E44FE050E00E94311C20E073
:1027C00038E448EE51E00E94D81BC701B601620F01
:1027D000731F841F951FDF91CF91FF90EF90DF90C3
:1027E000CF900895CF92DF92EF92FF920F931F93B5
:1027F000CF93DF93CDB7DEB72F97CDBFDEBF6C0190
:102800008B01DB016D917D918D919C9128EE33E0E0
:1028100040E050E00E94D81BBA01A901C6010E9405
:10282000C016D601ED91FC910280F381E02D6EE29D
:10283000C6011995C8010E94B2138E01095F1F4F8E
:10284000FE0131967F012AE030E040E050E00E9436
:10285000FA1BE62F288739874A875B876885798541
:102860008A859B8520E32E0FD8012E938D01AE150E
:10287000BF0549F71F82BE016F5F7F4FC6010E94EF
:10288000E515C6012F96CDBFDEBFDF91CF911F9119
:102890000F91FF90EF90DF90CF900895CF93DF934B
:1028A000EC010FB6F8940F928091200890912108C6
:1028B0008C839D830E94CF0C688379838A839B835A
:1028C0000F900FBECE01DF91CF9108955F926F926E
:1028D0007F928F929F92AF92BF92CF92DF92EF92B0
:1028E000FF920F931F93CF93DF935C014B017A010B
:1028F000122F702E63E0CA010E941C16A814B9049E
:1029000008F07DC0650184E1C80ED11C00E06A2C8E
:102910005B2CB501C7010E948C166AE00E941C1650
:1029200069E375E00E94E515112309F46DC00023E9
:1029300009F46AC06AE0C7010E941C1664E375E0EE
:102940000E94E51561C0112371F001110CC088814E
:10295000871549F06AE0C7010E941C166FE275E016
:102960000E94E51501E06991C7010E940217DC0190
:10297000ED91FC910280F381E02D60E21995CC1677
:10298000DD0609F7112389F06AE0C7010E941C16D1
:10299000EC0169E275E00E94E515E881F9810280A9
:1029A000F381E02D60E2CE011995C62DD52D6991F8
:1029B00080EE860F8F3548F4D701ED91FC910280AF
:1029C000F381E02DC701199509C0D701ED91FC9164
:1029D0000280F381E02D6EE2C7011995CC16DD0669
:1029E00031F7B4E1AB0EB11C66E0C7010E941C16C2
:1029F00084E1C80ED11CA814B90408F488CF62E0A1
:102A0000C7010E941C1603C0C62DD52D9CCFDF9197
:102A1000CF911F910F91FF90EF90DF90CF90BF90DB
:102A2000AF909F908F907F906F905F9008950E94DD
:102A3000B30508950E94B30508950895CF93DF93D9
:102A4000FC01DA01403A68E0560749F480E496E078
:102A50008283938382E0848383E085834CC0403B00
:102A600078E0570749F480E496E08283938386E018
:102A7000848387E085833FC0403A89E0580749F462
:102A800080E696E08283938382E0848383E085837B
:102A900032C0403B69E0560749F480E696E0828305
:102AA000938386E0848387E0858325C0403A7AE07B
:102AB000570749F480E896E08283938382E0848319
:102AC00083E0858318C0403B8AE0580749F480E8DA
:102AD00096E08283938386E0848387E085830BC0BE
:102AE000403A5B4041F480EA96E08283938382E03F
:102AF000848383E08583A683B783CD010196808795
:102B000091870396828793872581C281D3814C81E7
:102B100081E090E0BC0102C0660F771F2A95E2F7C2
:102B20009B01242B2C832581C281D3814881BC0148
:102B300002C0660F771F2A95E2F79B01242B28839A
:102B40003481C281D381288102C0880F991F3A95B0
:102B5000E2F7809590958223888380E113968C9389
:102B6000139783E015968C93159780EF17968C93A7
:102B7000179781E216968C93169788E114968C939A
:102B800080E8858780E4868780E284870680F781F5
:102B9000E02D80818081DF91CF91089581E00895BB
:102BA00080E090E0089580E0089508950895FC0184
:102BB00087E390E2808391838AE08283138283E0BB
:102BC000858314821682178208950F931F93CF93E3
:102BD000DF938C01FB01DC0114968C91811104C000
:102BE0006081611117C023C0D80114961C92EB01BB
:102BF000219664916623D9F0D801ED91FC91028071
:102C0000F381E02DC8011995FE01649121966111AF
:102C1000F3CF0DC0EF012196D801ED91FC91028018
:102C2000F381E02DC801199569916111F5CFDF910C
:102C3000CF911F910F910895CF93DF93EC01862FD1
:102C400090E08B309105D8F5FC018827E250FF4FCA
:102C50008F4F0C94191C82E08A8331C088E08A83EC
:102C60002EC08AE08A832BC080E18A8328C081E05D
:102C70008B8325C01B8223C0E881F9810280F38108
:102C8000E02D6DE0CE011995E881F9810280F38194
:102C9000E02D6AE0CE01199512C0E881F981028425
:102CA000F385E02DCE0119950AC0E881F9810084F1
:102CB000F185E02DCE01199502C081E08C83CE0113
:102CC000DF91CF9108950F931F93CF93DF93CDB7EB
:102CD000DEB76197CDBFDEBF8C019B01FC01928105
:102CE0009A3021F0C8010E948C160DC04AE0BE0146
:102CF0006F5F7F4FC9010E945B1CBE016F5F7F4FFA
:102D0000C8010E94E515C8016196CDBFDEBFDF9105
:102D1000CF911F910F910895FF920F931F93CF931F
:102D2000DF93CDB7DEB76197CDBFDEBF8C01F62E46
:102D3000972FF8014281403121F0483011F04230A4
:102D400041F4692FC8010E9402176F2D0E940217DB
:102D50000DC050E0BE016F5F7F4F8F2D0E94931C0E
:102D6000BE016F5F7F4FC8010E94E515C8016196E3
:102D7000CDBFDEBFDF91CF911F910F91FF900895DE
:102D8000DF92EF92FF920F931F93CF93DF93CDB714
:102D9000DEB7A197CDBFDEBF8C01D42EE52EF62E77
:102DA000972FF8012281203121F0283011F02230B4
:102DB00071F4692FC8010E9402176F2D0E9402173B
:102DC0006E2D0E9402176D2D0E9402170FC030E079
:102DD000AE014F5F5F4F6D2D7E2D8F2D0E94661CC3
:102DE000BE016F5F7F4FC8010E94E515C801A19623
:102DF000CDBFDEBFDF91CF911F910F91FF90EF907C
:102E0000DF900895CF92DF92EF92FF920F931F937E
:102E1000CF93DF93CDB7DEB72997CDBFDEBF8C014F
:102E2000E62EDC0113968C911397882341F0ED91E7
:102E3000FC910280F381E02DC801199556C0F8017C
:102E40004281423019F56894CC24C3F8D12C68949F
:102E5000FF24F7F88E2D8F2151F0D801ED91FC91D0
:102E60000280F381E02D61E3C801199509C0D80102
:102E7000ED91FC910280F381E02D60E3C80119958A
:102E8000F694B1E0CB1AD10829F72FC04031F9F4FC
:102E900062956F700190F081E02D0280F381E02D4A
:102EA0006A3010F0695C01C0605DC80119956E2D33
:102EB0006F70D801ED91FC910280F381E02D6A30B2
:102EC00010F0695C01C0605DC80119950EC050E04A
:102ED000BE016F5F7F4F8E2D90E00E94931CBE015C
:102EE0006F5F7F4FC8010E94E515C8012996CDBFCD
:102EF000DEBFDF91CF911F910F91FF90EF90DF9098
:102F0000CF900895DC015096ED91FC91519780810E
:102F100054964C915497842329F009C021503109CB
:102F200019F412C021E23EE490819423B9F3908118
:102F300056968C915697892B80831E96ED91FC9125
:102F40001F97608381E0089580E00895CF93DF9319
:102F5000FC01C18DD28D28813981A38DB48D4D9115
:102F60005C9124173507E9F3A789B08D0D90BC91CA
:102F7000A02DA20FB31F8C912F5F3F4F2883398361
:102F80002436310528F0018CF28DE02D108211825B
:102F900090E0DF91CF910895CF93DF93EC01A98D5D
:102FA000BA8DEB8DFC8D81E04D915C91208131815A
:102FB0004217530709F480E0DF91CF910895DC01B7
:102FC000ED91FC910280F381E02D6CE0199508955C
:102FD000EF92FF920F931F93CF93DF93EC017B014E
:102FE0008A010E94D715A801B701CE0108960E9458
:102FF0001E1587E490E288839983003A88E01807D9
:1030000069F48EE291E38F8B988F80E291E3898F50
:103010009A8F82E191E38B8F9C8F64C0003BE8E044
:103020001E0769F48CE291E38F8B988F8EE191E318
:10303000898F9A8F80E191E38B8F9C8F53C0003AE8
:10304000F9E01F0769F48AE291E38F8B988F8CE196
:1030500091E3898F9A8F8EE091E38B8F9C8F42C092
:10306000003B89E0180769F488E291E38F8B988F21
:103070008AE191E3898F9A8F8CE091E38B8F9C8F0B
:1030800031C0003AEAE01E0769F486E291E38F8BD3
:10309000988F88E191E3898F9A8F8AE091E38B8FF3
:1030A0009C8F20C0003BFAE01F0769F484E291E3A3
:1030B0008F8B988F86E191E3898F9A8F88E091E3D7
:1030C0008B8F9C8F0FC0003A1B4061F482E291E32A
:1030D0008F8B988F84E191E3898F9A8F86E091E3BB
:1030E0008B8F9C8F0F89188D84E690E00E941A15B3
:1030F000F80180839183E98DFA8D10821182EB8D26
:10310000FC8D10821182DF91CF911F910F91FF9062
:10311000EF9008951F920F920FB60F92112408B6E8
:103120000F9218BE0BB60F921BBE2F933F938F9337
:103130009F93EF93FF932091A008E0912E31F0919F
:103140002F318091123190911331E80FF91F2083B4
:10315000809112319091133101968436910560F47B
:10316000809312319093133120912031309121318D
:1031700082179307F1F40CC01092123110921331A0
:1031800080912031909121311816190691F40EC0CA
:1031900001968436910528F4809320319093213153
:1031A00008C0109220311092213103C081E090E0DC
:1031B000F3CFFF91EF919F918F913F912F910F90BE
:1031C0000BBE0F9008BE0F900FBE0F901F9018956A
:1031D0001F920F920FB60F92112408B60F9218BECD
:1031E0000BB60F921BBE2F933F938F939F93EF933A
:1031F000FF932091B008E0912C31F0912D31809116
:10320000103190911131E80FF91F20838091103116
:103210009091113101968436910560F480931031BC
:103220009093113120911E3130911F3182179307F5
:10323000F1F40CC0109210311092113180911E31B6
:1032400090911F311816190691F40EC0019684361C
:10325000910528F480931E3190931F3108C010927D
:103260001E3110921F3103C081E090E0F3CFFF9137
:10327000EF919F918F913F912F910F900BBE0F90E7
:1032800008BE0F900FBE0F901F9018951F920F92BF
:103290000FB60F92112408B60F9218BE0BB60F92FC
:1032A0001BBE2F933F938F939F93EF93FF93209198
:1032B000A009E0912A31F0912B3180911231909147
:1032C0001331E80FF91F208380910E3190910F3157
:1032D00001968436910560F480930E3190930F31FE
:1032E00020911C3130911D3182179307F1F40CC0ED
:1032F00010920E3110920F3180911C3190911D313E
:103300001816190691F40EC001968436910528F41A
:1033100080931C3190931D3108C010921C31109283
:103320001D3103C081E090E0F3CFFF91EF919F91B9
:103330008F913F912F910F900BBE0F9008BE0F9071
:103340000FBE0F901F9018951F920F920FB60F92FD
:10335000112408B60F9218BE0BB60F921BBE2F9306
:103360003F938F939F93EF93FF932091B009E09148
:103370002831F091293180910C3190910D31E80F75
:10338000F91F208380910C3190910D310196843684
:10339000910560F480930C3190930D3120911A3196
:1033A00030911B3182179307F1F40CC010920C314D
:1033B00010920D3180911A3190911B311816190617
:1033C00091F40EC001968436910528F480931A3149
:1033D00090931B3108C010921A3110921B3103C018
:1033E00081E090E0F3CFFF91EF919F918F913F911A
:1033F0002F910F900BBE0F9008BE0F900FBE0F9035
:103400001F9018951F920F920FB60F92112408B6B5
:103410000F9218BE0BB60F921BBE2F933F938F9344
:103420009F93EF93FF932091A00AE0912631F091B2
:10343000273180910A3190910B31E80FF91F2083D9
:1034400080910A3190910B3101968436910560F498
:1034500080930A3190930B312091183130911931BA
:1034600082179307F1F40CC010920A3110920B31BD
:1034700080911831909119311816190691F40EC0E7
:1034800001968436910528F4809318319093193170
:1034900008C0109218311092193103C081E090E0F9
:1034A000F3CFFF91EF919F918F913F912F910F90CB
:1034B0000BBE0F9008BE0F900FBE0F901F90189577
:1034C0001F920F920FB60F92112408B60F9218BEDA
:1034D0000BB60F921BBE2F933F938F939F93EF9347
:1034E000FF932091B00AE0912431F0912531809131
:1034F000083190910931E80FF91F2083809108313C
:103500009091093101968436910560F480930831D9
:10351000909309312091163130911731821793071A
:10352000F1F40CC0109208311092093180911631DB
:10353000909117311816190691F40EC00196843631
:10354000910528F4809316319093173108C010929A
:1035500016311092173103C081E090E0F3CFFF9154
:10356000EF919F918F913F912F910F900BBE0F90F4
:1035700008BE0F900FBE0F901F9018951F920F92CC
:103580000FB60F92112408B60F9218BE0BB60F9209
:103590001BBE2F933F938F939F93EF93FF932091A5
:1035A000A00BE0912231F09123318091063190916E
:1035B0000731E80FF91F2083809106319091073180
:1035C00001968436910560F480930631909307311B
:1035D000209114313091153182179307F1F40CC00A
:1035E000109206311092073180911431909115316B
:1035F0001816190691F40EC001968436910528F428
:10360000809314319093153108C0109214311092A8
:10361000153103C081E090E0F3CFFF91EF919F91CE
:103620008F913F912F910F900BBE0F9008BE0F907E
:103630000FBE0F901F9018950F93CF93DF931F929B
:10364000CDB7DEB72FB72983F8941BBEFC0108ED78
:1036500004BF608389818FBF0F90DF91CF910F915D
:1036600008950F931F93CF93DF93CDB7DEB76D9778
:10367000CDBFDEBFF894E0E5F0E08081826080831A
:10368000818181FFFDCF60914000687F616080E4AF
:1036900090E00E941C1BE0E5F0E080818E7F80833B
:1036A0009DEF88ED08B618BE84BF9093800008BED9
:1036B00040EA58E060E070E0CE0101960E94E81711
:1036C00067E0CE0101960E941C168C0163E570E252
:1036D0000E94E51566E0C8010E941C1666E00E9483
:1036E0001C1682E190E00E9417158E010F5F1F4F9C
:1036F00024E031E040E062E770E20E94430382E1AF
:1037000090E00E94171524E031E041E06AE770E2A2
:103710000E9433030FB6F8940F920091303110914C
:1037200031310F900FBE61E870E2CE0101960E9428
:10373000E515B801CE0101960E9463168C0163E97C
:1037400070E20E94E51566E0C8010E941C1687E041
:103750008093A20078940E94960C80E090E06D9691
:10376000CDBFDEBFDF91CF911F910F9108950F93D1
:103770001F930AE010E020E030E040E050E060E21B
:1037800070E082E391E30E9483131F910F910895EB
:10379000DB018F939F930E94311CBF91AF91A29F39
:1037A000800D911DA39F900DB29F900D112408953F
:1037B000A1E21A2EAA1BBB1BFD010DC0AA1FBB1F35
:1037C000EE1FFF1FA217B307E407F50720F0A21BA7
:1037D000B30BE40BF50B661F771F881F991F1A9414
:1037E00069F760957095809590959B01AC01BD013E
:1037F000CF010895052E97FB1EF400940E94111C22
:1038000057FD07D00E94D81B07FC03D04EF40C9440
:10381000111C50954095309521953F4F4F4F5F4F6C
:10382000089590958095709561957F4F8F4F9F4F2C
:103830000895EE0FFF1F881F8BBF0790F691E02DB4
:103840001BBE1994A29FB001B39FC001A39F700D2E
:10385000811D1124911DB29F700D811D1124911D98
:1038600008950E94221CA59F900DB49F900DA49FC7
:10387000800D911D11240895FB01DC0102C001900F
:103880000D9241505040D8F70895DC0101C06D936E
:1038900041505040E0F70895FB01DC014150504099
:1038A00048F001900D920020C9F701C01D924150CF
:1038B0005040E0F70895BB274A3031F4992322F4B1
:1038C000BDE2909581959F4F0C949F1C2532310548
:1038D00020F4223010F00C94711CFA011082CA01FD
:1038E0000895BB27FA01A62F62177105810591057E
:1038F000330B30FB66F0AA27660F771F881F991FCE
:10390000AA1FA21710F0A21B63953850A9F7A05D5B
:10391000AA3308F0A95DA19336F7B111B1931082D3
:10392000CA010C94B81C4532510520F4423010F005
:103930000C949E1CFB011082CB010895BB27FB0158
:103940005527AA27880F991FAA1FA41710F0A41B98
:1039500083955051B9F7A05DAA3308F0A95DA193F2
:10396000009779F7B111B1931192CB010C94B81C67
:10397000DC01FC01672F71917723E1F7329704C0D6
:103980007C916D9370836291AE17BF07C8F3089561
:04399000F894FFCFD9
:10399400FF0FFFFFFFFF00000000D902F21100003B
:1039A40000008604F21149444C4500000000001D4B
:1039B40015F21100000000CE1565135A133C13D5FF
:1039C40015D61500000000CE151D15D315D015D53C
:1039D40015D61500000000CE158217CC17A617D5F2
:1039E40015DF174672656552544F5320584D4547AD
:1039F400412054657374696E672050726F677261F9
:103A04006D0055736572496E7400456E634D747232
:103A1400004C696E65617220506F736974696F6ED2
:0A3A24003A2000205B6D6D5D00008C
:00000001FF
